
code-stm32f746.elf:     file format elf32-littlearm

Sections:
Idx Name          Size      VMA       LMA       File off  Algn
  0 .isr_vector   000001c8  08000000  08000000  00010000  2**0
                  CONTENTS, ALLOC, LOAD, READONLY, DATA
  1 .text         00002830  080001c8  080001c8  000101c8  2**2
                  CONTENTS, ALLOC, LOAD, READONLY, CODE
  2 .rodata       00000018  080029f8  080029f8  000129f8  2**2
                  CONTENTS, ALLOC, LOAD, READONLY, DATA
  3 .ARM.extab    00000000  08002a10  08002a10  0002000c  2**0
                  CONTENTS
  4 .ARM          00000008  08002a10  08002a10  00012a10  2**2
                  CONTENTS, ALLOC, LOAD, READONLY, DATA
  5 .preinit_array 00000000  08002a18  08002a18  0002000c  2**0
                  CONTENTS, ALLOC, LOAD, DATA
  6 .init_array   00000004  08002a18  08002a18  00012a18  2**2
                  CONTENTS, ALLOC, LOAD, DATA
  7 .fini_array   00000004  08002a1c  08002a1c  00012a1c  2**2
                  CONTENTS, ALLOC, LOAD, DATA
  8 .data         0000000c  20000000  08002a20  00020000  2**2
                  CONTENTS, ALLOC, LOAD, DATA
  9 .bss          000000a0  2000000c  08002a2c  0002000c  2**2
                  ALLOC
 10 ._user_heap_stack 00000604  200000ac  08002a2c  000200ac  2**0
                  ALLOC
 11 .ARM.attributes 00000030  00000000  00000000  0002000c  2**0
                  CONTENTS, READONLY
 12 .debug_info   0000787b  00000000  00000000  0002003c  2**0
                  CONTENTS, READONLY, DEBUGGING
 13 .debug_abbrev 000013f0  00000000  00000000  000278b7  2**0
                  CONTENTS, READONLY, DEBUGGING
 14 .debug_aranges 000006f0  00000000  00000000  00028ca8  2**3
                  CONTENTS, READONLY, DEBUGGING
 15 .debug_ranges 00000638  00000000  00000000  00029398  2**3
                  CONTENTS, READONLY, DEBUGGING
 16 .debug_macro  000233b5  00000000  00000000  000299d0  2**0
                  CONTENTS, READONLY, DEBUGGING
 17 .debug_line   00006302  00000000  00000000  0004cd85  2**0
                  CONTENTS, READONLY, DEBUGGING
 18 .debug_str    000dcbac  00000000  00000000  00053087  2**0
                  CONTENTS, READONLY, DEBUGGING
 19 .comment      0000007b  00000000  00000000  0012fc33  2**0
                  CONTENTS, READONLY
 20 .debug_frame  00001aec  00000000  00000000  0012fcb0  2**2
                  CONTENTS, READONLY, DEBUGGING

Disassembly of section .text:

080001c8 <__do_global_dtors_aux>:
 80001c8:	b510      	push	{r4, lr}
 80001ca:	4c05      	ldr	r4, [pc, #20]	; (80001e0 <__do_global_dtors_aux+0x18>)
 80001cc:	7823      	ldrb	r3, [r4, #0]
 80001ce:	b933      	cbnz	r3, 80001de <__do_global_dtors_aux+0x16>
 80001d0:	4b04      	ldr	r3, [pc, #16]	; (80001e4 <__do_global_dtors_aux+0x1c>)
 80001d2:	b113      	cbz	r3, 80001da <__do_global_dtors_aux+0x12>
 80001d4:	4804      	ldr	r0, [pc, #16]	; (80001e8 <__do_global_dtors_aux+0x20>)
 80001d6:	f3af 8000 	nop.w
 80001da:	2301      	movs	r3, #1
 80001dc:	7023      	strb	r3, [r4, #0]
 80001de:	bd10      	pop	{r4, pc}
 80001e0:	2000000c 	.word	0x2000000c
 80001e4:	00000000 	.word	0x00000000
 80001e8:	080029e0 	.word	0x080029e0

080001ec <frame_dummy>:
 80001ec:	b508      	push	{r3, lr}
 80001ee:	4b03      	ldr	r3, [pc, #12]	; (80001fc <frame_dummy+0x10>)
 80001f0:	b11b      	cbz	r3, 80001fa <frame_dummy+0xe>
 80001f2:	4903      	ldr	r1, [pc, #12]	; (8000200 <frame_dummy+0x14>)
 80001f4:	4803      	ldr	r0, [pc, #12]	; (8000204 <frame_dummy+0x18>)
 80001f6:	f3af 8000 	nop.w
 80001fa:	bd08      	pop	{r3, pc}
 80001fc:	00000000 	.word	0x00000000
 8000200:	20000010 	.word	0x20000010
 8000204:	080029e0 	.word	0x080029e0

08000208 <__aeabi_uldivmod>:
 8000208:	b953      	cbnz	r3, 8000220 <__aeabi_uldivmod+0x18>
 800020a:	b94a      	cbnz	r2, 8000220 <__aeabi_uldivmod+0x18>
 800020c:	2900      	cmp	r1, #0
 800020e:	bf08      	it	eq
 8000210:	2800      	cmpeq	r0, #0
 8000212:	bf1c      	itt	ne
 8000214:	f04f 31ff 	movne.w	r1, #4294967295	; 0xffffffff
 8000218:	f04f 30ff 	movne.w	r0, #4294967295	; 0xffffffff
 800021c:	f000 b972 	b.w	8000504 <__aeabi_idiv0>
 8000220:	f1ad 0c08 	sub.w	ip, sp, #8
 8000224:	e96d ce04 	strd	ip, lr, [sp, #-16]!
 8000228:	f000 f806 	bl	8000238 <__udivmoddi4>
 800022c:	f8dd e004 	ldr.w	lr, [sp, #4]
 8000230:	e9dd 2302 	ldrd	r2, r3, [sp, #8]
 8000234:	b004      	add	sp, #16
 8000236:	4770      	bx	lr

08000238 <__udivmoddi4>:
 8000238:	e92d 47f0 	stmdb	sp!, {r4, r5, r6, r7, r8, r9, sl, lr}
 800023c:	9e08      	ldr	r6, [sp, #32]
 800023e:	4604      	mov	r4, r0
 8000240:	4688      	mov	r8, r1
 8000242:	2b00      	cmp	r3, #0
 8000244:	d14b      	bne.n	80002de <__udivmoddi4+0xa6>
 8000246:	428a      	cmp	r2, r1
 8000248:	4615      	mov	r5, r2
 800024a:	d967      	bls.n	800031c <__udivmoddi4+0xe4>
 800024c:	fab2 f282 	clz	r2, r2
 8000250:	b14a      	cbz	r2, 8000266 <__udivmoddi4+0x2e>
 8000252:	f1c2 0720 	rsb	r7, r2, #32
 8000256:	fa01 f302 	lsl.w	r3, r1, r2
 800025a:	fa20 f707 	lsr.w	r7, r0, r7
 800025e:	4095      	lsls	r5, r2
 8000260:	ea47 0803 	orr.w	r8, r7, r3
 8000264:	4094      	lsls	r4, r2
 8000266:	ea4f 4e15 	mov.w	lr, r5, lsr #16
 800026a:	0c23      	lsrs	r3, r4, #16
 800026c:	fbb8 f7fe 	udiv	r7, r8, lr
 8000270:	fa1f fc85 	uxth.w	ip, r5
 8000274:	fb0e 8817 	mls	r8, lr, r7, r8
 8000278:	ea43 4308 	orr.w	r3, r3, r8, lsl #16
 800027c:	fb07 f10c 	mul.w	r1, r7, ip
 8000280:	4299      	cmp	r1, r3
 8000282:	d909      	bls.n	8000298 <__udivmoddi4+0x60>
 8000284:	18eb      	adds	r3, r5, r3
 8000286:	f107 30ff 	add.w	r0, r7, #4294967295	; 0xffffffff
 800028a:	f080 811b 	bcs.w	80004c4 <__udivmoddi4+0x28c>
 800028e:	4299      	cmp	r1, r3
 8000290:	f240 8118 	bls.w	80004c4 <__udivmoddi4+0x28c>
 8000294:	3f02      	subs	r7, #2
 8000296:	442b      	add	r3, r5
 8000298:	1a5b      	subs	r3, r3, r1
 800029a:	b2a4      	uxth	r4, r4
 800029c:	fbb3 f0fe 	udiv	r0, r3, lr
 80002a0:	fb0e 3310 	mls	r3, lr, r0, r3
 80002a4:	ea44 4403 	orr.w	r4, r4, r3, lsl #16
 80002a8:	fb00 fc0c 	mul.w	ip, r0, ip
 80002ac:	45a4      	cmp	ip, r4
 80002ae:	d909      	bls.n	80002c4 <__udivmoddi4+0x8c>
 80002b0:	192c      	adds	r4, r5, r4
 80002b2:	f100 33ff 	add.w	r3, r0, #4294967295	; 0xffffffff
 80002b6:	f080 8107 	bcs.w	80004c8 <__udivmoddi4+0x290>
 80002ba:	45a4      	cmp	ip, r4
 80002bc:	f240 8104 	bls.w	80004c8 <__udivmoddi4+0x290>
 80002c0:	3802      	subs	r0, #2
 80002c2:	442c      	add	r4, r5
 80002c4:	ea40 4007 	orr.w	r0, r0, r7, lsl #16
 80002c8:	eba4 040c 	sub.w	r4, r4, ip
 80002cc:	2700      	movs	r7, #0
 80002ce:	b11e      	cbz	r6, 80002d8 <__udivmoddi4+0xa0>
 80002d0:	40d4      	lsrs	r4, r2
 80002d2:	2300      	movs	r3, #0
 80002d4:	e9c6 4300 	strd	r4, r3, [r6]
 80002d8:	4639      	mov	r1, r7
 80002da:	e8bd 87f0 	ldmia.w	sp!, {r4, r5, r6, r7, r8, r9, sl, pc}
 80002de:	428b      	cmp	r3, r1
 80002e0:	d909      	bls.n	80002f6 <__udivmoddi4+0xbe>
 80002e2:	2e00      	cmp	r6, #0
 80002e4:	f000 80eb 	beq.w	80004be <__udivmoddi4+0x286>
 80002e8:	2700      	movs	r7, #0
 80002ea:	e9c6 0100 	strd	r0, r1, [r6]
 80002ee:	4638      	mov	r0, r7
 80002f0:	4639      	mov	r1, r7
 80002f2:	e8bd 87f0 	ldmia.w	sp!, {r4, r5, r6, r7, r8, r9, sl, pc}
 80002f6:	fab3 f783 	clz	r7, r3
 80002fa:	2f00      	cmp	r7, #0
 80002fc:	d147      	bne.n	800038e <__udivmoddi4+0x156>
 80002fe:	428b      	cmp	r3, r1
 8000300:	d302      	bcc.n	8000308 <__udivmoddi4+0xd0>
 8000302:	4282      	cmp	r2, r0
 8000304:	f200 80fa 	bhi.w	80004fc <__udivmoddi4+0x2c4>
 8000308:	1a84      	subs	r4, r0, r2
 800030a:	eb61 0303 	sbc.w	r3, r1, r3
 800030e:	2001      	movs	r0, #1
 8000310:	4698      	mov	r8, r3
 8000312:	2e00      	cmp	r6, #0
 8000314:	d0e0      	beq.n	80002d8 <__udivmoddi4+0xa0>
 8000316:	e9c6 4800 	strd	r4, r8, [r6]
 800031a:	e7dd      	b.n	80002d8 <__udivmoddi4+0xa0>
 800031c:	b902      	cbnz	r2, 8000320 <__udivmoddi4+0xe8>
 800031e:	deff      	udf	#255	; 0xff
 8000320:	fab2 f282 	clz	r2, r2
 8000324:	2a00      	cmp	r2, #0
 8000326:	f040 808f 	bne.w	8000448 <__udivmoddi4+0x210>
 800032a:	1b49      	subs	r1, r1, r5
 800032c:	ea4f 4e15 	mov.w	lr, r5, lsr #16
 8000330:	fa1f f885 	uxth.w	r8, r5
 8000334:	2701      	movs	r7, #1
 8000336:	fbb1 fcfe 	udiv	ip, r1, lr
 800033a:	0c23      	lsrs	r3, r4, #16
 800033c:	fb0e 111c 	mls	r1, lr, ip, r1
 8000340:	ea43 4301 	orr.w	r3, r3, r1, lsl #16
 8000344:	fb08 f10c 	mul.w	r1, r8, ip
 8000348:	4299      	cmp	r1, r3
 800034a:	d907      	bls.n	800035c <__udivmoddi4+0x124>
 800034c:	18eb      	adds	r3, r5, r3
 800034e:	f10c 30ff 	add.w	r0, ip, #4294967295	; 0xffffffff
 8000352:	d202      	bcs.n	800035a <__udivmoddi4+0x122>
 8000354:	4299      	cmp	r1, r3
 8000356:	f200 80cd 	bhi.w	80004f4 <__udivmoddi4+0x2bc>
 800035a:	4684      	mov	ip, r0
 800035c:	1a59      	subs	r1, r3, r1
 800035e:	b2a3      	uxth	r3, r4
 8000360:	fbb1 f0fe 	udiv	r0, r1, lr
 8000364:	fb0e 1410 	mls	r4, lr, r0, r1
 8000368:	ea43 4404 	orr.w	r4, r3, r4, lsl #16
 800036c:	fb08 f800 	mul.w	r8, r8, r0
 8000370:	45a0      	cmp	r8, r4
 8000372:	d907      	bls.n	8000384 <__udivmoddi4+0x14c>
 8000374:	192c      	adds	r4, r5, r4
 8000376:	f100 33ff 	add.w	r3, r0, #4294967295	; 0xffffffff
 800037a:	d202      	bcs.n	8000382 <__udivmoddi4+0x14a>
 800037c:	45a0      	cmp	r8, r4
 800037e:	f200 80b6 	bhi.w	80004ee <__udivmoddi4+0x2b6>
 8000382:	4618      	mov	r0, r3
 8000384:	eba4 0408 	sub.w	r4, r4, r8
 8000388:	ea40 400c 	orr.w	r0, r0, ip, lsl #16
 800038c:	e79f      	b.n	80002ce <__udivmoddi4+0x96>
 800038e:	f1c7 0c20 	rsb	ip, r7, #32
 8000392:	40bb      	lsls	r3, r7
 8000394:	fa22 fe0c 	lsr.w	lr, r2, ip
 8000398:	ea4e 0e03 	orr.w	lr, lr, r3
 800039c:	fa01 f407 	lsl.w	r4, r1, r7
 80003a0:	fa20 f50c 	lsr.w	r5, r0, ip
 80003a4:	fa21 f30c 	lsr.w	r3, r1, ip
 80003a8:	ea4f 481e 	mov.w	r8, lr, lsr #16
 80003ac:	4325      	orrs	r5, r4
 80003ae:	fbb3 f9f8 	udiv	r9, r3, r8
 80003b2:	0c2c      	lsrs	r4, r5, #16
 80003b4:	fb08 3319 	mls	r3, r8, r9, r3
 80003b8:	fa1f fa8e 	uxth.w	sl, lr
 80003bc:	ea44 4303 	orr.w	r3, r4, r3, lsl #16
 80003c0:	fb09 f40a 	mul.w	r4, r9, sl
 80003c4:	429c      	cmp	r4, r3
 80003c6:	fa02 f207 	lsl.w	r2, r2, r7
 80003ca:	fa00 f107 	lsl.w	r1, r0, r7
 80003ce:	d90b      	bls.n	80003e8 <__udivmoddi4+0x1b0>
 80003d0:	eb1e 0303 	adds.w	r3, lr, r3
 80003d4:	f109 30ff 	add.w	r0, r9, #4294967295	; 0xffffffff
 80003d8:	f080 8087 	bcs.w	80004ea <__udivmoddi4+0x2b2>
 80003dc:	429c      	cmp	r4, r3
 80003de:	f240 8084 	bls.w	80004ea <__udivmoddi4+0x2b2>
 80003e2:	f1a9 0902 	sub.w	r9, r9, #2
 80003e6:	4473      	add	r3, lr
 80003e8:	1b1b      	subs	r3, r3, r4
 80003ea:	b2ad      	uxth	r5, r5
 80003ec:	fbb3 f0f8 	udiv	r0, r3, r8
 80003f0:	fb08 3310 	mls	r3, r8, r0, r3
 80003f4:	ea45 4403 	orr.w	r4, r5, r3, lsl #16
 80003f8:	fb00 fa0a 	mul.w	sl, r0, sl
 80003fc:	45a2      	cmp	sl, r4
 80003fe:	d908      	bls.n	8000412 <__udivmoddi4+0x1da>
 8000400:	eb1e 0404 	adds.w	r4, lr, r4
 8000404:	f100 33ff 	add.w	r3, r0, #4294967295	; 0xffffffff
 8000408:	d26b      	bcs.n	80004e2 <__udivmoddi4+0x2aa>
 800040a:	45a2      	cmp	sl, r4
 800040c:	d969      	bls.n	80004e2 <__udivmoddi4+0x2aa>
 800040e:	3802      	subs	r0, #2
 8000410:	4474      	add	r4, lr
 8000412:	ea40 4009 	orr.w	r0, r0, r9, lsl #16
 8000416:	fba0 8902 	umull	r8, r9, r0, r2
 800041a:	eba4 040a 	sub.w	r4, r4, sl
 800041e:	454c      	cmp	r4, r9
 8000420:	46c2      	mov	sl, r8
 8000422:	464b      	mov	r3, r9
 8000424:	d354      	bcc.n	80004d0 <__udivmoddi4+0x298>
 8000426:	d051      	beq.n	80004cc <__udivmoddi4+0x294>
 8000428:	2e00      	cmp	r6, #0
 800042a:	d069      	beq.n	8000500 <__udivmoddi4+0x2c8>
 800042c:	ebb1 050a 	subs.w	r5, r1, sl
 8000430:	eb64 0403 	sbc.w	r4, r4, r3
 8000434:	fa04 fc0c 	lsl.w	ip, r4, ip
 8000438:	40fd      	lsrs	r5, r7
 800043a:	40fc      	lsrs	r4, r7
 800043c:	ea4c 0505 	orr.w	r5, ip, r5
 8000440:	e9c6 5400 	strd	r5, r4, [r6]
 8000444:	2700      	movs	r7, #0
 8000446:	e747      	b.n	80002d8 <__udivmoddi4+0xa0>
 8000448:	f1c2 0320 	rsb	r3, r2, #32
 800044c:	fa20 f703 	lsr.w	r7, r0, r3
 8000450:	4095      	lsls	r5, r2
 8000452:	fa01 f002 	lsl.w	r0, r1, r2
 8000456:	fa21 f303 	lsr.w	r3, r1, r3
 800045a:	ea4f 4e15 	mov.w	lr, r5, lsr #16
 800045e:	4338      	orrs	r0, r7
 8000460:	0c01      	lsrs	r1, r0, #16
 8000462:	fbb3 f7fe 	udiv	r7, r3, lr
 8000466:	fa1f f885 	uxth.w	r8, r5
 800046a:	fb0e 3317 	mls	r3, lr, r7, r3
 800046e:	ea41 4103 	orr.w	r1, r1, r3, lsl #16
 8000472:	fb07 f308 	mul.w	r3, r7, r8
 8000476:	428b      	cmp	r3, r1
 8000478:	fa04 f402 	lsl.w	r4, r4, r2
 800047c:	d907      	bls.n	800048e <__udivmoddi4+0x256>
 800047e:	1869      	adds	r1, r5, r1
 8000480:	f107 3cff 	add.w	ip, r7, #4294967295	; 0xffffffff
 8000484:	d22f      	bcs.n	80004e6 <__udivmoddi4+0x2ae>
 8000486:	428b      	cmp	r3, r1
 8000488:	d92d      	bls.n	80004e6 <__udivmoddi4+0x2ae>
 800048a:	3f02      	subs	r7, #2
 800048c:	4429      	add	r1, r5
 800048e:	1acb      	subs	r3, r1, r3
 8000490:	b281      	uxth	r1, r0
 8000492:	fbb3 f0fe 	udiv	r0, r3, lr
 8000496:	fb0e 3310 	mls	r3, lr, r0, r3
 800049a:	ea41 4103 	orr.w	r1, r1, r3, lsl #16
 800049e:	fb00 f308 	mul.w	r3, r0, r8
 80004a2:	428b      	cmp	r3, r1
 80004a4:	d907      	bls.n	80004b6 <__udivmoddi4+0x27e>
 80004a6:	1869      	adds	r1, r5, r1
 80004a8:	f100 3cff 	add.w	ip, r0, #4294967295	; 0xffffffff
 80004ac:	d217      	bcs.n	80004de <__udivmoddi4+0x2a6>
 80004ae:	428b      	cmp	r3, r1
 80004b0:	d915      	bls.n	80004de <__udivmoddi4+0x2a6>
 80004b2:	3802      	subs	r0, #2
 80004b4:	4429      	add	r1, r5
 80004b6:	1ac9      	subs	r1, r1, r3
 80004b8:	ea40 4707 	orr.w	r7, r0, r7, lsl #16
 80004bc:	e73b      	b.n	8000336 <__udivmoddi4+0xfe>
 80004be:	4637      	mov	r7, r6
 80004c0:	4630      	mov	r0, r6
 80004c2:	e709      	b.n	80002d8 <__udivmoddi4+0xa0>
 80004c4:	4607      	mov	r7, r0
 80004c6:	e6e7      	b.n	8000298 <__udivmoddi4+0x60>
 80004c8:	4618      	mov	r0, r3
 80004ca:	e6fb      	b.n	80002c4 <__udivmoddi4+0x8c>
 80004cc:	4541      	cmp	r1, r8
 80004ce:	d2ab      	bcs.n	8000428 <__udivmoddi4+0x1f0>
 80004d0:	ebb8 0a02 	subs.w	sl, r8, r2
 80004d4:	eb69 020e 	sbc.w	r2, r9, lr
 80004d8:	3801      	subs	r0, #1
 80004da:	4613      	mov	r3, r2
 80004dc:	e7a4      	b.n	8000428 <__udivmoddi4+0x1f0>
 80004de:	4660      	mov	r0, ip
 80004e0:	e7e9      	b.n	80004b6 <__udivmoddi4+0x27e>
 80004e2:	4618      	mov	r0, r3
 80004e4:	e795      	b.n	8000412 <__udivmoddi4+0x1da>
 80004e6:	4667      	mov	r7, ip
 80004e8:	e7d1      	b.n	800048e <__udivmoddi4+0x256>
 80004ea:	4681      	mov	r9, r0
 80004ec:	e77c      	b.n	80003e8 <__udivmoddi4+0x1b0>
 80004ee:	3802      	subs	r0, #2
 80004f0:	442c      	add	r4, r5
 80004f2:	e747      	b.n	8000384 <__udivmoddi4+0x14c>
 80004f4:	f1ac 0c02 	sub.w	ip, ip, #2
 80004f8:	442b      	add	r3, r5
 80004fa:	e72f      	b.n	800035c <__udivmoddi4+0x124>
 80004fc:	4638      	mov	r0, r7
 80004fe:	e708      	b.n	8000312 <__udivmoddi4+0xda>
 8000500:	4637      	mov	r7, r6
 8000502:	e6e9      	b.n	80002d8 <__udivmoddi4+0xa0>

08000504 <__aeabi_idiv0>:
 8000504:	4770      	bx	lr
 8000506:	bf00      	nop

08000508 <HAL_Init>:
  *         need to ensure that the SysTick time base is always set to 1 millisecond
  *         to have correct HAL operation.
  * @retval HAL status
  */
HAL_StatusTypeDef HAL_Init(void)
{
 8000508:	b580      	push	{r7, lr}
 800050a:	af00      	add	r7, sp, #0
#if (PREFETCH_ENABLE != 0U)
  __HAL_FLASH_PREFETCH_BUFFER_ENABLE();
#endif /* PREFETCH_ENABLE */

  /* Set Interrupt Group Priority */
  HAL_NVIC_SetPriorityGrouping(NVIC_PRIORITYGROUP_4);
 800050c:	2003      	movs	r0, #3
 800050e:	f000 f92d 	bl	800076c <HAL_NVIC_SetPriorityGrouping>

  /* Use systick as time base source and configure 1ms tick (default clock after Reset is HSI) */
  HAL_InitTick(TICK_INT_PRIORITY);
 8000512:	2000      	movs	r0, #0
 8000514:	f000 f806 	bl	8000524 <HAL_InitTick>
  
  /* Init the low level hardware */
  HAL_MspInit();
 8000518:	f002 f940 	bl	800279c <HAL_MspInit>
  
  /* Return function status */
  return HAL_OK;
 800051c:	2300      	movs	r3, #0
}
 800051e:	4618      	mov	r0, r3
 8000520:	bd80      	pop	{r7, pc}
	...

08000524 <HAL_InitTick>:
  *       implementation  in user file.
  * @param TickPriority Tick interrupt priority.
  * @retval HAL status
  */
__weak HAL_StatusTypeDef HAL_InitTick(uint32_t TickPriority)
{
 8000524:	b580      	push	{r7, lr}
 8000526:	b082      	sub	sp, #8
 8000528:	af00      	add	r7, sp, #0
 800052a:	6078      	str	r0, [r7, #4]
  /* Configure the SysTick to have interrupt in 1ms time basis*/
  if (HAL_SYSTICK_Config(SystemCoreClock / (1000U / uwTickFreq)) > 0U)
 800052c:	4b12      	ldr	r3, [pc, #72]	; (8000578 <HAL_InitTick+0x54>)
 800052e:	681a      	ldr	r2, [r3, #0]
 8000530:	4b12      	ldr	r3, [pc, #72]	; (800057c <HAL_InitTick+0x58>)
 8000532:	781b      	ldrb	r3, [r3, #0]
 8000534:	4619      	mov	r1, r3
 8000536:	f44f 737a 	mov.w	r3, #1000	; 0x3e8
 800053a:	fbb3 f3f1 	udiv	r3, r3, r1
 800053e:	fbb2 f3f3 	udiv	r3, r2, r3
 8000542:	4618      	mov	r0, r3
 8000544:	f000 f939 	bl	80007ba <HAL_SYSTICK_Config>
 8000548:	4603      	mov	r3, r0
 800054a:	2b00      	cmp	r3, #0
 800054c:	d001      	beq.n	8000552 <HAL_InitTick+0x2e>
  {
    return HAL_ERROR;
 800054e:	2301      	movs	r3, #1
 8000550:	e00e      	b.n	8000570 <HAL_InitTick+0x4c>
  }

  /* Configure the SysTick IRQ priority */
  if (TickPriority < (1UL << __NVIC_PRIO_BITS))
 8000552:	687b      	ldr	r3, [r7, #4]
 8000554:	2b0f      	cmp	r3, #15
 8000556:	d80a      	bhi.n	800056e <HAL_InitTick+0x4a>
  {
    HAL_NVIC_SetPriority(SysTick_IRQn, TickPriority, 0U);
 8000558:	2200      	movs	r2, #0
 800055a:	6879      	ldr	r1, [r7, #4]
 800055c:	f04f 30ff 	mov.w	r0, #4294967295	; 0xffffffff
 8000560:	f000 f90f 	bl	8000782 <HAL_NVIC_SetPriority>
    uwTickPrio = TickPriority;
 8000564:	4a06      	ldr	r2, [pc, #24]	; (8000580 <HAL_InitTick+0x5c>)
 8000566:	687b      	ldr	r3, [r7, #4]
 8000568:	6013      	str	r3, [r2, #0]
  {
    return HAL_ERROR;
  }

  /* Return function status */
  return HAL_OK;
 800056a:	2300      	movs	r3, #0
 800056c:	e000      	b.n	8000570 <HAL_InitTick+0x4c>
    return HAL_ERROR;
 800056e:	2301      	movs	r3, #1
}
 8000570:	4618      	mov	r0, r3
 8000572:	3708      	adds	r7, #8
 8000574:	46bd      	mov	sp, r7
 8000576:	bd80      	pop	{r7, pc}
 8000578:	20000008 	.word	0x20000008
 800057c:	20000004 	.word	0x20000004
 8000580:	20000000 	.word	0x20000000

08000584 <HAL_IncTick>:
 * @note This function is declared as __weak to be overwritten in case of other 
  *      implementations in user file.
  * @retval None
  */
__weak void HAL_IncTick(void)
{
 8000584:	b480      	push	{r7}
 8000586:	af00      	add	r7, sp, #0
  uwTick += uwTickFreq;
 8000588:	4b06      	ldr	r3, [pc, #24]	; (80005a4 <HAL_IncTick+0x20>)
 800058a:	781b      	ldrb	r3, [r3, #0]
 800058c:	461a      	mov	r2, r3
 800058e:	4b06      	ldr	r3, [pc, #24]	; (80005a8 <HAL_IncTick+0x24>)
 8000590:	681b      	ldr	r3, [r3, #0]
 8000592:	4413      	add	r3, r2
 8000594:	4a04      	ldr	r2, [pc, #16]	; (80005a8 <HAL_IncTick+0x24>)
 8000596:	6013      	str	r3, [r2, #0]
}
 8000598:	bf00      	nop
 800059a:	46bd      	mov	sp, r7
 800059c:	f85d 7b04 	ldr.w	r7, [sp], #4
 80005a0:	4770      	bx	lr
 80005a2:	bf00      	nop
 80005a4:	20000004 	.word	0x20000004
 80005a8:	20000028 	.word	0x20000028

080005ac <HAL_GetTick>:
  * @note This function is declared as __weak to be overwritten in case of other 
  *       implementations in user file.
  * @retval tick value
  */
__weak uint32_t HAL_GetTick(void)
{
 80005ac:	b480      	push	{r7}
 80005ae:	af00      	add	r7, sp, #0
  return uwTick;
 80005b0:	4b03      	ldr	r3, [pc, #12]	; (80005c0 <HAL_GetTick+0x14>)
 80005b2:	681b      	ldr	r3, [r3, #0]
}
 80005b4:	4618      	mov	r0, r3
 80005b6:	46bd      	mov	sp, r7
 80005b8:	f85d 7b04 	ldr.w	r7, [sp], #4
 80005bc:	4770      	bx	lr
 80005be:	bf00      	nop
 80005c0:	20000028 	.word	0x20000028

080005c4 <HAL_Delay>:
  *       implementations in user file.
  * @param Delay  specifies the delay time length, in milliseconds.
  * @retval None
  */
__weak void HAL_Delay(uint32_t Delay)
{
 80005c4:	b580      	push	{r7, lr}
 80005c6:	b084      	sub	sp, #16
 80005c8:	af00      	add	r7, sp, #0
 80005ca:	6078      	str	r0, [r7, #4]
  uint32_t tickstart = HAL_GetTick();
 80005cc:	f7ff ffee 	bl	80005ac <HAL_GetTick>
 80005d0:	60b8      	str	r0, [r7, #8]
  uint32_t wait = Delay;
 80005d2:	687b      	ldr	r3, [r7, #4]
 80005d4:	60fb      	str	r3, [r7, #12]

  /* Add a freq to guarantee minimum wait */
  if (wait < HAL_MAX_DELAY)
 80005d6:	68fb      	ldr	r3, [r7, #12]
 80005d8:	f1b3 3fff 	cmp.w	r3, #4294967295	; 0xffffffff
 80005dc:	d005      	beq.n	80005ea <HAL_Delay+0x26>
  {
    wait += (uint32_t)(uwTickFreq);
 80005de:	4b09      	ldr	r3, [pc, #36]	; (8000604 <HAL_Delay+0x40>)
 80005e0:	781b      	ldrb	r3, [r3, #0]
 80005e2:	461a      	mov	r2, r3
 80005e4:	68fb      	ldr	r3, [r7, #12]
 80005e6:	4413      	add	r3, r2
 80005e8:	60fb      	str	r3, [r7, #12]
  }

  while ((HAL_GetTick() - tickstart) < wait)
 80005ea:	bf00      	nop
 80005ec:	f7ff ffde 	bl	80005ac <HAL_GetTick>
 80005f0:	4602      	mov	r2, r0
 80005f2:	68bb      	ldr	r3, [r7, #8]
 80005f4:	1ad3      	subs	r3, r2, r3
 80005f6:	68fa      	ldr	r2, [r7, #12]
 80005f8:	429a      	cmp	r2, r3
 80005fa:	d8f7      	bhi.n	80005ec <HAL_Delay+0x28>
  {
  }
}
 80005fc:	bf00      	nop
 80005fe:	3710      	adds	r7, #16
 8000600:	46bd      	mov	sp, r7
 8000602:	bd80      	pop	{r7, pc}
 8000604:	20000004 	.word	0x20000004

08000608 <__NVIC_SetPriorityGrouping>:
           In case of a conflict between priority grouping and available
           priority bits (__NVIC_PRIO_BITS), the smallest possible priority group is set.
  \param [in]      PriorityGroup  Priority grouping field.
 */
__STATIC_INLINE void __NVIC_SetPriorityGrouping(uint32_t PriorityGroup)
{
 8000608:	b480      	push	{r7}
 800060a:	b085      	sub	sp, #20
 800060c:	af00      	add	r7, sp, #0
 800060e:	6078      	str	r0, [r7, #4]
  uint32_t reg_value;
  uint32_t PriorityGroupTmp = (PriorityGroup & (uint32_t)0x07UL);             /* only values 0..7 are used          */
 8000610:	687b      	ldr	r3, [r7, #4]
 8000612:	f003 0307 	and.w	r3, r3, #7
 8000616:	60fb      	str	r3, [r7, #12]

  reg_value  =  SCB->AIRCR;                                                   /* read old register configuration    */
 8000618:	4b0b      	ldr	r3, [pc, #44]	; (8000648 <__NVIC_SetPriorityGrouping+0x40>)
 800061a:	68db      	ldr	r3, [r3, #12]
 800061c:	60bb      	str	r3, [r7, #8]
  reg_value &= ~((uint32_t)(SCB_AIRCR_VECTKEY_Msk | SCB_AIRCR_PRIGROUP_Msk)); /* clear bits to change               */
 800061e:	68ba      	ldr	r2, [r7, #8]
 8000620:	f64f 03ff 	movw	r3, #63743	; 0xf8ff
 8000624:	4013      	ands	r3, r2
 8000626:	60bb      	str	r3, [r7, #8]
  reg_value  =  (reg_value                                   |
                ((uint32_t)0x5FAUL << SCB_AIRCR_VECTKEY_Pos) |
                (PriorityGroupTmp << SCB_AIRCR_PRIGROUP_Pos)  );              /* Insert write key and priority group */
 8000628:	68fb      	ldr	r3, [r7, #12]
 800062a:	021a      	lsls	r2, r3, #8
                ((uint32_t)0x5FAUL << SCB_AIRCR_VECTKEY_Pos) |
 800062c:	68bb      	ldr	r3, [r7, #8]
 800062e:	431a      	orrs	r2, r3
  reg_value  =  (reg_value                                   |
 8000630:	4b06      	ldr	r3, [pc, #24]	; (800064c <__NVIC_SetPriorityGrouping+0x44>)
 8000632:	4313      	orrs	r3, r2
 8000634:	60bb      	str	r3, [r7, #8]
  SCB->AIRCR =  reg_value;
 8000636:	4a04      	ldr	r2, [pc, #16]	; (8000648 <__NVIC_SetPriorityGrouping+0x40>)
 8000638:	68bb      	ldr	r3, [r7, #8]
 800063a:	60d3      	str	r3, [r2, #12]
}
 800063c:	bf00      	nop
 800063e:	3714      	adds	r7, #20
 8000640:	46bd      	mov	sp, r7
 8000642:	f85d 7b04 	ldr.w	r7, [sp], #4
 8000646:	4770      	bx	lr
 8000648:	e000ed00 	.word	0xe000ed00
 800064c:	05fa0000 	.word	0x05fa0000

08000650 <__NVIC_GetPriorityGrouping>:
  \brief   Get Priority Grouping
  \details Reads the priority grouping field from the NVIC Interrupt Controller.
  \return                Priority grouping field (SCB->AIRCR [10:8] PRIGROUP field).
 */
__STATIC_INLINE uint32_t __NVIC_GetPriorityGrouping(void)
{
 8000650:	b480      	push	{r7}
 8000652:	af00      	add	r7, sp, #0
  return ((uint32_t)((SCB->AIRCR & SCB_AIRCR_PRIGROUP_Msk) >> SCB_AIRCR_PRIGROUP_Pos));
 8000654:	4b04      	ldr	r3, [pc, #16]	; (8000668 <__NVIC_GetPriorityGrouping+0x18>)
 8000656:	68db      	ldr	r3, [r3, #12]
 8000658:	0a1b      	lsrs	r3, r3, #8
 800065a:	f003 0307 	and.w	r3, r3, #7
}
 800065e:	4618      	mov	r0, r3
 8000660:	46bd      	mov	sp, r7
 8000662:	f85d 7b04 	ldr.w	r7, [sp], #4
 8000666:	4770      	bx	lr
 8000668:	e000ed00 	.word	0xe000ed00

0800066c <__NVIC_SetPriority>:
  \param [in]      IRQn  Interrupt number.
  \param [in]  priority  Priority to set.
  \note    The priority cannot be set for every processor exception.
 */
__STATIC_INLINE void __NVIC_SetPriority(IRQn_Type IRQn, uint32_t priority)
{
 800066c:	b480      	push	{r7}
 800066e:	b083      	sub	sp, #12
 8000670:	af00      	add	r7, sp, #0
 8000672:	4603      	mov	r3, r0
 8000674:	6039      	str	r1, [r7, #0]
 8000676:	71fb      	strb	r3, [r7, #7]
  if ((int32_t)(IRQn) >= 0)
 8000678:	f997 3007 	ldrsb.w	r3, [r7, #7]
 800067c:	2b00      	cmp	r3, #0
 800067e:	db0a      	blt.n	8000696 <__NVIC_SetPriority+0x2a>
  {
    NVIC->IP[((uint32_t)IRQn)]                = (uint8_t)((priority << (8U - __NVIC_PRIO_BITS)) & (uint32_t)0xFFUL);
 8000680:	683b      	ldr	r3, [r7, #0]
 8000682:	b2da      	uxtb	r2, r3
 8000684:	490c      	ldr	r1, [pc, #48]	; (80006b8 <__NVIC_SetPriority+0x4c>)
 8000686:	f997 3007 	ldrsb.w	r3, [r7, #7]
 800068a:	0112      	lsls	r2, r2, #4
 800068c:	b2d2      	uxtb	r2, r2
 800068e:	440b      	add	r3, r1
 8000690:	f883 2300 	strb.w	r2, [r3, #768]	; 0x300
  }
  else
  {
    SCB->SHPR[(((uint32_t)IRQn) & 0xFUL)-4UL] = (uint8_t)((priority << (8U - __NVIC_PRIO_BITS)) & (uint32_t)0xFFUL);
  }
}
 8000694:	e00a      	b.n	80006ac <__NVIC_SetPriority+0x40>
    SCB->SHPR[(((uint32_t)IRQn) & 0xFUL)-4UL] = (uint8_t)((priority << (8U - __NVIC_PRIO_BITS)) & (uint32_t)0xFFUL);
 8000696:	683b      	ldr	r3, [r7, #0]
 8000698:	b2da      	uxtb	r2, r3
 800069a:	4908      	ldr	r1, [pc, #32]	; (80006bc <__NVIC_SetPriority+0x50>)
 800069c:	79fb      	ldrb	r3, [r7, #7]
 800069e:	f003 030f 	and.w	r3, r3, #15
 80006a2:	3b04      	subs	r3, #4
 80006a4:	0112      	lsls	r2, r2, #4
 80006a6:	b2d2      	uxtb	r2, r2
 80006a8:	440b      	add	r3, r1
 80006aa:	761a      	strb	r2, [r3, #24]
}
 80006ac:	bf00      	nop
 80006ae:	370c      	adds	r7, #12
 80006b0:	46bd      	mov	sp, r7
 80006b2:	f85d 7b04 	ldr.w	r7, [sp], #4
 80006b6:	4770      	bx	lr
 80006b8:	e000e100 	.word	0xe000e100
 80006bc:	e000ed00 	.word	0xe000ed00

080006c0 <NVIC_EncodePriority>:
  \param [in]   PreemptPriority  Preemptive priority value (starting from 0).
  \param [in]       SubPriority  Subpriority value (starting from 0).
  \return                        Encoded priority. Value can be used in the function \ref NVIC_SetPriority().
 */
__STATIC_INLINE uint32_t NVIC_EncodePriority (uint32_t PriorityGroup, uint32_t PreemptPriority, uint32_t SubPriority)
{
 80006c0:	b480      	push	{r7}
 80006c2:	b089      	sub	sp, #36	; 0x24
 80006c4:	af00      	add	r7, sp, #0
 80006c6:	60f8      	str	r0, [r7, #12]
 80006c8:	60b9      	str	r1, [r7, #8]
 80006ca:	607a      	str	r2, [r7, #4]
  uint32_t PriorityGroupTmp = (PriorityGroup & (uint32_t)0x07UL);   /* only values 0..7 are used          */
 80006cc:	68fb      	ldr	r3, [r7, #12]
 80006ce:	f003 0307 	and.w	r3, r3, #7
 80006d2:	61fb      	str	r3, [r7, #28]
  uint32_t PreemptPriorityBits;
  uint32_t SubPriorityBits;

  PreemptPriorityBits = ((7UL - PriorityGroupTmp) > (uint32_t)(__NVIC_PRIO_BITS)) ? (uint32_t)(__NVIC_PRIO_BITS) : (uint32_t)(7UL - PriorityGroupTmp);
 80006d4:	69fb      	ldr	r3, [r7, #28]
 80006d6:	f1c3 0307 	rsb	r3, r3, #7
 80006da:	2b04      	cmp	r3, #4
 80006dc:	bf28      	it	cs
 80006de:	2304      	movcs	r3, #4
 80006e0:	61bb      	str	r3, [r7, #24]
  SubPriorityBits     = ((PriorityGroupTmp + (uint32_t)(__NVIC_PRIO_BITS)) < (uint32_t)7UL) ? (uint32_t)0UL : (uint32_t)((PriorityGroupTmp - 7UL) + (uint32_t)(__NVIC_PRIO_BITS));
 80006e2:	69fb      	ldr	r3, [r7, #28]
 80006e4:	3304      	adds	r3, #4
 80006e6:	2b06      	cmp	r3, #6
 80006e8:	d902      	bls.n	80006f0 <NVIC_EncodePriority+0x30>
 80006ea:	69fb      	ldr	r3, [r7, #28]
 80006ec:	3b03      	subs	r3, #3
 80006ee:	e000      	b.n	80006f2 <NVIC_EncodePriority+0x32>
 80006f0:	2300      	movs	r3, #0
 80006f2:	617b      	str	r3, [r7, #20]

  return (
           ((PreemptPriority & (uint32_t)((1UL << (PreemptPriorityBits)) - 1UL)) << SubPriorityBits) |
 80006f4:	f04f 32ff 	mov.w	r2, #4294967295	; 0xffffffff
 80006f8:	69bb      	ldr	r3, [r7, #24]
 80006fa:	fa02 f303 	lsl.w	r3, r2, r3
 80006fe:	43da      	mvns	r2, r3
 8000700:	68bb      	ldr	r3, [r7, #8]
 8000702:	401a      	ands	r2, r3
 8000704:	697b      	ldr	r3, [r7, #20]
 8000706:	409a      	lsls	r2, r3
           ((SubPriority     & (uint32_t)((1UL << (SubPriorityBits    )) - 1UL)))
 8000708:	f04f 31ff 	mov.w	r1, #4294967295	; 0xffffffff
 800070c:	697b      	ldr	r3, [r7, #20]
 800070e:	fa01 f303 	lsl.w	r3, r1, r3
 8000712:	43d9      	mvns	r1, r3
 8000714:	687b      	ldr	r3, [r7, #4]
 8000716:	400b      	ands	r3, r1
           ((PreemptPriority & (uint32_t)((1UL << (PreemptPriorityBits)) - 1UL)) << SubPriorityBits) |
 8000718:	4313      	orrs	r3, r2
         );
}
 800071a:	4618      	mov	r0, r3
 800071c:	3724      	adds	r7, #36	; 0x24
 800071e:	46bd      	mov	sp, r7
 8000720:	f85d 7b04 	ldr.w	r7, [sp], #4
 8000724:	4770      	bx	lr
	...

08000728 <SysTick_Config>:
  \note    When the variable <b>__Vendor_SysTickConfig</b> is set to 1, then the
           function <b>SysTick_Config</b> is not included. In this case, the file <b><i>device</i>.h</b>
           must contain a vendor-specific implementation of this function.
 */
__STATIC_INLINE uint32_t SysTick_Config(uint32_t ticks)
{
 8000728:	b580      	push	{r7, lr}
 800072a:	b082      	sub	sp, #8
 800072c:	af00      	add	r7, sp, #0
 800072e:	6078      	str	r0, [r7, #4]
  if ((ticks - 1UL) > SysTick_LOAD_RELOAD_Msk)
 8000730:	687b      	ldr	r3, [r7, #4]
 8000732:	3b01      	subs	r3, #1
 8000734:	f1b3 7f80 	cmp.w	r3, #16777216	; 0x1000000
 8000738:	d301      	bcc.n	800073e <SysTick_Config+0x16>
  {
    return (1UL);                                                   /* Reload value impossible */
 800073a:	2301      	movs	r3, #1
 800073c:	e00f      	b.n	800075e <SysTick_Config+0x36>
  }

  SysTick->LOAD  = (uint32_t)(ticks - 1UL);                         /* set reload register */
 800073e:	4a0a      	ldr	r2, [pc, #40]	; (8000768 <SysTick_Config+0x40>)
 8000740:	687b      	ldr	r3, [r7, #4]
 8000742:	3b01      	subs	r3, #1
 8000744:	6053      	str	r3, [r2, #4]
  NVIC_SetPriority (SysTick_IRQn, (1UL << __NVIC_PRIO_BITS) - 1UL); /* set Priority for Systick Interrupt */
 8000746:	210f      	movs	r1, #15
 8000748:	f04f 30ff 	mov.w	r0, #4294967295	; 0xffffffff
 800074c:	f7ff ff8e 	bl	800066c <__NVIC_SetPriority>
  SysTick->VAL   = 0UL;                                             /* Load the SysTick Counter Value */
 8000750:	4b05      	ldr	r3, [pc, #20]	; (8000768 <SysTick_Config+0x40>)
 8000752:	2200      	movs	r2, #0
 8000754:	609a      	str	r2, [r3, #8]
  SysTick->CTRL  = SysTick_CTRL_CLKSOURCE_Msk |
 8000756:	4b04      	ldr	r3, [pc, #16]	; (8000768 <SysTick_Config+0x40>)
 8000758:	2207      	movs	r2, #7
 800075a:	601a      	str	r2, [r3, #0]
                   SysTick_CTRL_TICKINT_Msk   |
                   SysTick_CTRL_ENABLE_Msk;                         /* Enable SysTick IRQ and SysTick Timer */
  return (0UL);                                                     /* Function successful */
 800075c:	2300      	movs	r3, #0
}
 800075e:	4618      	mov	r0, r3
 8000760:	3708      	adds	r7, #8
 8000762:	46bd      	mov	sp, r7
 8000764:	bd80      	pop	{r7, pc}
 8000766:	bf00      	nop
 8000768:	e000e010 	.word	0xe000e010

0800076c <HAL_NVIC_SetPriorityGrouping>:
  * @note   When the NVIC_PriorityGroup_0 is selected, IRQ preemption is no more possible. 
  *         The pending IRQ priority will be managed only by the subpriority. 
  * @retval None
  */
void HAL_NVIC_SetPriorityGrouping(uint32_t PriorityGroup)
{
 800076c:	b580      	push	{r7, lr}
 800076e:	b082      	sub	sp, #8
 8000770:	af00      	add	r7, sp, #0
 8000772:	6078      	str	r0, [r7, #4]
  /* Check the parameters */
  assert_param(IS_NVIC_PRIORITY_GROUP(PriorityGroup));
  
  /* Set the PRIGROUP[10:8] bits according to the PriorityGroup parameter value */
  NVIC_SetPriorityGrouping(PriorityGroup);
 8000774:	6878      	ldr	r0, [r7, #4]
 8000776:	f7ff ff47 	bl	8000608 <__NVIC_SetPriorityGrouping>
}
 800077a:	bf00      	nop
 800077c:	3708      	adds	r7, #8
 800077e:	46bd      	mov	sp, r7
 8000780:	bd80      	pop	{r7, pc}

08000782 <HAL_NVIC_SetPriority>:
  *         This parameter can be a value between 0 and 15
  *         A lower priority value indicates a higher priority.          
  * @retval None
  */
void HAL_NVIC_SetPriority(IRQn_Type IRQn, uint32_t PreemptPriority, uint32_t SubPriority)
{ 
 8000782:	b580      	push	{r7, lr}
 8000784:	b086      	sub	sp, #24
 8000786:	af00      	add	r7, sp, #0
 8000788:	4603      	mov	r3, r0
 800078a:	60b9      	str	r1, [r7, #8]
 800078c:	607a      	str	r2, [r7, #4]
 800078e:	73fb      	strb	r3, [r7, #15]
  uint32_t prioritygroup = 0x00;
 8000790:	2300      	movs	r3, #0
 8000792:	617b      	str	r3, [r7, #20]
  
  /* Check the parameters */
  assert_param(IS_NVIC_SUB_PRIORITY(SubPriority));
  assert_param(IS_NVIC_PREEMPTION_PRIORITY(PreemptPriority));
  
  prioritygroup = NVIC_GetPriorityGrouping();
 8000794:	f7ff ff5c 	bl	8000650 <__NVIC_GetPriorityGrouping>
 8000798:	6178      	str	r0, [r7, #20]
  
  NVIC_SetPriority(IRQn, NVIC_EncodePriority(prioritygroup, PreemptPriority, SubPriority));
 800079a:	687a      	ldr	r2, [r7, #4]
 800079c:	68b9      	ldr	r1, [r7, #8]
 800079e:	6978      	ldr	r0, [r7, #20]
 80007a0:	f7ff ff8e 	bl	80006c0 <NVIC_EncodePriority>
 80007a4:	4602      	mov	r2, r0
 80007a6:	f997 300f 	ldrsb.w	r3, [r7, #15]
 80007aa:	4611      	mov	r1, r2
 80007ac:	4618      	mov	r0, r3
 80007ae:	f7ff ff5d 	bl	800066c <__NVIC_SetPriority>
}
 80007b2:	bf00      	nop
 80007b4:	3718      	adds	r7, #24
 80007b6:	46bd      	mov	sp, r7
 80007b8:	bd80      	pop	{r7, pc}

080007ba <HAL_SYSTICK_Config>:
  * @param  TicksNumb Specifies the ticks Number of ticks between two interrupts.
  * @retval status:  - 0  Function succeeded.
  *                  - 1  Function failed.
  */
uint32_t HAL_SYSTICK_Config(uint32_t TicksNumb)
{
 80007ba:	b580      	push	{r7, lr}
 80007bc:	b082      	sub	sp, #8
 80007be:	af00      	add	r7, sp, #0
 80007c0:	6078      	str	r0, [r7, #4]
   return SysTick_Config(TicksNumb);
 80007c2:	6878      	ldr	r0, [r7, #4]
 80007c4:	f7ff ffb0 	bl	8000728 <SysTick_Config>
 80007c8:	4603      	mov	r3, r0
}
 80007ca:	4618      	mov	r0, r3
 80007cc:	3708      	adds	r7, #8
 80007ce:	46bd      	mov	sp, r7
 80007d0:	bd80      	pop	{r7, pc}
	...

080007d4 <HAL_GPIO_Init>:
  * @param  GPIO_Init pointer to a GPIO_InitTypeDef structure that contains
  *         the configuration information for the specified GPIO peripheral.
  * @retval None
  */
void HAL_GPIO_Init(GPIO_TypeDef  *GPIOx, GPIO_InitTypeDef *GPIO_Init)
{
 80007d4:	b480      	push	{r7}
 80007d6:	b089      	sub	sp, #36	; 0x24
 80007d8:	af00      	add	r7, sp, #0
 80007da:	6078      	str	r0, [r7, #4]
 80007dc:	6039      	str	r1, [r7, #0]
  uint32_t position = 0x00;
 80007de:	2300      	movs	r3, #0
 80007e0:	61fb      	str	r3, [r7, #28]
  uint32_t ioposition = 0x00;
 80007e2:	2300      	movs	r3, #0
 80007e4:	617b      	str	r3, [r7, #20]
  uint32_t iocurrent = 0x00;
 80007e6:	2300      	movs	r3, #0
 80007e8:	613b      	str	r3, [r7, #16]
  uint32_t temp = 0x00;
 80007ea:	2300      	movs	r3, #0
 80007ec:	61bb      	str	r3, [r7, #24]
  assert_param(IS_GPIO_PIN(GPIO_Init->Pin));
  assert_param(IS_GPIO_MODE(GPIO_Init->Mode));
  assert_param(IS_GPIO_PULL(GPIO_Init->Pull));

  /* Configure the port pins */
  for(position = 0; position < GPIO_NUMBER; position++)
 80007ee:	2300      	movs	r3, #0
 80007f0:	61fb      	str	r3, [r7, #28]
 80007f2:	e175      	b.n	8000ae0 <HAL_GPIO_Init+0x30c>
  {
    /* Get the IO position */
    ioposition = ((uint32_t)0x01) << position;
 80007f4:	2201      	movs	r2, #1
 80007f6:	69fb      	ldr	r3, [r7, #28]
 80007f8:	fa02 f303 	lsl.w	r3, r2, r3
 80007fc:	617b      	str	r3, [r7, #20]
    /* Get the current IO position */
    iocurrent = (uint32_t)(GPIO_Init->Pin) & ioposition;
 80007fe:	683b      	ldr	r3, [r7, #0]
 8000800:	681b      	ldr	r3, [r3, #0]
 8000802:	697a      	ldr	r2, [r7, #20]
 8000804:	4013      	ands	r3, r2
 8000806:	613b      	str	r3, [r7, #16]

    if(iocurrent == ioposition)
 8000808:	693a      	ldr	r2, [r7, #16]
 800080a:	697b      	ldr	r3, [r7, #20]
 800080c:	429a      	cmp	r2, r3
 800080e:	f040 8164 	bne.w	8000ada <HAL_GPIO_Init+0x306>
    {
      /*--------------------- GPIO Mode Configuration ------------------------*/
      /* In case of Alternate function mode selection */
      if((GPIO_Init->Mode == GPIO_MODE_AF_PP) || (GPIO_Init->Mode == GPIO_MODE_AF_OD))
 8000812:	683b      	ldr	r3, [r7, #0]
 8000814:	685b      	ldr	r3, [r3, #4]
 8000816:	2b02      	cmp	r3, #2
 8000818:	d003      	beq.n	8000822 <HAL_GPIO_Init+0x4e>
 800081a:	683b      	ldr	r3, [r7, #0]
 800081c:	685b      	ldr	r3, [r3, #4]
 800081e:	2b12      	cmp	r3, #18
 8000820:	d123      	bne.n	800086a <HAL_GPIO_Init+0x96>
      {
        /* Check the Alternate function parameter */
        assert_param(IS_GPIO_AF(GPIO_Init->Alternate));
        
        /* Configure Alternate function mapped with the current IO */
        temp = GPIOx->AFR[position >> 3];
 8000822:	69fb      	ldr	r3, [r7, #28]
 8000824:	08da      	lsrs	r2, r3, #3
 8000826:	687b      	ldr	r3, [r7, #4]
 8000828:	3208      	adds	r2, #8
 800082a:	f853 3022 	ldr.w	r3, [r3, r2, lsl #2]
 800082e:	61bb      	str	r3, [r7, #24]
        temp &= ~((uint32_t)0xF << ((uint32_t)(position & (uint32_t)0x07) * 4)) ;
 8000830:	69fb      	ldr	r3, [r7, #28]
 8000832:	f003 0307 	and.w	r3, r3, #7
 8000836:	009b      	lsls	r3, r3, #2
 8000838:	220f      	movs	r2, #15
 800083a:	fa02 f303 	lsl.w	r3, r2, r3
 800083e:	43db      	mvns	r3, r3
 8000840:	69ba      	ldr	r2, [r7, #24]
 8000842:	4013      	ands	r3, r2
 8000844:	61bb      	str	r3, [r7, #24]
        temp |= ((uint32_t)(GPIO_Init->Alternate) << (((uint32_t)position & (uint32_t)0x07) * 4));
 8000846:	683b      	ldr	r3, [r7, #0]
 8000848:	691a      	ldr	r2, [r3, #16]
 800084a:	69fb      	ldr	r3, [r7, #28]
 800084c:	f003 0307 	and.w	r3, r3, #7
 8000850:	009b      	lsls	r3, r3, #2
 8000852:	fa02 f303 	lsl.w	r3, r2, r3
 8000856:	69ba      	ldr	r2, [r7, #24]
 8000858:	4313      	orrs	r3, r2
 800085a:	61bb      	str	r3, [r7, #24]
        GPIOx->AFR[position >> 3] = temp;
 800085c:	69fb      	ldr	r3, [r7, #28]
 800085e:	08da      	lsrs	r2, r3, #3
 8000860:	687b      	ldr	r3, [r7, #4]
 8000862:	3208      	adds	r2, #8
 8000864:	69b9      	ldr	r1, [r7, #24]
 8000866:	f843 1022 	str.w	r1, [r3, r2, lsl #2]
      }

      /* Configure IO Direction mode (Input, Output, Alternate or Analog) */
      temp = GPIOx->MODER;
 800086a:	687b      	ldr	r3, [r7, #4]
 800086c:	681b      	ldr	r3, [r3, #0]
 800086e:	61bb      	str	r3, [r7, #24]
      temp &= ~(GPIO_MODER_MODER0 << (position * 2));
 8000870:	69fb      	ldr	r3, [r7, #28]
 8000872:	005b      	lsls	r3, r3, #1
 8000874:	2203      	movs	r2, #3
 8000876:	fa02 f303 	lsl.w	r3, r2, r3
 800087a:	43db      	mvns	r3, r3
 800087c:	69ba      	ldr	r2, [r7, #24]
 800087e:	4013      	ands	r3, r2
 8000880:	61bb      	str	r3, [r7, #24]
      temp |= ((GPIO_Init->Mode & GPIO_MODE) << (position * 2));
 8000882:	683b      	ldr	r3, [r7, #0]
 8000884:	685b      	ldr	r3, [r3, #4]
 8000886:	f003 0203 	and.w	r2, r3, #3
 800088a:	69fb      	ldr	r3, [r7, #28]
 800088c:	005b      	lsls	r3, r3, #1
 800088e:	fa02 f303 	lsl.w	r3, r2, r3
 8000892:	69ba      	ldr	r2, [r7, #24]
 8000894:	4313      	orrs	r3, r2
 8000896:	61bb      	str	r3, [r7, #24]
      GPIOx->MODER = temp;
 8000898:	687b      	ldr	r3, [r7, #4]
 800089a:	69ba      	ldr	r2, [r7, #24]
 800089c:	601a      	str	r2, [r3, #0]

      /* In case of Output or Alternate function mode selection */
      if((GPIO_Init->Mode == GPIO_MODE_OUTPUT_PP) || (GPIO_Init->Mode == GPIO_MODE_AF_PP) ||
 800089e:	683b      	ldr	r3, [r7, #0]
 80008a0:	685b      	ldr	r3, [r3, #4]
 80008a2:	2b01      	cmp	r3, #1
 80008a4:	d00b      	beq.n	80008be <HAL_GPIO_Init+0xea>
 80008a6:	683b      	ldr	r3, [r7, #0]
 80008a8:	685b      	ldr	r3, [r3, #4]
 80008aa:	2b02      	cmp	r3, #2
 80008ac:	d007      	beq.n	80008be <HAL_GPIO_Init+0xea>
         (GPIO_Init->Mode == GPIO_MODE_OUTPUT_OD) || (GPIO_Init->Mode == GPIO_MODE_AF_OD))
 80008ae:	683b      	ldr	r3, [r7, #0]
 80008b0:	685b      	ldr	r3, [r3, #4]
      if((GPIO_Init->Mode == GPIO_MODE_OUTPUT_PP) || (GPIO_Init->Mode == GPIO_MODE_AF_PP) ||
 80008b2:	2b11      	cmp	r3, #17
 80008b4:	d003      	beq.n	80008be <HAL_GPIO_Init+0xea>
         (GPIO_Init->Mode == GPIO_MODE_OUTPUT_OD) || (GPIO_Init->Mode == GPIO_MODE_AF_OD))
 80008b6:	683b      	ldr	r3, [r7, #0]
 80008b8:	685b      	ldr	r3, [r3, #4]
 80008ba:	2b12      	cmp	r3, #18
 80008bc:	d130      	bne.n	8000920 <HAL_GPIO_Init+0x14c>
      {
        /* Check the Speed parameter */
        assert_param(IS_GPIO_SPEED(GPIO_Init->Speed));
        /* Configure the IO Speed */
        temp = GPIOx->OSPEEDR; 
 80008be:	687b      	ldr	r3, [r7, #4]
 80008c0:	689b      	ldr	r3, [r3, #8]
 80008c2:	61bb      	str	r3, [r7, #24]
        temp &= ~(GPIO_OSPEEDER_OSPEEDR0 << (position * 2));
 80008c4:	69fb      	ldr	r3, [r7, #28]
 80008c6:	005b      	lsls	r3, r3, #1
 80008c8:	2203      	movs	r2, #3
 80008ca:	fa02 f303 	lsl.w	r3, r2, r3
 80008ce:	43db      	mvns	r3, r3
 80008d0:	69ba      	ldr	r2, [r7, #24]
 80008d2:	4013      	ands	r3, r2
 80008d4:	61bb      	str	r3, [r7, #24]
        temp |= (GPIO_Init->Speed << (position * 2));
 80008d6:	683b      	ldr	r3, [r7, #0]
 80008d8:	68da      	ldr	r2, [r3, #12]
 80008da:	69fb      	ldr	r3, [r7, #28]
 80008dc:	005b      	lsls	r3, r3, #1
 80008de:	fa02 f303 	lsl.w	r3, r2, r3
 80008e2:	69ba      	ldr	r2, [r7, #24]
 80008e4:	4313      	orrs	r3, r2
 80008e6:	61bb      	str	r3, [r7, #24]
        GPIOx->OSPEEDR = temp;
 80008e8:	687b      	ldr	r3, [r7, #4]
 80008ea:	69ba      	ldr	r2, [r7, #24]
 80008ec:	609a      	str	r2, [r3, #8]

        /* Configure the IO Output Type */
        temp = GPIOx->OTYPER;
 80008ee:	687b      	ldr	r3, [r7, #4]
 80008f0:	685b      	ldr	r3, [r3, #4]
 80008f2:	61bb      	str	r3, [r7, #24]
        temp &= ~(GPIO_OTYPER_OT_0 << position) ;
 80008f4:	2201      	movs	r2, #1
 80008f6:	69fb      	ldr	r3, [r7, #28]
 80008f8:	fa02 f303 	lsl.w	r3, r2, r3
 80008fc:	43db      	mvns	r3, r3
 80008fe:	69ba      	ldr	r2, [r7, #24]
 8000900:	4013      	ands	r3, r2
 8000902:	61bb      	str	r3, [r7, #24]
        temp |= (((GPIO_Init->Mode & GPIO_OUTPUT_TYPE) >> 4) << position);
 8000904:	683b      	ldr	r3, [r7, #0]
 8000906:	685b      	ldr	r3, [r3, #4]
 8000908:	091b      	lsrs	r3, r3, #4
 800090a:	f003 0201 	and.w	r2, r3, #1
 800090e:	69fb      	ldr	r3, [r7, #28]
 8000910:	fa02 f303 	lsl.w	r3, r2, r3
 8000914:	69ba      	ldr	r2, [r7, #24]
 8000916:	4313      	orrs	r3, r2
 8000918:	61bb      	str	r3, [r7, #24]
        GPIOx->OTYPER = temp;
 800091a:	687b      	ldr	r3, [r7, #4]
 800091c:	69ba      	ldr	r2, [r7, #24]
 800091e:	605a      	str	r2, [r3, #4]
      }

      /* Activate the Pull-up or Pull down resistor for the current IO */
      temp = GPIOx->PUPDR;
 8000920:	687b      	ldr	r3, [r7, #4]
 8000922:	68db      	ldr	r3, [r3, #12]
 8000924:	61bb      	str	r3, [r7, #24]
      temp &= ~(GPIO_PUPDR_PUPDR0 << (position * 2));
 8000926:	69fb      	ldr	r3, [r7, #28]
 8000928:	005b      	lsls	r3, r3, #1
 800092a:	2203      	movs	r2, #3
 800092c:	fa02 f303 	lsl.w	r3, r2, r3
 8000930:	43db      	mvns	r3, r3
 8000932:	69ba      	ldr	r2, [r7, #24]
 8000934:	4013      	ands	r3, r2
 8000936:	61bb      	str	r3, [r7, #24]
      temp |= ((GPIO_Init->Pull) << (position * 2));
 8000938:	683b      	ldr	r3, [r7, #0]
 800093a:	689a      	ldr	r2, [r3, #8]
 800093c:	69fb      	ldr	r3, [r7, #28]
 800093e:	005b      	lsls	r3, r3, #1
 8000940:	fa02 f303 	lsl.w	r3, r2, r3
 8000944:	69ba      	ldr	r2, [r7, #24]
 8000946:	4313      	orrs	r3, r2
 8000948:	61bb      	str	r3, [r7, #24]
      GPIOx->PUPDR = temp;
 800094a:	687b      	ldr	r3, [r7, #4]
 800094c:	69ba      	ldr	r2, [r7, #24]
 800094e:	60da      	str	r2, [r3, #12]

      /*--------------------- EXTI Mode Configuration ------------------------*/
      /* Configure the External Interrupt or event for the current IO */
      if((GPIO_Init->Mode & EXTI_MODE) == EXTI_MODE)
 8000950:	683b      	ldr	r3, [r7, #0]
 8000952:	685b      	ldr	r3, [r3, #4]
 8000954:	f003 5380 	and.w	r3, r3, #268435456	; 0x10000000
 8000958:	2b00      	cmp	r3, #0
 800095a:	f000 80be 	beq.w	8000ada <HAL_GPIO_Init+0x306>
      {
        /* Enable SYSCFG Clock */
        __HAL_RCC_SYSCFG_CLK_ENABLE();
 800095e:	4b65      	ldr	r3, [pc, #404]	; (8000af4 <HAL_GPIO_Init+0x320>)
 8000960:	6c5b      	ldr	r3, [r3, #68]	; 0x44
 8000962:	4a64      	ldr	r2, [pc, #400]	; (8000af4 <HAL_GPIO_Init+0x320>)
 8000964:	f443 4380 	orr.w	r3, r3, #16384	; 0x4000
 8000968:	6453      	str	r3, [r2, #68]	; 0x44
 800096a:	4b62      	ldr	r3, [pc, #392]	; (8000af4 <HAL_GPIO_Init+0x320>)
 800096c:	6c5b      	ldr	r3, [r3, #68]	; 0x44
 800096e:	f403 4380 	and.w	r3, r3, #16384	; 0x4000
 8000972:	60fb      	str	r3, [r7, #12]
 8000974:	68fb      	ldr	r3, [r7, #12]

        temp = SYSCFG->EXTICR[position >> 2];
 8000976:	4a60      	ldr	r2, [pc, #384]	; (8000af8 <HAL_GPIO_Init+0x324>)
 8000978:	69fb      	ldr	r3, [r7, #28]
 800097a:	089b      	lsrs	r3, r3, #2
 800097c:	3302      	adds	r3, #2
 800097e:	f852 3023 	ldr.w	r3, [r2, r3, lsl #2]
 8000982:	61bb      	str	r3, [r7, #24]
        temp &= ~(((uint32_t)0x0F) << (4 * (position & 0x03)));
 8000984:	69fb      	ldr	r3, [r7, #28]
 8000986:	f003 0303 	and.w	r3, r3, #3
 800098a:	009b      	lsls	r3, r3, #2
 800098c:	220f      	movs	r2, #15
 800098e:	fa02 f303 	lsl.w	r3, r2, r3
 8000992:	43db      	mvns	r3, r3
 8000994:	69ba      	ldr	r2, [r7, #24]
 8000996:	4013      	ands	r3, r2
 8000998:	61bb      	str	r3, [r7, #24]
        temp |= ((uint32_t)(GPIO_GET_INDEX(GPIOx)) << (4 * (position & 0x03)));
 800099a:	687b      	ldr	r3, [r7, #4]
 800099c:	4a57      	ldr	r2, [pc, #348]	; (8000afc <HAL_GPIO_Init+0x328>)
 800099e:	4293      	cmp	r3, r2
 80009a0:	d037      	beq.n	8000a12 <HAL_GPIO_Init+0x23e>
 80009a2:	687b      	ldr	r3, [r7, #4]
 80009a4:	4a56      	ldr	r2, [pc, #344]	; (8000b00 <HAL_GPIO_Init+0x32c>)
 80009a6:	4293      	cmp	r3, r2
 80009a8:	d031      	beq.n	8000a0e <HAL_GPIO_Init+0x23a>
 80009aa:	687b      	ldr	r3, [r7, #4]
 80009ac:	4a55      	ldr	r2, [pc, #340]	; (8000b04 <HAL_GPIO_Init+0x330>)
 80009ae:	4293      	cmp	r3, r2
 80009b0:	d02b      	beq.n	8000a0a <HAL_GPIO_Init+0x236>
 80009b2:	687b      	ldr	r3, [r7, #4]
 80009b4:	4a54      	ldr	r2, [pc, #336]	; (8000b08 <HAL_GPIO_Init+0x334>)
 80009b6:	4293      	cmp	r3, r2
 80009b8:	d025      	beq.n	8000a06 <HAL_GPIO_Init+0x232>
 80009ba:	687b      	ldr	r3, [r7, #4]
 80009bc:	4a53      	ldr	r2, [pc, #332]	; (8000b0c <HAL_GPIO_Init+0x338>)
 80009be:	4293      	cmp	r3, r2
 80009c0:	d01f      	beq.n	8000a02 <HAL_GPIO_Init+0x22e>
 80009c2:	687b      	ldr	r3, [r7, #4]
 80009c4:	4a52      	ldr	r2, [pc, #328]	; (8000b10 <HAL_GPIO_Init+0x33c>)
 80009c6:	4293      	cmp	r3, r2
 80009c8:	d019      	beq.n	80009fe <HAL_GPIO_Init+0x22a>
 80009ca:	687b      	ldr	r3, [r7, #4]
 80009cc:	4a51      	ldr	r2, [pc, #324]	; (8000b14 <HAL_GPIO_Init+0x340>)
 80009ce:	4293      	cmp	r3, r2
 80009d0:	d013      	beq.n	80009fa <HAL_GPIO_Init+0x226>
 80009d2:	687b      	ldr	r3, [r7, #4]
 80009d4:	4a50      	ldr	r2, [pc, #320]	; (8000b18 <HAL_GPIO_Init+0x344>)
 80009d6:	4293      	cmp	r3, r2
 80009d8:	d00d      	beq.n	80009f6 <HAL_GPIO_Init+0x222>
 80009da:	687b      	ldr	r3, [r7, #4]
 80009dc:	4a4f      	ldr	r2, [pc, #316]	; (8000b1c <HAL_GPIO_Init+0x348>)
 80009de:	4293      	cmp	r3, r2
 80009e0:	d007      	beq.n	80009f2 <HAL_GPIO_Init+0x21e>
 80009e2:	687b      	ldr	r3, [r7, #4]
 80009e4:	4a4e      	ldr	r2, [pc, #312]	; (8000b20 <HAL_GPIO_Init+0x34c>)
 80009e6:	4293      	cmp	r3, r2
 80009e8:	d101      	bne.n	80009ee <HAL_GPIO_Init+0x21a>
 80009ea:	2309      	movs	r3, #9
 80009ec:	e012      	b.n	8000a14 <HAL_GPIO_Init+0x240>
 80009ee:	230a      	movs	r3, #10
 80009f0:	e010      	b.n	8000a14 <HAL_GPIO_Init+0x240>
 80009f2:	2308      	movs	r3, #8
 80009f4:	e00e      	b.n	8000a14 <HAL_GPIO_Init+0x240>
 80009f6:	2307      	movs	r3, #7
 80009f8:	e00c      	b.n	8000a14 <HAL_GPIO_Init+0x240>
 80009fa:	2306      	movs	r3, #6
 80009fc:	e00a      	b.n	8000a14 <HAL_GPIO_Init+0x240>
 80009fe:	2305      	movs	r3, #5
 8000a00:	e008      	b.n	8000a14 <HAL_GPIO_Init+0x240>
 8000a02:	2304      	movs	r3, #4
 8000a04:	e006      	b.n	8000a14 <HAL_GPIO_Init+0x240>
 8000a06:	2303      	movs	r3, #3
 8000a08:	e004      	b.n	8000a14 <HAL_GPIO_Init+0x240>
 8000a0a:	2302      	movs	r3, #2
 8000a0c:	e002      	b.n	8000a14 <HAL_GPIO_Init+0x240>
 8000a0e:	2301      	movs	r3, #1
 8000a10:	e000      	b.n	8000a14 <HAL_GPIO_Init+0x240>
 8000a12:	2300      	movs	r3, #0
 8000a14:	69fa      	ldr	r2, [r7, #28]
 8000a16:	f002 0203 	and.w	r2, r2, #3
 8000a1a:	0092      	lsls	r2, r2, #2
 8000a1c:	4093      	lsls	r3, r2
 8000a1e:	69ba      	ldr	r2, [r7, #24]
 8000a20:	4313      	orrs	r3, r2
 8000a22:	61bb      	str	r3, [r7, #24]
        SYSCFG->EXTICR[position >> 2] = temp;
 8000a24:	4934      	ldr	r1, [pc, #208]	; (8000af8 <HAL_GPIO_Init+0x324>)
 8000a26:	69fb      	ldr	r3, [r7, #28]
 8000a28:	089b      	lsrs	r3, r3, #2
 8000a2a:	3302      	adds	r3, #2
 8000a2c:	69ba      	ldr	r2, [r7, #24]
 8000a2e:	f841 2023 	str.w	r2, [r1, r3, lsl #2]

        /* Clear EXTI line configuration */
        temp = EXTI->IMR;
 8000a32:	4b3c      	ldr	r3, [pc, #240]	; (8000b24 <HAL_GPIO_Init+0x350>)
 8000a34:	681b      	ldr	r3, [r3, #0]
 8000a36:	61bb      	str	r3, [r7, #24]
        temp &= ~((uint32_t)iocurrent);
 8000a38:	693b      	ldr	r3, [r7, #16]
 8000a3a:	43db      	mvns	r3, r3
 8000a3c:	69ba      	ldr	r2, [r7, #24]
 8000a3e:	4013      	ands	r3, r2
 8000a40:	61bb      	str	r3, [r7, #24]
        if((GPIO_Init->Mode & GPIO_MODE_IT) == GPIO_MODE_IT)
 8000a42:	683b      	ldr	r3, [r7, #0]
 8000a44:	685b      	ldr	r3, [r3, #4]
 8000a46:	f403 3380 	and.w	r3, r3, #65536	; 0x10000
 8000a4a:	2b00      	cmp	r3, #0
 8000a4c:	d003      	beq.n	8000a56 <HAL_GPIO_Init+0x282>
        {
          temp |= iocurrent;
 8000a4e:	69ba      	ldr	r2, [r7, #24]
 8000a50:	693b      	ldr	r3, [r7, #16]
 8000a52:	4313      	orrs	r3, r2
 8000a54:	61bb      	str	r3, [r7, #24]
        }
        EXTI->IMR = temp;
 8000a56:	4a33      	ldr	r2, [pc, #204]	; (8000b24 <HAL_GPIO_Init+0x350>)
 8000a58:	69bb      	ldr	r3, [r7, #24]
 8000a5a:	6013      	str	r3, [r2, #0]

        temp = EXTI->EMR;
 8000a5c:	4b31      	ldr	r3, [pc, #196]	; (8000b24 <HAL_GPIO_Init+0x350>)
 8000a5e:	685b      	ldr	r3, [r3, #4]
 8000a60:	61bb      	str	r3, [r7, #24]
        temp &= ~((uint32_t)iocurrent);
 8000a62:	693b      	ldr	r3, [r7, #16]
 8000a64:	43db      	mvns	r3, r3
 8000a66:	69ba      	ldr	r2, [r7, #24]
 8000a68:	4013      	ands	r3, r2
 8000a6a:	61bb      	str	r3, [r7, #24]
        if((GPIO_Init->Mode & GPIO_MODE_EVT) == GPIO_MODE_EVT)
 8000a6c:	683b      	ldr	r3, [r7, #0]
 8000a6e:	685b      	ldr	r3, [r3, #4]
 8000a70:	f403 3300 	and.w	r3, r3, #131072	; 0x20000
 8000a74:	2b00      	cmp	r3, #0
 8000a76:	d003      	beq.n	8000a80 <HAL_GPIO_Init+0x2ac>
        {
          temp |= iocurrent;
 8000a78:	69ba      	ldr	r2, [r7, #24]
 8000a7a:	693b      	ldr	r3, [r7, #16]
 8000a7c:	4313      	orrs	r3, r2
 8000a7e:	61bb      	str	r3, [r7, #24]
        }
        EXTI->EMR = temp;
 8000a80:	4a28      	ldr	r2, [pc, #160]	; (8000b24 <HAL_GPIO_Init+0x350>)
 8000a82:	69bb      	ldr	r3, [r7, #24]
 8000a84:	6053      	str	r3, [r2, #4]

        /* Clear Rising Falling edge configuration */
        temp = EXTI->RTSR;
 8000a86:	4b27      	ldr	r3, [pc, #156]	; (8000b24 <HAL_GPIO_Init+0x350>)
 8000a88:	689b      	ldr	r3, [r3, #8]
 8000a8a:	61bb      	str	r3, [r7, #24]
        temp &= ~((uint32_t)iocurrent);
 8000a8c:	693b      	ldr	r3, [r7, #16]
 8000a8e:	43db      	mvns	r3, r3
 8000a90:	69ba      	ldr	r2, [r7, #24]
 8000a92:	4013      	ands	r3, r2
 8000a94:	61bb      	str	r3, [r7, #24]
        if((GPIO_Init->Mode & RISING_EDGE) == RISING_EDGE)
 8000a96:	683b      	ldr	r3, [r7, #0]
 8000a98:	685b      	ldr	r3, [r3, #4]
 8000a9a:	f403 1380 	and.w	r3, r3, #1048576	; 0x100000
 8000a9e:	2b00      	cmp	r3, #0
 8000aa0:	d003      	beq.n	8000aaa <HAL_GPIO_Init+0x2d6>
        {
          temp |= iocurrent;
 8000aa2:	69ba      	ldr	r2, [r7, #24]
 8000aa4:	693b      	ldr	r3, [r7, #16]
 8000aa6:	4313      	orrs	r3, r2
 8000aa8:	61bb      	str	r3, [r7, #24]
        }
        EXTI->RTSR = temp;
 8000aaa:	4a1e      	ldr	r2, [pc, #120]	; (8000b24 <HAL_GPIO_Init+0x350>)
 8000aac:	69bb      	ldr	r3, [r7, #24]
 8000aae:	6093      	str	r3, [r2, #8]

        temp = EXTI->FTSR;
 8000ab0:	4b1c      	ldr	r3, [pc, #112]	; (8000b24 <HAL_GPIO_Init+0x350>)
 8000ab2:	68db      	ldr	r3, [r3, #12]
 8000ab4:	61bb      	str	r3, [r7, #24]
        temp &= ~((uint32_t)iocurrent);
 8000ab6:	693b      	ldr	r3, [r7, #16]
 8000ab8:	43db      	mvns	r3, r3
 8000aba:	69ba      	ldr	r2, [r7, #24]
 8000abc:	4013      	ands	r3, r2
 8000abe:	61bb      	str	r3, [r7, #24]
        if((GPIO_Init->Mode & FALLING_EDGE) == FALLING_EDGE)
 8000ac0:	683b      	ldr	r3, [r7, #0]
 8000ac2:	685b      	ldr	r3, [r3, #4]
 8000ac4:	f403 1300 	and.w	r3, r3, #2097152	; 0x200000
 8000ac8:	2b00      	cmp	r3, #0
 8000aca:	d003      	beq.n	8000ad4 <HAL_GPIO_Init+0x300>
        {
          temp |= iocurrent;
 8000acc:	69ba      	ldr	r2, [r7, #24]
 8000ace:	693b      	ldr	r3, [r7, #16]
 8000ad0:	4313      	orrs	r3, r2
 8000ad2:	61bb      	str	r3, [r7, #24]
        }
        EXTI->FTSR = temp;
 8000ad4:	4a13      	ldr	r2, [pc, #76]	; (8000b24 <HAL_GPIO_Init+0x350>)
 8000ad6:	69bb      	ldr	r3, [r7, #24]
 8000ad8:	60d3      	str	r3, [r2, #12]
  for(position = 0; position < GPIO_NUMBER; position++)
 8000ada:	69fb      	ldr	r3, [r7, #28]
 8000adc:	3301      	adds	r3, #1
 8000ade:	61fb      	str	r3, [r7, #28]
 8000ae0:	69fb      	ldr	r3, [r7, #28]
 8000ae2:	2b0f      	cmp	r3, #15
 8000ae4:	f67f ae86 	bls.w	80007f4 <HAL_GPIO_Init+0x20>
      }
    }
  }
}
 8000ae8:	bf00      	nop
 8000aea:	3724      	adds	r7, #36	; 0x24
 8000aec:	46bd      	mov	sp, r7
 8000aee:	f85d 7b04 	ldr.w	r7, [sp], #4
 8000af2:	4770      	bx	lr
 8000af4:	40023800 	.word	0x40023800
 8000af8:	40013800 	.word	0x40013800
 8000afc:	40020000 	.word	0x40020000
 8000b00:	40020400 	.word	0x40020400
 8000b04:	40020800 	.word	0x40020800
 8000b08:	40020c00 	.word	0x40020c00
 8000b0c:	40021000 	.word	0x40021000
 8000b10:	40021400 	.word	0x40021400
 8000b14:	40021800 	.word	0x40021800
 8000b18:	40021c00 	.word	0x40021c00
 8000b1c:	40022000 	.word	0x40022000
 8000b20:	40022400 	.word	0x40022400
 8000b24:	40013c00 	.word	0x40013c00

08000b28 <HAL_GPIO_WritePin>:
  *            @arg GPIO_PIN_RESET: to clear the port pin
  *            @arg GPIO_PIN_SET: to set the port pin
  * @retval None
  */
void HAL_GPIO_WritePin(GPIO_TypeDef* GPIOx, uint16_t GPIO_Pin, GPIO_PinState PinState)
{
 8000b28:	b480      	push	{r7}
 8000b2a:	b083      	sub	sp, #12
 8000b2c:	af00      	add	r7, sp, #0
 8000b2e:	6078      	str	r0, [r7, #4]
 8000b30:	460b      	mov	r3, r1
 8000b32:	807b      	strh	r3, [r7, #2]
 8000b34:	4613      	mov	r3, r2
 8000b36:	707b      	strb	r3, [r7, #1]
  /* Check the parameters */
  assert_param(IS_GPIO_PIN(GPIO_Pin));
  assert_param(IS_GPIO_PIN_ACTION(PinState));

  if(PinState != GPIO_PIN_RESET)
 8000b38:	787b      	ldrb	r3, [r7, #1]
 8000b3a:	2b00      	cmp	r3, #0
 8000b3c:	d003      	beq.n	8000b46 <HAL_GPIO_WritePin+0x1e>
  {
    GPIOx->BSRR = GPIO_Pin;
 8000b3e:	887a      	ldrh	r2, [r7, #2]
 8000b40:	687b      	ldr	r3, [r7, #4]
 8000b42:	619a      	str	r2, [r3, #24]
  }
  else
  {
    GPIOx->BSRR = (uint32_t)GPIO_Pin << 16;
  }
}
 8000b44:	e003      	b.n	8000b4e <HAL_GPIO_WritePin+0x26>
    GPIOx->BSRR = (uint32_t)GPIO_Pin << 16;
 8000b46:	887b      	ldrh	r3, [r7, #2]
 8000b48:	041a      	lsls	r2, r3, #16
 8000b4a:	687b      	ldr	r3, [r7, #4]
 8000b4c:	619a      	str	r2, [r3, #24]
}
 8000b4e:	bf00      	nop
 8000b50:	370c      	adds	r7, #12
 8000b52:	46bd      	mov	sp, r7
 8000b54:	f85d 7b04 	ldr.w	r7, [sp], #4
 8000b58:	4770      	bx	lr

08000b5a <HAL_GPIO_TogglePin>:
  * @param  GPIOx Where x can be (A..I) to select the GPIO peripheral.
  * @param  GPIO_Pin Specifies the pins to be toggled.
  * @retval None
  */
void HAL_GPIO_TogglePin(GPIO_TypeDef* GPIOx, uint16_t GPIO_Pin)
{
 8000b5a:	b480      	push	{r7}
 8000b5c:	b083      	sub	sp, #12
 8000b5e:	af00      	add	r7, sp, #0
 8000b60:	6078      	str	r0, [r7, #4]
 8000b62:	460b      	mov	r3, r1
 8000b64:	807b      	strh	r3, [r7, #2]
  /* Check the parameters */
  assert_param(IS_GPIO_PIN(GPIO_Pin));

  if ((GPIOx->ODR & GPIO_Pin) == GPIO_Pin)
 8000b66:	687b      	ldr	r3, [r7, #4]
 8000b68:	695a      	ldr	r2, [r3, #20]
 8000b6a:	887b      	ldrh	r3, [r7, #2]
 8000b6c:	401a      	ands	r2, r3
 8000b6e:	887b      	ldrh	r3, [r7, #2]
 8000b70:	429a      	cmp	r2, r3
 8000b72:	d104      	bne.n	8000b7e <HAL_GPIO_TogglePin+0x24>
  {
    GPIOx->BSRR = (uint32_t)GPIO_Pin << GPIO_NUMBER;
 8000b74:	887b      	ldrh	r3, [r7, #2]
 8000b76:	041a      	lsls	r2, r3, #16
 8000b78:	687b      	ldr	r3, [r7, #4]
 8000b7a:	619a      	str	r2, [r3, #24]
  }
  else
  {
    GPIOx->BSRR = GPIO_Pin;
  }
}
 8000b7c:	e002      	b.n	8000b84 <HAL_GPIO_TogglePin+0x2a>
    GPIOx->BSRR = GPIO_Pin;
 8000b7e:	887a      	ldrh	r2, [r7, #2]
 8000b80:	687b      	ldr	r3, [r7, #4]
 8000b82:	619a      	str	r2, [r3, #24]
}
 8000b84:	bf00      	nop
 8000b86:	370c      	adds	r7, #12
 8000b88:	46bd      	mov	sp, r7
 8000b8a:	f85d 7b04 	ldr.w	r7, [sp], #4
 8000b8e:	4770      	bx	lr

08000b90 <HAL_PWREx_EnableOverDrive>:
  *         During the Over-drive switch activation, no peripheral clocks should be enabled.   
  *         The peripheral clocks must be enabled once the Over-drive mode is activated.   
  * @retval HAL status
  */
HAL_StatusTypeDef HAL_PWREx_EnableOverDrive(void)
{
 8000b90:	b580      	push	{r7, lr}
 8000b92:	b082      	sub	sp, #8
 8000b94:	af00      	add	r7, sp, #0
  uint32_t tickstart = 0;
 8000b96:	2300      	movs	r3, #0
 8000b98:	607b      	str	r3, [r7, #4]

  __HAL_RCC_PWR_CLK_ENABLE();
 8000b9a:	4b23      	ldr	r3, [pc, #140]	; (8000c28 <HAL_PWREx_EnableOverDrive+0x98>)
 8000b9c:	6c1b      	ldr	r3, [r3, #64]	; 0x40
 8000b9e:	4a22      	ldr	r2, [pc, #136]	; (8000c28 <HAL_PWREx_EnableOverDrive+0x98>)
 8000ba0:	f043 5380 	orr.w	r3, r3, #268435456	; 0x10000000
 8000ba4:	6413      	str	r3, [r2, #64]	; 0x40
 8000ba6:	4b20      	ldr	r3, [pc, #128]	; (8000c28 <HAL_PWREx_EnableOverDrive+0x98>)
 8000ba8:	6c1b      	ldr	r3, [r3, #64]	; 0x40
 8000baa:	f003 5380 	and.w	r3, r3, #268435456	; 0x10000000
 8000bae:	603b      	str	r3, [r7, #0]
 8000bb0:	683b      	ldr	r3, [r7, #0]
  
  /* Enable the Over-drive to extend the clock frequency to 216 MHz */
  __HAL_PWR_OVERDRIVE_ENABLE();
 8000bb2:	4b1e      	ldr	r3, [pc, #120]	; (8000c2c <HAL_PWREx_EnableOverDrive+0x9c>)
 8000bb4:	681b      	ldr	r3, [r3, #0]
 8000bb6:	4a1d      	ldr	r2, [pc, #116]	; (8000c2c <HAL_PWREx_EnableOverDrive+0x9c>)
 8000bb8:	f443 3380 	orr.w	r3, r3, #65536	; 0x10000
 8000bbc:	6013      	str	r3, [r2, #0]

  /* Get tick */
  tickstart = HAL_GetTick();
 8000bbe:	f7ff fcf5 	bl	80005ac <HAL_GetTick>
 8000bc2:	6078      	str	r0, [r7, #4]

  while(!__HAL_PWR_GET_FLAG(PWR_FLAG_ODRDY))
 8000bc4:	e009      	b.n	8000bda <HAL_PWREx_EnableOverDrive+0x4a>
  {
    if((HAL_GetTick() - tickstart ) > PWR_OVERDRIVE_TIMEOUT_VALUE)
 8000bc6:	f7ff fcf1 	bl	80005ac <HAL_GetTick>
 8000bca:	4602      	mov	r2, r0
 8000bcc:	687b      	ldr	r3, [r7, #4]
 8000bce:	1ad3      	subs	r3, r2, r3
 8000bd0:	f5b3 7f7a 	cmp.w	r3, #1000	; 0x3e8
 8000bd4:	d901      	bls.n	8000bda <HAL_PWREx_EnableOverDrive+0x4a>
    {
      return HAL_TIMEOUT;
 8000bd6:	2303      	movs	r3, #3
 8000bd8:	e022      	b.n	8000c20 <HAL_PWREx_EnableOverDrive+0x90>
  while(!__HAL_PWR_GET_FLAG(PWR_FLAG_ODRDY))
 8000bda:	4b14      	ldr	r3, [pc, #80]	; (8000c2c <HAL_PWREx_EnableOverDrive+0x9c>)
 8000bdc:	685b      	ldr	r3, [r3, #4]
 8000bde:	f403 3380 	and.w	r3, r3, #65536	; 0x10000
 8000be2:	f5b3 3f80 	cmp.w	r3, #65536	; 0x10000
 8000be6:	d1ee      	bne.n	8000bc6 <HAL_PWREx_EnableOverDrive+0x36>
    }
  }
  
  /* Enable the Over-drive switch */
  __HAL_PWR_OVERDRIVESWITCHING_ENABLE();
 8000be8:	4b10      	ldr	r3, [pc, #64]	; (8000c2c <HAL_PWREx_EnableOverDrive+0x9c>)
 8000bea:	681b      	ldr	r3, [r3, #0]
 8000bec:	4a0f      	ldr	r2, [pc, #60]	; (8000c2c <HAL_PWREx_EnableOverDrive+0x9c>)
 8000bee:	f443 3300 	orr.w	r3, r3, #131072	; 0x20000
 8000bf2:	6013      	str	r3, [r2, #0]

  /* Get tick */
  tickstart = HAL_GetTick();
 8000bf4:	f7ff fcda 	bl	80005ac <HAL_GetTick>
 8000bf8:	6078      	str	r0, [r7, #4]

  while(!__HAL_PWR_GET_FLAG(PWR_FLAG_ODSWRDY))
 8000bfa:	e009      	b.n	8000c10 <HAL_PWREx_EnableOverDrive+0x80>
  {
    if((HAL_GetTick() - tickstart ) > PWR_OVERDRIVE_TIMEOUT_VALUE)
 8000bfc:	f7ff fcd6 	bl	80005ac <HAL_GetTick>
 8000c00:	4602      	mov	r2, r0
 8000c02:	687b      	ldr	r3, [r7, #4]
 8000c04:	1ad3      	subs	r3, r2, r3
 8000c06:	f5b3 7f7a 	cmp.w	r3, #1000	; 0x3e8
 8000c0a:	d901      	bls.n	8000c10 <HAL_PWREx_EnableOverDrive+0x80>
    {
      return HAL_TIMEOUT;
 8000c0c:	2303      	movs	r3, #3
 8000c0e:	e007      	b.n	8000c20 <HAL_PWREx_EnableOverDrive+0x90>
  while(!__HAL_PWR_GET_FLAG(PWR_FLAG_ODSWRDY))
 8000c10:	4b06      	ldr	r3, [pc, #24]	; (8000c2c <HAL_PWREx_EnableOverDrive+0x9c>)
 8000c12:	685b      	ldr	r3, [r3, #4]
 8000c14:	f403 3300 	and.w	r3, r3, #131072	; 0x20000
 8000c18:	f5b3 3f00 	cmp.w	r3, #131072	; 0x20000
 8000c1c:	d1ee      	bne.n	8000bfc <HAL_PWREx_EnableOverDrive+0x6c>
    }
  } 
  return HAL_OK;
 8000c1e:	2300      	movs	r3, #0
}
 8000c20:	4618      	mov	r0, r3
 8000c22:	3708      	adds	r7, #8
 8000c24:	46bd      	mov	sp, r7
 8000c26:	bd80      	pop	{r7, pc}
 8000c28:	40023800 	.word	0x40023800
 8000c2c:	40007000 	.word	0x40007000

08000c30 <HAL_RCC_OscConfig>:
  *         supported by this function. User should request a transition to HSE Off
  *         first and then HSE On or HSE Bypass.
  * @retval HAL status
  */
HAL_StatusTypeDef HAL_RCC_OscConfig(RCC_OscInitTypeDef  *RCC_OscInitStruct)
{
 8000c30:	b580      	push	{r7, lr}
 8000c32:	b086      	sub	sp, #24
 8000c34:	af00      	add	r7, sp, #0
 8000c36:	6078      	str	r0, [r7, #4]
  uint32_t tickstart;
  FlagStatus pwrclkchanged = RESET;
 8000c38:	2300      	movs	r3, #0
 8000c3a:	75fb      	strb	r3, [r7, #23]

  /* Check Null pointer */
  if(RCC_OscInitStruct == NULL)
 8000c3c:	687b      	ldr	r3, [r7, #4]
 8000c3e:	2b00      	cmp	r3, #0
 8000c40:	d101      	bne.n	8000c46 <HAL_RCC_OscConfig+0x16>
  {
    return HAL_ERROR;
 8000c42:	2301      	movs	r3, #1
 8000c44:	e25c      	b.n	8001100 <HAL_RCC_OscConfig+0x4d0>

  /* Check the parameters */
  assert_param(IS_RCC_OSCILLATORTYPE(RCC_OscInitStruct->OscillatorType));

  /*------------------------------- HSE Configuration ------------------------*/
  if(((RCC_OscInitStruct->OscillatorType) & RCC_OSCILLATORTYPE_HSE) == RCC_OSCILLATORTYPE_HSE)
 8000c46:	687b      	ldr	r3, [r7, #4]
 8000c48:	681b      	ldr	r3, [r3, #0]
 8000c4a:	f003 0301 	and.w	r3, r3, #1
 8000c4e:	2b00      	cmp	r3, #0
 8000c50:	f000 8087 	beq.w	8000d62 <HAL_RCC_OscConfig+0x132>
  {
    /* Check the parameters */
    assert_param(IS_RCC_HSE(RCC_OscInitStruct->HSEState));
    /* When the HSE is used as system clock or clock source for PLL, It can not be disabled */
    if((__HAL_RCC_GET_SYSCLK_SOURCE() == RCC_SYSCLKSOURCE_STATUS_HSE)
 8000c54:	4b96      	ldr	r3, [pc, #600]	; (8000eb0 <HAL_RCC_OscConfig+0x280>)
 8000c56:	689b      	ldr	r3, [r3, #8]
 8000c58:	f003 030c 	and.w	r3, r3, #12
 8000c5c:	2b04      	cmp	r3, #4
 8000c5e:	d00c      	beq.n	8000c7a <HAL_RCC_OscConfig+0x4a>
       || ((__HAL_RCC_GET_SYSCLK_SOURCE() == RCC_SYSCLKSOURCE_STATUS_PLLCLK) && ((RCC->PLLCFGR & RCC_PLLCFGR_PLLSRC) == RCC_PLLCFGR_PLLSRC_HSE)))
 8000c60:	4b93      	ldr	r3, [pc, #588]	; (8000eb0 <HAL_RCC_OscConfig+0x280>)
 8000c62:	689b      	ldr	r3, [r3, #8]
 8000c64:	f003 030c 	and.w	r3, r3, #12
 8000c68:	2b08      	cmp	r3, #8
 8000c6a:	d112      	bne.n	8000c92 <HAL_RCC_OscConfig+0x62>
 8000c6c:	4b90      	ldr	r3, [pc, #576]	; (8000eb0 <HAL_RCC_OscConfig+0x280>)
 8000c6e:	685b      	ldr	r3, [r3, #4]
 8000c70:	f403 0380 	and.w	r3, r3, #4194304	; 0x400000
 8000c74:	f5b3 0f80 	cmp.w	r3, #4194304	; 0x400000
 8000c78:	d10b      	bne.n	8000c92 <HAL_RCC_OscConfig+0x62>
    {
      if((__HAL_RCC_GET_FLAG(RCC_FLAG_HSERDY) != RESET) && (RCC_OscInitStruct->HSEState == RCC_HSE_OFF))
 8000c7a:	4b8d      	ldr	r3, [pc, #564]	; (8000eb0 <HAL_RCC_OscConfig+0x280>)
 8000c7c:	681b      	ldr	r3, [r3, #0]
 8000c7e:	f403 3300 	and.w	r3, r3, #131072	; 0x20000
 8000c82:	2b00      	cmp	r3, #0
 8000c84:	d06c      	beq.n	8000d60 <HAL_RCC_OscConfig+0x130>
 8000c86:	687b      	ldr	r3, [r7, #4]
 8000c88:	685b      	ldr	r3, [r3, #4]
 8000c8a:	2b00      	cmp	r3, #0
 8000c8c:	d168      	bne.n	8000d60 <HAL_RCC_OscConfig+0x130>
      {
        return HAL_ERROR;
 8000c8e:	2301      	movs	r3, #1
 8000c90:	e236      	b.n	8001100 <HAL_RCC_OscConfig+0x4d0>
      }
    }
    else
    {
      /* Set the new HSE configuration ---------------------------------------*/
      __HAL_RCC_HSE_CONFIG(RCC_OscInitStruct->HSEState);
 8000c92:	687b      	ldr	r3, [r7, #4]
 8000c94:	685b      	ldr	r3, [r3, #4]
 8000c96:	f5b3 3f80 	cmp.w	r3, #65536	; 0x10000
 8000c9a:	d106      	bne.n	8000caa <HAL_RCC_OscConfig+0x7a>
 8000c9c:	4b84      	ldr	r3, [pc, #528]	; (8000eb0 <HAL_RCC_OscConfig+0x280>)
 8000c9e:	681b      	ldr	r3, [r3, #0]
 8000ca0:	4a83      	ldr	r2, [pc, #524]	; (8000eb0 <HAL_RCC_OscConfig+0x280>)
 8000ca2:	f443 3380 	orr.w	r3, r3, #65536	; 0x10000
 8000ca6:	6013      	str	r3, [r2, #0]
 8000ca8:	e02e      	b.n	8000d08 <HAL_RCC_OscConfig+0xd8>
 8000caa:	687b      	ldr	r3, [r7, #4]
 8000cac:	685b      	ldr	r3, [r3, #4]
 8000cae:	2b00      	cmp	r3, #0
 8000cb0:	d10c      	bne.n	8000ccc <HAL_RCC_OscConfig+0x9c>
 8000cb2:	4b7f      	ldr	r3, [pc, #508]	; (8000eb0 <HAL_RCC_OscConfig+0x280>)
 8000cb4:	681b      	ldr	r3, [r3, #0]
 8000cb6:	4a7e      	ldr	r2, [pc, #504]	; (8000eb0 <HAL_RCC_OscConfig+0x280>)
 8000cb8:	f423 3380 	bic.w	r3, r3, #65536	; 0x10000
 8000cbc:	6013      	str	r3, [r2, #0]
 8000cbe:	4b7c      	ldr	r3, [pc, #496]	; (8000eb0 <HAL_RCC_OscConfig+0x280>)
 8000cc0:	681b      	ldr	r3, [r3, #0]
 8000cc2:	4a7b      	ldr	r2, [pc, #492]	; (8000eb0 <HAL_RCC_OscConfig+0x280>)
 8000cc4:	f423 2380 	bic.w	r3, r3, #262144	; 0x40000
 8000cc8:	6013      	str	r3, [r2, #0]
 8000cca:	e01d      	b.n	8000d08 <HAL_RCC_OscConfig+0xd8>
 8000ccc:	687b      	ldr	r3, [r7, #4]
 8000cce:	685b      	ldr	r3, [r3, #4]
 8000cd0:	f5b3 2fa0 	cmp.w	r3, #327680	; 0x50000
 8000cd4:	d10c      	bne.n	8000cf0 <HAL_RCC_OscConfig+0xc0>
 8000cd6:	4b76      	ldr	r3, [pc, #472]	; (8000eb0 <HAL_RCC_OscConfig+0x280>)
 8000cd8:	681b      	ldr	r3, [r3, #0]
 8000cda:	4a75      	ldr	r2, [pc, #468]	; (8000eb0 <HAL_RCC_OscConfig+0x280>)
 8000cdc:	f443 2380 	orr.w	r3, r3, #262144	; 0x40000
 8000ce0:	6013      	str	r3, [r2, #0]
 8000ce2:	4b73      	ldr	r3, [pc, #460]	; (8000eb0 <HAL_RCC_OscConfig+0x280>)
 8000ce4:	681b      	ldr	r3, [r3, #0]
 8000ce6:	4a72      	ldr	r2, [pc, #456]	; (8000eb0 <HAL_RCC_OscConfig+0x280>)
 8000ce8:	f443 3380 	orr.w	r3, r3, #65536	; 0x10000
 8000cec:	6013      	str	r3, [r2, #0]
 8000cee:	e00b      	b.n	8000d08 <HAL_RCC_OscConfig+0xd8>
 8000cf0:	4b6f      	ldr	r3, [pc, #444]	; (8000eb0 <HAL_RCC_OscConfig+0x280>)
 8000cf2:	681b      	ldr	r3, [r3, #0]
 8000cf4:	4a6e      	ldr	r2, [pc, #440]	; (8000eb0 <HAL_RCC_OscConfig+0x280>)
 8000cf6:	f423 3380 	bic.w	r3, r3, #65536	; 0x10000
 8000cfa:	6013      	str	r3, [r2, #0]
 8000cfc:	4b6c      	ldr	r3, [pc, #432]	; (8000eb0 <HAL_RCC_OscConfig+0x280>)
 8000cfe:	681b      	ldr	r3, [r3, #0]
 8000d00:	4a6b      	ldr	r2, [pc, #428]	; (8000eb0 <HAL_RCC_OscConfig+0x280>)
 8000d02:	f423 2380 	bic.w	r3, r3, #262144	; 0x40000
 8000d06:	6013      	str	r3, [r2, #0]

      /* Check the HSE State */
      if(RCC_OscInitStruct->HSEState != RCC_HSE_OFF)
 8000d08:	687b      	ldr	r3, [r7, #4]
 8000d0a:	685b      	ldr	r3, [r3, #4]
 8000d0c:	2b00      	cmp	r3, #0
 8000d0e:	d013      	beq.n	8000d38 <HAL_RCC_OscConfig+0x108>
      {
        /* Get Start Tick*/
        tickstart = HAL_GetTick();
 8000d10:	f7ff fc4c 	bl	80005ac <HAL_GetTick>
 8000d14:	6138      	str	r0, [r7, #16]

        /* Wait till HSE is ready */
        while(__HAL_RCC_GET_FLAG(RCC_FLAG_HSERDY) == RESET)
 8000d16:	e008      	b.n	8000d2a <HAL_RCC_OscConfig+0xfa>
        {
          if((HAL_GetTick() - tickstart ) > HSE_TIMEOUT_VALUE)
 8000d18:	f7ff fc48 	bl	80005ac <HAL_GetTick>
 8000d1c:	4602      	mov	r2, r0
 8000d1e:	693b      	ldr	r3, [r7, #16]
 8000d20:	1ad3      	subs	r3, r2, r3
 8000d22:	2b64      	cmp	r3, #100	; 0x64
 8000d24:	d901      	bls.n	8000d2a <HAL_RCC_OscConfig+0xfa>
          {
            return HAL_TIMEOUT;
 8000d26:	2303      	movs	r3, #3
 8000d28:	e1ea      	b.n	8001100 <HAL_RCC_OscConfig+0x4d0>
        while(__HAL_RCC_GET_FLAG(RCC_FLAG_HSERDY) == RESET)
 8000d2a:	4b61      	ldr	r3, [pc, #388]	; (8000eb0 <HAL_RCC_OscConfig+0x280>)
 8000d2c:	681b      	ldr	r3, [r3, #0]
 8000d2e:	f403 3300 	and.w	r3, r3, #131072	; 0x20000
 8000d32:	2b00      	cmp	r3, #0
 8000d34:	d0f0      	beq.n	8000d18 <HAL_RCC_OscConfig+0xe8>
 8000d36:	e014      	b.n	8000d62 <HAL_RCC_OscConfig+0x132>
        }
      }
      else
      {
        /* Get Start Tick*/
        tickstart = HAL_GetTick();
 8000d38:	f7ff fc38 	bl	80005ac <HAL_GetTick>
 8000d3c:	6138      	str	r0, [r7, #16]

        /* Wait till HSE is bypassed or disabled */
        while(__HAL_RCC_GET_FLAG(RCC_FLAG_HSERDY) != RESET)
 8000d3e:	e008      	b.n	8000d52 <HAL_RCC_OscConfig+0x122>
        {
           if((HAL_GetTick() - tickstart ) > HSE_TIMEOUT_VALUE)
 8000d40:	f7ff fc34 	bl	80005ac <HAL_GetTick>
 8000d44:	4602      	mov	r2, r0
 8000d46:	693b      	ldr	r3, [r7, #16]
 8000d48:	1ad3      	subs	r3, r2, r3
 8000d4a:	2b64      	cmp	r3, #100	; 0x64
 8000d4c:	d901      	bls.n	8000d52 <HAL_RCC_OscConfig+0x122>
          {
            return HAL_TIMEOUT;
 8000d4e:	2303      	movs	r3, #3
 8000d50:	e1d6      	b.n	8001100 <HAL_RCC_OscConfig+0x4d0>
        while(__HAL_RCC_GET_FLAG(RCC_FLAG_HSERDY) != RESET)
 8000d52:	4b57      	ldr	r3, [pc, #348]	; (8000eb0 <HAL_RCC_OscConfig+0x280>)
 8000d54:	681b      	ldr	r3, [r3, #0]
 8000d56:	f403 3300 	and.w	r3, r3, #131072	; 0x20000
 8000d5a:	2b00      	cmp	r3, #0
 8000d5c:	d1f0      	bne.n	8000d40 <HAL_RCC_OscConfig+0x110>
 8000d5e:	e000      	b.n	8000d62 <HAL_RCC_OscConfig+0x132>
      if((__HAL_RCC_GET_FLAG(RCC_FLAG_HSERDY) != RESET) && (RCC_OscInitStruct->HSEState == RCC_HSE_OFF))
 8000d60:	bf00      	nop
        }
      }
    }
  }
  /*----------------------------- HSI Configuration --------------------------*/
  if(((RCC_OscInitStruct->OscillatorType) & RCC_OSCILLATORTYPE_HSI) == RCC_OSCILLATORTYPE_HSI)
 8000d62:	687b      	ldr	r3, [r7, #4]
 8000d64:	681b      	ldr	r3, [r3, #0]
 8000d66:	f003 0302 	and.w	r3, r3, #2
 8000d6a:	2b00      	cmp	r3, #0
 8000d6c:	d069      	beq.n	8000e42 <HAL_RCC_OscConfig+0x212>
    /* Check the parameters */
    assert_param(IS_RCC_HSI(RCC_OscInitStruct->HSIState));
    assert_param(IS_RCC_CALIBRATION_VALUE(RCC_OscInitStruct->HSICalibrationValue));

    /* Check if HSI is used as system clock or as PLL source when PLL is selected as system clock */
    if((__HAL_RCC_GET_SYSCLK_SOURCE() == RCC_SYSCLKSOURCE_STATUS_HSI)
 8000d6e:	4b50      	ldr	r3, [pc, #320]	; (8000eb0 <HAL_RCC_OscConfig+0x280>)
 8000d70:	689b      	ldr	r3, [r3, #8]
 8000d72:	f003 030c 	and.w	r3, r3, #12
 8000d76:	2b00      	cmp	r3, #0
 8000d78:	d00b      	beq.n	8000d92 <HAL_RCC_OscConfig+0x162>
       || ((__HAL_RCC_GET_SYSCLK_SOURCE() == RCC_SYSCLKSOURCE_STATUS_PLLCLK) && ((RCC->PLLCFGR & RCC_PLLCFGR_PLLSRC) == RCC_PLLCFGR_PLLSRC_HSI)))
 8000d7a:	4b4d      	ldr	r3, [pc, #308]	; (8000eb0 <HAL_RCC_OscConfig+0x280>)
 8000d7c:	689b      	ldr	r3, [r3, #8]
 8000d7e:	f003 030c 	and.w	r3, r3, #12
 8000d82:	2b08      	cmp	r3, #8
 8000d84:	d11c      	bne.n	8000dc0 <HAL_RCC_OscConfig+0x190>
 8000d86:	4b4a      	ldr	r3, [pc, #296]	; (8000eb0 <HAL_RCC_OscConfig+0x280>)
 8000d88:	685b      	ldr	r3, [r3, #4]
 8000d8a:	f403 0380 	and.w	r3, r3, #4194304	; 0x400000
 8000d8e:	2b00      	cmp	r3, #0
 8000d90:	d116      	bne.n	8000dc0 <HAL_RCC_OscConfig+0x190>
    {
      /* When HSI is used as system clock it will not disabled */
      if((__HAL_RCC_GET_FLAG(RCC_FLAG_HSIRDY) != RESET) && (RCC_OscInitStruct->HSIState != RCC_HSI_ON))
 8000d92:	4b47      	ldr	r3, [pc, #284]	; (8000eb0 <HAL_RCC_OscConfig+0x280>)
 8000d94:	681b      	ldr	r3, [r3, #0]
 8000d96:	f003 0302 	and.w	r3, r3, #2
 8000d9a:	2b00      	cmp	r3, #0
 8000d9c:	d005      	beq.n	8000daa <HAL_RCC_OscConfig+0x17a>
 8000d9e:	687b      	ldr	r3, [r7, #4]
 8000da0:	68db      	ldr	r3, [r3, #12]
 8000da2:	2b01      	cmp	r3, #1
 8000da4:	d001      	beq.n	8000daa <HAL_RCC_OscConfig+0x17a>
      {
        return HAL_ERROR;
 8000da6:	2301      	movs	r3, #1
 8000da8:	e1aa      	b.n	8001100 <HAL_RCC_OscConfig+0x4d0>
      }
      /* Otherwise, just the calibration is allowed */
      else
      {
        /* Adjusts the Internal High Speed oscillator (HSI) calibration value.*/
        __HAL_RCC_HSI_CALIBRATIONVALUE_ADJUST(RCC_OscInitStruct->HSICalibrationValue);
 8000daa:	4b41      	ldr	r3, [pc, #260]	; (8000eb0 <HAL_RCC_OscConfig+0x280>)
 8000dac:	681b      	ldr	r3, [r3, #0]
 8000dae:	f023 02f8 	bic.w	r2, r3, #248	; 0xf8
 8000db2:	687b      	ldr	r3, [r7, #4]
 8000db4:	691b      	ldr	r3, [r3, #16]
 8000db6:	00db      	lsls	r3, r3, #3
 8000db8:	493d      	ldr	r1, [pc, #244]	; (8000eb0 <HAL_RCC_OscConfig+0x280>)
 8000dba:	4313      	orrs	r3, r2
 8000dbc:	600b      	str	r3, [r1, #0]
      if((__HAL_RCC_GET_FLAG(RCC_FLAG_HSIRDY) != RESET) && (RCC_OscInitStruct->HSIState != RCC_HSI_ON))
 8000dbe:	e040      	b.n	8000e42 <HAL_RCC_OscConfig+0x212>
      }
    }
    else
    {
      /* Check the HSI State */
      if((RCC_OscInitStruct->HSIState)!= RCC_HSI_OFF)
 8000dc0:	687b      	ldr	r3, [r7, #4]
 8000dc2:	68db      	ldr	r3, [r3, #12]
 8000dc4:	2b00      	cmp	r3, #0
 8000dc6:	d023      	beq.n	8000e10 <HAL_RCC_OscConfig+0x1e0>
      {
        /* Enable the Internal High Speed oscillator (HSI). */
        __HAL_RCC_HSI_ENABLE();
 8000dc8:	4b39      	ldr	r3, [pc, #228]	; (8000eb0 <HAL_RCC_OscConfig+0x280>)
 8000dca:	681b      	ldr	r3, [r3, #0]
 8000dcc:	4a38      	ldr	r2, [pc, #224]	; (8000eb0 <HAL_RCC_OscConfig+0x280>)
 8000dce:	f043 0301 	orr.w	r3, r3, #1
 8000dd2:	6013      	str	r3, [r2, #0]

        /* Get Start Tick*/
        tickstart = HAL_GetTick();
 8000dd4:	f7ff fbea 	bl	80005ac <HAL_GetTick>
 8000dd8:	6138      	str	r0, [r7, #16]

        /* Wait till HSI is ready */
        while(__HAL_RCC_GET_FLAG(RCC_FLAG_HSIRDY) == RESET)
 8000dda:	e008      	b.n	8000dee <HAL_RCC_OscConfig+0x1be>
        {
          if((HAL_GetTick() - tickstart ) > HSI_TIMEOUT_VALUE)
 8000ddc:	f7ff fbe6 	bl	80005ac <HAL_GetTick>
 8000de0:	4602      	mov	r2, r0
 8000de2:	693b      	ldr	r3, [r7, #16]
 8000de4:	1ad3      	subs	r3, r2, r3
 8000de6:	2b02      	cmp	r3, #2
 8000de8:	d901      	bls.n	8000dee <HAL_RCC_OscConfig+0x1be>
          {
            return HAL_TIMEOUT;
 8000dea:	2303      	movs	r3, #3
 8000dec:	e188      	b.n	8001100 <HAL_RCC_OscConfig+0x4d0>
        while(__HAL_RCC_GET_FLAG(RCC_FLAG_HSIRDY) == RESET)
 8000dee:	4b30      	ldr	r3, [pc, #192]	; (8000eb0 <HAL_RCC_OscConfig+0x280>)
 8000df0:	681b      	ldr	r3, [r3, #0]
 8000df2:	f003 0302 	and.w	r3, r3, #2
 8000df6:	2b00      	cmp	r3, #0
 8000df8:	d0f0      	beq.n	8000ddc <HAL_RCC_OscConfig+0x1ac>
          }
        }

        /* Adjusts the Internal High Speed oscillator (HSI) calibration value.*/
        __HAL_RCC_HSI_CALIBRATIONVALUE_ADJUST(RCC_OscInitStruct->HSICalibrationValue);
 8000dfa:	4b2d      	ldr	r3, [pc, #180]	; (8000eb0 <HAL_RCC_OscConfig+0x280>)
 8000dfc:	681b      	ldr	r3, [r3, #0]
 8000dfe:	f023 02f8 	bic.w	r2, r3, #248	; 0xf8
 8000e02:	687b      	ldr	r3, [r7, #4]
 8000e04:	691b      	ldr	r3, [r3, #16]
 8000e06:	00db      	lsls	r3, r3, #3
 8000e08:	4929      	ldr	r1, [pc, #164]	; (8000eb0 <HAL_RCC_OscConfig+0x280>)
 8000e0a:	4313      	orrs	r3, r2
 8000e0c:	600b      	str	r3, [r1, #0]
 8000e0e:	e018      	b.n	8000e42 <HAL_RCC_OscConfig+0x212>
      }
      else
      {
        /* Disable the Internal High Speed oscillator (HSI). */
        __HAL_RCC_HSI_DISABLE();
 8000e10:	4b27      	ldr	r3, [pc, #156]	; (8000eb0 <HAL_RCC_OscConfig+0x280>)
 8000e12:	681b      	ldr	r3, [r3, #0]
 8000e14:	4a26      	ldr	r2, [pc, #152]	; (8000eb0 <HAL_RCC_OscConfig+0x280>)
 8000e16:	f023 0301 	bic.w	r3, r3, #1
 8000e1a:	6013      	str	r3, [r2, #0]

        /* Get Start Tick*/
        tickstart = HAL_GetTick();
 8000e1c:	f7ff fbc6 	bl	80005ac <HAL_GetTick>
 8000e20:	6138      	str	r0, [r7, #16]

        /* Wait till HSI is ready */
        while(__HAL_RCC_GET_FLAG(RCC_FLAG_HSIRDY) != RESET)
 8000e22:	e008      	b.n	8000e36 <HAL_RCC_OscConfig+0x206>
        {
          if((HAL_GetTick() - tickstart ) > HSI_TIMEOUT_VALUE)
 8000e24:	f7ff fbc2 	bl	80005ac <HAL_GetTick>
 8000e28:	4602      	mov	r2, r0
 8000e2a:	693b      	ldr	r3, [r7, #16]
 8000e2c:	1ad3      	subs	r3, r2, r3
 8000e2e:	2b02      	cmp	r3, #2
 8000e30:	d901      	bls.n	8000e36 <HAL_RCC_OscConfig+0x206>
          {
            return HAL_TIMEOUT;
 8000e32:	2303      	movs	r3, #3
 8000e34:	e164      	b.n	8001100 <HAL_RCC_OscConfig+0x4d0>
        while(__HAL_RCC_GET_FLAG(RCC_FLAG_HSIRDY) != RESET)
 8000e36:	4b1e      	ldr	r3, [pc, #120]	; (8000eb0 <HAL_RCC_OscConfig+0x280>)
 8000e38:	681b      	ldr	r3, [r3, #0]
 8000e3a:	f003 0302 	and.w	r3, r3, #2
 8000e3e:	2b00      	cmp	r3, #0
 8000e40:	d1f0      	bne.n	8000e24 <HAL_RCC_OscConfig+0x1f4>
        }
      }
    }
  }
  /*------------------------------ LSI Configuration -------------------------*/
  if(((RCC_OscInitStruct->OscillatorType) & RCC_OSCILLATORTYPE_LSI) == RCC_OSCILLATORTYPE_LSI)
 8000e42:	687b      	ldr	r3, [r7, #4]
 8000e44:	681b      	ldr	r3, [r3, #0]
 8000e46:	f003 0308 	and.w	r3, r3, #8
 8000e4a:	2b00      	cmp	r3, #0
 8000e4c:	d038      	beq.n	8000ec0 <HAL_RCC_OscConfig+0x290>
  {
    /* Check the parameters */
    assert_param(IS_RCC_LSI(RCC_OscInitStruct->LSIState));

    /* Check the LSI State */
    if((RCC_OscInitStruct->LSIState)!= RCC_LSI_OFF)
 8000e4e:	687b      	ldr	r3, [r7, #4]
 8000e50:	695b      	ldr	r3, [r3, #20]
 8000e52:	2b00      	cmp	r3, #0
 8000e54:	d019      	beq.n	8000e8a <HAL_RCC_OscConfig+0x25a>
    {
      /* Enable the Internal Low Speed oscillator (LSI). */
      __HAL_RCC_LSI_ENABLE();
 8000e56:	4b16      	ldr	r3, [pc, #88]	; (8000eb0 <HAL_RCC_OscConfig+0x280>)
 8000e58:	6f5b      	ldr	r3, [r3, #116]	; 0x74
 8000e5a:	4a15      	ldr	r2, [pc, #84]	; (8000eb0 <HAL_RCC_OscConfig+0x280>)
 8000e5c:	f043 0301 	orr.w	r3, r3, #1
 8000e60:	6753      	str	r3, [r2, #116]	; 0x74

      /* Get Start Tick*/
      tickstart = HAL_GetTick();
 8000e62:	f7ff fba3 	bl	80005ac <HAL_GetTick>
 8000e66:	6138      	str	r0, [r7, #16]

      /* Wait till LSI is ready */
      while(__HAL_RCC_GET_FLAG(RCC_FLAG_LSIRDY) == RESET)
 8000e68:	e008      	b.n	8000e7c <HAL_RCC_OscConfig+0x24c>
      {
        if((HAL_GetTick() - tickstart ) > LSI_TIMEOUT_VALUE)
 8000e6a:	f7ff fb9f 	bl	80005ac <HAL_GetTick>
 8000e6e:	4602      	mov	r2, r0
 8000e70:	693b      	ldr	r3, [r7, #16]
 8000e72:	1ad3      	subs	r3, r2, r3
 8000e74:	2b02      	cmp	r3, #2
 8000e76:	d901      	bls.n	8000e7c <HAL_RCC_OscConfig+0x24c>
        {
          return HAL_TIMEOUT;
 8000e78:	2303      	movs	r3, #3
 8000e7a:	e141      	b.n	8001100 <HAL_RCC_OscConfig+0x4d0>
      while(__HAL_RCC_GET_FLAG(RCC_FLAG_LSIRDY) == RESET)
 8000e7c:	4b0c      	ldr	r3, [pc, #48]	; (8000eb0 <HAL_RCC_OscConfig+0x280>)
 8000e7e:	6f5b      	ldr	r3, [r3, #116]	; 0x74
 8000e80:	f003 0302 	and.w	r3, r3, #2
 8000e84:	2b00      	cmp	r3, #0
 8000e86:	d0f0      	beq.n	8000e6a <HAL_RCC_OscConfig+0x23a>
 8000e88:	e01a      	b.n	8000ec0 <HAL_RCC_OscConfig+0x290>
      }
    }
    else
    {
      /* Disable the Internal Low Speed oscillator (LSI). */
      __HAL_RCC_LSI_DISABLE();
 8000e8a:	4b09      	ldr	r3, [pc, #36]	; (8000eb0 <HAL_RCC_OscConfig+0x280>)
 8000e8c:	6f5b      	ldr	r3, [r3, #116]	; 0x74
 8000e8e:	4a08      	ldr	r2, [pc, #32]	; (8000eb0 <HAL_RCC_OscConfig+0x280>)
 8000e90:	f023 0301 	bic.w	r3, r3, #1
 8000e94:	6753      	str	r3, [r2, #116]	; 0x74

      /* Get Start Tick*/
      tickstart = HAL_GetTick();
 8000e96:	f7ff fb89 	bl	80005ac <HAL_GetTick>
 8000e9a:	6138      	str	r0, [r7, #16]

      /* Wait till LSI is ready */
      while(__HAL_RCC_GET_FLAG(RCC_FLAG_LSIRDY) != RESET)
 8000e9c:	e00a      	b.n	8000eb4 <HAL_RCC_OscConfig+0x284>
      {
        if((HAL_GetTick() - tickstart ) > LSI_TIMEOUT_VALUE)
 8000e9e:	f7ff fb85 	bl	80005ac <HAL_GetTick>
 8000ea2:	4602      	mov	r2, r0
 8000ea4:	693b      	ldr	r3, [r7, #16]
 8000ea6:	1ad3      	subs	r3, r2, r3
 8000ea8:	2b02      	cmp	r3, #2
 8000eaa:	d903      	bls.n	8000eb4 <HAL_RCC_OscConfig+0x284>
        {
          return HAL_TIMEOUT;
 8000eac:	2303      	movs	r3, #3
 8000eae:	e127      	b.n	8001100 <HAL_RCC_OscConfig+0x4d0>
 8000eb0:	40023800 	.word	0x40023800
      while(__HAL_RCC_GET_FLAG(RCC_FLAG_LSIRDY) != RESET)
 8000eb4:	4b94      	ldr	r3, [pc, #592]	; (8001108 <HAL_RCC_OscConfig+0x4d8>)
 8000eb6:	6f5b      	ldr	r3, [r3, #116]	; 0x74
 8000eb8:	f003 0302 	and.w	r3, r3, #2
 8000ebc:	2b00      	cmp	r3, #0
 8000ebe:	d1ee      	bne.n	8000e9e <HAL_RCC_OscConfig+0x26e>
        }
      }
    }
  }
  /*------------------------------ LSE Configuration -------------------------*/
  if(((RCC_OscInitStruct->OscillatorType) & RCC_OSCILLATORTYPE_LSE) == RCC_OSCILLATORTYPE_LSE)
 8000ec0:	687b      	ldr	r3, [r7, #4]
 8000ec2:	681b      	ldr	r3, [r3, #0]
 8000ec4:	f003 0304 	and.w	r3, r3, #4
 8000ec8:	2b00      	cmp	r3, #0
 8000eca:	f000 80a4 	beq.w	8001016 <HAL_RCC_OscConfig+0x3e6>
    /* Check the parameters */
    assert_param(IS_RCC_LSE(RCC_OscInitStruct->LSEState));

    /* Update LSE configuration in Backup Domain control register    */
    /* Requires to enable write access to Backup Domain of necessary */
    if(__HAL_RCC_PWR_IS_CLK_DISABLED())
 8000ece:	4b8e      	ldr	r3, [pc, #568]	; (8001108 <HAL_RCC_OscConfig+0x4d8>)
 8000ed0:	6c1b      	ldr	r3, [r3, #64]	; 0x40
 8000ed2:	f003 5380 	and.w	r3, r3, #268435456	; 0x10000000
 8000ed6:	2b00      	cmp	r3, #0
 8000ed8:	d10d      	bne.n	8000ef6 <HAL_RCC_OscConfig+0x2c6>
    {
      /* Enable Power Clock*/
      __HAL_RCC_PWR_CLK_ENABLE();
 8000eda:	4b8b      	ldr	r3, [pc, #556]	; (8001108 <HAL_RCC_OscConfig+0x4d8>)
 8000edc:	6c1b      	ldr	r3, [r3, #64]	; 0x40
 8000ede:	4a8a      	ldr	r2, [pc, #552]	; (8001108 <HAL_RCC_OscConfig+0x4d8>)
 8000ee0:	f043 5380 	orr.w	r3, r3, #268435456	; 0x10000000
 8000ee4:	6413      	str	r3, [r2, #64]	; 0x40
 8000ee6:	4b88      	ldr	r3, [pc, #544]	; (8001108 <HAL_RCC_OscConfig+0x4d8>)
 8000ee8:	6c1b      	ldr	r3, [r3, #64]	; 0x40
 8000eea:	f003 5380 	and.w	r3, r3, #268435456	; 0x10000000
 8000eee:	60fb      	str	r3, [r7, #12]
 8000ef0:	68fb      	ldr	r3, [r7, #12]
      pwrclkchanged = SET;
 8000ef2:	2301      	movs	r3, #1
 8000ef4:	75fb      	strb	r3, [r7, #23]
    }

    if(HAL_IS_BIT_CLR(PWR->CR1, PWR_CR1_DBP))
 8000ef6:	4b85      	ldr	r3, [pc, #532]	; (800110c <HAL_RCC_OscConfig+0x4dc>)
 8000ef8:	681b      	ldr	r3, [r3, #0]
 8000efa:	f403 7380 	and.w	r3, r3, #256	; 0x100
 8000efe:	2b00      	cmp	r3, #0
 8000f00:	d118      	bne.n	8000f34 <HAL_RCC_OscConfig+0x304>
    {
      /* Enable write access to Backup domain */
      PWR->CR1 |= PWR_CR1_DBP;
 8000f02:	4b82      	ldr	r3, [pc, #520]	; (800110c <HAL_RCC_OscConfig+0x4dc>)
 8000f04:	681b      	ldr	r3, [r3, #0]
 8000f06:	4a81      	ldr	r2, [pc, #516]	; (800110c <HAL_RCC_OscConfig+0x4dc>)
 8000f08:	f443 7380 	orr.w	r3, r3, #256	; 0x100
 8000f0c:	6013      	str	r3, [r2, #0]

      /* Wait for Backup domain Write protection disable */
      tickstart = HAL_GetTick();
 8000f0e:	f7ff fb4d 	bl	80005ac <HAL_GetTick>
 8000f12:	6138      	str	r0, [r7, #16]

      while(HAL_IS_BIT_CLR(PWR->CR1, PWR_CR1_DBP))
 8000f14:	e008      	b.n	8000f28 <HAL_RCC_OscConfig+0x2f8>
      {
        if((HAL_GetTick() - tickstart ) > RCC_DBP_TIMEOUT_VALUE)
 8000f16:	f7ff fb49 	bl	80005ac <HAL_GetTick>
 8000f1a:	4602      	mov	r2, r0
 8000f1c:	693b      	ldr	r3, [r7, #16]
 8000f1e:	1ad3      	subs	r3, r2, r3
 8000f20:	2b64      	cmp	r3, #100	; 0x64
 8000f22:	d901      	bls.n	8000f28 <HAL_RCC_OscConfig+0x2f8>
        {
          return HAL_TIMEOUT;
 8000f24:	2303      	movs	r3, #3
 8000f26:	e0eb      	b.n	8001100 <HAL_RCC_OscConfig+0x4d0>
      while(HAL_IS_BIT_CLR(PWR->CR1, PWR_CR1_DBP))
 8000f28:	4b78      	ldr	r3, [pc, #480]	; (800110c <HAL_RCC_OscConfig+0x4dc>)
 8000f2a:	681b      	ldr	r3, [r3, #0]
 8000f2c:	f403 7380 	and.w	r3, r3, #256	; 0x100
 8000f30:	2b00      	cmp	r3, #0
 8000f32:	d0f0      	beq.n	8000f16 <HAL_RCC_OscConfig+0x2e6>
        }
      }
    }

    /* Set the new LSE configuration -----------------------------------------*/
    __HAL_RCC_LSE_CONFIG(RCC_OscInitStruct->LSEState);
 8000f34:	687b      	ldr	r3, [r7, #4]
 8000f36:	689b      	ldr	r3, [r3, #8]
 8000f38:	2b01      	cmp	r3, #1
 8000f3a:	d106      	bne.n	8000f4a <HAL_RCC_OscConfig+0x31a>
 8000f3c:	4b72      	ldr	r3, [pc, #456]	; (8001108 <HAL_RCC_OscConfig+0x4d8>)
 8000f3e:	6f1b      	ldr	r3, [r3, #112]	; 0x70
 8000f40:	4a71      	ldr	r2, [pc, #452]	; (8001108 <HAL_RCC_OscConfig+0x4d8>)
 8000f42:	f043 0301 	orr.w	r3, r3, #1
 8000f46:	6713      	str	r3, [r2, #112]	; 0x70
 8000f48:	e02d      	b.n	8000fa6 <HAL_RCC_OscConfig+0x376>
 8000f4a:	687b      	ldr	r3, [r7, #4]
 8000f4c:	689b      	ldr	r3, [r3, #8]
 8000f4e:	2b00      	cmp	r3, #0
 8000f50:	d10c      	bne.n	8000f6c <HAL_RCC_OscConfig+0x33c>
 8000f52:	4b6d      	ldr	r3, [pc, #436]	; (8001108 <HAL_RCC_OscConfig+0x4d8>)
 8000f54:	6f1b      	ldr	r3, [r3, #112]	; 0x70
 8000f56:	4a6c      	ldr	r2, [pc, #432]	; (8001108 <HAL_RCC_OscConfig+0x4d8>)
 8000f58:	f023 0301 	bic.w	r3, r3, #1
 8000f5c:	6713      	str	r3, [r2, #112]	; 0x70
 8000f5e:	4b6a      	ldr	r3, [pc, #424]	; (8001108 <HAL_RCC_OscConfig+0x4d8>)
 8000f60:	6f1b      	ldr	r3, [r3, #112]	; 0x70
 8000f62:	4a69      	ldr	r2, [pc, #420]	; (8001108 <HAL_RCC_OscConfig+0x4d8>)
 8000f64:	f023 0304 	bic.w	r3, r3, #4
 8000f68:	6713      	str	r3, [r2, #112]	; 0x70
 8000f6a:	e01c      	b.n	8000fa6 <HAL_RCC_OscConfig+0x376>
 8000f6c:	687b      	ldr	r3, [r7, #4]
 8000f6e:	689b      	ldr	r3, [r3, #8]
 8000f70:	2b05      	cmp	r3, #5
 8000f72:	d10c      	bne.n	8000f8e <HAL_RCC_OscConfig+0x35e>
 8000f74:	4b64      	ldr	r3, [pc, #400]	; (8001108 <HAL_RCC_OscConfig+0x4d8>)
 8000f76:	6f1b      	ldr	r3, [r3, #112]	; 0x70
 8000f78:	4a63      	ldr	r2, [pc, #396]	; (8001108 <HAL_RCC_OscConfig+0x4d8>)
 8000f7a:	f043 0304 	orr.w	r3, r3, #4
 8000f7e:	6713      	str	r3, [r2, #112]	; 0x70
 8000f80:	4b61      	ldr	r3, [pc, #388]	; (8001108 <HAL_RCC_OscConfig+0x4d8>)
 8000f82:	6f1b      	ldr	r3, [r3, #112]	; 0x70
 8000f84:	4a60      	ldr	r2, [pc, #384]	; (8001108 <HAL_RCC_OscConfig+0x4d8>)
 8000f86:	f043 0301 	orr.w	r3, r3, #1
 8000f8a:	6713      	str	r3, [r2, #112]	; 0x70
 8000f8c:	e00b      	b.n	8000fa6 <HAL_RCC_OscConfig+0x376>
 8000f8e:	4b5e      	ldr	r3, [pc, #376]	; (8001108 <HAL_RCC_OscConfig+0x4d8>)
 8000f90:	6f1b      	ldr	r3, [r3, #112]	; 0x70
 8000f92:	4a5d      	ldr	r2, [pc, #372]	; (8001108 <HAL_RCC_OscConfig+0x4d8>)
 8000f94:	f023 0301 	bic.w	r3, r3, #1
 8000f98:	6713      	str	r3, [r2, #112]	; 0x70
 8000f9a:	4b5b      	ldr	r3, [pc, #364]	; (8001108 <HAL_RCC_OscConfig+0x4d8>)
 8000f9c:	6f1b      	ldr	r3, [r3, #112]	; 0x70
 8000f9e:	4a5a      	ldr	r2, [pc, #360]	; (8001108 <HAL_RCC_OscConfig+0x4d8>)
 8000fa0:	f023 0304 	bic.w	r3, r3, #4
 8000fa4:	6713      	str	r3, [r2, #112]	; 0x70
    /* Check the LSE State */
    if((RCC_OscInitStruct->LSEState) != RCC_LSE_OFF)
 8000fa6:	687b      	ldr	r3, [r7, #4]
 8000fa8:	689b      	ldr	r3, [r3, #8]
 8000faa:	2b00      	cmp	r3, #0
 8000fac:	d015      	beq.n	8000fda <HAL_RCC_OscConfig+0x3aa>
    {
      /* Get Start Tick*/
      tickstart = HAL_GetTick();
 8000fae:	f7ff fafd 	bl	80005ac <HAL_GetTick>
 8000fb2:	6138      	str	r0, [r7, #16]

      /* Wait till LSE is ready */
      while(__HAL_RCC_GET_FLAG(RCC_FLAG_LSERDY) == RESET)
 8000fb4:	e00a      	b.n	8000fcc <HAL_RCC_OscConfig+0x39c>
      {
        if((HAL_GetTick() - tickstart ) > RCC_LSE_TIMEOUT_VALUE)
 8000fb6:	f7ff faf9 	bl	80005ac <HAL_GetTick>
 8000fba:	4602      	mov	r2, r0
 8000fbc:	693b      	ldr	r3, [r7, #16]
 8000fbe:	1ad3      	subs	r3, r2, r3
 8000fc0:	f241 3288 	movw	r2, #5000	; 0x1388
 8000fc4:	4293      	cmp	r3, r2
 8000fc6:	d901      	bls.n	8000fcc <HAL_RCC_OscConfig+0x39c>
        {
          return HAL_TIMEOUT;
 8000fc8:	2303      	movs	r3, #3
 8000fca:	e099      	b.n	8001100 <HAL_RCC_OscConfig+0x4d0>
      while(__HAL_RCC_GET_FLAG(RCC_FLAG_LSERDY) == RESET)
 8000fcc:	4b4e      	ldr	r3, [pc, #312]	; (8001108 <HAL_RCC_OscConfig+0x4d8>)
 8000fce:	6f1b      	ldr	r3, [r3, #112]	; 0x70
 8000fd0:	f003 0302 	and.w	r3, r3, #2
 8000fd4:	2b00      	cmp	r3, #0
 8000fd6:	d0ee      	beq.n	8000fb6 <HAL_RCC_OscConfig+0x386>
 8000fd8:	e014      	b.n	8001004 <HAL_RCC_OscConfig+0x3d4>
      }
    }
    else
    {
      /* Get Start Tick*/
      tickstart = HAL_GetTick();
 8000fda:	f7ff fae7 	bl	80005ac <HAL_GetTick>
 8000fde:	6138      	str	r0, [r7, #16]

      /* Wait till LSE is ready */
      while(__HAL_RCC_GET_FLAG(RCC_FLAG_LSERDY) != RESET)
 8000fe0:	e00a      	b.n	8000ff8 <HAL_RCC_OscConfig+0x3c8>
      {
        if((HAL_GetTick() - tickstart ) > RCC_LSE_TIMEOUT_VALUE)
 8000fe2:	f7ff fae3 	bl	80005ac <HAL_GetTick>
 8000fe6:	4602      	mov	r2, r0
 8000fe8:	693b      	ldr	r3, [r7, #16]
 8000fea:	1ad3      	subs	r3, r2, r3
 8000fec:	f241 3288 	movw	r2, #5000	; 0x1388
 8000ff0:	4293      	cmp	r3, r2
 8000ff2:	d901      	bls.n	8000ff8 <HAL_RCC_OscConfig+0x3c8>
        {
          return HAL_TIMEOUT;
 8000ff4:	2303      	movs	r3, #3
 8000ff6:	e083      	b.n	8001100 <HAL_RCC_OscConfig+0x4d0>
      while(__HAL_RCC_GET_FLAG(RCC_FLAG_LSERDY) != RESET)
 8000ff8:	4b43      	ldr	r3, [pc, #268]	; (8001108 <HAL_RCC_OscConfig+0x4d8>)
 8000ffa:	6f1b      	ldr	r3, [r3, #112]	; 0x70
 8000ffc:	f003 0302 	and.w	r3, r3, #2
 8001000:	2b00      	cmp	r3, #0
 8001002:	d1ee      	bne.n	8000fe2 <HAL_RCC_OscConfig+0x3b2>
        }
      }
    }

    /* Restore clock configuration if changed */
    if(pwrclkchanged == SET)
 8001004:	7dfb      	ldrb	r3, [r7, #23]
 8001006:	2b01      	cmp	r3, #1
 8001008:	d105      	bne.n	8001016 <HAL_RCC_OscConfig+0x3e6>
    {
      __HAL_RCC_PWR_CLK_DISABLE();
 800100a:	4b3f      	ldr	r3, [pc, #252]	; (8001108 <HAL_RCC_OscConfig+0x4d8>)
 800100c:	6c1b      	ldr	r3, [r3, #64]	; 0x40
 800100e:	4a3e      	ldr	r2, [pc, #248]	; (8001108 <HAL_RCC_OscConfig+0x4d8>)
 8001010:	f023 5380 	bic.w	r3, r3, #268435456	; 0x10000000
 8001014:	6413      	str	r3, [r2, #64]	; 0x40
    }
  }
  /*-------------------------------- PLL Configuration -----------------------*/
  /* Check the parameters */
  assert_param(IS_RCC_PLL(RCC_OscInitStruct->PLL.PLLState));
  if ((RCC_OscInitStruct->PLL.PLLState) != RCC_PLL_NONE)
 8001016:	687b      	ldr	r3, [r7, #4]
 8001018:	699b      	ldr	r3, [r3, #24]
 800101a:	2b00      	cmp	r3, #0
 800101c:	d06f      	beq.n	80010fe <HAL_RCC_OscConfig+0x4ce>
  {
    /* Check if the PLL is used as system clock or not */
    if(__HAL_RCC_GET_SYSCLK_SOURCE() != RCC_SYSCLKSOURCE_STATUS_PLLCLK)
 800101e:	4b3a      	ldr	r3, [pc, #232]	; (8001108 <HAL_RCC_OscConfig+0x4d8>)
 8001020:	689b      	ldr	r3, [r3, #8]
 8001022:	f003 030c 	and.w	r3, r3, #12
 8001026:	2b08      	cmp	r3, #8
 8001028:	d067      	beq.n	80010fa <HAL_RCC_OscConfig+0x4ca>
    {
      if((RCC_OscInitStruct->PLL.PLLState) == RCC_PLL_ON)
 800102a:	687b      	ldr	r3, [r7, #4]
 800102c:	699b      	ldr	r3, [r3, #24]
 800102e:	2b02      	cmp	r3, #2
 8001030:	d149      	bne.n	80010c6 <HAL_RCC_OscConfig+0x496>
#if defined (RCC_PLLCFGR_PLLR)
        assert_param(IS_RCC_PLLR_VALUE(RCC_OscInitStruct->PLL.PLLR));
#endif

        /* Disable the main PLL. */
        __HAL_RCC_PLL_DISABLE();
 8001032:	4b35      	ldr	r3, [pc, #212]	; (8001108 <HAL_RCC_OscConfig+0x4d8>)
 8001034:	681b      	ldr	r3, [r3, #0]
 8001036:	4a34      	ldr	r2, [pc, #208]	; (8001108 <HAL_RCC_OscConfig+0x4d8>)
 8001038:	f023 7380 	bic.w	r3, r3, #16777216	; 0x1000000
 800103c:	6013      	str	r3, [r2, #0]

        /* Get Start Tick*/
        tickstart = HAL_GetTick();
 800103e:	f7ff fab5 	bl	80005ac <HAL_GetTick>
 8001042:	6138      	str	r0, [r7, #16]

        /* Wait till PLL is ready */
        while(__HAL_RCC_GET_FLAG(RCC_FLAG_PLLRDY) != RESET)
 8001044:	e008      	b.n	8001058 <HAL_RCC_OscConfig+0x428>
        {
          if((HAL_GetTick() - tickstart ) > PLL_TIMEOUT_VALUE)
 8001046:	f7ff fab1 	bl	80005ac <HAL_GetTick>
 800104a:	4602      	mov	r2, r0
 800104c:	693b      	ldr	r3, [r7, #16]
 800104e:	1ad3      	subs	r3, r2, r3
 8001050:	2b02      	cmp	r3, #2
 8001052:	d901      	bls.n	8001058 <HAL_RCC_OscConfig+0x428>
          {
            return HAL_TIMEOUT;
 8001054:	2303      	movs	r3, #3
 8001056:	e053      	b.n	8001100 <HAL_RCC_OscConfig+0x4d0>
        while(__HAL_RCC_GET_FLAG(RCC_FLAG_PLLRDY) != RESET)
 8001058:	4b2b      	ldr	r3, [pc, #172]	; (8001108 <HAL_RCC_OscConfig+0x4d8>)
 800105a:	681b      	ldr	r3, [r3, #0]
 800105c:	f003 7300 	and.w	r3, r3, #33554432	; 0x2000000
 8001060:	2b00      	cmp	r3, #0
 8001062:	d1f0      	bne.n	8001046 <HAL_RCC_OscConfig+0x416>
                             RCC_OscInitStruct->PLL.PLLN,
                             RCC_OscInitStruct->PLL.PLLP,
                             RCC_OscInitStruct->PLL.PLLQ,
                             RCC_OscInitStruct->PLL.PLLR);
#else
        __HAL_RCC_PLL_CONFIG(RCC_OscInitStruct->PLL.PLLSource,
 8001064:	687b      	ldr	r3, [r7, #4]
 8001066:	69da      	ldr	r2, [r3, #28]
 8001068:	687b      	ldr	r3, [r7, #4]
 800106a:	6a1b      	ldr	r3, [r3, #32]
 800106c:	431a      	orrs	r2, r3
 800106e:	687b      	ldr	r3, [r7, #4]
 8001070:	6a5b      	ldr	r3, [r3, #36]	; 0x24
 8001072:	019b      	lsls	r3, r3, #6
 8001074:	431a      	orrs	r2, r3
 8001076:	687b      	ldr	r3, [r7, #4]
 8001078:	6a9b      	ldr	r3, [r3, #40]	; 0x28
 800107a:	085b      	lsrs	r3, r3, #1
 800107c:	3b01      	subs	r3, #1
 800107e:	041b      	lsls	r3, r3, #16
 8001080:	431a      	orrs	r2, r3
 8001082:	687b      	ldr	r3, [r7, #4]
 8001084:	6adb      	ldr	r3, [r3, #44]	; 0x2c
 8001086:	061b      	lsls	r3, r3, #24
 8001088:	4313      	orrs	r3, r2
 800108a:	4a1f      	ldr	r2, [pc, #124]	; (8001108 <HAL_RCC_OscConfig+0x4d8>)
 800108c:	f043 5300 	orr.w	r3, r3, #536870912	; 0x20000000
 8001090:	6053      	str	r3, [r2, #4]
                             RCC_OscInitStruct->PLL.PLLP,
                             RCC_OscInitStruct->PLL.PLLQ);
#endif

        /* Enable the main PLL. */
        __HAL_RCC_PLL_ENABLE();
 8001092:	4b1d      	ldr	r3, [pc, #116]	; (8001108 <HAL_RCC_OscConfig+0x4d8>)
 8001094:	681b      	ldr	r3, [r3, #0]
 8001096:	4a1c      	ldr	r2, [pc, #112]	; (8001108 <HAL_RCC_OscConfig+0x4d8>)
 8001098:	f043 7380 	orr.w	r3, r3, #16777216	; 0x1000000
 800109c:	6013      	str	r3, [r2, #0]

        /* Get Start Tick*/
        tickstart = HAL_GetTick();
 800109e:	f7ff fa85 	bl	80005ac <HAL_GetTick>
 80010a2:	6138      	str	r0, [r7, #16]

        /* Wait till PLL is ready */
        while(__HAL_RCC_GET_FLAG(RCC_FLAG_PLLRDY) == RESET)
 80010a4:	e008      	b.n	80010b8 <HAL_RCC_OscConfig+0x488>
        {
          if((HAL_GetTick() - tickstart ) > PLL_TIMEOUT_VALUE)
 80010a6:	f7ff fa81 	bl	80005ac <HAL_GetTick>
 80010aa:	4602      	mov	r2, r0
 80010ac:	693b      	ldr	r3, [r7, #16]
 80010ae:	1ad3      	subs	r3, r2, r3
 80010b0:	2b02      	cmp	r3, #2
 80010b2:	d901      	bls.n	80010b8 <HAL_RCC_OscConfig+0x488>
          {
            return HAL_TIMEOUT;
 80010b4:	2303      	movs	r3, #3
 80010b6:	e023      	b.n	8001100 <HAL_RCC_OscConfig+0x4d0>
        while(__HAL_RCC_GET_FLAG(RCC_FLAG_PLLRDY) == RESET)
 80010b8:	4b13      	ldr	r3, [pc, #76]	; (8001108 <HAL_RCC_OscConfig+0x4d8>)
 80010ba:	681b      	ldr	r3, [r3, #0]
 80010bc:	f003 7300 	and.w	r3, r3, #33554432	; 0x2000000
 80010c0:	2b00      	cmp	r3, #0
 80010c2:	d0f0      	beq.n	80010a6 <HAL_RCC_OscConfig+0x476>
 80010c4:	e01b      	b.n	80010fe <HAL_RCC_OscConfig+0x4ce>
        }
      }
      else
      {
        /* Disable the main PLL. */
        __HAL_RCC_PLL_DISABLE();
 80010c6:	4b10      	ldr	r3, [pc, #64]	; (8001108 <HAL_RCC_OscConfig+0x4d8>)
 80010c8:	681b      	ldr	r3, [r3, #0]
 80010ca:	4a0f      	ldr	r2, [pc, #60]	; (8001108 <HAL_RCC_OscConfig+0x4d8>)
 80010cc:	f023 7380 	bic.w	r3, r3, #16777216	; 0x1000000
 80010d0:	6013      	str	r3, [r2, #0]

        /* Get Start Tick*/
        tickstart = HAL_GetTick();
 80010d2:	f7ff fa6b 	bl	80005ac <HAL_GetTick>
 80010d6:	6138      	str	r0, [r7, #16]

        /* Wait till PLL is ready */
        while(__HAL_RCC_GET_FLAG(RCC_FLAG_PLLRDY) != RESET)
 80010d8:	e008      	b.n	80010ec <HAL_RCC_OscConfig+0x4bc>
        {
          if((HAL_GetTick() - tickstart ) > PLL_TIMEOUT_VALUE)
 80010da:	f7ff fa67 	bl	80005ac <HAL_GetTick>
 80010de:	4602      	mov	r2, r0
 80010e0:	693b      	ldr	r3, [r7, #16]
 80010e2:	1ad3      	subs	r3, r2, r3
 80010e4:	2b02      	cmp	r3, #2
 80010e6:	d901      	bls.n	80010ec <HAL_RCC_OscConfig+0x4bc>
          {
            return HAL_TIMEOUT;
 80010e8:	2303      	movs	r3, #3
 80010ea:	e009      	b.n	8001100 <HAL_RCC_OscConfig+0x4d0>
        while(__HAL_RCC_GET_FLAG(RCC_FLAG_PLLRDY) != RESET)
 80010ec:	4b06      	ldr	r3, [pc, #24]	; (8001108 <HAL_RCC_OscConfig+0x4d8>)
 80010ee:	681b      	ldr	r3, [r3, #0]
 80010f0:	f003 7300 	and.w	r3, r3, #33554432	; 0x2000000
 80010f4:	2b00      	cmp	r3, #0
 80010f6:	d1f0      	bne.n	80010da <HAL_RCC_OscConfig+0x4aa>
 80010f8:	e001      	b.n	80010fe <HAL_RCC_OscConfig+0x4ce>
        }
      }
    }
    else
    {
      return HAL_ERROR;
 80010fa:	2301      	movs	r3, #1
 80010fc:	e000      	b.n	8001100 <HAL_RCC_OscConfig+0x4d0>
    }
  }
  return HAL_OK;
 80010fe:	2300      	movs	r3, #0
}
 8001100:	4618      	mov	r0, r3
 8001102:	3718      	adds	r7, #24
 8001104:	46bd      	mov	sp, r7
 8001106:	bd80      	pop	{r7, pc}
 8001108:	40023800 	.word	0x40023800
 800110c:	40007000 	.word	0x40007000

08001110 <HAL_RCC_ClockConfig>:
  *         HPRE[3:0] bits to ensure that HCLK not exceed the maximum allowed frequency
  *         (for more details refer to section above "Initialization/de-initialization functions")
  * @retval None
  */
HAL_StatusTypeDef HAL_RCC_ClockConfig(RCC_ClkInitTypeDef  *RCC_ClkInitStruct, uint32_t FLatency)
{
 8001110:	b580      	push	{r7, lr}
 8001112:	b084      	sub	sp, #16
 8001114:	af00      	add	r7, sp, #0
 8001116:	6078      	str	r0, [r7, #4]
 8001118:	6039      	str	r1, [r7, #0]
  uint32_t tickstart = 0;
 800111a:	2300      	movs	r3, #0
 800111c:	60fb      	str	r3, [r7, #12]

  /* Check Null pointer */
  if(RCC_ClkInitStruct == NULL)
 800111e:	687b      	ldr	r3, [r7, #4]
 8001120:	2b00      	cmp	r3, #0
 8001122:	d101      	bne.n	8001128 <HAL_RCC_ClockConfig+0x18>
  {
    return HAL_ERROR;
 8001124:	2301      	movs	r3, #1
 8001126:	e0ce      	b.n	80012c6 <HAL_RCC_ClockConfig+0x1b6>
  /* To correctly read data from FLASH memory, the number of wait states (LATENCY)
     must be correctly programmed according to the frequency of the CPU clock
     (HCLK) and the supply voltage of the device. */

  /* Increasing the CPU frequency */
  if(FLatency > __HAL_FLASH_GET_LATENCY())
 8001128:	4b69      	ldr	r3, [pc, #420]	; (80012d0 <HAL_RCC_ClockConfig+0x1c0>)
 800112a:	681b      	ldr	r3, [r3, #0]
 800112c:	f003 030f 	and.w	r3, r3, #15
 8001130:	683a      	ldr	r2, [r7, #0]
 8001132:	429a      	cmp	r2, r3
 8001134:	d910      	bls.n	8001158 <HAL_RCC_ClockConfig+0x48>
  {
    /* Program the new number of wait states to the LATENCY bits in the FLASH_ACR register */
    __HAL_FLASH_SET_LATENCY(FLatency);
 8001136:	4b66      	ldr	r3, [pc, #408]	; (80012d0 <HAL_RCC_ClockConfig+0x1c0>)
 8001138:	681b      	ldr	r3, [r3, #0]
 800113a:	f023 020f 	bic.w	r2, r3, #15
 800113e:	4964      	ldr	r1, [pc, #400]	; (80012d0 <HAL_RCC_ClockConfig+0x1c0>)
 8001140:	683b      	ldr	r3, [r7, #0]
 8001142:	4313      	orrs	r3, r2
 8001144:	600b      	str	r3, [r1, #0]

    /* Check that the new number of wait states is taken into account to access the Flash
    memory by reading the FLASH_ACR register */
    if(__HAL_FLASH_GET_LATENCY() != FLatency)
 8001146:	4b62      	ldr	r3, [pc, #392]	; (80012d0 <HAL_RCC_ClockConfig+0x1c0>)
 8001148:	681b      	ldr	r3, [r3, #0]
 800114a:	f003 030f 	and.w	r3, r3, #15
 800114e:	683a      	ldr	r2, [r7, #0]
 8001150:	429a      	cmp	r2, r3
 8001152:	d001      	beq.n	8001158 <HAL_RCC_ClockConfig+0x48>
    {
      return HAL_ERROR;
 8001154:	2301      	movs	r3, #1
 8001156:	e0b6      	b.n	80012c6 <HAL_RCC_ClockConfig+0x1b6>
    }
  }

  /*-------------------------- HCLK Configuration --------------------------*/
  if(((RCC_ClkInitStruct->ClockType) & RCC_CLOCKTYPE_HCLK) == RCC_CLOCKTYPE_HCLK)
 8001158:	687b      	ldr	r3, [r7, #4]
 800115a:	681b      	ldr	r3, [r3, #0]
 800115c:	f003 0302 	and.w	r3, r3, #2
 8001160:	2b00      	cmp	r3, #0
 8001162:	d020      	beq.n	80011a6 <HAL_RCC_ClockConfig+0x96>
  {
    /* Set the highest APBx dividers in order to ensure that we do not go through
       a non-spec phase whatever we decrease or increase HCLK. */
    if(((RCC_ClkInitStruct->ClockType) & RCC_CLOCKTYPE_PCLK1) == RCC_CLOCKTYPE_PCLK1)
 8001164:	687b      	ldr	r3, [r7, #4]
 8001166:	681b      	ldr	r3, [r3, #0]
 8001168:	f003 0304 	and.w	r3, r3, #4
 800116c:	2b00      	cmp	r3, #0
 800116e:	d005      	beq.n	800117c <HAL_RCC_ClockConfig+0x6c>
    {
      MODIFY_REG(RCC->CFGR, RCC_CFGR_PPRE1, RCC_HCLK_DIV16);
 8001170:	4b58      	ldr	r3, [pc, #352]	; (80012d4 <HAL_RCC_ClockConfig+0x1c4>)
 8001172:	689b      	ldr	r3, [r3, #8]
 8001174:	4a57      	ldr	r2, [pc, #348]	; (80012d4 <HAL_RCC_ClockConfig+0x1c4>)
 8001176:	f443 53e0 	orr.w	r3, r3, #7168	; 0x1c00
 800117a:	6093      	str	r3, [r2, #8]
    }

    if(((RCC_ClkInitStruct->ClockType) & RCC_CLOCKTYPE_PCLK2) == RCC_CLOCKTYPE_PCLK2)
 800117c:	687b      	ldr	r3, [r7, #4]
 800117e:	681b      	ldr	r3, [r3, #0]
 8001180:	f003 0308 	and.w	r3, r3, #8
 8001184:	2b00      	cmp	r3, #0
 8001186:	d005      	beq.n	8001194 <HAL_RCC_ClockConfig+0x84>
    {
      MODIFY_REG(RCC->CFGR, RCC_CFGR_PPRE2, (RCC_HCLK_DIV16 << 3));
 8001188:	4b52      	ldr	r3, [pc, #328]	; (80012d4 <HAL_RCC_ClockConfig+0x1c4>)
 800118a:	689b      	ldr	r3, [r3, #8]
 800118c:	4a51      	ldr	r2, [pc, #324]	; (80012d4 <HAL_RCC_ClockConfig+0x1c4>)
 800118e:	f443 4360 	orr.w	r3, r3, #57344	; 0xe000
 8001192:	6093      	str	r3, [r2, #8]
    }

    /* Set the new HCLK clock divider */
    assert_param(IS_RCC_HCLK(RCC_ClkInitStruct->AHBCLKDivider));
    MODIFY_REG(RCC->CFGR, RCC_CFGR_HPRE, RCC_ClkInitStruct->AHBCLKDivider);
 8001194:	4b4f      	ldr	r3, [pc, #316]	; (80012d4 <HAL_RCC_ClockConfig+0x1c4>)
 8001196:	689b      	ldr	r3, [r3, #8]
 8001198:	f023 02f0 	bic.w	r2, r3, #240	; 0xf0
 800119c:	687b      	ldr	r3, [r7, #4]
 800119e:	689b      	ldr	r3, [r3, #8]
 80011a0:	494c      	ldr	r1, [pc, #304]	; (80012d4 <HAL_RCC_ClockConfig+0x1c4>)
 80011a2:	4313      	orrs	r3, r2
 80011a4:	608b      	str	r3, [r1, #8]
  }

  /*------------------------- SYSCLK Configuration ---------------------------*/
  if(((RCC_ClkInitStruct->ClockType) & RCC_CLOCKTYPE_SYSCLK) == RCC_CLOCKTYPE_SYSCLK)
 80011a6:	687b      	ldr	r3, [r7, #4]
 80011a8:	681b      	ldr	r3, [r3, #0]
 80011aa:	f003 0301 	and.w	r3, r3, #1
 80011ae:	2b00      	cmp	r3, #0
 80011b0:	d040      	beq.n	8001234 <HAL_RCC_ClockConfig+0x124>
  {
    assert_param(IS_RCC_SYSCLKSOURCE(RCC_ClkInitStruct->SYSCLKSource));

    /* HSE is selected as System Clock Source */
    if(RCC_ClkInitStruct->SYSCLKSource == RCC_SYSCLKSOURCE_HSE)
 80011b2:	687b      	ldr	r3, [r7, #4]
 80011b4:	685b      	ldr	r3, [r3, #4]
 80011b6:	2b01      	cmp	r3, #1
 80011b8:	d107      	bne.n	80011ca <HAL_RCC_ClockConfig+0xba>
    {
      /* Check the HSE ready flag */
      if(__HAL_RCC_GET_FLAG(RCC_FLAG_HSERDY) == RESET)
 80011ba:	4b46      	ldr	r3, [pc, #280]	; (80012d4 <HAL_RCC_ClockConfig+0x1c4>)
 80011bc:	681b      	ldr	r3, [r3, #0]
 80011be:	f403 3300 	and.w	r3, r3, #131072	; 0x20000
 80011c2:	2b00      	cmp	r3, #0
 80011c4:	d115      	bne.n	80011f2 <HAL_RCC_ClockConfig+0xe2>
      {
        return HAL_ERROR;
 80011c6:	2301      	movs	r3, #1
 80011c8:	e07d      	b.n	80012c6 <HAL_RCC_ClockConfig+0x1b6>
      }
    }
    /* PLL is selected as System Clock Source */
    else if(RCC_ClkInitStruct->SYSCLKSource == RCC_SYSCLKSOURCE_PLLCLK)
 80011ca:	687b      	ldr	r3, [r7, #4]
 80011cc:	685b      	ldr	r3, [r3, #4]
 80011ce:	2b02      	cmp	r3, #2
 80011d0:	d107      	bne.n	80011e2 <HAL_RCC_ClockConfig+0xd2>
    {
      /* Check the PLL ready flag */
      if(__HAL_RCC_GET_FLAG(RCC_FLAG_PLLRDY) == RESET)
 80011d2:	4b40      	ldr	r3, [pc, #256]	; (80012d4 <HAL_RCC_ClockConfig+0x1c4>)
 80011d4:	681b      	ldr	r3, [r3, #0]
 80011d6:	f003 7300 	and.w	r3, r3, #33554432	; 0x2000000
 80011da:	2b00      	cmp	r3, #0
 80011dc:	d109      	bne.n	80011f2 <HAL_RCC_ClockConfig+0xe2>
      {
        return HAL_ERROR;
 80011de:	2301      	movs	r3, #1
 80011e0:	e071      	b.n	80012c6 <HAL_RCC_ClockConfig+0x1b6>
    }
    /* HSI is selected as System Clock Source */
    else
    {
      /* Check the HSI ready flag */
      if(__HAL_RCC_GET_FLAG(RCC_FLAG_HSIRDY) == RESET)
 80011e2:	4b3c      	ldr	r3, [pc, #240]	; (80012d4 <HAL_RCC_ClockConfig+0x1c4>)
 80011e4:	681b      	ldr	r3, [r3, #0]
 80011e6:	f003 0302 	and.w	r3, r3, #2
 80011ea:	2b00      	cmp	r3, #0
 80011ec:	d101      	bne.n	80011f2 <HAL_RCC_ClockConfig+0xe2>
      {
        return HAL_ERROR;
 80011ee:	2301      	movs	r3, #1
 80011f0:	e069      	b.n	80012c6 <HAL_RCC_ClockConfig+0x1b6>
      }
    }

    __HAL_RCC_SYSCLK_CONFIG(RCC_ClkInitStruct->SYSCLKSource);
 80011f2:	4b38      	ldr	r3, [pc, #224]	; (80012d4 <HAL_RCC_ClockConfig+0x1c4>)
 80011f4:	689b      	ldr	r3, [r3, #8]
 80011f6:	f023 0203 	bic.w	r2, r3, #3
 80011fa:	687b      	ldr	r3, [r7, #4]
 80011fc:	685b      	ldr	r3, [r3, #4]
 80011fe:	4935      	ldr	r1, [pc, #212]	; (80012d4 <HAL_RCC_ClockConfig+0x1c4>)
 8001200:	4313      	orrs	r3, r2
 8001202:	608b      	str	r3, [r1, #8]

    /* Get Start Tick*/
    tickstart = HAL_GetTick();
 8001204:	f7ff f9d2 	bl	80005ac <HAL_GetTick>
 8001208:	60f8      	str	r0, [r7, #12]

    while (__HAL_RCC_GET_SYSCLK_SOURCE() != (RCC_ClkInitStruct->SYSCLKSource << RCC_CFGR_SWS_Pos))
 800120a:	e00a      	b.n	8001222 <HAL_RCC_ClockConfig+0x112>
    {
      if ((HAL_GetTick() - tickstart) > CLOCKSWITCH_TIMEOUT_VALUE)
 800120c:	f7ff f9ce 	bl	80005ac <HAL_GetTick>
 8001210:	4602      	mov	r2, r0
 8001212:	68fb      	ldr	r3, [r7, #12]
 8001214:	1ad3      	subs	r3, r2, r3
 8001216:	f241 3288 	movw	r2, #5000	; 0x1388
 800121a:	4293      	cmp	r3, r2
 800121c:	d901      	bls.n	8001222 <HAL_RCC_ClockConfig+0x112>
      {
        return HAL_TIMEOUT;
 800121e:	2303      	movs	r3, #3
 8001220:	e051      	b.n	80012c6 <HAL_RCC_ClockConfig+0x1b6>
    while (__HAL_RCC_GET_SYSCLK_SOURCE() != (RCC_ClkInitStruct->SYSCLKSource << RCC_CFGR_SWS_Pos))
 8001222:	4b2c      	ldr	r3, [pc, #176]	; (80012d4 <HAL_RCC_ClockConfig+0x1c4>)
 8001224:	689b      	ldr	r3, [r3, #8]
 8001226:	f003 020c 	and.w	r2, r3, #12
 800122a:	687b      	ldr	r3, [r7, #4]
 800122c:	685b      	ldr	r3, [r3, #4]
 800122e:	009b      	lsls	r3, r3, #2
 8001230:	429a      	cmp	r2, r3
 8001232:	d1eb      	bne.n	800120c <HAL_RCC_ClockConfig+0xfc>
      }
    }
  }

  /* Decreasing the number of wait states because of lower CPU frequency */
  if(FLatency < __HAL_FLASH_GET_LATENCY())
 8001234:	4b26      	ldr	r3, [pc, #152]	; (80012d0 <HAL_RCC_ClockConfig+0x1c0>)
 8001236:	681b      	ldr	r3, [r3, #0]
 8001238:	f003 030f 	and.w	r3, r3, #15
 800123c:	683a      	ldr	r2, [r7, #0]
 800123e:	429a      	cmp	r2, r3
 8001240:	d210      	bcs.n	8001264 <HAL_RCC_ClockConfig+0x154>
  {
    /* Program the new number of wait states to the LATENCY bits in the FLASH_ACR register */
    __HAL_FLASH_SET_LATENCY(FLatency);
 8001242:	4b23      	ldr	r3, [pc, #140]	; (80012d0 <HAL_RCC_ClockConfig+0x1c0>)
 8001244:	681b      	ldr	r3, [r3, #0]
 8001246:	f023 020f 	bic.w	r2, r3, #15
 800124a:	4921      	ldr	r1, [pc, #132]	; (80012d0 <HAL_RCC_ClockConfig+0x1c0>)
 800124c:	683b      	ldr	r3, [r7, #0]
 800124e:	4313      	orrs	r3, r2
 8001250:	600b      	str	r3, [r1, #0]

    /* Check that the new number of wait states is taken into account to access the Flash
    memory by reading the FLASH_ACR register */
    if(__HAL_FLASH_GET_LATENCY() != FLatency)
 8001252:	4b1f      	ldr	r3, [pc, #124]	; (80012d0 <HAL_RCC_ClockConfig+0x1c0>)
 8001254:	681b      	ldr	r3, [r3, #0]
 8001256:	f003 030f 	and.w	r3, r3, #15
 800125a:	683a      	ldr	r2, [r7, #0]
 800125c:	429a      	cmp	r2, r3
 800125e:	d001      	beq.n	8001264 <HAL_RCC_ClockConfig+0x154>
    {
      return HAL_ERROR;
 8001260:	2301      	movs	r3, #1
 8001262:	e030      	b.n	80012c6 <HAL_RCC_ClockConfig+0x1b6>
    }
  }

  /*-------------------------- PCLK1 Configuration ---------------------------*/
  if(((RCC_ClkInitStruct->ClockType) & RCC_CLOCKTYPE_PCLK1) == RCC_CLOCKTYPE_PCLK1)
 8001264:	687b      	ldr	r3, [r7, #4]
 8001266:	681b      	ldr	r3, [r3, #0]
 8001268:	f003 0304 	and.w	r3, r3, #4
 800126c:	2b00      	cmp	r3, #0
 800126e:	d008      	beq.n	8001282 <HAL_RCC_ClockConfig+0x172>
  {
    assert_param(IS_RCC_PCLK(RCC_ClkInitStruct->APB1CLKDivider));
    MODIFY_REG(RCC->CFGR, RCC_CFGR_PPRE1, RCC_ClkInitStruct->APB1CLKDivider);
 8001270:	4b18      	ldr	r3, [pc, #96]	; (80012d4 <HAL_RCC_ClockConfig+0x1c4>)
 8001272:	689b      	ldr	r3, [r3, #8]
 8001274:	f423 52e0 	bic.w	r2, r3, #7168	; 0x1c00
 8001278:	687b      	ldr	r3, [r7, #4]
 800127a:	68db      	ldr	r3, [r3, #12]
 800127c:	4915      	ldr	r1, [pc, #84]	; (80012d4 <HAL_RCC_ClockConfig+0x1c4>)
 800127e:	4313      	orrs	r3, r2
 8001280:	608b      	str	r3, [r1, #8]
  }

  /*-------------------------- PCLK2 Configuration ---------------------------*/
  if(((RCC_ClkInitStruct->ClockType) & RCC_CLOCKTYPE_PCLK2) == RCC_CLOCKTYPE_PCLK2)
 8001282:	687b      	ldr	r3, [r7, #4]
 8001284:	681b      	ldr	r3, [r3, #0]
 8001286:	f003 0308 	and.w	r3, r3, #8
 800128a:	2b00      	cmp	r3, #0
 800128c:	d009      	beq.n	80012a2 <HAL_RCC_ClockConfig+0x192>
  {
    assert_param(IS_RCC_PCLK(RCC_ClkInitStruct->APB2CLKDivider));
    MODIFY_REG(RCC->CFGR, RCC_CFGR_PPRE2, ((RCC_ClkInitStruct->APB2CLKDivider) << 3));
 800128e:	4b11      	ldr	r3, [pc, #68]	; (80012d4 <HAL_RCC_ClockConfig+0x1c4>)
 8001290:	689b      	ldr	r3, [r3, #8]
 8001292:	f423 4260 	bic.w	r2, r3, #57344	; 0xe000
 8001296:	687b      	ldr	r3, [r7, #4]
 8001298:	691b      	ldr	r3, [r3, #16]
 800129a:	00db      	lsls	r3, r3, #3
 800129c:	490d      	ldr	r1, [pc, #52]	; (80012d4 <HAL_RCC_ClockConfig+0x1c4>)
 800129e:	4313      	orrs	r3, r2
 80012a0:	608b      	str	r3, [r1, #8]
  }

  /* Update the SystemCoreClock global variable */
  SystemCoreClock = HAL_RCC_GetSysClockFreq() >> AHBPrescTable[(RCC->CFGR & RCC_CFGR_HPRE)>> RCC_CFGR_HPRE_Pos];
 80012a2:	f000 f81d 	bl	80012e0 <HAL_RCC_GetSysClockFreq>
 80012a6:	4601      	mov	r1, r0
 80012a8:	4b0a      	ldr	r3, [pc, #40]	; (80012d4 <HAL_RCC_ClockConfig+0x1c4>)
 80012aa:	689b      	ldr	r3, [r3, #8]
 80012ac:	091b      	lsrs	r3, r3, #4
 80012ae:	f003 030f 	and.w	r3, r3, #15
 80012b2:	4a09      	ldr	r2, [pc, #36]	; (80012d8 <HAL_RCC_ClockConfig+0x1c8>)
 80012b4:	5cd3      	ldrb	r3, [r2, r3]
 80012b6:	fa21 f303 	lsr.w	r3, r1, r3
 80012ba:	4a08      	ldr	r2, [pc, #32]	; (80012dc <HAL_RCC_ClockConfig+0x1cc>)
 80012bc:	6013      	str	r3, [r2, #0]

  /* Configure the source of time base considering new system clocks settings*/
  HAL_InitTick (TICK_INT_PRIORITY);
 80012be:	2000      	movs	r0, #0
 80012c0:	f7ff f930 	bl	8000524 <HAL_InitTick>

  return HAL_OK;
 80012c4:	2300      	movs	r3, #0
}
 80012c6:	4618      	mov	r0, r3
 80012c8:	3710      	adds	r7, #16
 80012ca:	46bd      	mov	sp, r7
 80012cc:	bd80      	pop	{r7, pc}
 80012ce:	bf00      	nop
 80012d0:	40023c00 	.word	0x40023c00
 80012d4:	40023800 	.word	0x40023800
 80012d8:	080029f8 	.word	0x080029f8
 80012dc:	20000008 	.word	0x20000008

080012e0 <HAL_RCC_GetSysClockFreq>:
  *
  *
  * @retval SYSCLK frequency
  */
uint32_t HAL_RCC_GetSysClockFreq(void)
{
 80012e0:	b5f0      	push	{r4, r5, r6, r7, lr}
 80012e2:	b085      	sub	sp, #20
 80012e4:	af00      	add	r7, sp, #0
  uint32_t pllm = 0, pllvco = 0, pllp = 0;
 80012e6:	2300      	movs	r3, #0
 80012e8:	607b      	str	r3, [r7, #4]
 80012ea:	2300      	movs	r3, #0
 80012ec:	60fb      	str	r3, [r7, #12]
 80012ee:	2300      	movs	r3, #0
 80012f0:	603b      	str	r3, [r7, #0]
  uint32_t sysclockfreq = 0;
 80012f2:	2300      	movs	r3, #0
 80012f4:	60bb      	str	r3, [r7, #8]

  /* Get SYSCLK source -------------------------------------------------------*/
  switch (RCC->CFGR & RCC_CFGR_SWS)
 80012f6:	4b50      	ldr	r3, [pc, #320]	; (8001438 <HAL_RCC_GetSysClockFreq+0x158>)
 80012f8:	689b      	ldr	r3, [r3, #8]
 80012fa:	f003 030c 	and.w	r3, r3, #12
 80012fe:	2b04      	cmp	r3, #4
 8001300:	d007      	beq.n	8001312 <HAL_RCC_GetSysClockFreq+0x32>
 8001302:	2b08      	cmp	r3, #8
 8001304:	d008      	beq.n	8001318 <HAL_RCC_GetSysClockFreq+0x38>
 8001306:	2b00      	cmp	r3, #0
 8001308:	f040 808d 	bne.w	8001426 <HAL_RCC_GetSysClockFreq+0x146>
  {
    case RCC_SYSCLKSOURCE_STATUS_HSI:  /* HSI used as system clock source */
    {
      sysclockfreq = HSI_VALUE;
 800130c:	4b4b      	ldr	r3, [pc, #300]	; (800143c <HAL_RCC_GetSysClockFreq+0x15c>)
 800130e:	60bb      	str	r3, [r7, #8]
       break;
 8001310:	e08c      	b.n	800142c <HAL_RCC_GetSysClockFreq+0x14c>
    }
    case RCC_SYSCLKSOURCE_STATUS_HSE:  /* HSE used as system clock  source */
    {
      sysclockfreq = HSE_VALUE;
 8001312:	4b4b      	ldr	r3, [pc, #300]	; (8001440 <HAL_RCC_GetSysClockFreq+0x160>)
 8001314:	60bb      	str	r3, [r7, #8]
      break;
 8001316:	e089      	b.n	800142c <HAL_RCC_GetSysClockFreq+0x14c>
    }
    case RCC_SYSCLKSOURCE_STATUS_PLLCLK:  /* PLL used as system clock  source */
    {
      /* PLL_VCO = (HSE_VALUE or HSI_VALUE / PLLM) * PLLN
      SYSCLK = PLL_VCO / PLLP */
      pllm = RCC->PLLCFGR & RCC_PLLCFGR_PLLM;
 8001318:	4b47      	ldr	r3, [pc, #284]	; (8001438 <HAL_RCC_GetSysClockFreq+0x158>)
 800131a:	685b      	ldr	r3, [r3, #4]
 800131c:	f003 033f 	and.w	r3, r3, #63	; 0x3f
 8001320:	607b      	str	r3, [r7, #4]
      if (__HAL_RCC_GET_PLL_OSCSOURCE() != RCC_PLLCFGR_PLLSRC_HSI)
 8001322:	4b45      	ldr	r3, [pc, #276]	; (8001438 <HAL_RCC_GetSysClockFreq+0x158>)
 8001324:	685b      	ldr	r3, [r3, #4]
 8001326:	f403 0380 	and.w	r3, r3, #4194304	; 0x400000
 800132a:	2b00      	cmp	r3, #0
 800132c:	d023      	beq.n	8001376 <HAL_RCC_GetSysClockFreq+0x96>
      {
        /* HSE used as PLL clock source */
        pllvco = (uint32_t) ((((uint64_t) HSE_VALUE * ((uint64_t) ((RCC->PLLCFGR & RCC_PLLCFGR_PLLN) >> RCC_PLLCFGR_PLLN_Pos)))) / (uint64_t)pllm);
 800132e:	4b42      	ldr	r3, [pc, #264]	; (8001438 <HAL_RCC_GetSysClockFreq+0x158>)
 8001330:	685b      	ldr	r3, [r3, #4]
 8001332:	099b      	lsrs	r3, r3, #6
 8001334:	f04f 0400 	mov.w	r4, #0
 8001338:	f240 11ff 	movw	r1, #511	; 0x1ff
 800133c:	f04f 0200 	mov.w	r2, #0
 8001340:	ea03 0501 	and.w	r5, r3, r1
 8001344:	ea04 0602 	and.w	r6, r4, r2
 8001348:	4a3d      	ldr	r2, [pc, #244]	; (8001440 <HAL_RCC_GetSysClockFreq+0x160>)
 800134a:	fb02 f106 	mul.w	r1, r2, r6
 800134e:	2200      	movs	r2, #0
 8001350:	fb02 f205 	mul.w	r2, r2, r5
 8001354:	440a      	add	r2, r1
 8001356:	493a      	ldr	r1, [pc, #232]	; (8001440 <HAL_RCC_GetSysClockFreq+0x160>)
 8001358:	fba5 0101 	umull	r0, r1, r5, r1
 800135c:	1853      	adds	r3, r2, r1
 800135e:	4619      	mov	r1, r3
 8001360:	687b      	ldr	r3, [r7, #4]
 8001362:	f04f 0400 	mov.w	r4, #0
 8001366:	461a      	mov	r2, r3
 8001368:	4623      	mov	r3, r4
 800136a:	f7fe ff4d 	bl	8000208 <__aeabi_uldivmod>
 800136e:	4603      	mov	r3, r0
 8001370:	460c      	mov	r4, r1
 8001372:	60fb      	str	r3, [r7, #12]
 8001374:	e049      	b.n	800140a <HAL_RCC_GetSysClockFreq+0x12a>
      }
      else
      {
        /* HSI used as PLL clock source */
        pllvco = (uint32_t) ((((uint64_t) HSI_VALUE * ((uint64_t) ((RCC->PLLCFGR & RCC_PLLCFGR_PLLN) >> RCC_PLLCFGR_PLLN_Pos)))) / (uint64_t)pllm);
 8001376:	4b30      	ldr	r3, [pc, #192]	; (8001438 <HAL_RCC_GetSysClockFreq+0x158>)
 8001378:	685b      	ldr	r3, [r3, #4]
 800137a:	099b      	lsrs	r3, r3, #6
 800137c:	f04f 0400 	mov.w	r4, #0
 8001380:	f240 11ff 	movw	r1, #511	; 0x1ff
 8001384:	f04f 0200 	mov.w	r2, #0
 8001388:	ea03 0501 	and.w	r5, r3, r1
 800138c:	ea04 0602 	and.w	r6, r4, r2
 8001390:	4629      	mov	r1, r5
 8001392:	4632      	mov	r2, r6
 8001394:	f04f 0300 	mov.w	r3, #0
 8001398:	f04f 0400 	mov.w	r4, #0
 800139c:	0154      	lsls	r4, r2, #5
 800139e:	ea44 64d1 	orr.w	r4, r4, r1, lsr #27
 80013a2:	014b      	lsls	r3, r1, #5
 80013a4:	4619      	mov	r1, r3
 80013a6:	4622      	mov	r2, r4
 80013a8:	1b49      	subs	r1, r1, r5
 80013aa:	eb62 0206 	sbc.w	r2, r2, r6
 80013ae:	f04f 0300 	mov.w	r3, #0
 80013b2:	f04f 0400 	mov.w	r4, #0
 80013b6:	0194      	lsls	r4, r2, #6
 80013b8:	ea44 6491 	orr.w	r4, r4, r1, lsr #26
 80013bc:	018b      	lsls	r3, r1, #6
 80013be:	1a5b      	subs	r3, r3, r1
 80013c0:	eb64 0402 	sbc.w	r4, r4, r2
 80013c4:	f04f 0100 	mov.w	r1, #0
 80013c8:	f04f 0200 	mov.w	r2, #0
 80013cc:	00e2      	lsls	r2, r4, #3
 80013ce:	ea42 7253 	orr.w	r2, r2, r3, lsr #29
 80013d2:	00d9      	lsls	r1, r3, #3
 80013d4:	460b      	mov	r3, r1
 80013d6:	4614      	mov	r4, r2
 80013d8:	195b      	adds	r3, r3, r5
 80013da:	eb44 0406 	adc.w	r4, r4, r6
 80013de:	f04f 0100 	mov.w	r1, #0
 80013e2:	f04f 0200 	mov.w	r2, #0
 80013e6:	02a2      	lsls	r2, r4, #10
 80013e8:	ea42 5293 	orr.w	r2, r2, r3, lsr #22
 80013ec:	0299      	lsls	r1, r3, #10
 80013ee:	460b      	mov	r3, r1
 80013f0:	4614      	mov	r4, r2
 80013f2:	4618      	mov	r0, r3
 80013f4:	4621      	mov	r1, r4
 80013f6:	687b      	ldr	r3, [r7, #4]
 80013f8:	f04f 0400 	mov.w	r4, #0
 80013fc:	461a      	mov	r2, r3
 80013fe:	4623      	mov	r3, r4
 8001400:	f7fe ff02 	bl	8000208 <__aeabi_uldivmod>
 8001404:	4603      	mov	r3, r0
 8001406:	460c      	mov	r4, r1
 8001408:	60fb      	str	r3, [r7, #12]
      }
      pllp = ((((RCC->PLLCFGR & RCC_PLLCFGR_PLLP) >> RCC_PLLCFGR_PLLP_Pos) + 1 ) *2);
 800140a:	4b0b      	ldr	r3, [pc, #44]	; (8001438 <HAL_RCC_GetSysClockFreq+0x158>)
 800140c:	685b      	ldr	r3, [r3, #4]
 800140e:	0c1b      	lsrs	r3, r3, #16
 8001410:	f003 0303 	and.w	r3, r3, #3
 8001414:	3301      	adds	r3, #1
 8001416:	005b      	lsls	r3, r3, #1
 8001418:	603b      	str	r3, [r7, #0]

      sysclockfreq = pllvco/pllp;
 800141a:	68fa      	ldr	r2, [r7, #12]
 800141c:	683b      	ldr	r3, [r7, #0]
 800141e:	fbb2 f3f3 	udiv	r3, r2, r3
 8001422:	60bb      	str	r3, [r7, #8]
      break;
 8001424:	e002      	b.n	800142c <HAL_RCC_GetSysClockFreq+0x14c>
    }
    default:
    {
      sysclockfreq = HSI_VALUE;
 8001426:	4b05      	ldr	r3, [pc, #20]	; (800143c <HAL_RCC_GetSysClockFreq+0x15c>)
 8001428:	60bb      	str	r3, [r7, #8]
      break;
 800142a:	bf00      	nop
    }
  }
  return sysclockfreq;
 800142c:	68bb      	ldr	r3, [r7, #8]
}
 800142e:	4618      	mov	r0, r3
 8001430:	3714      	adds	r7, #20
 8001432:	46bd      	mov	sp, r7
 8001434:	bdf0      	pop	{r4, r5, r6, r7, pc}
 8001436:	bf00      	nop
 8001438:	40023800 	.word	0x40023800
 800143c:	00f42400 	.word	0x00f42400
 8001440:	017d7840 	.word	0x017d7840

08001444 <HAL_RCC_GetHCLKFreq>:
  *         right HCLK value. Otherwise, any configuration based on this function will be incorrect.
  * @note   The SystemCoreClock CMSIS variable is used to store System Clock Frequency.
  * @retval HCLK frequency
  */
uint32_t HAL_RCC_GetHCLKFreq(void)
{
 8001444:	b480      	push	{r7}
 8001446:	af00      	add	r7, sp, #0
  return SystemCoreClock;
 8001448:	4b03      	ldr	r3, [pc, #12]	; (8001458 <HAL_RCC_GetHCLKFreq+0x14>)
 800144a:	681b      	ldr	r3, [r3, #0]
}
 800144c:	4618      	mov	r0, r3
 800144e:	46bd      	mov	sp, r7
 8001450:	f85d 7b04 	ldr.w	r7, [sp], #4
 8001454:	4770      	bx	lr
 8001456:	bf00      	nop
 8001458:	20000008 	.word	0x20000008

0800145c <HAL_RCC_GetPCLK1Freq>:
  * @note   Each time PCLK1 changes, this function must be called to update the
  *         right PCLK1 value. Otherwise, any configuration based on this function will be incorrect.
  * @retval PCLK1 frequency
  */
uint32_t HAL_RCC_GetPCLK1Freq(void)
{
 800145c:	b580      	push	{r7, lr}
 800145e:	af00      	add	r7, sp, #0
  /* Get HCLK source and Compute PCLK1 frequency ---------------------------*/
  return (HAL_RCC_GetHCLKFreq() >> APBPrescTable[(RCC->CFGR & RCC_CFGR_PPRE1)>> RCC_CFGR_PPRE1_Pos]);
 8001460:	f7ff fff0 	bl	8001444 <HAL_RCC_GetHCLKFreq>
 8001464:	4601      	mov	r1, r0
 8001466:	4b05      	ldr	r3, [pc, #20]	; (800147c <HAL_RCC_GetPCLK1Freq+0x20>)
 8001468:	689b      	ldr	r3, [r3, #8]
 800146a:	0a9b      	lsrs	r3, r3, #10
 800146c:	f003 0307 	and.w	r3, r3, #7
 8001470:	4a03      	ldr	r2, [pc, #12]	; (8001480 <HAL_RCC_GetPCLK1Freq+0x24>)
 8001472:	5cd3      	ldrb	r3, [r2, r3]
 8001474:	fa21 f303 	lsr.w	r3, r1, r3
}
 8001478:	4618      	mov	r0, r3
 800147a:	bd80      	pop	{r7, pc}
 800147c:	40023800 	.word	0x40023800
 8001480:	08002a08 	.word	0x08002a08

08001484 <HAL_RCC_GetPCLK2Freq>:
  * @note   Each time PCLK2 changes, this function must be called to update the
  *         right PCLK2 value. Otherwise, any configuration based on this function will be incorrect.
  * @retval PCLK2 frequency
  */
uint32_t HAL_RCC_GetPCLK2Freq(void)
{
 8001484:	b580      	push	{r7, lr}
 8001486:	af00      	add	r7, sp, #0
  /* Get HCLK source and Compute PCLK2 frequency ---------------------------*/
  return (HAL_RCC_GetHCLKFreq()>> APBPrescTable[(RCC->CFGR & RCC_CFGR_PPRE2)>> RCC_CFGR_PPRE2_Pos]);
 8001488:	f7ff ffdc 	bl	8001444 <HAL_RCC_GetHCLKFreq>
 800148c:	4601      	mov	r1, r0
 800148e:	4b05      	ldr	r3, [pc, #20]	; (80014a4 <HAL_RCC_GetPCLK2Freq+0x20>)
 8001490:	689b      	ldr	r3, [r3, #8]
 8001492:	0b5b      	lsrs	r3, r3, #13
 8001494:	f003 0307 	and.w	r3, r3, #7
 8001498:	4a03      	ldr	r2, [pc, #12]	; (80014a8 <HAL_RCC_GetPCLK2Freq+0x24>)
 800149a:	5cd3      	ldrb	r3, [r2, r3]
 800149c:	fa21 f303 	lsr.w	r3, r1, r3
}
 80014a0:	4618      	mov	r0, r3
 80014a2:	bd80      	pop	{r7, pc}
 80014a4:	40023800 	.word	0x40023800
 80014a8:	08002a08 	.word	0x08002a08

080014ac <HAL_RCCEx_PeriphCLKConfig>:
  *         the backup registers) are set to their reset values.
  *
  * @retval HAL status
  */
HAL_StatusTypeDef HAL_RCCEx_PeriphCLKConfig(RCC_PeriphCLKInitTypeDef  *PeriphClkInit)
{
 80014ac:	b580      	push	{r7, lr}
 80014ae:	b088      	sub	sp, #32
 80014b0:	af00      	add	r7, sp, #0
 80014b2:	6078      	str	r0, [r7, #4]
  uint32_t tickstart = 0;
 80014b4:	2300      	movs	r3, #0
 80014b6:	617b      	str	r3, [r7, #20]
  uint32_t tmpreg0 = 0;
 80014b8:	2300      	movs	r3, #0
 80014ba:	613b      	str	r3, [r7, #16]
  uint32_t tmpreg1 = 0;
 80014bc:	2300      	movs	r3, #0
 80014be:	60fb      	str	r3, [r7, #12]
  uint32_t plli2sused = 0;
 80014c0:	2300      	movs	r3, #0
 80014c2:	61fb      	str	r3, [r7, #28]
  uint32_t pllsaiused = 0;
 80014c4:	2300      	movs	r3, #0
 80014c6:	61bb      	str	r3, [r7, #24]

  /* Check the parameters */
  assert_param(IS_RCC_PERIPHCLOCK(PeriphClkInit->PeriphClockSelection));

  /*----------------------------------- I2S configuration ----------------------------------*/
  if(((PeriphClkInit->PeriphClockSelection) & RCC_PERIPHCLK_I2S) == (RCC_PERIPHCLK_I2S))
 80014c8:	687b      	ldr	r3, [r7, #4]
 80014ca:	681b      	ldr	r3, [r3, #0]
 80014cc:	f003 0301 	and.w	r3, r3, #1
 80014d0:	2b00      	cmp	r3, #0
 80014d2:	d012      	beq.n	80014fa <HAL_RCCEx_PeriphCLKConfig+0x4e>
  {
    /* Check the parameters */
    assert_param(IS_RCC_I2SCLKSOURCE(PeriphClkInit->I2sClockSelection));

    /* Configure I2S Clock source */
    __HAL_RCC_I2S_CONFIG(PeriphClkInit->I2sClockSelection);
 80014d4:	4b69      	ldr	r3, [pc, #420]	; (800167c <HAL_RCCEx_PeriphCLKConfig+0x1d0>)
 80014d6:	689b      	ldr	r3, [r3, #8]
 80014d8:	4a68      	ldr	r2, [pc, #416]	; (800167c <HAL_RCCEx_PeriphCLKConfig+0x1d0>)
 80014da:	f423 0300 	bic.w	r3, r3, #8388608	; 0x800000
 80014de:	6093      	str	r3, [r2, #8]
 80014e0:	4b66      	ldr	r3, [pc, #408]	; (800167c <HAL_RCCEx_PeriphCLKConfig+0x1d0>)
 80014e2:	689a      	ldr	r2, [r3, #8]
 80014e4:	687b      	ldr	r3, [r7, #4]
 80014e6:	6b5b      	ldr	r3, [r3, #52]	; 0x34
 80014e8:	4964      	ldr	r1, [pc, #400]	; (800167c <HAL_RCCEx_PeriphCLKConfig+0x1d0>)
 80014ea:	4313      	orrs	r3, r2
 80014ec:	608b      	str	r3, [r1, #8]

    /* Enable the PLLI2S when it's used as clock source for I2S */
    if(PeriphClkInit->I2sClockSelection == RCC_I2SCLKSOURCE_PLLI2S)
 80014ee:	687b      	ldr	r3, [r7, #4]
 80014f0:	6b5b      	ldr	r3, [r3, #52]	; 0x34
 80014f2:	2b00      	cmp	r3, #0
 80014f4:	d101      	bne.n	80014fa <HAL_RCCEx_PeriphCLKConfig+0x4e>
    {
      plli2sused = 1;
 80014f6:	2301      	movs	r3, #1
 80014f8:	61fb      	str	r3, [r7, #28]
    }
  }

  /*------------------------------------ SAI1 configuration --------------------------------------*/
  if(((PeriphClkInit->PeriphClockSelection) & RCC_PERIPHCLK_SAI1) == (RCC_PERIPHCLK_SAI1))
 80014fa:	687b      	ldr	r3, [r7, #4]
 80014fc:	681b      	ldr	r3, [r3, #0]
 80014fe:	f403 2300 	and.w	r3, r3, #524288	; 0x80000
 8001502:	2b00      	cmp	r3, #0
 8001504:	d017      	beq.n	8001536 <HAL_RCCEx_PeriphCLKConfig+0x8a>
  {
    /* Check the parameters */
    assert_param(IS_RCC_SAI1CLKSOURCE(PeriphClkInit->Sai1ClockSelection));

    /* Configure SAI1 Clock source */
    __HAL_RCC_SAI1_CONFIG(PeriphClkInit->Sai1ClockSelection);
 8001506:	4b5d      	ldr	r3, [pc, #372]	; (800167c <HAL_RCCEx_PeriphCLKConfig+0x1d0>)
 8001508:	f8d3 308c 	ldr.w	r3, [r3, #140]	; 0x8c
 800150c:	f423 1240 	bic.w	r2, r3, #3145728	; 0x300000
 8001510:	687b      	ldr	r3, [r7, #4]
 8001512:	6bdb      	ldr	r3, [r3, #60]	; 0x3c
 8001514:	4959      	ldr	r1, [pc, #356]	; (800167c <HAL_RCCEx_PeriphCLKConfig+0x1d0>)
 8001516:	4313      	orrs	r3, r2
 8001518:	f8c1 308c 	str.w	r3, [r1, #140]	; 0x8c
    /* Enable the PLLI2S when it's used as clock source for SAI */
    if(PeriphClkInit->Sai1ClockSelection == RCC_SAI1CLKSOURCE_PLLI2S)
 800151c:	687b      	ldr	r3, [r7, #4]
 800151e:	6bdb      	ldr	r3, [r3, #60]	; 0x3c
 8001520:	f5b3 1f80 	cmp.w	r3, #1048576	; 0x100000
 8001524:	d101      	bne.n	800152a <HAL_RCCEx_PeriphCLKConfig+0x7e>
    {
      plli2sused = 1;
 8001526:	2301      	movs	r3, #1
 8001528:	61fb      	str	r3, [r7, #28]
    }
    /* Enable the PLLSAI when it's used as clock source for SAI */
    if(PeriphClkInit->Sai1ClockSelection == RCC_SAI1CLKSOURCE_PLLSAI)
 800152a:	687b      	ldr	r3, [r7, #4]
 800152c:	6bdb      	ldr	r3, [r3, #60]	; 0x3c
 800152e:	2b00      	cmp	r3, #0
 8001530:	d101      	bne.n	8001536 <HAL_RCCEx_PeriphCLKConfig+0x8a>
    {
      pllsaiused = 1;
 8001532:	2301      	movs	r3, #1
 8001534:	61bb      	str	r3, [r7, #24]
    }
  }

  /*------------------------------------ SAI2 configuration --------------------------------------*/
  if(((PeriphClkInit->PeriphClockSelection) & RCC_PERIPHCLK_SAI2) == (RCC_PERIPHCLK_SAI2))
 8001536:	687b      	ldr	r3, [r7, #4]
 8001538:	681b      	ldr	r3, [r3, #0]
 800153a:	f403 1380 	and.w	r3, r3, #1048576	; 0x100000
 800153e:	2b00      	cmp	r3, #0
 8001540:	d017      	beq.n	8001572 <HAL_RCCEx_PeriphCLKConfig+0xc6>
  {
    /* Check the parameters */
    assert_param(IS_RCC_SAI2CLKSOURCE(PeriphClkInit->Sai2ClockSelection));

    /* Configure SAI2 Clock source */
    __HAL_RCC_SAI2_CONFIG(PeriphClkInit->Sai2ClockSelection);
 8001542:	4b4e      	ldr	r3, [pc, #312]	; (800167c <HAL_RCCEx_PeriphCLKConfig+0x1d0>)
 8001544:	f8d3 308c 	ldr.w	r3, [r3, #140]	; 0x8c
 8001548:	f423 0240 	bic.w	r2, r3, #12582912	; 0xc00000
 800154c:	687b      	ldr	r3, [r7, #4]
 800154e:	6c1b      	ldr	r3, [r3, #64]	; 0x40
 8001550:	494a      	ldr	r1, [pc, #296]	; (800167c <HAL_RCCEx_PeriphCLKConfig+0x1d0>)
 8001552:	4313      	orrs	r3, r2
 8001554:	f8c1 308c 	str.w	r3, [r1, #140]	; 0x8c

    /* Enable the PLLI2S when it's used as clock source for SAI */
    if(PeriphClkInit->Sai2ClockSelection == RCC_SAI2CLKSOURCE_PLLI2S)
 8001558:	687b      	ldr	r3, [r7, #4]
 800155a:	6c1b      	ldr	r3, [r3, #64]	; 0x40
 800155c:	f5b3 0f80 	cmp.w	r3, #4194304	; 0x400000
 8001560:	d101      	bne.n	8001566 <HAL_RCCEx_PeriphCLKConfig+0xba>
    {
      plli2sused = 1;
 8001562:	2301      	movs	r3, #1
 8001564:	61fb      	str	r3, [r7, #28]
    }
    /* Enable the PLLSAI when it's used as clock source for SAI */
    if(PeriphClkInit->Sai2ClockSelection == RCC_SAI2CLKSOURCE_PLLSAI)
 8001566:	687b      	ldr	r3, [r7, #4]
 8001568:	6c1b      	ldr	r3, [r3, #64]	; 0x40
 800156a:	2b00      	cmp	r3, #0
 800156c:	d101      	bne.n	8001572 <HAL_RCCEx_PeriphCLKConfig+0xc6>
    {
      pllsaiused = 1;
 800156e:	2301      	movs	r3, #1
 8001570:	61bb      	str	r3, [r7, #24]
    }
  }

  /*-------------------------------------- SPDIF-RX Configuration -----------------------------------*/
  if(((PeriphClkInit->PeriphClockSelection) & RCC_PERIPHCLK_SPDIFRX) == RCC_PERIPHCLK_SPDIFRX)
 8001572:	687b      	ldr	r3, [r7, #4]
 8001574:	681b      	ldr	r3, [r3, #0]
 8001576:	f003 7380 	and.w	r3, r3, #16777216	; 0x1000000
 800157a:	2b00      	cmp	r3, #0
 800157c:	d001      	beq.n	8001582 <HAL_RCCEx_PeriphCLKConfig+0xd6>
  {
      plli2sused = 1;
 800157e:	2301      	movs	r3, #1
 8001580:	61fb      	str	r3, [r7, #28]
  }

  /*------------------------------------ RTC configuration --------------------------------------*/
  if(((PeriphClkInit->PeriphClockSelection) & RCC_PERIPHCLK_RTC) == (RCC_PERIPHCLK_RTC))
 8001582:	687b      	ldr	r3, [r7, #4]
 8001584:	681b      	ldr	r3, [r3, #0]
 8001586:	f003 0320 	and.w	r3, r3, #32
 800158a:	2b00      	cmp	r3, #0
 800158c:	f000 808b 	beq.w	80016a6 <HAL_RCCEx_PeriphCLKConfig+0x1fa>
  {
    /* Check for RTC Parameters used to output RTCCLK */
    assert_param(IS_RCC_RTCCLKSOURCE(PeriphClkInit->RTCClockSelection));

    /* Enable Power Clock*/
    __HAL_RCC_PWR_CLK_ENABLE();
 8001590:	4b3a      	ldr	r3, [pc, #232]	; (800167c <HAL_RCCEx_PeriphCLKConfig+0x1d0>)
 8001592:	6c1b      	ldr	r3, [r3, #64]	; 0x40
 8001594:	4a39      	ldr	r2, [pc, #228]	; (800167c <HAL_RCCEx_PeriphCLKConfig+0x1d0>)
 8001596:	f043 5380 	orr.w	r3, r3, #268435456	; 0x10000000
 800159a:	6413      	str	r3, [r2, #64]	; 0x40
 800159c:	4b37      	ldr	r3, [pc, #220]	; (800167c <HAL_RCCEx_PeriphCLKConfig+0x1d0>)
 800159e:	6c1b      	ldr	r3, [r3, #64]	; 0x40
 80015a0:	f003 5380 	and.w	r3, r3, #268435456	; 0x10000000
 80015a4:	60bb      	str	r3, [r7, #8]
 80015a6:	68bb      	ldr	r3, [r7, #8]

    /* Enable write access to Backup domain */
    PWR->CR1 |= PWR_CR1_DBP;
 80015a8:	4b35      	ldr	r3, [pc, #212]	; (8001680 <HAL_RCCEx_PeriphCLKConfig+0x1d4>)
 80015aa:	681b      	ldr	r3, [r3, #0]
 80015ac:	4a34      	ldr	r2, [pc, #208]	; (8001680 <HAL_RCCEx_PeriphCLKConfig+0x1d4>)
 80015ae:	f443 7380 	orr.w	r3, r3, #256	; 0x100
 80015b2:	6013      	str	r3, [r2, #0]

    /* Get Start Tick*/
    tickstart = HAL_GetTick();
 80015b4:	f7fe fffa 	bl	80005ac <HAL_GetTick>
 80015b8:	6178      	str	r0, [r7, #20]

    /* Wait for Backup domain Write protection disable */
    while((PWR->CR1 & PWR_CR1_DBP) == RESET)
 80015ba:	e008      	b.n	80015ce <HAL_RCCEx_PeriphCLKConfig+0x122>
    {
      if((HAL_GetTick() - tickstart) > RCC_DBP_TIMEOUT_VALUE)
 80015bc:	f7fe fff6 	bl	80005ac <HAL_GetTick>
 80015c0:	4602      	mov	r2, r0
 80015c2:	697b      	ldr	r3, [r7, #20]
 80015c4:	1ad3      	subs	r3, r2, r3
 80015c6:	2b64      	cmp	r3, #100	; 0x64
 80015c8:	d901      	bls.n	80015ce <HAL_RCCEx_PeriphCLKConfig+0x122>
      {
        return HAL_TIMEOUT;
 80015ca:	2303      	movs	r3, #3
 80015cc:	e355      	b.n	8001c7a <HAL_RCCEx_PeriphCLKConfig+0x7ce>
    while((PWR->CR1 & PWR_CR1_DBP) == RESET)
 80015ce:	4b2c      	ldr	r3, [pc, #176]	; (8001680 <HAL_RCCEx_PeriphCLKConfig+0x1d4>)
 80015d0:	681b      	ldr	r3, [r3, #0]
 80015d2:	f403 7380 	and.w	r3, r3, #256	; 0x100
 80015d6:	2b00      	cmp	r3, #0
 80015d8:	d0f0      	beq.n	80015bc <HAL_RCCEx_PeriphCLKConfig+0x110>
      }
    }

    /* Reset the Backup domain only if the RTC Clock source selection is modified */
    tmpreg0 = (RCC->BDCR & RCC_BDCR_RTCSEL);
 80015da:	4b28      	ldr	r3, [pc, #160]	; (800167c <HAL_RCCEx_PeriphCLKConfig+0x1d0>)
 80015dc:	6f1b      	ldr	r3, [r3, #112]	; 0x70
 80015de:	f403 7340 	and.w	r3, r3, #768	; 0x300
 80015e2:	613b      	str	r3, [r7, #16]

    if((tmpreg0 != 0x00000000U) && (tmpreg0 != (PeriphClkInit->RTCClockSelection & RCC_BDCR_RTCSEL)))
 80015e4:	693b      	ldr	r3, [r7, #16]
 80015e6:	2b00      	cmp	r3, #0
 80015e8:	d035      	beq.n	8001656 <HAL_RCCEx_PeriphCLKConfig+0x1aa>
 80015ea:	687b      	ldr	r3, [r7, #4]
 80015ec:	6b1b      	ldr	r3, [r3, #48]	; 0x30
 80015ee:	f403 7340 	and.w	r3, r3, #768	; 0x300
 80015f2:	693a      	ldr	r2, [r7, #16]
 80015f4:	429a      	cmp	r2, r3
 80015f6:	d02e      	beq.n	8001656 <HAL_RCCEx_PeriphCLKConfig+0x1aa>
    {
      /* Store the content of BDCR register before the reset of Backup Domain */
      tmpreg0 = (RCC->BDCR & ~(RCC_BDCR_RTCSEL));
 80015f8:	4b20      	ldr	r3, [pc, #128]	; (800167c <HAL_RCCEx_PeriphCLKConfig+0x1d0>)
 80015fa:	6f1b      	ldr	r3, [r3, #112]	; 0x70
 80015fc:	f423 7340 	bic.w	r3, r3, #768	; 0x300
 8001600:	613b      	str	r3, [r7, #16]

      /* RTC Clock selection can be changed only if the Backup Domain is reset */
      __HAL_RCC_BACKUPRESET_FORCE();
 8001602:	4b1e      	ldr	r3, [pc, #120]	; (800167c <HAL_RCCEx_PeriphCLKConfig+0x1d0>)
 8001604:	6f1b      	ldr	r3, [r3, #112]	; 0x70
 8001606:	4a1d      	ldr	r2, [pc, #116]	; (800167c <HAL_RCCEx_PeriphCLKConfig+0x1d0>)
 8001608:	f443 3380 	orr.w	r3, r3, #65536	; 0x10000
 800160c:	6713      	str	r3, [r2, #112]	; 0x70
      __HAL_RCC_BACKUPRESET_RELEASE();
 800160e:	4b1b      	ldr	r3, [pc, #108]	; (800167c <HAL_RCCEx_PeriphCLKConfig+0x1d0>)
 8001610:	6f1b      	ldr	r3, [r3, #112]	; 0x70
 8001612:	4a1a      	ldr	r2, [pc, #104]	; (800167c <HAL_RCCEx_PeriphCLKConfig+0x1d0>)
 8001614:	f423 3380 	bic.w	r3, r3, #65536	; 0x10000
 8001618:	6713      	str	r3, [r2, #112]	; 0x70

      /* Restore the Content of BDCR register */
      RCC->BDCR = tmpreg0;
 800161a:	4a18      	ldr	r2, [pc, #96]	; (800167c <HAL_RCCEx_PeriphCLKConfig+0x1d0>)
 800161c:	693b      	ldr	r3, [r7, #16]
 800161e:	6713      	str	r3, [r2, #112]	; 0x70

      /* Wait for LSE reactivation if LSE was enable prior to Backup Domain reset */
      if (HAL_IS_BIT_SET(RCC->BDCR, RCC_BDCR_LSEON))
 8001620:	4b16      	ldr	r3, [pc, #88]	; (800167c <HAL_RCCEx_PeriphCLKConfig+0x1d0>)
 8001622:	6f1b      	ldr	r3, [r3, #112]	; 0x70
 8001624:	f003 0301 	and.w	r3, r3, #1
 8001628:	2b01      	cmp	r3, #1
 800162a:	d114      	bne.n	8001656 <HAL_RCCEx_PeriphCLKConfig+0x1aa>
      {
        /* Get Start Tick*/
        tickstart = HAL_GetTick();
 800162c:	f7fe ffbe 	bl	80005ac <HAL_GetTick>
 8001630:	6178      	str	r0, [r7, #20]

        /* Wait till LSE is ready */
        while(__HAL_RCC_GET_FLAG(RCC_FLAG_LSERDY) == RESET)
 8001632:	e00a      	b.n	800164a <HAL_RCCEx_PeriphCLKConfig+0x19e>
        {
          if((HAL_GetTick() - tickstart ) > RCC_LSE_TIMEOUT_VALUE)
 8001634:	f7fe ffba 	bl	80005ac <HAL_GetTick>
 8001638:	4602      	mov	r2, r0
 800163a:	697b      	ldr	r3, [r7, #20]
 800163c:	1ad3      	subs	r3, r2, r3
 800163e:	f241 3288 	movw	r2, #5000	; 0x1388
 8001642:	4293      	cmp	r3, r2
 8001644:	d901      	bls.n	800164a <HAL_RCCEx_PeriphCLKConfig+0x19e>
          {
            return HAL_TIMEOUT;
 8001646:	2303      	movs	r3, #3
 8001648:	e317      	b.n	8001c7a <HAL_RCCEx_PeriphCLKConfig+0x7ce>
        while(__HAL_RCC_GET_FLAG(RCC_FLAG_LSERDY) == RESET)
 800164a:	4b0c      	ldr	r3, [pc, #48]	; (800167c <HAL_RCCEx_PeriphCLKConfig+0x1d0>)
 800164c:	6f1b      	ldr	r3, [r3, #112]	; 0x70
 800164e:	f003 0302 	and.w	r3, r3, #2
 8001652:	2b00      	cmp	r3, #0
 8001654:	d0ee      	beq.n	8001634 <HAL_RCCEx_PeriphCLKConfig+0x188>
          }
        }
      }
    }
    __HAL_RCC_RTC_CONFIG(PeriphClkInit->RTCClockSelection);
 8001656:	687b      	ldr	r3, [r7, #4]
 8001658:	6b1b      	ldr	r3, [r3, #48]	; 0x30
 800165a:	f403 7340 	and.w	r3, r3, #768	; 0x300
 800165e:	f5b3 7f40 	cmp.w	r3, #768	; 0x300
 8001662:	d111      	bne.n	8001688 <HAL_RCCEx_PeriphCLKConfig+0x1dc>
 8001664:	4b05      	ldr	r3, [pc, #20]	; (800167c <HAL_RCCEx_PeriphCLKConfig+0x1d0>)
 8001666:	689b      	ldr	r3, [r3, #8]
 8001668:	f423 12f8 	bic.w	r2, r3, #2031616	; 0x1f0000
 800166c:	687b      	ldr	r3, [r7, #4]
 800166e:	6b19      	ldr	r1, [r3, #48]	; 0x30
 8001670:	4b04      	ldr	r3, [pc, #16]	; (8001684 <HAL_RCCEx_PeriphCLKConfig+0x1d8>)
 8001672:	400b      	ands	r3, r1
 8001674:	4901      	ldr	r1, [pc, #4]	; (800167c <HAL_RCCEx_PeriphCLKConfig+0x1d0>)
 8001676:	4313      	orrs	r3, r2
 8001678:	608b      	str	r3, [r1, #8]
 800167a:	e00b      	b.n	8001694 <HAL_RCCEx_PeriphCLKConfig+0x1e8>
 800167c:	40023800 	.word	0x40023800
 8001680:	40007000 	.word	0x40007000
 8001684:	0ffffcff 	.word	0x0ffffcff
 8001688:	4bb0      	ldr	r3, [pc, #704]	; (800194c <HAL_RCCEx_PeriphCLKConfig+0x4a0>)
 800168a:	689b      	ldr	r3, [r3, #8]
 800168c:	4aaf      	ldr	r2, [pc, #700]	; (800194c <HAL_RCCEx_PeriphCLKConfig+0x4a0>)
 800168e:	f423 13f8 	bic.w	r3, r3, #2031616	; 0x1f0000
 8001692:	6093      	str	r3, [r2, #8]
 8001694:	4bad      	ldr	r3, [pc, #692]	; (800194c <HAL_RCCEx_PeriphCLKConfig+0x4a0>)
 8001696:	6f1a      	ldr	r2, [r3, #112]	; 0x70
 8001698:	687b      	ldr	r3, [r7, #4]
 800169a:	6b1b      	ldr	r3, [r3, #48]	; 0x30
 800169c:	f3c3 030b 	ubfx	r3, r3, #0, #12
 80016a0:	49aa      	ldr	r1, [pc, #680]	; (800194c <HAL_RCCEx_PeriphCLKConfig+0x4a0>)
 80016a2:	4313      	orrs	r3, r2
 80016a4:	670b      	str	r3, [r1, #112]	; 0x70
  }

  /*------------------------------------ TIM configuration --------------------------------------*/
  if(((PeriphClkInit->PeriphClockSelection) & RCC_PERIPHCLK_TIM) == (RCC_PERIPHCLK_TIM))
 80016a6:	687b      	ldr	r3, [r7, #4]
 80016a8:	681b      	ldr	r3, [r3, #0]
 80016aa:	f003 0310 	and.w	r3, r3, #16
 80016ae:	2b00      	cmp	r3, #0
 80016b0:	d010      	beq.n	80016d4 <HAL_RCCEx_PeriphCLKConfig+0x228>
  {
    /* Check the parameters */
    assert_param(IS_RCC_TIMPRES(PeriphClkInit->TIMPresSelection));

    /* Configure Timer Prescaler */
    __HAL_RCC_TIMCLKPRESCALER(PeriphClkInit->TIMPresSelection);
 80016b2:	4ba6      	ldr	r3, [pc, #664]	; (800194c <HAL_RCCEx_PeriphCLKConfig+0x4a0>)
 80016b4:	f8d3 308c 	ldr.w	r3, [r3, #140]	; 0x8c
 80016b8:	4aa4      	ldr	r2, [pc, #656]	; (800194c <HAL_RCCEx_PeriphCLKConfig+0x4a0>)
 80016ba:	f023 7380 	bic.w	r3, r3, #16777216	; 0x1000000
 80016be:	f8c2 308c 	str.w	r3, [r2, #140]	; 0x8c
 80016c2:	4ba2      	ldr	r3, [pc, #648]	; (800194c <HAL_RCCEx_PeriphCLKConfig+0x4a0>)
 80016c4:	f8d3 208c 	ldr.w	r2, [r3, #140]	; 0x8c
 80016c8:	687b      	ldr	r3, [r7, #4]
 80016ca:	6b9b      	ldr	r3, [r3, #56]	; 0x38
 80016cc:	499f      	ldr	r1, [pc, #636]	; (800194c <HAL_RCCEx_PeriphCLKConfig+0x4a0>)
 80016ce:	4313      	orrs	r3, r2
 80016d0:	f8c1 308c 	str.w	r3, [r1, #140]	; 0x8c
  }

  /*-------------------------------------- I2C1 Configuration -----------------------------------*/
  if(((PeriphClkInit->PeriphClockSelection) & RCC_PERIPHCLK_I2C1) == RCC_PERIPHCLK_I2C1)
 80016d4:	687b      	ldr	r3, [r7, #4]
 80016d6:	681b      	ldr	r3, [r3, #0]
 80016d8:	f403 4380 	and.w	r3, r3, #16384	; 0x4000
 80016dc:	2b00      	cmp	r3, #0
 80016de:	d00a      	beq.n	80016f6 <HAL_RCCEx_PeriphCLKConfig+0x24a>
  {
    /* Check the parameters */
    assert_param(IS_RCC_I2C1CLKSOURCE(PeriphClkInit->I2c1ClockSelection));

    /* Configure the I2C1 clock source */
    __HAL_RCC_I2C1_CONFIG(PeriphClkInit->I2c1ClockSelection);
 80016e0:	4b9a      	ldr	r3, [pc, #616]	; (800194c <HAL_RCCEx_PeriphCLKConfig+0x4a0>)
 80016e2:	f8d3 3090 	ldr.w	r3, [r3, #144]	; 0x90
 80016e6:	f423 3240 	bic.w	r2, r3, #196608	; 0x30000
 80016ea:	687b      	ldr	r3, [r7, #4]
 80016ec:	6e5b      	ldr	r3, [r3, #100]	; 0x64
 80016ee:	4997      	ldr	r1, [pc, #604]	; (800194c <HAL_RCCEx_PeriphCLKConfig+0x4a0>)
 80016f0:	4313      	orrs	r3, r2
 80016f2:	f8c1 3090 	str.w	r3, [r1, #144]	; 0x90
  }

  /*-------------------------------------- I2C2 Configuration -----------------------------------*/
  if(((PeriphClkInit->PeriphClockSelection) & RCC_PERIPHCLK_I2C2) == RCC_PERIPHCLK_I2C2)
 80016f6:	687b      	ldr	r3, [r7, #4]
 80016f8:	681b      	ldr	r3, [r3, #0]
 80016fa:	f403 4300 	and.w	r3, r3, #32768	; 0x8000
 80016fe:	2b00      	cmp	r3, #0
 8001700:	d00a      	beq.n	8001718 <HAL_RCCEx_PeriphCLKConfig+0x26c>
  {
    /* Check the parameters */
    assert_param(IS_RCC_I2C2CLKSOURCE(PeriphClkInit->I2c2ClockSelection));

    /* Configure the I2C2 clock source */
    __HAL_RCC_I2C2_CONFIG(PeriphClkInit->I2c2ClockSelection);
 8001702:	4b92      	ldr	r3, [pc, #584]	; (800194c <HAL_RCCEx_PeriphCLKConfig+0x4a0>)
 8001704:	f8d3 3090 	ldr.w	r3, [r3, #144]	; 0x90
 8001708:	f423 2240 	bic.w	r2, r3, #786432	; 0xc0000
 800170c:	687b      	ldr	r3, [r7, #4]
 800170e:	6e9b      	ldr	r3, [r3, #104]	; 0x68
 8001710:	498e      	ldr	r1, [pc, #568]	; (800194c <HAL_RCCEx_PeriphCLKConfig+0x4a0>)
 8001712:	4313      	orrs	r3, r2
 8001714:	f8c1 3090 	str.w	r3, [r1, #144]	; 0x90
  }

  /*-------------------------------------- I2C3 Configuration -----------------------------------*/
  if(((PeriphClkInit->PeriphClockSelection) & RCC_PERIPHCLK_I2C3) == RCC_PERIPHCLK_I2C3)
 8001718:	687b      	ldr	r3, [r7, #4]
 800171a:	681b      	ldr	r3, [r3, #0]
 800171c:	f403 3380 	and.w	r3, r3, #65536	; 0x10000
 8001720:	2b00      	cmp	r3, #0
 8001722:	d00a      	beq.n	800173a <HAL_RCCEx_PeriphCLKConfig+0x28e>
  {
    /* Check the parameters */
    assert_param(IS_RCC_I2C3CLKSOURCE(PeriphClkInit->I2c3ClockSelection));

    /* Configure the I2C3 clock source */
    __HAL_RCC_I2C3_CONFIG(PeriphClkInit->I2c3ClockSelection);
 8001724:	4b89      	ldr	r3, [pc, #548]	; (800194c <HAL_RCCEx_PeriphCLKConfig+0x4a0>)
 8001726:	f8d3 3090 	ldr.w	r3, [r3, #144]	; 0x90
 800172a:	f423 1240 	bic.w	r2, r3, #3145728	; 0x300000
 800172e:	687b      	ldr	r3, [r7, #4]
 8001730:	6edb      	ldr	r3, [r3, #108]	; 0x6c
 8001732:	4986      	ldr	r1, [pc, #536]	; (800194c <HAL_RCCEx_PeriphCLKConfig+0x4a0>)
 8001734:	4313      	orrs	r3, r2
 8001736:	f8c1 3090 	str.w	r3, [r1, #144]	; 0x90
  }

  /*-------------------------------------- I2C4 Configuration -----------------------------------*/
  if(((PeriphClkInit->PeriphClockSelection) & RCC_PERIPHCLK_I2C4) == RCC_PERIPHCLK_I2C4)
 800173a:	687b      	ldr	r3, [r7, #4]
 800173c:	681b      	ldr	r3, [r3, #0]
 800173e:	f403 3300 	and.w	r3, r3, #131072	; 0x20000
 8001742:	2b00      	cmp	r3, #0
 8001744:	d00a      	beq.n	800175c <HAL_RCCEx_PeriphCLKConfig+0x2b0>
  {
    /* Check the parameters */
    assert_param(IS_RCC_I2C4CLKSOURCE(PeriphClkInit->I2c4ClockSelection));

    /* Configure the I2C4 clock source */
    __HAL_RCC_I2C4_CONFIG(PeriphClkInit->I2c4ClockSelection);
 8001746:	4b81      	ldr	r3, [pc, #516]	; (800194c <HAL_RCCEx_PeriphCLKConfig+0x4a0>)
 8001748:	f8d3 3090 	ldr.w	r3, [r3, #144]	; 0x90
 800174c:	f423 0240 	bic.w	r2, r3, #12582912	; 0xc00000
 8001750:	687b      	ldr	r3, [r7, #4]
 8001752:	6f1b      	ldr	r3, [r3, #112]	; 0x70
 8001754:	497d      	ldr	r1, [pc, #500]	; (800194c <HAL_RCCEx_PeriphCLKConfig+0x4a0>)
 8001756:	4313      	orrs	r3, r2
 8001758:	f8c1 3090 	str.w	r3, [r1, #144]	; 0x90
  }

  /*-------------------------------------- USART1 Configuration -----------------------------------*/
  if(((PeriphClkInit->PeriphClockSelection) & RCC_PERIPHCLK_USART1) == RCC_PERIPHCLK_USART1)
 800175c:	687b      	ldr	r3, [r7, #4]
 800175e:	681b      	ldr	r3, [r3, #0]
 8001760:	f003 0340 	and.w	r3, r3, #64	; 0x40
 8001764:	2b00      	cmp	r3, #0
 8001766:	d00a      	beq.n	800177e <HAL_RCCEx_PeriphCLKConfig+0x2d2>
  {
    /* Check the parameters */
    assert_param(IS_RCC_USART1CLKSOURCE(PeriphClkInit->Usart1ClockSelection));

    /* Configure the USART1 clock source */
    __HAL_RCC_USART1_CONFIG(PeriphClkInit->Usart1ClockSelection);
 8001768:	4b78      	ldr	r3, [pc, #480]	; (800194c <HAL_RCCEx_PeriphCLKConfig+0x4a0>)
 800176a:	f8d3 3090 	ldr.w	r3, [r3, #144]	; 0x90
 800176e:	f023 0203 	bic.w	r2, r3, #3
 8001772:	687b      	ldr	r3, [r7, #4]
 8001774:	6c5b      	ldr	r3, [r3, #68]	; 0x44
 8001776:	4975      	ldr	r1, [pc, #468]	; (800194c <HAL_RCCEx_PeriphCLKConfig+0x4a0>)
 8001778:	4313      	orrs	r3, r2
 800177a:	f8c1 3090 	str.w	r3, [r1, #144]	; 0x90
  }

  /*-------------------------------------- USART2 Configuration -----------------------------------*/
  if(((PeriphClkInit->PeriphClockSelection) & RCC_PERIPHCLK_USART2) == RCC_PERIPHCLK_USART2)
 800177e:	687b      	ldr	r3, [r7, #4]
 8001780:	681b      	ldr	r3, [r3, #0]
 8001782:	f003 0380 	and.w	r3, r3, #128	; 0x80
 8001786:	2b00      	cmp	r3, #0
 8001788:	d00a      	beq.n	80017a0 <HAL_RCCEx_PeriphCLKConfig+0x2f4>
  {
    /* Check the parameters */
    assert_param(IS_RCC_USART2CLKSOURCE(PeriphClkInit->Usart2ClockSelection));

    /* Configure the USART2 clock source */
    __HAL_RCC_USART2_CONFIG(PeriphClkInit->Usart2ClockSelection);
 800178a:	4b70      	ldr	r3, [pc, #448]	; (800194c <HAL_RCCEx_PeriphCLKConfig+0x4a0>)
 800178c:	f8d3 3090 	ldr.w	r3, [r3, #144]	; 0x90
 8001790:	f023 020c 	bic.w	r2, r3, #12
 8001794:	687b      	ldr	r3, [r7, #4]
 8001796:	6c9b      	ldr	r3, [r3, #72]	; 0x48
 8001798:	496c      	ldr	r1, [pc, #432]	; (800194c <HAL_RCCEx_PeriphCLKConfig+0x4a0>)
 800179a:	4313      	orrs	r3, r2
 800179c:	f8c1 3090 	str.w	r3, [r1, #144]	; 0x90
  }

  /*-------------------------------------- USART3 Configuration -----------------------------------*/
  if(((PeriphClkInit->PeriphClockSelection) & RCC_PERIPHCLK_USART3) == RCC_PERIPHCLK_USART3)
 80017a0:	687b      	ldr	r3, [r7, #4]
 80017a2:	681b      	ldr	r3, [r3, #0]
 80017a4:	f403 7380 	and.w	r3, r3, #256	; 0x100
 80017a8:	2b00      	cmp	r3, #0
 80017aa:	d00a      	beq.n	80017c2 <HAL_RCCEx_PeriphCLKConfig+0x316>
  {
    /* Check the parameters */
    assert_param(IS_RCC_USART3CLKSOURCE(PeriphClkInit->Usart3ClockSelection));

    /* Configure the USART3 clock source */
    __HAL_RCC_USART3_CONFIG(PeriphClkInit->Usart3ClockSelection);
 80017ac:	4b67      	ldr	r3, [pc, #412]	; (800194c <HAL_RCCEx_PeriphCLKConfig+0x4a0>)
 80017ae:	f8d3 3090 	ldr.w	r3, [r3, #144]	; 0x90
 80017b2:	f023 0230 	bic.w	r2, r3, #48	; 0x30
 80017b6:	687b      	ldr	r3, [r7, #4]
 80017b8:	6cdb      	ldr	r3, [r3, #76]	; 0x4c
 80017ba:	4964      	ldr	r1, [pc, #400]	; (800194c <HAL_RCCEx_PeriphCLKConfig+0x4a0>)
 80017bc:	4313      	orrs	r3, r2
 80017be:	f8c1 3090 	str.w	r3, [r1, #144]	; 0x90
  }

  /*-------------------------------------- UART4 Configuration -----------------------------------*/
  if(((PeriphClkInit->PeriphClockSelection) & RCC_PERIPHCLK_UART4) == RCC_PERIPHCLK_UART4)
 80017c2:	687b      	ldr	r3, [r7, #4]
 80017c4:	681b      	ldr	r3, [r3, #0]
 80017c6:	f403 7300 	and.w	r3, r3, #512	; 0x200
 80017ca:	2b00      	cmp	r3, #0
 80017cc:	d00a      	beq.n	80017e4 <HAL_RCCEx_PeriphCLKConfig+0x338>
  {
    /* Check the parameters */
    assert_param(IS_RCC_UART4CLKSOURCE(PeriphClkInit->Uart4ClockSelection));

    /* Configure the UART4 clock source */
    __HAL_RCC_UART4_CONFIG(PeriphClkInit->Uart4ClockSelection);
 80017ce:	4b5f      	ldr	r3, [pc, #380]	; (800194c <HAL_RCCEx_PeriphCLKConfig+0x4a0>)
 80017d0:	f8d3 3090 	ldr.w	r3, [r3, #144]	; 0x90
 80017d4:	f023 02c0 	bic.w	r2, r3, #192	; 0xc0
 80017d8:	687b      	ldr	r3, [r7, #4]
 80017da:	6d1b      	ldr	r3, [r3, #80]	; 0x50
 80017dc:	495b      	ldr	r1, [pc, #364]	; (800194c <HAL_RCCEx_PeriphCLKConfig+0x4a0>)
 80017de:	4313      	orrs	r3, r2
 80017e0:	f8c1 3090 	str.w	r3, [r1, #144]	; 0x90
  }

  /*-------------------------------------- UART5 Configuration -----------------------------------*/
  if(((PeriphClkInit->PeriphClockSelection) & RCC_PERIPHCLK_UART5) == RCC_PERIPHCLK_UART5)
 80017e4:	687b      	ldr	r3, [r7, #4]
 80017e6:	681b      	ldr	r3, [r3, #0]
 80017e8:	f403 6380 	and.w	r3, r3, #1024	; 0x400
 80017ec:	2b00      	cmp	r3, #0
 80017ee:	d00a      	beq.n	8001806 <HAL_RCCEx_PeriphCLKConfig+0x35a>
  {
    /* Check the parameters */
    assert_param(IS_RCC_UART5CLKSOURCE(PeriphClkInit->Uart5ClockSelection));

    /* Configure the UART5 clock source */
    __HAL_RCC_UART5_CONFIG(PeriphClkInit->Uart5ClockSelection);
 80017f0:	4b56      	ldr	r3, [pc, #344]	; (800194c <HAL_RCCEx_PeriphCLKConfig+0x4a0>)
 80017f2:	f8d3 3090 	ldr.w	r3, [r3, #144]	; 0x90
 80017f6:	f423 7240 	bic.w	r2, r3, #768	; 0x300
 80017fa:	687b      	ldr	r3, [r7, #4]
 80017fc:	6d5b      	ldr	r3, [r3, #84]	; 0x54
 80017fe:	4953      	ldr	r1, [pc, #332]	; (800194c <HAL_RCCEx_PeriphCLKConfig+0x4a0>)
 8001800:	4313      	orrs	r3, r2
 8001802:	f8c1 3090 	str.w	r3, [r1, #144]	; 0x90
  }

  /*-------------------------------------- USART6 Configuration -----------------------------------*/
  if(((PeriphClkInit->PeriphClockSelection) & RCC_PERIPHCLK_USART6) == RCC_PERIPHCLK_USART6)
 8001806:	687b      	ldr	r3, [r7, #4]
 8001808:	681b      	ldr	r3, [r3, #0]
 800180a:	f403 6300 	and.w	r3, r3, #2048	; 0x800
 800180e:	2b00      	cmp	r3, #0
 8001810:	d00a      	beq.n	8001828 <HAL_RCCEx_PeriphCLKConfig+0x37c>
  {
    /* Check the parameters */
    assert_param(IS_RCC_USART6CLKSOURCE(PeriphClkInit->Usart6ClockSelection));

    /* Configure the USART6 clock source */
    __HAL_RCC_USART6_CONFIG(PeriphClkInit->Usart6ClockSelection);
 8001812:	4b4e      	ldr	r3, [pc, #312]	; (800194c <HAL_RCCEx_PeriphCLKConfig+0x4a0>)
 8001814:	f8d3 3090 	ldr.w	r3, [r3, #144]	; 0x90
 8001818:	f423 6240 	bic.w	r2, r3, #3072	; 0xc00
 800181c:	687b      	ldr	r3, [r7, #4]
 800181e:	6d9b      	ldr	r3, [r3, #88]	; 0x58
 8001820:	494a      	ldr	r1, [pc, #296]	; (800194c <HAL_RCCEx_PeriphCLKConfig+0x4a0>)
 8001822:	4313      	orrs	r3, r2
 8001824:	f8c1 3090 	str.w	r3, [r1, #144]	; 0x90
  }

  /*-------------------------------------- UART7 Configuration -----------------------------------*/
  if(((PeriphClkInit->PeriphClockSelection) & RCC_PERIPHCLK_UART7) == RCC_PERIPHCLK_UART7)
 8001828:	687b      	ldr	r3, [r7, #4]
 800182a:	681b      	ldr	r3, [r3, #0]
 800182c:	f403 5380 	and.w	r3, r3, #4096	; 0x1000
 8001830:	2b00      	cmp	r3, #0
 8001832:	d00a      	beq.n	800184a <HAL_RCCEx_PeriphCLKConfig+0x39e>
  {
    /* Check the parameters */
    assert_param(IS_RCC_UART7CLKSOURCE(PeriphClkInit->Uart7ClockSelection));

    /* Configure the UART7 clock source */
    __HAL_RCC_UART7_CONFIG(PeriphClkInit->Uart7ClockSelection);
 8001834:	4b45      	ldr	r3, [pc, #276]	; (800194c <HAL_RCCEx_PeriphCLKConfig+0x4a0>)
 8001836:	f8d3 3090 	ldr.w	r3, [r3, #144]	; 0x90
 800183a:	f423 5240 	bic.w	r2, r3, #12288	; 0x3000
 800183e:	687b      	ldr	r3, [r7, #4]
 8001840:	6ddb      	ldr	r3, [r3, #92]	; 0x5c
 8001842:	4942      	ldr	r1, [pc, #264]	; (800194c <HAL_RCCEx_PeriphCLKConfig+0x4a0>)
 8001844:	4313      	orrs	r3, r2
 8001846:	f8c1 3090 	str.w	r3, [r1, #144]	; 0x90
  }

  /*-------------------------------------- UART8 Configuration -----------------------------------*/
  if(((PeriphClkInit->PeriphClockSelection) & RCC_PERIPHCLK_UART8) == RCC_PERIPHCLK_UART8)
 800184a:	687b      	ldr	r3, [r7, #4]
 800184c:	681b      	ldr	r3, [r3, #0]
 800184e:	f403 5300 	and.w	r3, r3, #8192	; 0x2000
 8001852:	2b00      	cmp	r3, #0
 8001854:	d00a      	beq.n	800186c <HAL_RCCEx_PeriphCLKConfig+0x3c0>
  {
    /* Check the parameters */
    assert_param(IS_RCC_UART8CLKSOURCE(PeriphClkInit->Uart8ClockSelection));

    /* Configure the UART8 clock source */
    __HAL_RCC_UART8_CONFIG(PeriphClkInit->Uart8ClockSelection);
 8001856:	4b3d      	ldr	r3, [pc, #244]	; (800194c <HAL_RCCEx_PeriphCLKConfig+0x4a0>)
 8001858:	f8d3 3090 	ldr.w	r3, [r3, #144]	; 0x90
 800185c:	f423 4240 	bic.w	r2, r3, #49152	; 0xc000
 8001860:	687b      	ldr	r3, [r7, #4]
 8001862:	6e1b      	ldr	r3, [r3, #96]	; 0x60
 8001864:	4939      	ldr	r1, [pc, #228]	; (800194c <HAL_RCCEx_PeriphCLKConfig+0x4a0>)
 8001866:	4313      	orrs	r3, r2
 8001868:	f8c1 3090 	str.w	r3, [r1, #144]	; 0x90
  }

  /*--------------------------------------- CEC Configuration -----------------------------------*/
  if(((PeriphClkInit->PeriphClockSelection) & RCC_PERIPHCLK_CEC) == RCC_PERIPHCLK_CEC)
 800186c:	687b      	ldr	r3, [r7, #4]
 800186e:	681b      	ldr	r3, [r3, #0]
 8001870:	f403 0380 	and.w	r3, r3, #4194304	; 0x400000
 8001874:	2b00      	cmp	r3, #0
 8001876:	d00a      	beq.n	800188e <HAL_RCCEx_PeriphCLKConfig+0x3e2>
  {
    /* Check the parameters */
    assert_param(IS_RCC_CECCLKSOURCE(PeriphClkInit->CecClockSelection));

    /* Configure the CEC clock source */
    __HAL_RCC_CEC_CONFIG(PeriphClkInit->CecClockSelection);
 8001878:	4b34      	ldr	r3, [pc, #208]	; (800194c <HAL_RCCEx_PeriphCLKConfig+0x4a0>)
 800187a:	f8d3 3090 	ldr.w	r3, [r3, #144]	; 0x90
 800187e:	f023 6280 	bic.w	r2, r3, #67108864	; 0x4000000
 8001882:	687b      	ldr	r3, [r7, #4]
 8001884:	6f9b      	ldr	r3, [r3, #120]	; 0x78
 8001886:	4931      	ldr	r1, [pc, #196]	; (800194c <HAL_RCCEx_PeriphCLKConfig+0x4a0>)
 8001888:	4313      	orrs	r3, r2
 800188a:	f8c1 3090 	str.w	r3, [r1, #144]	; 0x90
  }

  /*-------------------------------------- CK48 Configuration -----------------------------------*/
  if(((PeriphClkInit->PeriphClockSelection) & RCC_PERIPHCLK_CLK48) == RCC_PERIPHCLK_CLK48)
 800188e:	687b      	ldr	r3, [r7, #4]
 8001890:	681b      	ldr	r3, [r3, #0]
 8001892:	f403 1300 	and.w	r3, r3, #2097152	; 0x200000
 8001896:	2b00      	cmp	r3, #0
 8001898:	d011      	beq.n	80018be <HAL_RCCEx_PeriphCLKConfig+0x412>
  {
    /* Check the parameters */
    assert_param(IS_RCC_CLK48SOURCE(PeriphClkInit->Clk48ClockSelection));

    /* Configure the CLK48 source */
    __HAL_RCC_CLK48_CONFIG(PeriphClkInit->Clk48ClockSelection);
 800189a:	4b2c      	ldr	r3, [pc, #176]	; (800194c <HAL_RCCEx_PeriphCLKConfig+0x4a0>)
 800189c:	f8d3 3090 	ldr.w	r3, [r3, #144]	; 0x90
 80018a0:	f023 6200 	bic.w	r2, r3, #134217728	; 0x8000000
 80018a4:	687b      	ldr	r3, [r7, #4]
 80018a6:	6fdb      	ldr	r3, [r3, #124]	; 0x7c
 80018a8:	4928      	ldr	r1, [pc, #160]	; (800194c <HAL_RCCEx_PeriphCLKConfig+0x4a0>)
 80018aa:	4313      	orrs	r3, r2
 80018ac:	f8c1 3090 	str.w	r3, [r1, #144]	; 0x90

    /* Enable the PLLSAI when it's used as clock source for CK48 */
    if(PeriphClkInit->Clk48ClockSelection == RCC_CLK48SOURCE_PLLSAIP)
 80018b0:	687b      	ldr	r3, [r7, #4]
 80018b2:	6fdb      	ldr	r3, [r3, #124]	; 0x7c
 80018b4:	f1b3 6f00 	cmp.w	r3, #134217728	; 0x8000000
 80018b8:	d101      	bne.n	80018be <HAL_RCCEx_PeriphCLKConfig+0x412>
    {
      pllsaiused = 1;
 80018ba:	2301      	movs	r3, #1
 80018bc:	61bb      	str	r3, [r7, #24]
    }
  }

  /*-------------------------------------- LTDC Configuration -----------------------------------*/
#if defined(STM32F746xx) || defined(STM32F756xx) || defined (STM32F767xx) || defined (STM32F769xx) || defined (STM32F777xx) || defined (STM32F779xx) || defined (STM32F750xx)
  if(((PeriphClkInit->PeriphClockSelection) & RCC_PERIPHCLK_LTDC) == RCC_PERIPHCLK_LTDC)
 80018be:	687b      	ldr	r3, [r7, #4]
 80018c0:	681b      	ldr	r3, [r3, #0]
 80018c2:	f003 0308 	and.w	r3, r3, #8
 80018c6:	2b00      	cmp	r3, #0
 80018c8:	d001      	beq.n	80018ce <HAL_RCCEx_PeriphCLKConfig+0x422>
  {
    pllsaiused = 1;
 80018ca:	2301      	movs	r3, #1
 80018cc:	61bb      	str	r3, [r7, #24]
  }
#endif /* STM32F746xx || STM32F756xx || STM32F767xx || STM32F769xx || STM32F777xx || STM32F779xx || STM32F750xx */

  /*-------------------------------------- LPTIM1 Configuration -----------------------------------*/
  if(((PeriphClkInit->PeriphClockSelection) & RCC_PERIPHCLK_LPTIM1) == RCC_PERIPHCLK_LPTIM1)
 80018ce:	687b      	ldr	r3, [r7, #4]
 80018d0:	681b      	ldr	r3, [r3, #0]
 80018d2:	f403 2380 	and.w	r3, r3, #262144	; 0x40000
 80018d6:	2b00      	cmp	r3, #0
 80018d8:	d00a      	beq.n	80018f0 <HAL_RCCEx_PeriphCLKConfig+0x444>
  {
    /* Check the parameters */
    assert_param(IS_RCC_LPTIM1CLK(PeriphClkInit->Lptim1ClockSelection));

    /* Configure the LTPIM1 clock source */
    __HAL_RCC_LPTIM1_CONFIG(PeriphClkInit->Lptim1ClockSelection);
 80018da:	4b1c      	ldr	r3, [pc, #112]	; (800194c <HAL_RCCEx_PeriphCLKConfig+0x4a0>)
 80018dc:	f8d3 3090 	ldr.w	r3, [r3, #144]	; 0x90
 80018e0:	f023 7240 	bic.w	r2, r3, #50331648	; 0x3000000
 80018e4:	687b      	ldr	r3, [r7, #4]
 80018e6:	6f5b      	ldr	r3, [r3, #116]	; 0x74
 80018e8:	4918      	ldr	r1, [pc, #96]	; (800194c <HAL_RCCEx_PeriphCLKConfig+0x4a0>)
 80018ea:	4313      	orrs	r3, r2
 80018ec:	f8c1 3090 	str.w	r3, [r1, #144]	; 0x90
   }

  /*------------------------------------- SDMMC1 Configuration ------------------------------------*/
  if(((PeriphClkInit->PeriphClockSelection) & RCC_PERIPHCLK_SDMMC1) == RCC_PERIPHCLK_SDMMC1)
 80018f0:	687b      	ldr	r3, [r7, #4]
 80018f2:	681b      	ldr	r3, [r3, #0]
 80018f4:	f403 0300 	and.w	r3, r3, #8388608	; 0x800000
 80018f8:	2b00      	cmp	r3, #0
 80018fa:	d00b      	beq.n	8001914 <HAL_RCCEx_PeriphCLKConfig+0x468>
  {
    /* Check the parameters */
    assert_param(IS_RCC_SDMMC1CLKSOURCE(PeriphClkInit->Sdmmc1ClockSelection));

    /* Configure the SDMMC1 clock source */
    __HAL_RCC_SDMMC1_CONFIG(PeriphClkInit->Sdmmc1ClockSelection);
 80018fc:	4b13      	ldr	r3, [pc, #76]	; (800194c <HAL_RCCEx_PeriphCLKConfig+0x4a0>)
 80018fe:	f8d3 3090 	ldr.w	r3, [r3, #144]	; 0x90
 8001902:	f023 5280 	bic.w	r2, r3, #268435456	; 0x10000000
 8001906:	687b      	ldr	r3, [r7, #4]
 8001908:	f8d3 3080 	ldr.w	r3, [r3, #128]	; 0x80
 800190c:	490f      	ldr	r1, [pc, #60]	; (800194c <HAL_RCCEx_PeriphCLKConfig+0x4a0>)
 800190e:	4313      	orrs	r3, r2
 8001910:	f8c1 3090 	str.w	r3, [r1, #144]	; 0x90
  }
#endif /* STM32F767xx || STM32F769xx || STM32F777xx || STM32F779xx */

  /*-------------------------------------- PLLI2S Configuration ---------------------------------*/
  /* PLLI2S is configured when a peripheral will use it as source clock : SAI1, SAI2, I2S or SPDIF-RX */
  if((plli2sused == 1) || (PeriphClkInit->PeriphClockSelection == RCC_PERIPHCLK_PLLI2S))
 8001914:	69fb      	ldr	r3, [r7, #28]
 8001916:	2b01      	cmp	r3, #1
 8001918:	d005      	beq.n	8001926 <HAL_RCCEx_PeriphCLKConfig+0x47a>
 800191a:	687b      	ldr	r3, [r7, #4]
 800191c:	681b      	ldr	r3, [r3, #0]
 800191e:	f1b3 7f00 	cmp.w	r3, #33554432	; 0x2000000
 8001922:	f040 80d8 	bne.w	8001ad6 <HAL_RCCEx_PeriphCLKConfig+0x62a>
  {
    /* Disable the PLLI2S */
    __HAL_RCC_PLLI2S_DISABLE();
 8001926:	4b09      	ldr	r3, [pc, #36]	; (800194c <HAL_RCCEx_PeriphCLKConfig+0x4a0>)
 8001928:	681b      	ldr	r3, [r3, #0]
 800192a:	4a08      	ldr	r2, [pc, #32]	; (800194c <HAL_RCCEx_PeriphCLKConfig+0x4a0>)
 800192c:	f023 6380 	bic.w	r3, r3, #67108864	; 0x4000000
 8001930:	6013      	str	r3, [r2, #0]

    /* Get Start Tick*/
    tickstart = HAL_GetTick();
 8001932:	f7fe fe3b 	bl	80005ac <HAL_GetTick>
 8001936:	6178      	str	r0, [r7, #20]

    /* Wait till PLLI2S is disabled */
    while(__HAL_RCC_GET_FLAG(RCC_FLAG_PLLI2SRDY)  != RESET)
 8001938:	e00a      	b.n	8001950 <HAL_RCCEx_PeriphCLKConfig+0x4a4>
    {
      if((HAL_GetTick() - tickstart) > PLLI2S_TIMEOUT_VALUE)
 800193a:	f7fe fe37 	bl	80005ac <HAL_GetTick>
 800193e:	4602      	mov	r2, r0
 8001940:	697b      	ldr	r3, [r7, #20]
 8001942:	1ad3      	subs	r3, r2, r3
 8001944:	2b64      	cmp	r3, #100	; 0x64
 8001946:	d903      	bls.n	8001950 <HAL_RCCEx_PeriphCLKConfig+0x4a4>
      {
        /* return in case of Timeout detected */
        return HAL_TIMEOUT;
 8001948:	2303      	movs	r3, #3
 800194a:	e196      	b.n	8001c7a <HAL_RCCEx_PeriphCLKConfig+0x7ce>
 800194c:	40023800 	.word	0x40023800
    while(__HAL_RCC_GET_FLAG(RCC_FLAG_PLLI2SRDY)  != RESET)
 8001950:	4b6c      	ldr	r3, [pc, #432]	; (8001b04 <HAL_RCCEx_PeriphCLKConfig+0x658>)
 8001952:	681b      	ldr	r3, [r3, #0]
 8001954:	f003 6300 	and.w	r3, r3, #134217728	; 0x8000000
 8001958:	2b00      	cmp	r3, #0
 800195a:	d1ee      	bne.n	800193a <HAL_RCCEx_PeriphCLKConfig+0x48e>

    /* check for common PLLI2S Parameters */
    assert_param(IS_RCC_PLLI2SN_VALUE(PeriphClkInit->PLLI2S.PLLI2SN));

    /*----------------- In Case of PLLI2S is selected as source clock for I2S -------------------*/
    if(((((PeriphClkInit->PeriphClockSelection) & RCC_PERIPHCLK_I2S) == RCC_PERIPHCLK_I2S) && (PeriphClkInit->I2sClockSelection == RCC_I2SCLKSOURCE_PLLI2S)))
 800195c:	687b      	ldr	r3, [r7, #4]
 800195e:	681b      	ldr	r3, [r3, #0]
 8001960:	f003 0301 	and.w	r3, r3, #1
 8001964:	2b00      	cmp	r3, #0
 8001966:	d021      	beq.n	80019ac <HAL_RCCEx_PeriphCLKConfig+0x500>
 8001968:	687b      	ldr	r3, [r7, #4]
 800196a:	6b5b      	ldr	r3, [r3, #52]	; 0x34
 800196c:	2b00      	cmp	r3, #0
 800196e:	d11d      	bne.n	80019ac <HAL_RCCEx_PeriphCLKConfig+0x500>
    {
      /* check for Parameters */
      assert_param(IS_RCC_PLLI2SR_VALUE(PeriphClkInit->PLLI2S.PLLI2SR));

      /* Read PLLI2SP and PLLI2SQ value from PLLI2SCFGR register (this value is not needed for I2S configuration) */
      tmpreg0 = ((RCC->PLLI2SCFGR & RCC_PLLI2SCFGR_PLLI2SP) >> RCC_PLLI2SCFGR_PLLI2SP_Pos);
 8001970:	4b64      	ldr	r3, [pc, #400]	; (8001b04 <HAL_RCCEx_PeriphCLKConfig+0x658>)
 8001972:	f8d3 3084 	ldr.w	r3, [r3, #132]	; 0x84
 8001976:	0c1b      	lsrs	r3, r3, #16
 8001978:	f003 0303 	and.w	r3, r3, #3
 800197c:	613b      	str	r3, [r7, #16]
      tmpreg1 = ((RCC->PLLI2SCFGR & RCC_PLLI2SCFGR_PLLI2SQ) >> RCC_PLLI2SCFGR_PLLI2SQ_Pos);
 800197e:	4b61      	ldr	r3, [pc, #388]	; (8001b04 <HAL_RCCEx_PeriphCLKConfig+0x658>)
 8001980:	f8d3 3084 	ldr.w	r3, [r3, #132]	; 0x84
 8001984:	0e1b      	lsrs	r3, r3, #24
 8001986:	f003 030f 	and.w	r3, r3, #15
 800198a:	60fb      	str	r3, [r7, #12]
      /* Configure the PLLI2S division factors */
      /* PLLI2S_VCO = f(VCO clock) = f(PLLI2S clock input) x (PLLI2SN/PLLM) */
      /* I2SCLK = f(PLLI2S clock output) = f(VCO clock) / PLLI2SR */
      __HAL_RCC_PLLI2S_CONFIG(PeriphClkInit->PLLI2S.PLLI2SN , tmpreg0, tmpreg1, PeriphClkInit->PLLI2S.PLLI2SR);
 800198c:	687b      	ldr	r3, [r7, #4]
 800198e:	685b      	ldr	r3, [r3, #4]
 8001990:	019a      	lsls	r2, r3, #6
 8001992:	693b      	ldr	r3, [r7, #16]
 8001994:	041b      	lsls	r3, r3, #16
 8001996:	431a      	orrs	r2, r3
 8001998:	68fb      	ldr	r3, [r7, #12]
 800199a:	061b      	lsls	r3, r3, #24
 800199c:	431a      	orrs	r2, r3
 800199e:	687b      	ldr	r3, [r7, #4]
 80019a0:	689b      	ldr	r3, [r3, #8]
 80019a2:	071b      	lsls	r3, r3, #28
 80019a4:	4957      	ldr	r1, [pc, #348]	; (8001b04 <HAL_RCCEx_PeriphCLKConfig+0x658>)
 80019a6:	4313      	orrs	r3, r2
 80019a8:	f8c1 3084 	str.w	r3, [r1, #132]	; 0x84
    }

    /*----------------- In Case of PLLI2S is selected as source clock for SAI -------------------*/
    if(((((PeriphClkInit->PeriphClockSelection) & RCC_PERIPHCLK_SAI1) == RCC_PERIPHCLK_SAI1) && (PeriphClkInit->Sai1ClockSelection == RCC_SAI1CLKSOURCE_PLLI2S)) ||
 80019ac:	687b      	ldr	r3, [r7, #4]
 80019ae:	681b      	ldr	r3, [r3, #0]
 80019b0:	f403 2300 	and.w	r3, r3, #524288	; 0x80000
 80019b4:	2b00      	cmp	r3, #0
 80019b6:	d004      	beq.n	80019c2 <HAL_RCCEx_PeriphCLKConfig+0x516>
 80019b8:	687b      	ldr	r3, [r7, #4]
 80019ba:	6bdb      	ldr	r3, [r3, #60]	; 0x3c
 80019bc:	f5b3 1f80 	cmp.w	r3, #1048576	; 0x100000
 80019c0:	d00a      	beq.n	80019d8 <HAL_RCCEx_PeriphCLKConfig+0x52c>
       ((((PeriphClkInit->PeriphClockSelection) & RCC_PERIPHCLK_SAI2) == RCC_PERIPHCLK_SAI2) && (PeriphClkInit->Sai2ClockSelection == RCC_SAI2CLKSOURCE_PLLI2S)))
 80019c2:	687b      	ldr	r3, [r7, #4]
 80019c4:	681b      	ldr	r3, [r3, #0]
 80019c6:	f403 1380 	and.w	r3, r3, #1048576	; 0x100000
    if(((((PeriphClkInit->PeriphClockSelection) & RCC_PERIPHCLK_SAI1) == RCC_PERIPHCLK_SAI1) && (PeriphClkInit->Sai1ClockSelection == RCC_SAI1CLKSOURCE_PLLI2S)) ||
 80019ca:	2b00      	cmp	r3, #0
 80019cc:	d02e      	beq.n	8001a2c <HAL_RCCEx_PeriphCLKConfig+0x580>
       ((((PeriphClkInit->PeriphClockSelection) & RCC_PERIPHCLK_SAI2) == RCC_PERIPHCLK_SAI2) && (PeriphClkInit->Sai2ClockSelection == RCC_SAI2CLKSOURCE_PLLI2S)))
 80019ce:	687b      	ldr	r3, [r7, #4]
 80019d0:	6c1b      	ldr	r3, [r3, #64]	; 0x40
 80019d2:	f5b3 0f80 	cmp.w	r3, #4194304	; 0x400000
 80019d6:	d129      	bne.n	8001a2c <HAL_RCCEx_PeriphCLKConfig+0x580>
      assert_param(IS_RCC_PLLI2SQ_VALUE(PeriphClkInit->PLLI2S.PLLI2SQ));
      /* Check for PLLI2S/DIVQ parameters */
      assert_param(IS_RCC_PLLI2S_DIVQ_VALUE(PeriphClkInit->PLLI2SDivQ));

      /* Read PLLI2SP and PLLI2SR values from PLLI2SCFGR register (this value is not needed for SAI configuration) */
      tmpreg0 = ((RCC->PLLI2SCFGR & RCC_PLLI2SCFGR_PLLI2SP) >> RCC_PLLI2SCFGR_PLLI2SP_Pos);
 80019d8:	4b4a      	ldr	r3, [pc, #296]	; (8001b04 <HAL_RCCEx_PeriphCLKConfig+0x658>)
 80019da:	f8d3 3084 	ldr.w	r3, [r3, #132]	; 0x84
 80019de:	0c1b      	lsrs	r3, r3, #16
 80019e0:	f003 0303 	and.w	r3, r3, #3
 80019e4:	613b      	str	r3, [r7, #16]
      tmpreg1 = ((RCC->PLLI2SCFGR & RCC_PLLI2SCFGR_PLLI2SR) >> RCC_PLLI2SCFGR_PLLI2SR_Pos);
 80019e6:	4b47      	ldr	r3, [pc, #284]	; (8001b04 <HAL_RCCEx_PeriphCLKConfig+0x658>)
 80019e8:	f8d3 3084 	ldr.w	r3, [r3, #132]	; 0x84
 80019ec:	0f1b      	lsrs	r3, r3, #28
 80019ee:	f003 0307 	and.w	r3, r3, #7
 80019f2:	60fb      	str	r3, [r7, #12]
      /* Configure the PLLI2S division factors */
      /* PLLI2S_VCO Input  = PLL_SOURCE/PLLM */
      /* PLLI2S_VCO Output = PLLI2S_VCO Input * PLLI2SN */
      /* SAI_CLK(first level) = PLLI2S_VCO Output/PLLI2SQ */
      __HAL_RCC_PLLI2S_CONFIG(PeriphClkInit->PLLI2S.PLLI2SN, tmpreg0, PeriphClkInit->PLLI2S.PLLI2SQ, tmpreg1);
 80019f4:	687b      	ldr	r3, [r7, #4]
 80019f6:	685b      	ldr	r3, [r3, #4]
 80019f8:	019a      	lsls	r2, r3, #6
 80019fa:	693b      	ldr	r3, [r7, #16]
 80019fc:	041b      	lsls	r3, r3, #16
 80019fe:	431a      	orrs	r2, r3
 8001a00:	687b      	ldr	r3, [r7, #4]
 8001a02:	68db      	ldr	r3, [r3, #12]
 8001a04:	061b      	lsls	r3, r3, #24
 8001a06:	431a      	orrs	r2, r3
 8001a08:	68fb      	ldr	r3, [r7, #12]
 8001a0a:	071b      	lsls	r3, r3, #28
 8001a0c:	493d      	ldr	r1, [pc, #244]	; (8001b04 <HAL_RCCEx_PeriphCLKConfig+0x658>)
 8001a0e:	4313      	orrs	r3, r2
 8001a10:	f8c1 3084 	str.w	r3, [r1, #132]	; 0x84

      /* SAI_CLK_x = SAI_CLK(first level)/PLLI2SDIVQ */
      __HAL_RCC_PLLI2S_PLLSAICLKDIVQ_CONFIG(PeriphClkInit->PLLI2SDivQ);
 8001a14:	4b3b      	ldr	r3, [pc, #236]	; (8001b04 <HAL_RCCEx_PeriphCLKConfig+0x658>)
 8001a16:	f8d3 308c 	ldr.w	r3, [r3, #140]	; 0x8c
 8001a1a:	f023 021f 	bic.w	r2, r3, #31
 8001a1e:	687b      	ldr	r3, [r7, #4]
 8001a20:	6a5b      	ldr	r3, [r3, #36]	; 0x24
 8001a22:	3b01      	subs	r3, #1
 8001a24:	4937      	ldr	r1, [pc, #220]	; (8001b04 <HAL_RCCEx_PeriphCLKConfig+0x658>)
 8001a26:	4313      	orrs	r3, r2
 8001a28:	f8c1 308c 	str.w	r3, [r1, #140]	; 0x8c
    }

    /*----------------- In Case of PLLI2S is selected as source clock for SPDIF-RX -------------------*/
    if(((PeriphClkInit->PeriphClockSelection) & RCC_PERIPHCLK_SPDIFRX) == RCC_PERIPHCLK_SPDIFRX)
 8001a2c:	687b      	ldr	r3, [r7, #4]
 8001a2e:	681b      	ldr	r3, [r3, #0]
 8001a30:	f003 7380 	and.w	r3, r3, #16777216	; 0x1000000
 8001a34:	2b00      	cmp	r3, #0
 8001a36:	d01d      	beq.n	8001a74 <HAL_RCCEx_PeriphCLKConfig+0x5c8>
    {
      /* check for Parameters */
      assert_param(IS_RCC_PLLI2SP_VALUE(PeriphClkInit->PLLI2S.PLLI2SP));

     /* Read PLLI2SR value from PLLI2SCFGR register (this value is not needed for SPDIF-RX configuration) */
      tmpreg0 = ((RCC->PLLI2SCFGR & RCC_PLLI2SCFGR_PLLI2SQ) >> RCC_PLLI2SCFGR_PLLI2SQ_Pos);
 8001a38:	4b32      	ldr	r3, [pc, #200]	; (8001b04 <HAL_RCCEx_PeriphCLKConfig+0x658>)
 8001a3a:	f8d3 3084 	ldr.w	r3, [r3, #132]	; 0x84
 8001a3e:	0e1b      	lsrs	r3, r3, #24
 8001a40:	f003 030f 	and.w	r3, r3, #15
 8001a44:	613b      	str	r3, [r7, #16]
      tmpreg1 = ((RCC->PLLI2SCFGR & RCC_PLLI2SCFGR_PLLI2SR) >> RCC_PLLI2SCFGR_PLLI2SR_Pos);
 8001a46:	4b2f      	ldr	r3, [pc, #188]	; (8001b04 <HAL_RCCEx_PeriphCLKConfig+0x658>)
 8001a48:	f8d3 3084 	ldr.w	r3, [r3, #132]	; 0x84
 8001a4c:	0f1b      	lsrs	r3, r3, #28
 8001a4e:	f003 0307 	and.w	r3, r3, #7
 8001a52:	60fb      	str	r3, [r7, #12]
      /* Configure the PLLI2S division factors */
      /* PLLI2S_VCO = f(VCO clock) = f(PLLI2S clock input) x (PLLI2SN/PLLM) */
      /* SPDIFCLK = f(PLLI2S clock output) = f(VCO clock) / PLLI2SP */
      __HAL_RCC_PLLI2S_CONFIG(PeriphClkInit->PLLI2S.PLLI2SN , PeriphClkInit->PLLI2S.PLLI2SP, tmpreg0, tmpreg1);
 8001a54:	687b      	ldr	r3, [r7, #4]
 8001a56:	685b      	ldr	r3, [r3, #4]
 8001a58:	019a      	lsls	r2, r3, #6
 8001a5a:	687b      	ldr	r3, [r7, #4]
 8001a5c:	691b      	ldr	r3, [r3, #16]
 8001a5e:	041b      	lsls	r3, r3, #16
 8001a60:	431a      	orrs	r2, r3
 8001a62:	693b      	ldr	r3, [r7, #16]
 8001a64:	061b      	lsls	r3, r3, #24
 8001a66:	431a      	orrs	r2, r3
 8001a68:	68fb      	ldr	r3, [r7, #12]
 8001a6a:	071b      	lsls	r3, r3, #28
 8001a6c:	4925      	ldr	r1, [pc, #148]	; (8001b04 <HAL_RCCEx_PeriphCLKConfig+0x658>)
 8001a6e:	4313      	orrs	r3, r2
 8001a70:	f8c1 3084 	str.w	r3, [r1, #132]	; 0x84
    }

    /*----------------- In Case of PLLI2S is just selected  -----------------*/
    if((PeriphClkInit->PeriphClockSelection & RCC_PERIPHCLK_PLLI2S) == RCC_PERIPHCLK_PLLI2S)
 8001a74:	687b      	ldr	r3, [r7, #4]
 8001a76:	681b      	ldr	r3, [r3, #0]
 8001a78:	f003 7300 	and.w	r3, r3, #33554432	; 0x2000000
 8001a7c:	2b00      	cmp	r3, #0
 8001a7e:	d011      	beq.n	8001aa4 <HAL_RCCEx_PeriphCLKConfig+0x5f8>
      assert_param(IS_RCC_PLLI2SQ_VALUE(PeriphClkInit->PLLI2S.PLLI2SQ));

      /* Configure the PLLI2S division factors */
      /* PLLI2S_VCO = f(VCO clock) = f(PLLI2S clock input) x (PLLI2SN/PLLI2SM) */
      /* SPDIFRXCLK = f(PLLI2S clock output) = f(VCO clock) / PLLI2SP */
      __HAL_RCC_PLLI2S_CONFIG(PeriphClkInit->PLLI2S.PLLI2SN , PeriphClkInit->PLLI2S.PLLI2SP, PeriphClkInit->PLLI2S.PLLI2SQ, PeriphClkInit->PLLI2S.PLLI2SR);
 8001a80:	687b      	ldr	r3, [r7, #4]
 8001a82:	685b      	ldr	r3, [r3, #4]
 8001a84:	019a      	lsls	r2, r3, #6
 8001a86:	687b      	ldr	r3, [r7, #4]
 8001a88:	691b      	ldr	r3, [r3, #16]
 8001a8a:	041b      	lsls	r3, r3, #16
 8001a8c:	431a      	orrs	r2, r3
 8001a8e:	687b      	ldr	r3, [r7, #4]
 8001a90:	68db      	ldr	r3, [r3, #12]
 8001a92:	061b      	lsls	r3, r3, #24
 8001a94:	431a      	orrs	r2, r3
 8001a96:	687b      	ldr	r3, [r7, #4]
 8001a98:	689b      	ldr	r3, [r3, #8]
 8001a9a:	071b      	lsls	r3, r3, #28
 8001a9c:	4919      	ldr	r1, [pc, #100]	; (8001b04 <HAL_RCCEx_PeriphCLKConfig+0x658>)
 8001a9e:	4313      	orrs	r3, r2
 8001aa0:	f8c1 3084 	str.w	r3, [r1, #132]	; 0x84
    }

    /* Enable the PLLI2S */
    __HAL_RCC_PLLI2S_ENABLE();
 8001aa4:	4b17      	ldr	r3, [pc, #92]	; (8001b04 <HAL_RCCEx_PeriphCLKConfig+0x658>)
 8001aa6:	681b      	ldr	r3, [r3, #0]
 8001aa8:	4a16      	ldr	r2, [pc, #88]	; (8001b04 <HAL_RCCEx_PeriphCLKConfig+0x658>)
 8001aaa:	f043 6380 	orr.w	r3, r3, #67108864	; 0x4000000
 8001aae:	6013      	str	r3, [r2, #0]

    /* Get Start Tick*/
    tickstart = HAL_GetTick();
 8001ab0:	f7fe fd7c 	bl	80005ac <HAL_GetTick>
 8001ab4:	6178      	str	r0, [r7, #20]

    /* Wait till PLLI2S is ready */
    while(__HAL_RCC_GET_FLAG(RCC_FLAG_PLLI2SRDY)  == RESET)
 8001ab6:	e008      	b.n	8001aca <HAL_RCCEx_PeriphCLKConfig+0x61e>
    {
      if((HAL_GetTick() - tickstart) > PLLI2S_TIMEOUT_VALUE)
 8001ab8:	f7fe fd78 	bl	80005ac <HAL_GetTick>
 8001abc:	4602      	mov	r2, r0
 8001abe:	697b      	ldr	r3, [r7, #20]
 8001ac0:	1ad3      	subs	r3, r2, r3
 8001ac2:	2b64      	cmp	r3, #100	; 0x64
 8001ac4:	d901      	bls.n	8001aca <HAL_RCCEx_PeriphCLKConfig+0x61e>
      {
        /* return in case of Timeout detected */
        return HAL_TIMEOUT;
 8001ac6:	2303      	movs	r3, #3
 8001ac8:	e0d7      	b.n	8001c7a <HAL_RCCEx_PeriphCLKConfig+0x7ce>
    while(__HAL_RCC_GET_FLAG(RCC_FLAG_PLLI2SRDY)  == RESET)
 8001aca:	4b0e      	ldr	r3, [pc, #56]	; (8001b04 <HAL_RCCEx_PeriphCLKConfig+0x658>)
 8001acc:	681b      	ldr	r3, [r3, #0]
 8001ace:	f003 6300 	and.w	r3, r3, #134217728	; 0x8000000
 8001ad2:	2b00      	cmp	r3, #0
 8001ad4:	d0f0      	beq.n	8001ab8 <HAL_RCCEx_PeriphCLKConfig+0x60c>
    }
  }

  /*-------------------------------------- PLLSAI Configuration ---------------------------------*/
  /* PLLSAI is configured when a peripheral will use it as source clock : SAI1, SAI2, LTDC or CK48 */
  if(pllsaiused == 1)
 8001ad6:	69bb      	ldr	r3, [r7, #24]
 8001ad8:	2b01      	cmp	r3, #1
 8001ada:	f040 80cd 	bne.w	8001c78 <HAL_RCCEx_PeriphCLKConfig+0x7cc>
  {
    /* Disable PLLSAI Clock */
    __HAL_RCC_PLLSAI_DISABLE();
 8001ade:	4b09      	ldr	r3, [pc, #36]	; (8001b04 <HAL_RCCEx_PeriphCLKConfig+0x658>)
 8001ae0:	681b      	ldr	r3, [r3, #0]
 8001ae2:	4a08      	ldr	r2, [pc, #32]	; (8001b04 <HAL_RCCEx_PeriphCLKConfig+0x658>)
 8001ae4:	f023 5380 	bic.w	r3, r3, #268435456	; 0x10000000
 8001ae8:	6013      	str	r3, [r2, #0]

    /* Get Start Tick*/
    tickstart = HAL_GetTick();
 8001aea:	f7fe fd5f 	bl	80005ac <HAL_GetTick>
 8001aee:	6178      	str	r0, [r7, #20]

    /* Wait till PLLSAI is disabled */
    while(__HAL_RCC_PLLSAI_GET_FLAG() != RESET)
 8001af0:	e00a      	b.n	8001b08 <HAL_RCCEx_PeriphCLKConfig+0x65c>
    {
      if((HAL_GetTick() - tickstart) > PLLSAI_TIMEOUT_VALUE)
 8001af2:	f7fe fd5b 	bl	80005ac <HAL_GetTick>
 8001af6:	4602      	mov	r2, r0
 8001af8:	697b      	ldr	r3, [r7, #20]
 8001afa:	1ad3      	subs	r3, r2, r3
 8001afc:	2b64      	cmp	r3, #100	; 0x64
 8001afe:	d903      	bls.n	8001b08 <HAL_RCCEx_PeriphCLKConfig+0x65c>
      {
        /* return in case of Timeout detected */
        return HAL_TIMEOUT;
 8001b00:	2303      	movs	r3, #3
 8001b02:	e0ba      	b.n	8001c7a <HAL_RCCEx_PeriphCLKConfig+0x7ce>
 8001b04:	40023800 	.word	0x40023800
    while(__HAL_RCC_PLLSAI_GET_FLAG() != RESET)
 8001b08:	4b5e      	ldr	r3, [pc, #376]	; (8001c84 <HAL_RCCEx_PeriphCLKConfig+0x7d8>)
 8001b0a:	681b      	ldr	r3, [r3, #0]
 8001b0c:	f003 5300 	and.w	r3, r3, #536870912	; 0x20000000
 8001b10:	f1b3 5f00 	cmp.w	r3, #536870912	; 0x20000000
 8001b14:	d0ed      	beq.n	8001af2 <HAL_RCCEx_PeriphCLKConfig+0x646>

    /* Check the PLLSAI division factors */
    assert_param(IS_RCC_PLLSAIN_VALUE(PeriphClkInit->PLLSAI.PLLSAIN));

    /*----------------- In Case of PLLSAI is selected as source clock for SAI -------------------*/
    if(((((PeriphClkInit->PeriphClockSelection) & RCC_PERIPHCLK_SAI1) == RCC_PERIPHCLK_SAI1) && (PeriphClkInit->Sai1ClockSelection == RCC_SAI1CLKSOURCE_PLLSAI)) ||\
 8001b16:	687b      	ldr	r3, [r7, #4]
 8001b18:	681b      	ldr	r3, [r3, #0]
 8001b1a:	f403 2300 	and.w	r3, r3, #524288	; 0x80000
 8001b1e:	2b00      	cmp	r3, #0
 8001b20:	d003      	beq.n	8001b2a <HAL_RCCEx_PeriphCLKConfig+0x67e>
 8001b22:	687b      	ldr	r3, [r7, #4]
 8001b24:	6bdb      	ldr	r3, [r3, #60]	; 0x3c
 8001b26:	2b00      	cmp	r3, #0
 8001b28:	d009      	beq.n	8001b3e <HAL_RCCEx_PeriphCLKConfig+0x692>
       ((((PeriphClkInit->PeriphClockSelection) & RCC_PERIPHCLK_SAI2) == RCC_PERIPHCLK_SAI2) && (PeriphClkInit->Sai2ClockSelection == RCC_SAI2CLKSOURCE_PLLSAI)))
 8001b2a:	687b      	ldr	r3, [r7, #4]
 8001b2c:	681b      	ldr	r3, [r3, #0]
 8001b2e:	f403 1380 	and.w	r3, r3, #1048576	; 0x100000
    if(((((PeriphClkInit->PeriphClockSelection) & RCC_PERIPHCLK_SAI1) == RCC_PERIPHCLK_SAI1) && (PeriphClkInit->Sai1ClockSelection == RCC_SAI1CLKSOURCE_PLLSAI)) ||\
 8001b32:	2b00      	cmp	r3, #0
 8001b34:	d02e      	beq.n	8001b94 <HAL_RCCEx_PeriphCLKConfig+0x6e8>
       ((((PeriphClkInit->PeriphClockSelection) & RCC_PERIPHCLK_SAI2) == RCC_PERIPHCLK_SAI2) && (PeriphClkInit->Sai2ClockSelection == RCC_SAI2CLKSOURCE_PLLSAI)))
 8001b36:	687b      	ldr	r3, [r7, #4]
 8001b38:	6c1b      	ldr	r3, [r3, #64]	; 0x40
 8001b3a:	2b00      	cmp	r3, #0
 8001b3c:	d12a      	bne.n	8001b94 <HAL_RCCEx_PeriphCLKConfig+0x6e8>
      assert_param(IS_RCC_PLLSAIQ_VALUE(PeriphClkInit->PLLSAI.PLLSAIQ));
      /* check for PLLSAI/DIVQ Parameter */
      assert_param(IS_RCC_PLLSAI_DIVQ_VALUE(PeriphClkInit->PLLSAIDivQ));

      /* Read PLLSAIP value from PLLSAICFGR register (this value is not needed for SAI configuration) */
      tmpreg0 = ((RCC->PLLSAICFGR & RCC_PLLSAICFGR_PLLSAIP) >> RCC_PLLSAICFGR_PLLSAIP_Pos);
 8001b3e:	4b51      	ldr	r3, [pc, #324]	; (8001c84 <HAL_RCCEx_PeriphCLKConfig+0x7d8>)
 8001b40:	f8d3 3088 	ldr.w	r3, [r3, #136]	; 0x88
 8001b44:	0c1b      	lsrs	r3, r3, #16
 8001b46:	f003 0303 	and.w	r3, r3, #3
 8001b4a:	613b      	str	r3, [r7, #16]
      tmpreg1 = ((RCC->PLLSAICFGR & RCC_PLLI2SCFGR_PLLI2SR) >> RCC_PLLSAICFGR_PLLSAIR_Pos);
 8001b4c:	4b4d      	ldr	r3, [pc, #308]	; (8001c84 <HAL_RCCEx_PeriphCLKConfig+0x7d8>)
 8001b4e:	f8d3 3088 	ldr.w	r3, [r3, #136]	; 0x88
 8001b52:	0f1b      	lsrs	r3, r3, #28
 8001b54:	f003 0307 	and.w	r3, r3, #7
 8001b58:	60fb      	str	r3, [r7, #12]
      /* PLLSAI_VCO Input  = PLL_SOURCE/PLLM */
      /* PLLSAI_VCO Output = PLLSAI_VCO Input * PLLSAIN */
      /* SAI_CLK(first level) = PLLSAI_VCO Output/PLLSAIQ */
      __HAL_RCC_PLLSAI_CONFIG(PeriphClkInit->PLLSAI.PLLSAIN , tmpreg0, PeriphClkInit->PLLSAI.PLLSAIQ, tmpreg1);
 8001b5a:	687b      	ldr	r3, [r7, #4]
 8001b5c:	695b      	ldr	r3, [r3, #20]
 8001b5e:	019a      	lsls	r2, r3, #6
 8001b60:	693b      	ldr	r3, [r7, #16]
 8001b62:	041b      	lsls	r3, r3, #16
 8001b64:	431a      	orrs	r2, r3
 8001b66:	687b      	ldr	r3, [r7, #4]
 8001b68:	699b      	ldr	r3, [r3, #24]
 8001b6a:	061b      	lsls	r3, r3, #24
 8001b6c:	431a      	orrs	r2, r3
 8001b6e:	68fb      	ldr	r3, [r7, #12]
 8001b70:	071b      	lsls	r3, r3, #28
 8001b72:	4944      	ldr	r1, [pc, #272]	; (8001c84 <HAL_RCCEx_PeriphCLKConfig+0x7d8>)
 8001b74:	4313      	orrs	r3, r2
 8001b76:	f8c1 3088 	str.w	r3, [r1, #136]	; 0x88

      /* SAI_CLK_x = SAI_CLK(first level)/PLLSAIDIVQ */
      __HAL_RCC_PLLSAI_PLLSAICLKDIVQ_CONFIG(PeriphClkInit->PLLSAIDivQ);
 8001b7a:	4b42      	ldr	r3, [pc, #264]	; (8001c84 <HAL_RCCEx_PeriphCLKConfig+0x7d8>)
 8001b7c:	f8d3 308c 	ldr.w	r3, [r3, #140]	; 0x8c
 8001b80:	f423 52f8 	bic.w	r2, r3, #7936	; 0x1f00
 8001b84:	687b      	ldr	r3, [r7, #4]
 8001b86:	6a9b      	ldr	r3, [r3, #40]	; 0x28
 8001b88:	3b01      	subs	r3, #1
 8001b8a:	021b      	lsls	r3, r3, #8
 8001b8c:	493d      	ldr	r1, [pc, #244]	; (8001c84 <HAL_RCCEx_PeriphCLKConfig+0x7d8>)
 8001b8e:	4313      	orrs	r3, r2
 8001b90:	f8c1 308c 	str.w	r3, [r1, #140]	; 0x8c
    }

    /*----------------- In Case of PLLSAI is selected as source clock for CLK48 -------------------*/
    /* In Case of PLLI2S is selected as source clock for CK48 */
    if((((PeriphClkInit->PeriphClockSelection) & RCC_PERIPHCLK_CLK48) == RCC_PERIPHCLK_CLK48) && (PeriphClkInit->Clk48ClockSelection == RCC_CLK48SOURCE_PLLSAIP))
 8001b94:	687b      	ldr	r3, [r7, #4]
 8001b96:	681b      	ldr	r3, [r3, #0]
 8001b98:	f403 1300 	and.w	r3, r3, #2097152	; 0x200000
 8001b9c:	2b00      	cmp	r3, #0
 8001b9e:	d022      	beq.n	8001be6 <HAL_RCCEx_PeriphCLKConfig+0x73a>
 8001ba0:	687b      	ldr	r3, [r7, #4]
 8001ba2:	6fdb      	ldr	r3, [r3, #124]	; 0x7c
 8001ba4:	f1b3 6f00 	cmp.w	r3, #134217728	; 0x8000000
 8001ba8:	d11d      	bne.n	8001be6 <HAL_RCCEx_PeriphCLKConfig+0x73a>
    {
      /* check for Parameters */
      assert_param(IS_RCC_PLLSAIP_VALUE(PeriphClkInit->PLLSAI.PLLSAIP));
      /* Read PLLSAIQ and PLLSAIR value from PLLSAICFGR register (this value is not needed for CK48 configuration) */
      tmpreg0 = ((RCC->PLLSAICFGR & RCC_PLLSAICFGR_PLLSAIQ) >> RCC_PLLSAICFGR_PLLSAIQ_Pos);
 8001baa:	4b36      	ldr	r3, [pc, #216]	; (8001c84 <HAL_RCCEx_PeriphCLKConfig+0x7d8>)
 8001bac:	f8d3 3088 	ldr.w	r3, [r3, #136]	; 0x88
 8001bb0:	0e1b      	lsrs	r3, r3, #24
 8001bb2:	f003 030f 	and.w	r3, r3, #15
 8001bb6:	613b      	str	r3, [r7, #16]
      tmpreg1 = ((RCC->PLLSAICFGR & RCC_PLLSAICFGR_PLLSAIR) >> RCC_PLLSAICFGR_PLLSAIR_Pos);
 8001bb8:	4b32      	ldr	r3, [pc, #200]	; (8001c84 <HAL_RCCEx_PeriphCLKConfig+0x7d8>)
 8001bba:	f8d3 3088 	ldr.w	r3, [r3, #136]	; 0x88
 8001bbe:	0f1b      	lsrs	r3, r3, #28
 8001bc0:	f003 0307 	and.w	r3, r3, #7
 8001bc4:	60fb      	str	r3, [r7, #12]

      /* Configure the PLLSAI division factors */
      /* PLLSAI_VCO = f(VCO clock) = f(PLLSAI clock input) x (PLLI2SN/PLLM) */
      /* 48CLK = f(PLLSAI clock output) = f(VCO clock) / PLLSAIP */
      __HAL_RCC_PLLSAI_CONFIG(PeriphClkInit->PLLSAI.PLLSAIN , PeriphClkInit->PLLSAI.PLLSAIP, tmpreg0, tmpreg1);
 8001bc6:	687b      	ldr	r3, [r7, #4]
 8001bc8:	695b      	ldr	r3, [r3, #20]
 8001bca:	019a      	lsls	r2, r3, #6
 8001bcc:	687b      	ldr	r3, [r7, #4]
 8001bce:	6a1b      	ldr	r3, [r3, #32]
 8001bd0:	041b      	lsls	r3, r3, #16
 8001bd2:	431a      	orrs	r2, r3
 8001bd4:	693b      	ldr	r3, [r7, #16]
 8001bd6:	061b      	lsls	r3, r3, #24
 8001bd8:	431a      	orrs	r2, r3
 8001bda:	68fb      	ldr	r3, [r7, #12]
 8001bdc:	071b      	lsls	r3, r3, #28
 8001bde:	4929      	ldr	r1, [pc, #164]	; (8001c84 <HAL_RCCEx_PeriphCLKConfig+0x7d8>)
 8001be0:	4313      	orrs	r3, r2
 8001be2:	f8c1 3088 	str.w	r3, [r1, #136]	; 0x88
    }

#if defined(STM32F746xx) || defined(STM32F756xx) || defined (STM32F767xx) || defined (STM32F769xx) || defined (STM32F777xx) || defined (STM32F779xx) || defined (STM32F750xx)
    /*---------------------------- LTDC configuration -------------------------------*/
    if(((PeriphClkInit->PeriphClockSelection) & RCC_PERIPHCLK_LTDC) == (RCC_PERIPHCLK_LTDC))
 8001be6:	687b      	ldr	r3, [r7, #4]
 8001be8:	681b      	ldr	r3, [r3, #0]
 8001bea:	f003 0308 	and.w	r3, r3, #8
 8001bee:	2b00      	cmp	r3, #0
 8001bf0:	d028      	beq.n	8001c44 <HAL_RCCEx_PeriphCLKConfig+0x798>
    {
      assert_param(IS_RCC_PLLSAIR_VALUE(PeriphClkInit->PLLSAI.PLLSAIR));
      assert_param(IS_RCC_PLLSAI_DIVR_VALUE(PeriphClkInit->PLLSAIDivR));

      /* Read PLLSAIP and PLLSAIQ value from PLLSAICFGR register (these value are not needed for LTDC configuration) */
      tmpreg0 = ((RCC->PLLSAICFGR & RCC_PLLSAICFGR_PLLSAIQ) >> RCC_PLLSAICFGR_PLLSAIQ_Pos);
 8001bf2:	4b24      	ldr	r3, [pc, #144]	; (8001c84 <HAL_RCCEx_PeriphCLKConfig+0x7d8>)
 8001bf4:	f8d3 3088 	ldr.w	r3, [r3, #136]	; 0x88
 8001bf8:	0e1b      	lsrs	r3, r3, #24
 8001bfa:	f003 030f 	and.w	r3, r3, #15
 8001bfe:	613b      	str	r3, [r7, #16]
      tmpreg1 = ((RCC->PLLSAICFGR & RCC_PLLSAICFGR_PLLSAIP) >> RCC_PLLSAICFGR_PLLSAIP_Pos);
 8001c00:	4b20      	ldr	r3, [pc, #128]	; (8001c84 <HAL_RCCEx_PeriphCLKConfig+0x7d8>)
 8001c02:	f8d3 3088 	ldr.w	r3, [r3, #136]	; 0x88
 8001c06:	0c1b      	lsrs	r3, r3, #16
 8001c08:	f003 0303 	and.w	r3, r3, #3
 8001c0c:	60fb      	str	r3, [r7, #12]

      /* PLLSAI_VCO Input  = PLL_SOURCE/PLLM */
      /* PLLSAI_VCO Output = PLLSAI_VCO Input * PLLSAIN */
      /* LTDC_CLK(first level) = PLLSAI_VCO Output/PLLSAIR */
      __HAL_RCC_PLLSAI_CONFIG(PeriphClkInit->PLLSAI.PLLSAIN , tmpreg1, tmpreg0, PeriphClkInit->PLLSAI.PLLSAIR);
 8001c0e:	687b      	ldr	r3, [r7, #4]
 8001c10:	695b      	ldr	r3, [r3, #20]
 8001c12:	019a      	lsls	r2, r3, #6
 8001c14:	68fb      	ldr	r3, [r7, #12]
 8001c16:	041b      	lsls	r3, r3, #16
 8001c18:	431a      	orrs	r2, r3
 8001c1a:	693b      	ldr	r3, [r7, #16]
 8001c1c:	061b      	lsls	r3, r3, #24
 8001c1e:	431a      	orrs	r2, r3
 8001c20:	687b      	ldr	r3, [r7, #4]
 8001c22:	69db      	ldr	r3, [r3, #28]
 8001c24:	071b      	lsls	r3, r3, #28
 8001c26:	4917      	ldr	r1, [pc, #92]	; (8001c84 <HAL_RCCEx_PeriphCLKConfig+0x7d8>)
 8001c28:	4313      	orrs	r3, r2
 8001c2a:	f8c1 3088 	str.w	r3, [r1, #136]	; 0x88

      /* LTDC_CLK = LTDC_CLK(first level)/PLLSAIDIVR */
      __HAL_RCC_PLLSAI_PLLSAICLKDIVR_CONFIG(PeriphClkInit->PLLSAIDivR);
 8001c2e:	4b15      	ldr	r3, [pc, #84]	; (8001c84 <HAL_RCCEx_PeriphCLKConfig+0x7d8>)
 8001c30:	f8d3 308c 	ldr.w	r3, [r3, #140]	; 0x8c
 8001c34:	f423 3240 	bic.w	r2, r3, #196608	; 0x30000
 8001c38:	687b      	ldr	r3, [r7, #4]
 8001c3a:	6adb      	ldr	r3, [r3, #44]	; 0x2c
 8001c3c:	4911      	ldr	r1, [pc, #68]	; (8001c84 <HAL_RCCEx_PeriphCLKConfig+0x7d8>)
 8001c3e:	4313      	orrs	r3, r2
 8001c40:	f8c1 308c 	str.w	r3, [r1, #140]	; 0x8c
    }
#endif /* STM32F746xx || STM32F756xx || STM32F767xx || STM32F769xx || STM32F777xx || STM32F779xx || STM32F750xx  */

    /* Enable PLLSAI Clock */
    __HAL_RCC_PLLSAI_ENABLE();
 8001c44:	4b0f      	ldr	r3, [pc, #60]	; (8001c84 <HAL_RCCEx_PeriphCLKConfig+0x7d8>)
 8001c46:	681b      	ldr	r3, [r3, #0]
 8001c48:	4a0e      	ldr	r2, [pc, #56]	; (8001c84 <HAL_RCCEx_PeriphCLKConfig+0x7d8>)
 8001c4a:	f043 5380 	orr.w	r3, r3, #268435456	; 0x10000000
 8001c4e:	6013      	str	r3, [r2, #0]

    /* Get Start Tick*/
    tickstart = HAL_GetTick();
 8001c50:	f7fe fcac 	bl	80005ac <HAL_GetTick>
 8001c54:	6178      	str	r0, [r7, #20]

    /* Wait till PLLSAI is ready */
    while(__HAL_RCC_PLLSAI_GET_FLAG() == RESET)
 8001c56:	e008      	b.n	8001c6a <HAL_RCCEx_PeriphCLKConfig+0x7be>
    {
      if((HAL_GetTick() - tickstart) > PLLSAI_TIMEOUT_VALUE)
 8001c58:	f7fe fca8 	bl	80005ac <HAL_GetTick>
 8001c5c:	4602      	mov	r2, r0
 8001c5e:	697b      	ldr	r3, [r7, #20]
 8001c60:	1ad3      	subs	r3, r2, r3
 8001c62:	2b64      	cmp	r3, #100	; 0x64
 8001c64:	d901      	bls.n	8001c6a <HAL_RCCEx_PeriphCLKConfig+0x7be>
      {
        /* return in case of Timeout detected */
        return HAL_TIMEOUT;
 8001c66:	2303      	movs	r3, #3
 8001c68:	e007      	b.n	8001c7a <HAL_RCCEx_PeriphCLKConfig+0x7ce>
    while(__HAL_RCC_PLLSAI_GET_FLAG() == RESET)
 8001c6a:	4b06      	ldr	r3, [pc, #24]	; (8001c84 <HAL_RCCEx_PeriphCLKConfig+0x7d8>)
 8001c6c:	681b      	ldr	r3, [r3, #0]
 8001c6e:	f003 5300 	and.w	r3, r3, #536870912	; 0x20000000
 8001c72:	f1b3 5f00 	cmp.w	r3, #536870912	; 0x20000000
 8001c76:	d1ef      	bne.n	8001c58 <HAL_RCCEx_PeriphCLKConfig+0x7ac>
      }
    }
  }
  return HAL_OK;
 8001c78:	2300      	movs	r3, #0
}
 8001c7a:	4618      	mov	r0, r3
 8001c7c:	3720      	adds	r7, #32
 8001c7e:	46bd      	mov	sp, r7
 8001c80:	bd80      	pop	{r7, pc}
 8001c82:	bf00      	nop
 8001c84:	40023800 	.word	0x40023800

08001c88 <HAL_UART_Init>:
  *        parameters in the UART_InitTypeDef and initialize the associated handle.
  * @param huart UART handle.
  * @retval HAL status
  */
HAL_StatusTypeDef HAL_UART_Init(UART_HandleTypeDef *huart)
{
 8001c88:	b580      	push	{r7, lr}
 8001c8a:	b082      	sub	sp, #8
 8001c8c:	af00      	add	r7, sp, #0
 8001c8e:	6078      	str	r0, [r7, #4]
  /* Check the UART handle allocation */
  if (huart == NULL)
 8001c90:	687b      	ldr	r3, [r7, #4]
 8001c92:	2b00      	cmp	r3, #0
 8001c94:	d101      	bne.n	8001c9a <HAL_UART_Init+0x12>
  {
    return HAL_ERROR;
 8001c96:	2301      	movs	r3, #1
 8001c98:	e040      	b.n	8001d1c <HAL_UART_Init+0x94>
  {
    /* Check the parameters */
    assert_param(IS_UART_INSTANCE(huart->Instance));
  }

  if (huart->gState == HAL_UART_STATE_RESET)
 8001c9a:	687b      	ldr	r3, [r7, #4]
 8001c9c:	6f5b      	ldr	r3, [r3, #116]	; 0x74
 8001c9e:	2b00      	cmp	r3, #0
 8001ca0:	d106      	bne.n	8001cb0 <HAL_UART_Init+0x28>
  {
    /* Allocate lock resource and initialize it */
    huart->Lock = HAL_UNLOCKED;
 8001ca2:	687b      	ldr	r3, [r7, #4]
 8001ca4:	2200      	movs	r2, #0
 8001ca6:	f883 2070 	strb.w	r2, [r3, #112]	; 0x70

    /* Init the low level hardware */
    huart->MspInitCallback(huart);
#else
    /* Init the low level hardware : GPIO, CLOCK */
    HAL_UART_MspInit(huart);
 8001caa:	6878      	ldr	r0, [r7, #4]
 8001cac:	f000 fd9a 	bl	80027e4 <HAL_UART_MspInit>
#endif /* (USE_HAL_UART_REGISTER_CALLBACKS) */
  }

  huart->gState = HAL_UART_STATE_BUSY;
 8001cb0:	687b      	ldr	r3, [r7, #4]
 8001cb2:	2224      	movs	r2, #36	; 0x24
 8001cb4:	675a      	str	r2, [r3, #116]	; 0x74

  /* Disable the Peripheral */
  __HAL_UART_DISABLE(huart);
 8001cb6:	687b      	ldr	r3, [r7, #4]
 8001cb8:	681b      	ldr	r3, [r3, #0]
 8001cba:	681a      	ldr	r2, [r3, #0]
 8001cbc:	687b      	ldr	r3, [r7, #4]
 8001cbe:	681b      	ldr	r3, [r3, #0]
 8001cc0:	f022 0201 	bic.w	r2, r2, #1
 8001cc4:	601a      	str	r2, [r3, #0]

  /* Set the UART Communication parameters */
  if (UART_SetConfig(huart) == HAL_ERROR)
 8001cc6:	6878      	ldr	r0, [r7, #4]
 8001cc8:	f000 f82c 	bl	8001d24 <UART_SetConfig>
 8001ccc:	4603      	mov	r3, r0
 8001cce:	2b01      	cmp	r3, #1
 8001cd0:	d101      	bne.n	8001cd6 <HAL_UART_Init+0x4e>
  {
    return HAL_ERROR;
 8001cd2:	2301      	movs	r3, #1
 8001cd4:	e022      	b.n	8001d1c <HAL_UART_Init+0x94>
  }

  if (huart->AdvancedInit.AdvFeatureInit != UART_ADVFEATURE_NO_INIT)
 8001cd6:	687b      	ldr	r3, [r7, #4]
 8001cd8:	6a5b      	ldr	r3, [r3, #36]	; 0x24
 8001cda:	2b00      	cmp	r3, #0
 8001cdc:	d002      	beq.n	8001ce4 <HAL_UART_Init+0x5c>
  {
    UART_AdvFeatureConfig(huart);
 8001cde:	6878      	ldr	r0, [r7, #4]
 8001ce0:	f000 fac4 	bl	800226c <UART_AdvFeatureConfig>
  }

  /* In asynchronous mode, the following bits must be kept cleared:
  - LINEN and CLKEN bits in the USART_CR2 register,
  - SCEN, HDSEL and IREN  bits in the USART_CR3 register.*/
  CLEAR_BIT(huart->Instance->CR2, (USART_CR2_LINEN | USART_CR2_CLKEN));
 8001ce4:	687b      	ldr	r3, [r7, #4]
 8001ce6:	681b      	ldr	r3, [r3, #0]
 8001ce8:	685a      	ldr	r2, [r3, #4]
 8001cea:	687b      	ldr	r3, [r7, #4]
 8001cec:	681b      	ldr	r3, [r3, #0]
 8001cee:	f422 4290 	bic.w	r2, r2, #18432	; 0x4800
 8001cf2:	605a      	str	r2, [r3, #4]
  CLEAR_BIT(huart->Instance->CR3, (USART_CR3_SCEN | USART_CR3_HDSEL | USART_CR3_IREN));
 8001cf4:	687b      	ldr	r3, [r7, #4]
 8001cf6:	681b      	ldr	r3, [r3, #0]
 8001cf8:	689a      	ldr	r2, [r3, #8]
 8001cfa:	687b      	ldr	r3, [r7, #4]
 8001cfc:	681b      	ldr	r3, [r3, #0]
 8001cfe:	f022 022a 	bic.w	r2, r2, #42	; 0x2a
 8001d02:	609a      	str	r2, [r3, #8]

  /* Enable the Peripheral */
  __HAL_UART_ENABLE(huart);
 8001d04:	687b      	ldr	r3, [r7, #4]
 8001d06:	681b      	ldr	r3, [r3, #0]
 8001d08:	681a      	ldr	r2, [r3, #0]
 8001d0a:	687b      	ldr	r3, [r7, #4]
 8001d0c:	681b      	ldr	r3, [r3, #0]
 8001d0e:	f042 0201 	orr.w	r2, r2, #1
 8001d12:	601a      	str	r2, [r3, #0]

  /* TEACK and/or REACK to check before moving huart->gState and huart->RxState to Ready */
  return (UART_CheckIdleState(huart));
 8001d14:	6878      	ldr	r0, [r7, #4]
 8001d16:	f000 fb4b 	bl	80023b0 <UART_CheckIdleState>
 8001d1a:	4603      	mov	r3, r0
}
 8001d1c:	4618      	mov	r0, r3
 8001d1e:	3708      	adds	r7, #8
 8001d20:	46bd      	mov	sp, r7
 8001d22:	bd80      	pop	{r7, pc}

08001d24 <UART_SetConfig>:
  * @brief Configure the UART peripheral.
  * @param huart UART handle.
  * @retval HAL status
  */
HAL_StatusTypeDef UART_SetConfig(UART_HandleTypeDef *huart)
{
 8001d24:	b580      	push	{r7, lr}
 8001d26:	b088      	sub	sp, #32
 8001d28:	af00      	add	r7, sp, #0
 8001d2a:	6078      	str	r0, [r7, #4]
  uint32_t tmpreg;
  uint16_t brrtemp;
  UART_ClockSourceTypeDef clocksource;
  uint32_t usartdiv                   = 0x00000000U;
 8001d2c:	2300      	movs	r3, #0
 8001d2e:	61bb      	str	r3, [r7, #24]
  HAL_StatusTypeDef ret               = HAL_OK;
 8001d30:	2300      	movs	r3, #0
 8001d32:	75fb      	strb	r3, [r7, #23]
  *  the UART Word Length, Parity, Mode and oversampling:
  *  set the M bits according to huart->Init.WordLength value
  *  set PCE and PS bits according to huart->Init.Parity value
  *  set TE and RE bits according to huart->Init.Mode value
  *  set OVER8 bit according to huart->Init.OverSampling value */
  tmpreg = (uint32_t)huart->Init.WordLength | huart->Init.Parity | huart->Init.Mode | huart->Init.OverSampling ;
 8001d34:	687b      	ldr	r3, [r7, #4]
 8001d36:	689a      	ldr	r2, [r3, #8]
 8001d38:	687b      	ldr	r3, [r7, #4]
 8001d3a:	691b      	ldr	r3, [r3, #16]
 8001d3c:	431a      	orrs	r2, r3
 8001d3e:	687b      	ldr	r3, [r7, #4]
 8001d40:	695b      	ldr	r3, [r3, #20]
 8001d42:	431a      	orrs	r2, r3
 8001d44:	687b      	ldr	r3, [r7, #4]
 8001d46:	69db      	ldr	r3, [r3, #28]
 8001d48:	4313      	orrs	r3, r2
 8001d4a:	613b      	str	r3, [r7, #16]
  MODIFY_REG(huart->Instance->CR1, USART_CR1_FIELDS, tmpreg);
 8001d4c:	687b      	ldr	r3, [r7, #4]
 8001d4e:	681b      	ldr	r3, [r3, #0]
 8001d50:	681a      	ldr	r2, [r3, #0]
 8001d52:	4bb1      	ldr	r3, [pc, #708]	; (8002018 <UART_SetConfig+0x2f4>)
 8001d54:	4013      	ands	r3, r2
 8001d56:	687a      	ldr	r2, [r7, #4]
 8001d58:	6812      	ldr	r2, [r2, #0]
 8001d5a:	6939      	ldr	r1, [r7, #16]
 8001d5c:	430b      	orrs	r3, r1
 8001d5e:	6013      	str	r3, [r2, #0]

  /*-------------------------- USART CR2 Configuration -----------------------*/
  /* Configure the UART Stop Bits: Set STOP[13:12] bits according
  * to huart->Init.StopBits value */
  MODIFY_REG(huart->Instance->CR2, USART_CR2_STOP, huart->Init.StopBits);
 8001d60:	687b      	ldr	r3, [r7, #4]
 8001d62:	681b      	ldr	r3, [r3, #0]
 8001d64:	685b      	ldr	r3, [r3, #4]
 8001d66:	f423 5140 	bic.w	r1, r3, #12288	; 0x3000
 8001d6a:	687b      	ldr	r3, [r7, #4]
 8001d6c:	68da      	ldr	r2, [r3, #12]
 8001d6e:	687b      	ldr	r3, [r7, #4]
 8001d70:	681b      	ldr	r3, [r3, #0]
 8001d72:	430a      	orrs	r2, r1
 8001d74:	605a      	str	r2, [r3, #4]
  /* Configure
  * - UART HardWare Flow Control: set CTSE and RTSE bits according
  *   to huart->Init.HwFlowCtl value
  * - one-bit sampling method versus three samples' majority rule according
  *   to huart->Init.OneBitSampling (not applicable to LPUART) */
  tmpreg = (uint32_t)huart->Init.HwFlowCtl;
 8001d76:	687b      	ldr	r3, [r7, #4]
 8001d78:	699b      	ldr	r3, [r3, #24]
 8001d7a:	613b      	str	r3, [r7, #16]

  tmpreg |= huart->Init.OneBitSampling;
 8001d7c:	687b      	ldr	r3, [r7, #4]
 8001d7e:	6a1b      	ldr	r3, [r3, #32]
 8001d80:	693a      	ldr	r2, [r7, #16]
 8001d82:	4313      	orrs	r3, r2
 8001d84:	613b      	str	r3, [r7, #16]
  MODIFY_REG(huart->Instance->CR3, USART_CR3_FIELDS, tmpreg);
 8001d86:	687b      	ldr	r3, [r7, #4]
 8001d88:	681b      	ldr	r3, [r3, #0]
 8001d8a:	689b      	ldr	r3, [r3, #8]
 8001d8c:	f423 6130 	bic.w	r1, r3, #2816	; 0xb00
 8001d90:	687b      	ldr	r3, [r7, #4]
 8001d92:	681b      	ldr	r3, [r3, #0]
 8001d94:	693a      	ldr	r2, [r7, #16]
 8001d96:	430a      	orrs	r2, r1
 8001d98:	609a      	str	r2, [r3, #8]


  /*-------------------------- USART BRR Configuration -----------------------*/
  UART_GETCLOCKSOURCE(huart, clocksource);
 8001d9a:	687b      	ldr	r3, [r7, #4]
 8001d9c:	681b      	ldr	r3, [r3, #0]
 8001d9e:	4a9f      	ldr	r2, [pc, #636]	; (800201c <UART_SetConfig+0x2f8>)
 8001da0:	4293      	cmp	r3, r2
 8001da2:	d121      	bne.n	8001de8 <UART_SetConfig+0xc4>
 8001da4:	4b9e      	ldr	r3, [pc, #632]	; (8002020 <UART_SetConfig+0x2fc>)
 8001da6:	f8d3 3090 	ldr.w	r3, [r3, #144]	; 0x90
 8001daa:	f003 0303 	and.w	r3, r3, #3
 8001dae:	2b03      	cmp	r3, #3
 8001db0:	d816      	bhi.n	8001de0 <UART_SetConfig+0xbc>
 8001db2:	a201      	add	r2, pc, #4	; (adr r2, 8001db8 <UART_SetConfig+0x94>)
 8001db4:	f852 f023 	ldr.w	pc, [r2, r3, lsl #2]
 8001db8:	08001dc9 	.word	0x08001dc9
 8001dbc:	08001dd5 	.word	0x08001dd5
 8001dc0:	08001dcf 	.word	0x08001dcf
 8001dc4:	08001ddb 	.word	0x08001ddb
 8001dc8:	2301      	movs	r3, #1
 8001dca:	77fb      	strb	r3, [r7, #31]
 8001dcc:	e151      	b.n	8002072 <UART_SetConfig+0x34e>
 8001dce:	2302      	movs	r3, #2
 8001dd0:	77fb      	strb	r3, [r7, #31]
 8001dd2:	e14e      	b.n	8002072 <UART_SetConfig+0x34e>
 8001dd4:	2304      	movs	r3, #4
 8001dd6:	77fb      	strb	r3, [r7, #31]
 8001dd8:	e14b      	b.n	8002072 <UART_SetConfig+0x34e>
 8001dda:	2308      	movs	r3, #8
 8001ddc:	77fb      	strb	r3, [r7, #31]
 8001dde:	e148      	b.n	8002072 <UART_SetConfig+0x34e>
 8001de0:	2310      	movs	r3, #16
 8001de2:	77fb      	strb	r3, [r7, #31]
 8001de4:	bf00      	nop
 8001de6:	e144      	b.n	8002072 <UART_SetConfig+0x34e>
 8001de8:	687b      	ldr	r3, [r7, #4]
 8001dea:	681b      	ldr	r3, [r3, #0]
 8001dec:	4a8d      	ldr	r2, [pc, #564]	; (8002024 <UART_SetConfig+0x300>)
 8001dee:	4293      	cmp	r3, r2
 8001df0:	d134      	bne.n	8001e5c <UART_SetConfig+0x138>
 8001df2:	4b8b      	ldr	r3, [pc, #556]	; (8002020 <UART_SetConfig+0x2fc>)
 8001df4:	f8d3 3090 	ldr.w	r3, [r3, #144]	; 0x90
 8001df8:	f003 030c 	and.w	r3, r3, #12
 8001dfc:	2b0c      	cmp	r3, #12
 8001dfe:	d829      	bhi.n	8001e54 <UART_SetConfig+0x130>
 8001e00:	a201      	add	r2, pc, #4	; (adr r2, 8001e08 <UART_SetConfig+0xe4>)
 8001e02:	f852 f023 	ldr.w	pc, [r2, r3, lsl #2]
 8001e06:	bf00      	nop
 8001e08:	08001e3d 	.word	0x08001e3d
 8001e0c:	08001e55 	.word	0x08001e55
 8001e10:	08001e55 	.word	0x08001e55
 8001e14:	08001e55 	.word	0x08001e55
 8001e18:	08001e49 	.word	0x08001e49
 8001e1c:	08001e55 	.word	0x08001e55
 8001e20:	08001e55 	.word	0x08001e55
 8001e24:	08001e55 	.word	0x08001e55
 8001e28:	08001e43 	.word	0x08001e43
 8001e2c:	08001e55 	.word	0x08001e55
 8001e30:	08001e55 	.word	0x08001e55
 8001e34:	08001e55 	.word	0x08001e55
 8001e38:	08001e4f 	.word	0x08001e4f
 8001e3c:	2300      	movs	r3, #0
 8001e3e:	77fb      	strb	r3, [r7, #31]
 8001e40:	e117      	b.n	8002072 <UART_SetConfig+0x34e>
 8001e42:	2302      	movs	r3, #2
 8001e44:	77fb      	strb	r3, [r7, #31]
 8001e46:	e114      	b.n	8002072 <UART_SetConfig+0x34e>
 8001e48:	2304      	movs	r3, #4
 8001e4a:	77fb      	strb	r3, [r7, #31]
 8001e4c:	e111      	b.n	8002072 <UART_SetConfig+0x34e>
 8001e4e:	2308      	movs	r3, #8
 8001e50:	77fb      	strb	r3, [r7, #31]
 8001e52:	e10e      	b.n	8002072 <UART_SetConfig+0x34e>
 8001e54:	2310      	movs	r3, #16
 8001e56:	77fb      	strb	r3, [r7, #31]
 8001e58:	bf00      	nop
 8001e5a:	e10a      	b.n	8002072 <UART_SetConfig+0x34e>
 8001e5c:	687b      	ldr	r3, [r7, #4]
 8001e5e:	681b      	ldr	r3, [r3, #0]
 8001e60:	4a71      	ldr	r2, [pc, #452]	; (8002028 <UART_SetConfig+0x304>)
 8001e62:	4293      	cmp	r3, r2
 8001e64:	d120      	bne.n	8001ea8 <UART_SetConfig+0x184>
 8001e66:	4b6e      	ldr	r3, [pc, #440]	; (8002020 <UART_SetConfig+0x2fc>)
 8001e68:	f8d3 3090 	ldr.w	r3, [r3, #144]	; 0x90
 8001e6c:	f003 0330 	and.w	r3, r3, #48	; 0x30
 8001e70:	2b10      	cmp	r3, #16
 8001e72:	d00f      	beq.n	8001e94 <UART_SetConfig+0x170>
 8001e74:	2b10      	cmp	r3, #16
 8001e76:	d802      	bhi.n	8001e7e <UART_SetConfig+0x15a>
 8001e78:	2b00      	cmp	r3, #0
 8001e7a:	d005      	beq.n	8001e88 <UART_SetConfig+0x164>
 8001e7c:	e010      	b.n	8001ea0 <UART_SetConfig+0x17c>
 8001e7e:	2b20      	cmp	r3, #32
 8001e80:	d005      	beq.n	8001e8e <UART_SetConfig+0x16a>
 8001e82:	2b30      	cmp	r3, #48	; 0x30
 8001e84:	d009      	beq.n	8001e9a <UART_SetConfig+0x176>
 8001e86:	e00b      	b.n	8001ea0 <UART_SetConfig+0x17c>
 8001e88:	2300      	movs	r3, #0
 8001e8a:	77fb      	strb	r3, [r7, #31]
 8001e8c:	e0f1      	b.n	8002072 <UART_SetConfig+0x34e>
 8001e8e:	2302      	movs	r3, #2
 8001e90:	77fb      	strb	r3, [r7, #31]
 8001e92:	e0ee      	b.n	8002072 <UART_SetConfig+0x34e>
 8001e94:	2304      	movs	r3, #4
 8001e96:	77fb      	strb	r3, [r7, #31]
 8001e98:	e0eb      	b.n	8002072 <UART_SetConfig+0x34e>
 8001e9a:	2308      	movs	r3, #8
 8001e9c:	77fb      	strb	r3, [r7, #31]
 8001e9e:	e0e8      	b.n	8002072 <UART_SetConfig+0x34e>
 8001ea0:	2310      	movs	r3, #16
 8001ea2:	77fb      	strb	r3, [r7, #31]
 8001ea4:	bf00      	nop
 8001ea6:	e0e4      	b.n	8002072 <UART_SetConfig+0x34e>
 8001ea8:	687b      	ldr	r3, [r7, #4]
 8001eaa:	681b      	ldr	r3, [r3, #0]
 8001eac:	4a5f      	ldr	r2, [pc, #380]	; (800202c <UART_SetConfig+0x308>)
 8001eae:	4293      	cmp	r3, r2
 8001eb0:	d120      	bne.n	8001ef4 <UART_SetConfig+0x1d0>
 8001eb2:	4b5b      	ldr	r3, [pc, #364]	; (8002020 <UART_SetConfig+0x2fc>)
 8001eb4:	f8d3 3090 	ldr.w	r3, [r3, #144]	; 0x90
 8001eb8:	f003 03c0 	and.w	r3, r3, #192	; 0xc0
 8001ebc:	2b40      	cmp	r3, #64	; 0x40
