
code-stm32f746.elf:     file format elf32-littlearm

Sections:
Idx Name          Size      VMA       LMA       File off  Algn
  0 .isr_vector   000001c8  08000000  08000000  00010000  2**0
                  CONTENTS, ALLOC, LOAD, READONLY, DATA
  1 .text         00007480  080001d0  080001d0  000101d0  2**4
                  CONTENTS, ALLOC, LOAD, READONLY, CODE
  2 .rodata       000003d0  08007650  08007650  00017650  2**3
                  CONTENTS, ALLOC, LOAD, READONLY, DATA
  3 .ARM.extab    00000000  08007a20  08007a20  00020ec8  2**0
                  CONTENTS
  4 .ARM          00000008  08007a20  08007a20  00017a20  2**2
                  CONTENTS, ALLOC, LOAD, READONLY, DATA
  5 .preinit_array 00000000  08007a28  08007a28  00020ec8  2**0
                  CONTENTS, ALLOC, LOAD, DATA
  6 .init_array   00000008  08007a28  08007a28  00017a28  2**2
                  CONTENTS, ALLOC, LOAD, DATA
  7 .fini_array   00000004  08007a30  08007a30  00017a30  2**2
                  CONTENTS, ALLOC, LOAD, DATA
  8 .data         00000ec8  20000000  08007a34  00020000  2**3
                  CONTENTS, ALLOC, LOAD, DATA
  9 .bss          000002fc  20000ec8  080088fc  00020ec8  2**2
                  ALLOC
 10 ._user_heap_stack 00000604  200011c4  080088fc  000211c4  2**0
                  ALLOC
 11 .ARM.attributes 00000030  00000000  00000000  00020ec8  2**0
                  CONTENTS, READONLY
 12 .comment      0000007b  00000000  00000000  00020ef8  2**0
                  CONTENTS, READONLY
 13 .debug_frame  00001454  00000000  00000000  00020f74  2**2
                  CONTENTS, READONLY, DEBUGGING

Disassembly of section .text:

080001d0 <__do_global_dtors_aux>:
 80001d0:	b510      	push	{r4, lr}
 80001d2:	4c05      	ldr	r4, [pc, #20]	; (80001e8 <__do_global_dtors_aux+0x18>)
 80001d4:	7823      	ldrb	r3, [r4, #0]
 80001d6:	b933      	cbnz	r3, 80001e6 <__do_global_dtors_aux+0x16>
 80001d8:	4b04      	ldr	r3, [pc, #16]	; (80001ec <__do_global_dtors_aux+0x1c>)
 80001da:	b113      	cbz	r3, 80001e2 <__do_global_dtors_aux+0x12>
 80001dc:	4804      	ldr	r0, [pc, #16]	; (80001f0 <__do_global_dtors_aux+0x20>)
 80001de:	f3af 8000 	nop.w
 80001e2:	2301      	movs	r3, #1
 80001e4:	7023      	strb	r3, [r4, #0]
 80001e6:	bd10      	pop	{r4, pc}
 80001e8:	20000ec8 	.word	0x20000ec8
 80001ec:	00000000 	.word	0x00000000
 80001f0:	08007638 	.word	0x08007638

080001f4 <frame_dummy>:
 80001f4:	b508      	push	{r3, lr}
 80001f6:	4b03      	ldr	r3, [pc, #12]	; (8000204 <frame_dummy+0x10>)
 80001f8:	b11b      	cbz	r3, 8000202 <frame_dummy+0xe>
 80001fa:	4903      	ldr	r1, [pc, #12]	; (8000208 <frame_dummy+0x14>)
 80001fc:	4803      	ldr	r0, [pc, #12]	; (800020c <frame_dummy+0x18>)
 80001fe:	f3af 8000 	nop.w
 8000202:	bd08      	pop	{r3, pc}
 8000204:	00000000 	.word	0x00000000
 8000208:	20000ecc 	.word	0x20000ecc
 800020c:	08007638 	.word	0x08007638

08000210 <strlen>:
 8000210:	4603      	mov	r3, r0
 8000212:	f813 2b01 	ldrb.w	r2, [r3], #1
 8000216:	2a00      	cmp	r2, #0
 8000218:	d1fb      	bne.n	8000212 <strlen+0x2>
 800021a:	1a18      	subs	r0, r3, r0
 800021c:	3801      	subs	r0, #1
 800021e:	4770      	bx	lr

08000220 <memchr>:
 8000220:	f001 01ff 	and.w	r1, r1, #255	; 0xff
 8000224:	2a10      	cmp	r2, #16
 8000226:	db2b      	blt.n	8000280 <memchr+0x60>
 8000228:	f010 0f07 	tst.w	r0, #7
 800022c:	d008      	beq.n	8000240 <memchr+0x20>
 800022e:	f810 3b01 	ldrb.w	r3, [r0], #1
 8000232:	3a01      	subs	r2, #1
 8000234:	428b      	cmp	r3, r1
 8000236:	d02d      	beq.n	8000294 <memchr+0x74>
 8000238:	f010 0f07 	tst.w	r0, #7
 800023c:	b342      	cbz	r2, 8000290 <memchr+0x70>
 800023e:	d1f6      	bne.n	800022e <memchr+0xe>
 8000240:	b4f0      	push	{r4, r5, r6, r7}
 8000242:	ea41 2101 	orr.w	r1, r1, r1, lsl #8
 8000246:	ea41 4101 	orr.w	r1, r1, r1, lsl #16
 800024a:	f022 0407 	bic.w	r4, r2, #7
 800024e:	f07f 0700 	mvns.w	r7, #0
 8000252:	2300      	movs	r3, #0
 8000254:	e8f0 5602 	ldrd	r5, r6, [r0], #8
 8000258:	3c08      	subs	r4, #8
 800025a:	ea85 0501 	eor.w	r5, r5, r1
 800025e:	ea86 0601 	eor.w	r6, r6, r1
 8000262:	fa85 f547 	uadd8	r5, r5, r7
 8000266:	faa3 f587 	sel	r5, r3, r7
 800026a:	fa86 f647 	uadd8	r6, r6, r7
 800026e:	faa5 f687 	sel	r6, r5, r7
 8000272:	b98e      	cbnz	r6, 8000298 <memchr+0x78>
 8000274:	d1ee      	bne.n	8000254 <memchr+0x34>
 8000276:	bcf0      	pop	{r4, r5, r6, r7}
 8000278:	f001 01ff 	and.w	r1, r1, #255	; 0xff
 800027c:	f002 0207 	and.w	r2, r2, #7
 8000280:	b132      	cbz	r2, 8000290 <memchr+0x70>
 8000282:	f810 3b01 	ldrb.w	r3, [r0], #1
 8000286:	3a01      	subs	r2, #1
 8000288:	ea83 0301 	eor.w	r3, r3, r1
 800028c:	b113      	cbz	r3, 8000294 <memchr+0x74>
 800028e:	d1f8      	bne.n	8000282 <memchr+0x62>
 8000290:	2000      	movs	r0, #0
 8000292:	4770      	bx	lr
 8000294:	3801      	subs	r0, #1
 8000296:	4770      	bx	lr
 8000298:	2d00      	cmp	r5, #0
 800029a:	bf06      	itte	eq
 800029c:	4635      	moveq	r5, r6
 800029e:	3803      	subeq	r0, #3
 80002a0:	3807      	subne	r0, #7
 80002a2:	f015 0f01 	tst.w	r5, #1
 80002a6:	d107      	bne.n	80002b8 <memchr+0x98>
 80002a8:	3001      	adds	r0, #1
 80002aa:	f415 7f80 	tst.w	r5, #256	; 0x100
 80002ae:	bf02      	ittt	eq
 80002b0:	3001      	addeq	r0, #1
 80002b2:	f415 3fc0 	tsteq.w	r5, #98304	; 0x18000
 80002b6:	3001      	addeq	r0, #1
 80002b8:	bcf0      	pop	{r4, r5, r6, r7}
 80002ba:	3801      	subs	r0, #1
 80002bc:	4770      	bx	lr
 80002be:	bf00      	nop

080002c0 <__aeabi_drsub>:
 80002c0:	f081 4100 	eor.w	r1, r1, #2147483648	; 0x80000000
 80002c4:	e002      	b.n	80002cc <__adddf3>
 80002c6:	bf00      	nop

080002c8 <__aeabi_dsub>:
 80002c8:	f083 4300 	eor.w	r3, r3, #2147483648	; 0x80000000

080002cc <__adddf3>:
 80002cc:	b530      	push	{r4, r5, lr}
 80002ce:	ea4f 0441 	mov.w	r4, r1, lsl #1
 80002d2:	ea4f 0543 	mov.w	r5, r3, lsl #1
 80002d6:	ea94 0f05 	teq	r4, r5
 80002da:	bf08      	it	eq
 80002dc:	ea90 0f02 	teqeq	r0, r2
 80002e0:	bf1f      	itttt	ne
 80002e2:	ea54 0c00 	orrsne.w	ip, r4, r0
 80002e6:	ea55 0c02 	orrsne.w	ip, r5, r2
 80002ea:	ea7f 5c64 	mvnsne.w	ip, r4, asr #21
 80002ee:	ea7f 5c65 	mvnsne.w	ip, r5, asr #21
 80002f2:	f000 80e2 	beq.w	80004ba <__adddf3+0x1ee>
 80002f6:	ea4f 5454 	mov.w	r4, r4, lsr #21
 80002fa:	ebd4 5555 	rsbs	r5, r4, r5, lsr #21
 80002fe:	bfb8      	it	lt
 8000300:	426d      	neglt	r5, r5
 8000302:	dd0c      	ble.n	800031e <__adddf3+0x52>
 8000304:	442c      	add	r4, r5
 8000306:	ea80 0202 	eor.w	r2, r0, r2
 800030a:	ea81 0303 	eor.w	r3, r1, r3
 800030e:	ea82 0000 	eor.w	r0, r2, r0
 8000312:	ea83 0101 	eor.w	r1, r3, r1
 8000316:	ea80 0202 	eor.w	r2, r0, r2
 800031a:	ea81 0303 	eor.w	r3, r1, r3
 800031e:	2d36      	cmp	r5, #54	; 0x36
 8000320:	bf88      	it	hi
 8000322:	bd30      	pophi	{r4, r5, pc}
 8000324:	f011 4f00 	tst.w	r1, #2147483648	; 0x80000000
 8000328:	ea4f 3101 	mov.w	r1, r1, lsl #12
 800032c:	f44f 1c80 	mov.w	ip, #1048576	; 0x100000
 8000330:	ea4c 3111 	orr.w	r1, ip, r1, lsr #12
 8000334:	d002      	beq.n	800033c <__adddf3+0x70>
 8000336:	4240      	negs	r0, r0
 8000338:	eb61 0141 	sbc.w	r1, r1, r1, lsl #1
 800033c:	f013 4f00 	tst.w	r3, #2147483648	; 0x80000000
 8000340:	ea4f 3303 	mov.w	r3, r3, lsl #12
 8000344:	ea4c 3313 	orr.w	r3, ip, r3, lsr #12
 8000348:	d002      	beq.n	8000350 <__adddf3+0x84>
 800034a:	4252      	negs	r2, r2
 800034c:	eb63 0343 	sbc.w	r3, r3, r3, lsl #1
 8000350:	ea94 0f05 	teq	r4, r5
 8000354:	f000 80a7 	beq.w	80004a6 <__adddf3+0x1da>
 8000358:	f1a4 0401 	sub.w	r4, r4, #1
 800035c:	f1d5 0e20 	rsbs	lr, r5, #32
 8000360:	db0d      	blt.n	800037e <__adddf3+0xb2>
 8000362:	fa02 fc0e 	lsl.w	ip, r2, lr
 8000366:	fa22 f205 	lsr.w	r2, r2, r5
 800036a:	1880      	adds	r0, r0, r2
 800036c:	f141 0100 	adc.w	r1, r1, #0
 8000370:	fa03 f20e 	lsl.w	r2, r3, lr
 8000374:	1880      	adds	r0, r0, r2
 8000376:	fa43 f305 	asr.w	r3, r3, r5
 800037a:	4159      	adcs	r1, r3
 800037c:	e00e      	b.n	800039c <__adddf3+0xd0>
 800037e:	f1a5 0520 	sub.w	r5, r5, #32
 8000382:	f10e 0e20 	add.w	lr, lr, #32
 8000386:	2a01      	cmp	r2, #1
 8000388:	fa03 fc0e 	lsl.w	ip, r3, lr
 800038c:	bf28      	it	cs
 800038e:	f04c 0c02 	orrcs.w	ip, ip, #2
 8000392:	fa43 f305 	asr.w	r3, r3, r5
 8000396:	18c0      	adds	r0, r0, r3
 8000398:	eb51 71e3 	adcs.w	r1, r1, r3, asr #31
 800039c:	f001 4500 	and.w	r5, r1, #2147483648	; 0x80000000
 80003a0:	d507      	bpl.n	80003b2 <__adddf3+0xe6>
 80003a2:	f04f 0e00 	mov.w	lr, #0
 80003a6:	f1dc 0c00 	rsbs	ip, ip, #0
 80003aa:	eb7e 0000 	sbcs.w	r0, lr, r0
 80003ae:	eb6e 0101 	sbc.w	r1, lr, r1
 80003b2:	f5b1 1f80 	cmp.w	r1, #1048576	; 0x100000
 80003b6:	d31b      	bcc.n	80003f0 <__adddf3+0x124>
 80003b8:	f5b1 1f00 	cmp.w	r1, #2097152	; 0x200000
 80003bc:	d30c      	bcc.n	80003d8 <__adddf3+0x10c>
 80003be:	0849      	lsrs	r1, r1, #1
 80003c0:	ea5f 0030 	movs.w	r0, r0, rrx
 80003c4:	ea4f 0c3c 	mov.w	ip, ip, rrx
 80003c8:	f104 0401 	add.w	r4, r4, #1
 80003cc:	ea4f 5244 	mov.w	r2, r4, lsl #21
 80003d0:	f512 0f80 	cmn.w	r2, #4194304	; 0x400000
 80003d4:	f080 809a 	bcs.w	800050c <__adddf3+0x240>
 80003d8:	f1bc 4f00 	cmp.w	ip, #2147483648	; 0x80000000
 80003dc:	bf08      	it	eq
 80003de:	ea5f 0c50 	movseq.w	ip, r0, lsr #1
 80003e2:	f150 0000 	adcs.w	r0, r0, #0
 80003e6:	eb41 5104 	adc.w	r1, r1, r4, lsl #20
 80003ea:	ea41 0105 	orr.w	r1, r1, r5
 80003ee:	bd30      	pop	{r4, r5, pc}
 80003f0:	ea5f 0c4c 	movs.w	ip, ip, lsl #1
 80003f4:	4140      	adcs	r0, r0
 80003f6:	eb41 0101 	adc.w	r1, r1, r1
 80003fa:	f411 1f80 	tst.w	r1, #1048576	; 0x100000
 80003fe:	f1a4 0401 	sub.w	r4, r4, #1
 8000402:	d1e9      	bne.n	80003d8 <__adddf3+0x10c>
 8000404:	f091 0f00 	teq	r1, #0
 8000408:	bf04      	itt	eq
 800040a:	4601      	moveq	r1, r0
 800040c:	2000      	moveq	r0, #0
 800040e:	fab1 f381 	clz	r3, r1
 8000412:	bf08      	it	eq
 8000414:	3320      	addeq	r3, #32
 8000416:	f1a3 030b 	sub.w	r3, r3, #11
 800041a:	f1b3 0220 	subs.w	r2, r3, #32
 800041e:	da0c      	bge.n	800043a <__adddf3+0x16e>
 8000420:	320c      	adds	r2, #12
 8000422:	dd08      	ble.n	8000436 <__adddf3+0x16a>
 8000424:	f102 0c14 	add.w	ip, r2, #20
 8000428:	f1c2 020c 	rsb	r2, r2, #12
 800042c:	fa01 f00c 	lsl.w	r0, r1, ip
 8000430:	fa21 f102 	lsr.w	r1, r1, r2
 8000434:	e00c      	b.n	8000450 <__adddf3+0x184>
 8000436:	f102 0214 	add.w	r2, r2, #20
 800043a:	bfd8      	it	le
 800043c:	f1c2 0c20 	rsble	ip, r2, #32
 8000440:	fa01 f102 	lsl.w	r1, r1, r2
 8000444:	fa20 fc0c 	lsr.w	ip, r0, ip
 8000448:	bfdc      	itt	le
 800044a:	ea41 010c 	orrle.w	r1, r1, ip
 800044e:	4090      	lslle	r0, r2
 8000450:	1ae4      	subs	r4, r4, r3
 8000452:	bfa2      	ittt	ge
 8000454:	eb01 5104 	addge.w	r1, r1, r4, lsl #20
 8000458:	4329      	orrge	r1, r5
 800045a:	bd30      	popge	{r4, r5, pc}
 800045c:	ea6f 0404 	mvn.w	r4, r4
 8000460:	3c1f      	subs	r4, #31
 8000462:	da1c      	bge.n	800049e <__adddf3+0x1d2>
 8000464:	340c      	adds	r4, #12
 8000466:	dc0e      	bgt.n	8000486 <__adddf3+0x1ba>
 8000468:	f104 0414 	add.w	r4, r4, #20
 800046c:	f1c4 0220 	rsb	r2, r4, #32
 8000470:	fa20 f004 	lsr.w	r0, r0, r4
 8000474:	fa01 f302 	lsl.w	r3, r1, r2
 8000478:	ea40 0003 	orr.w	r0, r0, r3
 800047c:	fa21 f304 	lsr.w	r3, r1, r4
 8000480:	ea45 0103 	orr.w	r1, r5, r3
 8000484:	bd30      	pop	{r4, r5, pc}
 8000486:	f1c4 040c 	rsb	r4, r4, #12
 800048a:	f1c4 0220 	rsb	r2, r4, #32
 800048e:	fa20 f002 	lsr.w	r0, r0, r2
 8000492:	fa01 f304 	lsl.w	r3, r1, r4
 8000496:	ea40 0003 	orr.w	r0, r0, r3
 800049a:	4629      	mov	r1, r5
 800049c:	bd30      	pop	{r4, r5, pc}
 800049e:	fa21 f004 	lsr.w	r0, r1, r4
 80004a2:	4629      	mov	r1, r5
 80004a4:	bd30      	pop	{r4, r5, pc}
 80004a6:	f094 0f00 	teq	r4, #0
 80004aa:	f483 1380 	eor.w	r3, r3, #1048576	; 0x100000
 80004ae:	bf06      	itte	eq
 80004b0:	f481 1180 	eoreq.w	r1, r1, #1048576	; 0x100000
 80004b4:	3401      	addeq	r4, #1
 80004b6:	3d01      	subne	r5, #1
 80004b8:	e74e      	b.n	8000358 <__adddf3+0x8c>
 80004ba:	ea7f 5c64 	mvns.w	ip, r4, asr #21
 80004be:	bf18      	it	ne
 80004c0:	ea7f 5c65 	mvnsne.w	ip, r5, asr #21
 80004c4:	d029      	beq.n	800051a <__adddf3+0x24e>
 80004c6:	ea94 0f05 	teq	r4, r5
 80004ca:	bf08      	it	eq
 80004cc:	ea90 0f02 	teqeq	r0, r2
 80004d0:	d005      	beq.n	80004de <__adddf3+0x212>
 80004d2:	ea54 0c00 	orrs.w	ip, r4, r0
 80004d6:	bf04      	itt	eq
 80004d8:	4619      	moveq	r1, r3
 80004da:	4610      	moveq	r0, r2
 80004dc:	bd30      	pop	{r4, r5, pc}
 80004de:	ea91 0f03 	teq	r1, r3
 80004e2:	bf1e      	ittt	ne
 80004e4:	2100      	movne	r1, #0
 80004e6:	2000      	movne	r0, #0
 80004e8:	bd30      	popne	{r4, r5, pc}
 80004ea:	ea5f 5c54 	movs.w	ip, r4, lsr #21
 80004ee:	d105      	bne.n	80004fc <__adddf3+0x230>
 80004f0:	0040      	lsls	r0, r0, #1
 80004f2:	4149      	adcs	r1, r1
 80004f4:	bf28      	it	cs
 80004f6:	f041 4100 	orrcs.w	r1, r1, #2147483648	; 0x80000000
 80004fa:	bd30      	pop	{r4, r5, pc}
 80004fc:	f514 0480 	adds.w	r4, r4, #4194304	; 0x400000
 8000500:	bf3c      	itt	cc
 8000502:	f501 1180 	addcc.w	r1, r1, #1048576	; 0x100000
 8000506:	bd30      	popcc	{r4, r5, pc}
 8000508:	f001 4500 	and.w	r5, r1, #2147483648	; 0x80000000
 800050c:	f045 41fe 	orr.w	r1, r5, #2130706432	; 0x7f000000
 8000510:	f441 0170 	orr.w	r1, r1, #15728640	; 0xf00000
 8000514:	f04f 0000 	mov.w	r0, #0
 8000518:	bd30      	pop	{r4, r5, pc}
 800051a:	ea7f 5c64 	mvns.w	ip, r4, asr #21
 800051e:	bf1a      	itte	ne
 8000520:	4619      	movne	r1, r3
 8000522:	4610      	movne	r0, r2
 8000524:	ea7f 5c65 	mvnseq.w	ip, r5, asr #21
 8000528:	bf1c      	itt	ne
 800052a:	460b      	movne	r3, r1
 800052c:	4602      	movne	r2, r0
 800052e:	ea50 3401 	orrs.w	r4, r0, r1, lsl #12
 8000532:	bf06      	itte	eq
 8000534:	ea52 3503 	orrseq.w	r5, r2, r3, lsl #12
 8000538:	ea91 0f03 	teqeq	r1, r3
 800053c:	f441 2100 	orrne.w	r1, r1, #524288	; 0x80000
 8000540:	bd30      	pop	{r4, r5, pc}
 8000542:	bf00      	nop

08000544 <__aeabi_ui2d>:
 8000544:	f090 0f00 	teq	r0, #0
 8000548:	bf04      	itt	eq
 800054a:	2100      	moveq	r1, #0
 800054c:	4770      	bxeq	lr
 800054e:	b530      	push	{r4, r5, lr}
 8000550:	f44f 6480 	mov.w	r4, #1024	; 0x400
 8000554:	f104 0432 	add.w	r4, r4, #50	; 0x32
 8000558:	f04f 0500 	mov.w	r5, #0
 800055c:	f04f 0100 	mov.w	r1, #0
 8000560:	e750      	b.n	8000404 <__adddf3+0x138>
 8000562:	bf00      	nop

08000564 <__aeabi_i2d>:
 8000564:	f090 0f00 	teq	r0, #0
 8000568:	bf04      	itt	eq
 800056a:	2100      	moveq	r1, #0
 800056c:	4770      	bxeq	lr
 800056e:	b530      	push	{r4, r5, lr}
 8000570:	f44f 6480 	mov.w	r4, #1024	; 0x400
 8000574:	f104 0432 	add.w	r4, r4, #50	; 0x32
 8000578:	f010 4500 	ands.w	r5, r0, #2147483648	; 0x80000000
 800057c:	bf48      	it	mi
 800057e:	4240      	negmi	r0, r0
 8000580:	f04f 0100 	mov.w	r1, #0
 8000584:	e73e      	b.n	8000404 <__adddf3+0x138>
 8000586:	bf00      	nop

08000588 <__aeabi_f2d>:
 8000588:	0042      	lsls	r2, r0, #1
 800058a:	ea4f 01e2 	mov.w	r1, r2, asr #3
 800058e:	ea4f 0131 	mov.w	r1, r1, rrx
 8000592:	ea4f 7002 	mov.w	r0, r2, lsl #28
 8000596:	bf1f      	itttt	ne
 8000598:	f012 437f 	andsne.w	r3, r2, #4278190080	; 0xff000000
 800059c:	f093 4f7f 	teqne	r3, #4278190080	; 0xff000000
 80005a0:	f081 5160 	eorne.w	r1, r1, #939524096	; 0x38000000
 80005a4:	4770      	bxne	lr
 80005a6:	f032 427f 	bics.w	r2, r2, #4278190080	; 0xff000000
 80005aa:	bf08      	it	eq
 80005ac:	4770      	bxeq	lr
 80005ae:	f093 4f7f 	teq	r3, #4278190080	; 0xff000000
 80005b2:	bf04      	itt	eq
 80005b4:	f441 2100 	orreq.w	r1, r1, #524288	; 0x80000
 80005b8:	4770      	bxeq	lr
 80005ba:	b530      	push	{r4, r5, lr}
 80005bc:	f44f 7460 	mov.w	r4, #896	; 0x380
 80005c0:	f001 4500 	and.w	r5, r1, #2147483648	; 0x80000000
 80005c4:	f021 4100 	bic.w	r1, r1, #2147483648	; 0x80000000
 80005c8:	e71c      	b.n	8000404 <__adddf3+0x138>
 80005ca:	bf00      	nop

080005cc <__aeabi_ul2d>:
 80005cc:	ea50 0201 	orrs.w	r2, r0, r1
 80005d0:	bf08      	it	eq
 80005d2:	4770      	bxeq	lr
 80005d4:	b530      	push	{r4, r5, lr}
 80005d6:	f04f 0500 	mov.w	r5, #0
 80005da:	e00a      	b.n	80005f2 <__aeabi_l2d+0x16>

080005dc <__aeabi_l2d>:
 80005dc:	ea50 0201 	orrs.w	r2, r0, r1
 80005e0:	bf08      	it	eq
 80005e2:	4770      	bxeq	lr
 80005e4:	b530      	push	{r4, r5, lr}
 80005e6:	f011 4500 	ands.w	r5, r1, #2147483648	; 0x80000000
 80005ea:	d502      	bpl.n	80005f2 <__aeabi_l2d+0x16>
 80005ec:	4240      	negs	r0, r0
 80005ee:	eb61 0141 	sbc.w	r1, r1, r1, lsl #1
 80005f2:	f44f 6480 	mov.w	r4, #1024	; 0x400
 80005f6:	f104 0432 	add.w	r4, r4, #50	; 0x32
 80005fa:	ea5f 5c91 	movs.w	ip, r1, lsr #22
 80005fe:	f43f aed8 	beq.w	80003b2 <__adddf3+0xe6>
 8000602:	f04f 0203 	mov.w	r2, #3
 8000606:	ea5f 0cdc 	movs.w	ip, ip, lsr #3
 800060a:	bf18      	it	ne
 800060c:	3203      	addne	r2, #3
 800060e:	ea5f 0cdc 	movs.w	ip, ip, lsr #3
 8000612:	bf18      	it	ne
 8000614:	3203      	addne	r2, #3
 8000616:	eb02 02dc 	add.w	r2, r2, ip, lsr #3
 800061a:	f1c2 0320 	rsb	r3, r2, #32
 800061e:	fa00 fc03 	lsl.w	ip, r0, r3
 8000622:	fa20 f002 	lsr.w	r0, r0, r2
 8000626:	fa01 fe03 	lsl.w	lr, r1, r3
 800062a:	ea40 000e 	orr.w	r0, r0, lr
 800062e:	fa21 f102 	lsr.w	r1, r1, r2
 8000632:	4414      	add	r4, r2
 8000634:	e6bd      	b.n	80003b2 <__adddf3+0xe6>
 8000636:	bf00      	nop

08000638 <__aeabi_dmul>:
 8000638:	b570      	push	{r4, r5, r6, lr}
 800063a:	f04f 0cff 	mov.w	ip, #255	; 0xff
 800063e:	f44c 6ce0 	orr.w	ip, ip, #1792	; 0x700
 8000642:	ea1c 5411 	ands.w	r4, ip, r1, lsr #20
 8000646:	bf1d      	ittte	ne
 8000648:	ea1c 5513 	andsne.w	r5, ip, r3, lsr #20
 800064c:	ea94 0f0c 	teqne	r4, ip
 8000650:	ea95 0f0c 	teqne	r5, ip
 8000654:	f000 f8de 	bleq	8000814 <__aeabi_dmul+0x1dc>
 8000658:	442c      	add	r4, r5
 800065a:	ea81 0603 	eor.w	r6, r1, r3
 800065e:	ea21 514c 	bic.w	r1, r1, ip, lsl #21
 8000662:	ea23 534c 	bic.w	r3, r3, ip, lsl #21
 8000666:	ea50 3501 	orrs.w	r5, r0, r1, lsl #12
 800066a:	bf18      	it	ne
 800066c:	ea52 3503 	orrsne.w	r5, r2, r3, lsl #12
 8000670:	f441 1180 	orr.w	r1, r1, #1048576	; 0x100000
 8000674:	f443 1380 	orr.w	r3, r3, #1048576	; 0x100000
 8000678:	d038      	beq.n	80006ec <__aeabi_dmul+0xb4>
 800067a:	fba0 ce02 	umull	ip, lr, r0, r2
 800067e:	f04f 0500 	mov.w	r5, #0
 8000682:	fbe1 e502 	umlal	lr, r5, r1, r2
 8000686:	f006 4200 	and.w	r2, r6, #2147483648	; 0x80000000
 800068a:	fbe0 e503 	umlal	lr, r5, r0, r3
 800068e:	f04f 0600 	mov.w	r6, #0
 8000692:	fbe1 5603 	umlal	r5, r6, r1, r3
 8000696:	f09c 0f00 	teq	ip, #0
 800069a:	bf18      	it	ne
 800069c:	f04e 0e01 	orrne.w	lr, lr, #1
 80006a0:	f1a4 04ff 	sub.w	r4, r4, #255	; 0xff
 80006a4:	f5b6 7f00 	cmp.w	r6, #512	; 0x200
 80006a8:	f564 7440 	sbc.w	r4, r4, #768	; 0x300
 80006ac:	d204      	bcs.n	80006b8 <__aeabi_dmul+0x80>
 80006ae:	ea5f 0e4e 	movs.w	lr, lr, lsl #1
 80006b2:	416d      	adcs	r5, r5
 80006b4:	eb46 0606 	adc.w	r6, r6, r6
 80006b8:	ea42 21c6 	orr.w	r1, r2, r6, lsl #11
 80006bc:	ea41 5155 	orr.w	r1, r1, r5, lsr #21
 80006c0:	ea4f 20c5 	mov.w	r0, r5, lsl #11
 80006c4:	ea40 505e 	orr.w	r0, r0, lr, lsr #21
 80006c8:	ea4f 2ece 	mov.w	lr, lr, lsl #11
 80006cc:	f1b4 0cfd 	subs.w	ip, r4, #253	; 0xfd
 80006d0:	bf88      	it	hi
 80006d2:	f5bc 6fe0 	cmphi.w	ip, #1792	; 0x700
 80006d6:	d81e      	bhi.n	8000716 <__aeabi_dmul+0xde>
 80006d8:	f1be 4f00 	cmp.w	lr, #2147483648	; 0x80000000
 80006dc:	bf08      	it	eq
 80006de:	ea5f 0e50 	movseq.w	lr, r0, lsr #1
 80006e2:	f150 0000 	adcs.w	r0, r0, #0
 80006e6:	eb41 5104 	adc.w	r1, r1, r4, lsl #20
 80006ea:	bd70      	pop	{r4, r5, r6, pc}
 80006ec:	f006 4600 	and.w	r6, r6, #2147483648	; 0x80000000
 80006f0:	ea46 0101 	orr.w	r1, r6, r1
 80006f4:	ea40 0002 	orr.w	r0, r0, r2
 80006f8:	ea81 0103 	eor.w	r1, r1, r3
 80006fc:	ebb4 045c 	subs.w	r4, r4, ip, lsr #1
 8000700:	bfc2      	ittt	gt
 8000702:	ebd4 050c 	rsbsgt	r5, r4, ip
 8000706:	ea41 5104 	orrgt.w	r1, r1, r4, lsl #20
 800070a:	bd70      	popgt	{r4, r5, r6, pc}
 800070c:	f441 1180 	orr.w	r1, r1, #1048576	; 0x100000
 8000710:	f04f 0e00 	mov.w	lr, #0
 8000714:	3c01      	subs	r4, #1
 8000716:	f300 80ab 	bgt.w	8000870 <__aeabi_dmul+0x238>
 800071a:	f114 0f36 	cmn.w	r4, #54	; 0x36
 800071e:	bfde      	ittt	le
 8000720:	2000      	movle	r0, #0
 8000722:	f001 4100 	andle.w	r1, r1, #2147483648	; 0x80000000
 8000726:	bd70      	pople	{r4, r5, r6, pc}
 8000728:	f1c4 0400 	rsb	r4, r4, #0
 800072c:	3c20      	subs	r4, #32
 800072e:	da35      	bge.n	800079c <__aeabi_dmul+0x164>
 8000730:	340c      	adds	r4, #12
 8000732:	dc1b      	bgt.n	800076c <__aeabi_dmul+0x134>
 8000734:	f104 0414 	add.w	r4, r4, #20
 8000738:	f1c4 0520 	rsb	r5, r4, #32
 800073c:	fa00 f305 	lsl.w	r3, r0, r5
 8000740:	fa20 f004 	lsr.w	r0, r0, r4
 8000744:	fa01 f205 	lsl.w	r2, r1, r5
 8000748:	ea40 0002 	orr.w	r0, r0, r2
 800074c:	f001 4200 	and.w	r2, r1, #2147483648	; 0x80000000
 8000750:	f021 4100 	bic.w	r1, r1, #2147483648	; 0x80000000
 8000754:	eb10 70d3 	adds.w	r0, r0, r3, lsr #31
 8000758:	fa21 f604 	lsr.w	r6, r1, r4
 800075c:	eb42 0106 	adc.w	r1, r2, r6
 8000760:	ea5e 0e43 	orrs.w	lr, lr, r3, lsl #1
 8000764:	bf08      	it	eq
 8000766:	ea20 70d3 	biceq.w	r0, r0, r3, lsr #31
 800076a:	bd70      	pop	{r4, r5, r6, pc}
 800076c:	f1c4 040c 	rsb	r4, r4, #12
 8000770:	f1c4 0520 	rsb	r5, r4, #32
 8000774:	fa00 f304 	lsl.w	r3, r0, r4
 8000778:	fa20 f005 	lsr.w	r0, r0, r5
 800077c:	fa01 f204 	lsl.w	r2, r1, r4
 8000780:	ea40 0002 	orr.w	r0, r0, r2
 8000784:	f001 4100 	and.w	r1, r1, #2147483648	; 0x80000000
 8000788:	eb10 70d3 	adds.w	r0, r0, r3, lsr #31
 800078c:	f141 0100 	adc.w	r1, r1, #0
 8000790:	ea5e 0e43 	orrs.w	lr, lr, r3, lsl #1
 8000794:	bf08      	it	eq
 8000796:	ea20 70d3 	biceq.w	r0, r0, r3, lsr #31
 800079a:	bd70      	pop	{r4, r5, r6, pc}
 800079c:	f1c4 0520 	rsb	r5, r4, #32
 80007a0:	fa00 f205 	lsl.w	r2, r0, r5
 80007a4:	ea4e 0e02 	orr.w	lr, lr, r2
 80007a8:	fa20 f304 	lsr.w	r3, r0, r4
 80007ac:	fa01 f205 	lsl.w	r2, r1, r5
 80007b0:	ea43 0302 	orr.w	r3, r3, r2
 80007b4:	fa21 f004 	lsr.w	r0, r1, r4
 80007b8:	f001 4100 	and.w	r1, r1, #2147483648	; 0x80000000
 80007bc:	fa21 f204 	lsr.w	r2, r1, r4
 80007c0:	ea20 0002 	bic.w	r0, r0, r2
 80007c4:	eb00 70d3 	add.w	r0, r0, r3, lsr #31
 80007c8:	ea5e 0e43 	orrs.w	lr, lr, r3, lsl #1
 80007cc:	bf08      	it	eq
 80007ce:	ea20 70d3 	biceq.w	r0, r0, r3, lsr #31
 80007d2:	bd70      	pop	{r4, r5, r6, pc}
 80007d4:	f094 0f00 	teq	r4, #0
 80007d8:	d10f      	bne.n	80007fa <__aeabi_dmul+0x1c2>
 80007da:	f001 4600 	and.w	r6, r1, #2147483648	; 0x80000000
 80007de:	0040      	lsls	r0, r0, #1
 80007e0:	eb41 0101 	adc.w	r1, r1, r1
 80007e4:	f411 1f80 	tst.w	r1, #1048576	; 0x100000
 80007e8:	bf08      	it	eq
 80007ea:	3c01      	subeq	r4, #1
 80007ec:	d0f7      	beq.n	80007de <__aeabi_dmul+0x1a6>
 80007ee:	ea41 0106 	orr.w	r1, r1, r6
 80007f2:	f095 0f00 	teq	r5, #0
 80007f6:	bf18      	it	ne
 80007f8:	4770      	bxne	lr
 80007fa:	f003 4600 	and.w	r6, r3, #2147483648	; 0x80000000
 80007fe:	0052      	lsls	r2, r2, #1
 8000800:	eb43 0303 	adc.w	r3, r3, r3
 8000804:	f413 1f80 	tst.w	r3, #1048576	; 0x100000
 8000808:	bf08      	it	eq
 800080a:	3d01      	subeq	r5, #1
 800080c:	d0f7      	beq.n	80007fe <__aeabi_dmul+0x1c6>
 800080e:	ea43 0306 	orr.w	r3, r3, r6
 8000812:	4770      	bx	lr
 8000814:	ea94 0f0c 	teq	r4, ip
 8000818:	ea0c 5513 	and.w	r5, ip, r3, lsr #20
 800081c:	bf18      	it	ne
 800081e:	ea95 0f0c 	teqne	r5, ip
 8000822:	d00c      	beq.n	800083e <__aeabi_dmul+0x206>
 8000824:	ea50 0641 	orrs.w	r6, r0, r1, lsl #1
 8000828:	bf18      	it	ne
 800082a:	ea52 0643 	orrsne.w	r6, r2, r3, lsl #1
 800082e:	d1d1      	bne.n	80007d4 <__aeabi_dmul+0x19c>
 8000830:	ea81 0103 	eor.w	r1, r1, r3
 8000834:	f001 4100 	and.w	r1, r1, #2147483648	; 0x80000000
 8000838:	f04f 0000 	mov.w	r0, #0
 800083c:	bd70      	pop	{r4, r5, r6, pc}
 800083e:	ea50 0641 	orrs.w	r6, r0, r1, lsl #1
 8000842:	bf06      	itte	eq
 8000844:	4610      	moveq	r0, r2
 8000846:	4619      	moveq	r1, r3
 8000848:	ea52 0643 	orrsne.w	r6, r2, r3, lsl #1
 800084c:	d019      	beq.n	8000882 <__aeabi_dmul+0x24a>
 800084e:	ea94 0f0c 	teq	r4, ip
 8000852:	d102      	bne.n	800085a <__aeabi_dmul+0x222>
 8000854:	ea50 3601 	orrs.w	r6, r0, r1, lsl #12
 8000858:	d113      	bne.n	8000882 <__aeabi_dmul+0x24a>
 800085a:	ea95 0f0c 	teq	r5, ip
 800085e:	d105      	bne.n	800086c <__aeabi_dmul+0x234>
 8000860:	ea52 3603 	orrs.w	r6, r2, r3, lsl #12
 8000864:	bf1c      	itt	ne
 8000866:	4610      	movne	r0, r2
 8000868:	4619      	movne	r1, r3
 800086a:	d10a      	bne.n	8000882 <__aeabi_dmul+0x24a>
 800086c:	ea81 0103 	eor.w	r1, r1, r3
 8000870:	f001 4100 	and.w	r1, r1, #2147483648	; 0x80000000
 8000874:	f041 41fe 	orr.w	r1, r1, #2130706432	; 0x7f000000
 8000878:	f441 0170 	orr.w	r1, r1, #15728640	; 0xf00000
 800087c:	f04f 0000 	mov.w	r0, #0
 8000880:	bd70      	pop	{r4, r5, r6, pc}
 8000882:	f041 41fe 	orr.w	r1, r1, #2130706432	; 0x7f000000
 8000886:	f441 0178 	orr.w	r1, r1, #16252928	; 0xf80000
 800088a:	bd70      	pop	{r4, r5, r6, pc}

0800088c <__aeabi_ddiv>:
 800088c:	b570      	push	{r4, r5, r6, lr}
 800088e:	f04f 0cff 	mov.w	ip, #255	; 0xff
 8000892:	f44c 6ce0 	orr.w	ip, ip, #1792	; 0x700
 8000896:	ea1c 5411 	ands.w	r4, ip, r1, lsr #20
 800089a:	bf1d      	ittte	ne
 800089c:	ea1c 5513 	andsne.w	r5, ip, r3, lsr #20
 80008a0:	ea94 0f0c 	teqne	r4, ip
 80008a4:	ea95 0f0c 	teqne	r5, ip
 80008a8:	f000 f8a7 	bleq	80009fa <__aeabi_ddiv+0x16e>
 80008ac:	eba4 0405 	sub.w	r4, r4, r5
 80008b0:	ea81 0e03 	eor.w	lr, r1, r3
 80008b4:	ea52 3503 	orrs.w	r5, r2, r3, lsl #12
 80008b8:	ea4f 3101 	mov.w	r1, r1, lsl #12
 80008bc:	f000 8088 	beq.w	80009d0 <__aeabi_ddiv+0x144>
 80008c0:	ea4f 3303 	mov.w	r3, r3, lsl #12
 80008c4:	f04f 5580 	mov.w	r5, #268435456	; 0x10000000
 80008c8:	ea45 1313 	orr.w	r3, r5, r3, lsr #4
 80008cc:	ea43 6312 	orr.w	r3, r3, r2, lsr #24
 80008d0:	ea4f 2202 	mov.w	r2, r2, lsl #8
 80008d4:	ea45 1511 	orr.w	r5, r5, r1, lsr #4
 80008d8:	ea45 6510 	orr.w	r5, r5, r0, lsr #24
 80008dc:	ea4f 2600 	mov.w	r6, r0, lsl #8
 80008e0:	f00e 4100 	and.w	r1, lr, #2147483648	; 0x80000000
 80008e4:	429d      	cmp	r5, r3
 80008e6:	bf08      	it	eq
 80008e8:	4296      	cmpeq	r6, r2
 80008ea:	f144 04fd 	adc.w	r4, r4, #253	; 0xfd
 80008ee:	f504 7440 	add.w	r4, r4, #768	; 0x300
 80008f2:	d202      	bcs.n	80008fa <__aeabi_ddiv+0x6e>
 80008f4:	085b      	lsrs	r3, r3, #1
 80008f6:	ea4f 0232 	mov.w	r2, r2, rrx
 80008fa:	1ab6      	subs	r6, r6, r2
 80008fc:	eb65 0503 	sbc.w	r5, r5, r3
 8000900:	085b      	lsrs	r3, r3, #1
 8000902:	ea4f 0232 	mov.w	r2, r2, rrx
 8000906:	f44f 1080 	mov.w	r0, #1048576	; 0x100000
 800090a:	f44f 2c00 	mov.w	ip, #524288	; 0x80000
 800090e:	ebb6 0e02 	subs.w	lr, r6, r2
 8000912:	eb75 0e03 	sbcs.w	lr, r5, r3
 8000916:	bf22      	ittt	cs
 8000918:	1ab6      	subcs	r6, r6, r2
 800091a:	4675      	movcs	r5, lr
 800091c:	ea40 000c 	orrcs.w	r0, r0, ip
 8000920:	085b      	lsrs	r3, r3, #1
 8000922:	ea4f 0232 	mov.w	r2, r2, rrx
 8000926:	ebb6 0e02 	subs.w	lr, r6, r2
 800092a:	eb75 0e03 	sbcs.w	lr, r5, r3
 800092e:	bf22      	ittt	cs
 8000930:	1ab6      	subcs	r6, r6, r2
 8000932:	4675      	movcs	r5, lr
 8000934:	ea40 005c 	orrcs.w	r0, r0, ip, lsr #1
 8000938:	085b      	lsrs	r3, r3, #1
 800093a:	ea4f 0232 	mov.w	r2, r2, rrx
 800093e:	ebb6 0e02 	subs.w	lr, r6, r2
 8000942:	eb75 0e03 	sbcs.w	lr, r5, r3
 8000946:	bf22      	ittt	cs
 8000948:	1ab6      	subcs	r6, r6, r2
 800094a:	4675      	movcs	r5, lr
 800094c:	ea40 009c 	orrcs.w	r0, r0, ip, lsr #2
 8000950:	085b      	lsrs	r3, r3, #1
 8000952:	ea4f 0232 	mov.w	r2, r2, rrx
 8000956:	ebb6 0e02 	subs.w	lr, r6, r2
 800095a:	eb75 0e03 	sbcs.w	lr, r5, r3
 800095e:	bf22      	ittt	cs
 8000960:	1ab6      	subcs	r6, r6, r2
 8000962:	4675      	movcs	r5, lr
 8000964:	ea40 00dc 	orrcs.w	r0, r0, ip, lsr #3
 8000968:	ea55 0e06 	orrs.w	lr, r5, r6
 800096c:	d018      	beq.n	80009a0 <__aeabi_ddiv+0x114>
 800096e:	ea4f 1505 	mov.w	r5, r5, lsl #4
 8000972:	ea45 7516 	orr.w	r5, r5, r6, lsr #28
 8000976:	ea4f 1606 	mov.w	r6, r6, lsl #4
 800097a:	ea4f 03c3 	mov.w	r3, r3, lsl #3
 800097e:	ea43 7352 	orr.w	r3, r3, r2, lsr #29
 8000982:	ea4f 02c2 	mov.w	r2, r2, lsl #3
 8000986:	ea5f 1c1c 	movs.w	ip, ip, lsr #4
 800098a:	d1c0      	bne.n	800090e <__aeabi_ddiv+0x82>
 800098c:	f411 1f80 	tst.w	r1, #1048576	; 0x100000
 8000990:	d10b      	bne.n	80009aa <__aeabi_ddiv+0x11e>
 8000992:	ea41 0100 	orr.w	r1, r1, r0
 8000996:	f04f 0000 	mov.w	r0, #0
 800099a:	f04f 4c00 	mov.w	ip, #2147483648	; 0x80000000
 800099e:	e7b6      	b.n	800090e <__aeabi_ddiv+0x82>
 80009a0:	f411 1f80 	tst.w	r1, #1048576	; 0x100000
 80009a4:	bf04      	itt	eq
 80009a6:	4301      	orreq	r1, r0
 80009a8:	2000      	moveq	r0, #0
 80009aa:	f1b4 0cfd 	subs.w	ip, r4, #253	; 0xfd
 80009ae:	bf88      	it	hi
 80009b0:	f5bc 6fe0 	cmphi.w	ip, #1792	; 0x700
 80009b4:	f63f aeaf 	bhi.w	8000716 <__aeabi_dmul+0xde>
 80009b8:	ebb5 0c03 	subs.w	ip, r5, r3
 80009bc:	bf04      	itt	eq
 80009be:	ebb6 0c02 	subseq.w	ip, r6, r2
 80009c2:	ea5f 0c50 	movseq.w	ip, r0, lsr #1
 80009c6:	f150 0000 	adcs.w	r0, r0, #0
 80009ca:	eb41 5104 	adc.w	r1, r1, r4, lsl #20
 80009ce:	bd70      	pop	{r4, r5, r6, pc}
 80009d0:	f00e 4e00 	and.w	lr, lr, #2147483648	; 0x80000000
 80009d4:	ea4e 3111 	orr.w	r1, lr, r1, lsr #12
 80009d8:	eb14 045c 	adds.w	r4, r4, ip, lsr #1
 80009dc:	bfc2      	ittt	gt
 80009de:	ebd4 050c 	rsbsgt	r5, r4, ip
 80009e2:	ea41 5104 	orrgt.w	r1, r1, r4, lsl #20
 80009e6:	bd70      	popgt	{r4, r5, r6, pc}
 80009e8:	f441 1180 	orr.w	r1, r1, #1048576	; 0x100000
 80009ec:	f04f 0e00 	mov.w	lr, #0
 80009f0:	3c01      	subs	r4, #1
 80009f2:	e690      	b.n	8000716 <__aeabi_dmul+0xde>
 80009f4:	ea45 0e06 	orr.w	lr, r5, r6
 80009f8:	e68d      	b.n	8000716 <__aeabi_dmul+0xde>
 80009fa:	ea0c 5513 	and.w	r5, ip, r3, lsr #20
 80009fe:	ea94 0f0c 	teq	r4, ip
 8000a02:	bf08      	it	eq
 8000a04:	ea95 0f0c 	teqeq	r5, ip
 8000a08:	f43f af3b 	beq.w	8000882 <__aeabi_dmul+0x24a>
 8000a0c:	ea94 0f0c 	teq	r4, ip
 8000a10:	d10a      	bne.n	8000a28 <__aeabi_ddiv+0x19c>
 8000a12:	ea50 3401 	orrs.w	r4, r0, r1, lsl #12
 8000a16:	f47f af34 	bne.w	8000882 <__aeabi_dmul+0x24a>
 8000a1a:	ea95 0f0c 	teq	r5, ip
 8000a1e:	f47f af25 	bne.w	800086c <__aeabi_dmul+0x234>
 8000a22:	4610      	mov	r0, r2
 8000a24:	4619      	mov	r1, r3
 8000a26:	e72c      	b.n	8000882 <__aeabi_dmul+0x24a>
 8000a28:	ea95 0f0c 	teq	r5, ip
 8000a2c:	d106      	bne.n	8000a3c <__aeabi_ddiv+0x1b0>
 8000a2e:	ea52 3503 	orrs.w	r5, r2, r3, lsl #12
 8000a32:	f43f aefd 	beq.w	8000830 <__aeabi_dmul+0x1f8>
 8000a36:	4610      	mov	r0, r2
 8000a38:	4619      	mov	r1, r3
 8000a3a:	e722      	b.n	8000882 <__aeabi_dmul+0x24a>
 8000a3c:	ea50 0641 	orrs.w	r6, r0, r1, lsl #1
 8000a40:	bf18      	it	ne
 8000a42:	ea52 0643 	orrsne.w	r6, r2, r3, lsl #1
 8000a46:	f47f aec5 	bne.w	80007d4 <__aeabi_dmul+0x19c>
 8000a4a:	ea50 0441 	orrs.w	r4, r0, r1, lsl #1
 8000a4e:	f47f af0d 	bne.w	800086c <__aeabi_dmul+0x234>
 8000a52:	ea52 0543 	orrs.w	r5, r2, r3, lsl #1
 8000a56:	f47f aeeb 	bne.w	8000830 <__aeabi_dmul+0x1f8>
 8000a5a:	e712      	b.n	8000882 <__aeabi_dmul+0x24a>

08000a5c <__gedf2>:
 8000a5c:	f04f 3cff 	mov.w	ip, #4294967295	; 0xffffffff
 8000a60:	e006      	b.n	8000a70 <__cmpdf2+0x4>
 8000a62:	bf00      	nop

08000a64 <__ledf2>:
 8000a64:	f04f 0c01 	mov.w	ip, #1
 8000a68:	e002      	b.n	8000a70 <__cmpdf2+0x4>
 8000a6a:	bf00      	nop

08000a6c <__cmpdf2>:
 8000a6c:	f04f 0c01 	mov.w	ip, #1
 8000a70:	f84d cd04 	str.w	ip, [sp, #-4]!
 8000a74:	ea4f 0c41 	mov.w	ip, r1, lsl #1
 8000a78:	ea7f 5c6c 	mvns.w	ip, ip, asr #21
 8000a7c:	ea4f 0c43 	mov.w	ip, r3, lsl #1
 8000a80:	bf18      	it	ne
 8000a82:	ea7f 5c6c 	mvnsne.w	ip, ip, asr #21
 8000a86:	d01b      	beq.n	8000ac0 <__cmpdf2+0x54>
 8000a88:	b001      	add	sp, #4
 8000a8a:	ea50 0c41 	orrs.w	ip, r0, r1, lsl #1
 8000a8e:	bf0c      	ite	eq
 8000a90:	ea52 0c43 	orrseq.w	ip, r2, r3, lsl #1
 8000a94:	ea91 0f03 	teqne	r1, r3
 8000a98:	bf02      	ittt	eq
 8000a9a:	ea90 0f02 	teqeq	r0, r2
 8000a9e:	2000      	moveq	r0, #0
 8000aa0:	4770      	bxeq	lr
 8000aa2:	f110 0f00 	cmn.w	r0, #0
 8000aa6:	ea91 0f03 	teq	r1, r3
 8000aaa:	bf58      	it	pl
 8000aac:	4299      	cmppl	r1, r3
 8000aae:	bf08      	it	eq
 8000ab0:	4290      	cmpeq	r0, r2
 8000ab2:	bf2c      	ite	cs
 8000ab4:	17d8      	asrcs	r0, r3, #31
 8000ab6:	ea6f 70e3 	mvncc.w	r0, r3, asr #31
 8000aba:	f040 0001 	orr.w	r0, r0, #1
 8000abe:	4770      	bx	lr
 8000ac0:	ea4f 0c41 	mov.w	ip, r1, lsl #1
 8000ac4:	ea7f 5c6c 	mvns.w	ip, ip, asr #21
 8000ac8:	d102      	bne.n	8000ad0 <__cmpdf2+0x64>
 8000aca:	ea50 3c01 	orrs.w	ip, r0, r1, lsl #12
 8000ace:	d107      	bne.n	8000ae0 <__cmpdf2+0x74>
 8000ad0:	ea4f 0c43 	mov.w	ip, r3, lsl #1
 8000ad4:	ea7f 5c6c 	mvns.w	ip, ip, asr #21
 8000ad8:	d1d6      	bne.n	8000a88 <__cmpdf2+0x1c>
 8000ada:	ea52 3c03 	orrs.w	ip, r2, r3, lsl #12
 8000ade:	d0d3      	beq.n	8000a88 <__cmpdf2+0x1c>
 8000ae0:	f85d 0b04 	ldr.w	r0, [sp], #4
 8000ae4:	4770      	bx	lr
 8000ae6:	bf00      	nop

08000ae8 <__aeabi_cdrcmple>:
 8000ae8:	4684      	mov	ip, r0
 8000aea:	4610      	mov	r0, r2
 8000aec:	4662      	mov	r2, ip
 8000aee:	468c      	mov	ip, r1
 8000af0:	4619      	mov	r1, r3
 8000af2:	4663      	mov	r3, ip
 8000af4:	e000      	b.n	8000af8 <__aeabi_cdcmpeq>
 8000af6:	bf00      	nop

08000af8 <__aeabi_cdcmpeq>:
 8000af8:	b501      	push	{r0, lr}
 8000afa:	f7ff ffb7 	bl	8000a6c <__cmpdf2>
 8000afe:	2800      	cmp	r0, #0
 8000b00:	bf48      	it	mi
 8000b02:	f110 0f00 	cmnmi.w	r0, #0
 8000b06:	bd01      	pop	{r0, pc}

08000b08 <__aeabi_dcmpeq>:
 8000b08:	f84d ed08 	str.w	lr, [sp, #-8]!
 8000b0c:	f7ff fff4 	bl	8000af8 <__aeabi_cdcmpeq>
 8000b10:	bf0c      	ite	eq
 8000b12:	2001      	moveq	r0, #1
 8000b14:	2000      	movne	r0, #0
 8000b16:	f85d fb08 	ldr.w	pc, [sp], #8
 8000b1a:	bf00      	nop

08000b1c <__aeabi_dcmplt>:
 8000b1c:	f84d ed08 	str.w	lr, [sp, #-8]!
 8000b20:	f7ff ffea 	bl	8000af8 <__aeabi_cdcmpeq>
 8000b24:	bf34      	ite	cc
 8000b26:	2001      	movcc	r0, #1
 8000b28:	2000      	movcs	r0, #0
 8000b2a:	f85d fb08 	ldr.w	pc, [sp], #8
 8000b2e:	bf00      	nop

08000b30 <__aeabi_dcmple>:
 8000b30:	f84d ed08 	str.w	lr, [sp, #-8]!
 8000b34:	f7ff ffe0 	bl	8000af8 <__aeabi_cdcmpeq>
 8000b38:	bf94      	ite	ls
 8000b3a:	2001      	movls	r0, #1
 8000b3c:	2000      	movhi	r0, #0
 8000b3e:	f85d fb08 	ldr.w	pc, [sp], #8
 8000b42:	bf00      	nop

08000b44 <__aeabi_dcmpge>:
 8000b44:	f84d ed08 	str.w	lr, [sp, #-8]!
 8000b48:	f7ff ffce 	bl	8000ae8 <__aeabi_cdrcmple>
 8000b4c:	bf94      	ite	ls
 8000b4e:	2001      	movls	r0, #1
 8000b50:	2000      	movhi	r0, #0
 8000b52:	f85d fb08 	ldr.w	pc, [sp], #8
 8000b56:	bf00      	nop

08000b58 <__aeabi_dcmpgt>:
 8000b58:	f84d ed08 	str.w	lr, [sp, #-8]!
 8000b5c:	f7ff ffc4 	bl	8000ae8 <__aeabi_cdrcmple>
 8000b60:	bf34      	ite	cc
 8000b62:	2001      	movcc	r0, #1
 8000b64:	2000      	movcs	r0, #0
 8000b66:	f85d fb08 	ldr.w	pc, [sp], #8
 8000b6a:	bf00      	nop

08000b6c <__aeabi_dcmpun>:
 8000b6c:	ea4f 0c41 	mov.w	ip, r1, lsl #1
 8000b70:	ea7f 5c6c 	mvns.w	ip, ip, asr #21
 8000b74:	d102      	bne.n	8000b7c <__aeabi_dcmpun+0x10>
 8000b76:	ea50 3c01 	orrs.w	ip, r0, r1, lsl #12
 8000b7a:	d10a      	bne.n	8000b92 <__aeabi_dcmpun+0x26>
 8000b7c:	ea4f 0c43 	mov.w	ip, r3, lsl #1
 8000b80:	ea7f 5c6c 	mvns.w	ip, ip, asr #21
 8000b84:	d102      	bne.n	8000b8c <__aeabi_dcmpun+0x20>
 8000b86:	ea52 3c03 	orrs.w	ip, r2, r3, lsl #12
 8000b8a:	d102      	bne.n	8000b92 <__aeabi_dcmpun+0x26>
 8000b8c:	f04f 0000 	mov.w	r0, #0
 8000b90:	4770      	bx	lr
 8000b92:	f04f 0001 	mov.w	r0, #1
 8000b96:	4770      	bx	lr

08000b98 <__aeabi_d2iz>:
 8000b98:	ea4f 0241 	mov.w	r2, r1, lsl #1
 8000b9c:	f512 1200 	adds.w	r2, r2, #2097152	; 0x200000
 8000ba0:	d215      	bcs.n	8000bce <__aeabi_d2iz+0x36>
 8000ba2:	d511      	bpl.n	8000bc8 <__aeabi_d2iz+0x30>
 8000ba4:	f46f 7378 	mvn.w	r3, #992	; 0x3e0
 8000ba8:	ebb3 5262 	subs.w	r2, r3, r2, asr #21
 8000bac:	d912      	bls.n	8000bd4 <__aeabi_d2iz+0x3c>
 8000bae:	ea4f 23c1 	mov.w	r3, r1, lsl #11
 8000bb2:	f043 4300 	orr.w	r3, r3, #2147483648	; 0x80000000
 8000bb6:	ea43 5350 	orr.w	r3, r3, r0, lsr #21
 8000bba:	f011 4f00 	tst.w	r1, #2147483648	; 0x80000000
 8000bbe:	fa23 f002 	lsr.w	r0, r3, r2
 8000bc2:	bf18      	it	ne
 8000bc4:	4240      	negne	r0, r0
 8000bc6:	4770      	bx	lr
 8000bc8:	f04f 0000 	mov.w	r0, #0
 8000bcc:	4770      	bx	lr
 8000bce:	ea50 3001 	orrs.w	r0, r0, r1, lsl #12
 8000bd2:	d105      	bne.n	8000be0 <__aeabi_d2iz+0x48>
 8000bd4:	f011 4000 	ands.w	r0, r1, #2147483648	; 0x80000000
 8000bd8:	bf08      	it	eq
 8000bda:	f06f 4000 	mvneq.w	r0, #2147483648	; 0x80000000
 8000bde:	4770      	bx	lr
 8000be0:	f04f 0000 	mov.w	r0, #0
 8000be4:	4770      	bx	lr
 8000be6:	bf00      	nop

08000be8 <__aeabi_uldivmod>:
 8000be8:	b953      	cbnz	r3, 8000c00 <__aeabi_uldivmod+0x18>
 8000bea:	b94a      	cbnz	r2, 8000c00 <__aeabi_uldivmod+0x18>
 8000bec:	2900      	cmp	r1, #0
 8000bee:	bf08      	it	eq
 8000bf0:	2800      	cmpeq	r0, #0
 8000bf2:	bf1c      	itt	ne
 8000bf4:	f04f 31ff 	movne.w	r1, #4294967295	; 0xffffffff
 8000bf8:	f04f 30ff 	movne.w	r0, #4294967295	; 0xffffffff
 8000bfc:	f000 b972 	b.w	8000ee4 <__aeabi_idiv0>
 8000c00:	f1ad 0c08 	sub.w	ip, sp, #8
 8000c04:	e96d ce04 	strd	ip, lr, [sp, #-16]!
 8000c08:	f000 f806 	bl	8000c18 <__udivmoddi4>
 8000c0c:	f8dd e004 	ldr.w	lr, [sp, #4]
 8000c10:	e9dd 2302 	ldrd	r2, r3, [sp, #8]
 8000c14:	b004      	add	sp, #16
 8000c16:	4770      	bx	lr

08000c18 <__udivmoddi4>:
 8000c18:	e92d 47f0 	stmdb	sp!, {r4, r5, r6, r7, r8, r9, sl, lr}
 8000c1c:	9e08      	ldr	r6, [sp, #32]
 8000c1e:	4604      	mov	r4, r0
 8000c20:	4688      	mov	r8, r1
 8000c22:	2b00      	cmp	r3, #0
 8000c24:	d14b      	bne.n	8000cbe <__udivmoddi4+0xa6>
 8000c26:	428a      	cmp	r2, r1
 8000c28:	4615      	mov	r5, r2
 8000c2a:	d967      	bls.n	8000cfc <__udivmoddi4+0xe4>
 8000c2c:	fab2 f282 	clz	r2, r2
 8000c30:	b14a      	cbz	r2, 8000c46 <__udivmoddi4+0x2e>
 8000c32:	f1c2 0720 	rsb	r7, r2, #32
 8000c36:	fa01 f302 	lsl.w	r3, r1, r2
 8000c3a:	fa20 f707 	lsr.w	r7, r0, r7
 8000c3e:	4095      	lsls	r5, r2
 8000c40:	ea47 0803 	orr.w	r8, r7, r3
 8000c44:	4094      	lsls	r4, r2
 8000c46:	ea4f 4e15 	mov.w	lr, r5, lsr #16
 8000c4a:	0c23      	lsrs	r3, r4, #16
 8000c4c:	fbb8 f7fe 	udiv	r7, r8, lr
 8000c50:	fa1f fc85 	uxth.w	ip, r5
 8000c54:	fb0e 8817 	mls	r8, lr, r7, r8
 8000c58:	ea43 4308 	orr.w	r3, r3, r8, lsl #16
 8000c5c:	fb07 f10c 	mul.w	r1, r7, ip
 8000c60:	4299      	cmp	r1, r3
 8000c62:	d909      	bls.n	8000c78 <__udivmoddi4+0x60>
 8000c64:	18eb      	adds	r3, r5, r3
 8000c66:	f107 30ff 	add.w	r0, r7, #4294967295	; 0xffffffff
 8000c6a:	f080 811b 	bcs.w	8000ea4 <__udivmoddi4+0x28c>
 8000c6e:	4299      	cmp	r1, r3
 8000c70:	f240 8118 	bls.w	8000ea4 <__udivmoddi4+0x28c>
 8000c74:	3f02      	subs	r7, #2
 8000c76:	442b      	add	r3, r5
 8000c78:	1a5b      	subs	r3, r3, r1
 8000c7a:	b2a4      	uxth	r4, r4
 8000c7c:	fbb3 f0fe 	udiv	r0, r3, lr
 8000c80:	fb0e 3310 	mls	r3, lr, r0, r3
 8000c84:	ea44 4403 	orr.w	r4, r4, r3, lsl #16
 8000c88:	fb00 fc0c 	mul.w	ip, r0, ip
 8000c8c:	45a4      	cmp	ip, r4
 8000c8e:	d909      	bls.n	8000ca4 <__udivmoddi4+0x8c>
 8000c90:	192c      	adds	r4, r5, r4
 8000c92:	f100 33ff 	add.w	r3, r0, #4294967295	; 0xffffffff
 8000c96:	f080 8107 	bcs.w	8000ea8 <__udivmoddi4+0x290>
 8000c9a:	45a4      	cmp	ip, r4
 8000c9c:	f240 8104 	bls.w	8000ea8 <__udivmoddi4+0x290>
 8000ca0:	3802      	subs	r0, #2
 8000ca2:	442c      	add	r4, r5
 8000ca4:	ea40 4007 	orr.w	r0, r0, r7, lsl #16
 8000ca8:	eba4 040c 	sub.w	r4, r4, ip
 8000cac:	2700      	movs	r7, #0
 8000cae:	b11e      	cbz	r6, 8000cb8 <__udivmoddi4+0xa0>
 8000cb0:	40d4      	lsrs	r4, r2
 8000cb2:	2300      	movs	r3, #0
 8000cb4:	e9c6 4300 	strd	r4, r3, [r6]
 8000cb8:	4639      	mov	r1, r7
 8000cba:	e8bd 87f0 	ldmia.w	sp!, {r4, r5, r6, r7, r8, r9, sl, pc}
 8000cbe:	428b      	cmp	r3, r1
 8000cc0:	d909      	bls.n	8000cd6 <__udivmoddi4+0xbe>
 8000cc2:	2e00      	cmp	r6, #0
 8000cc4:	f000 80eb 	beq.w	8000e9e <__udivmoddi4+0x286>
 8000cc8:	2700      	movs	r7, #0
 8000cca:	e9c6 0100 	strd	r0, r1, [r6]
 8000cce:	4638      	mov	r0, r7
 8000cd0:	4639      	mov	r1, r7
 8000cd2:	e8bd 87f0 	ldmia.w	sp!, {r4, r5, r6, r7, r8, r9, sl, pc}
 8000cd6:	fab3 f783 	clz	r7, r3
 8000cda:	2f00      	cmp	r7, #0
 8000cdc:	d147      	bne.n	8000d6e <__udivmoddi4+0x156>
 8000cde:	428b      	cmp	r3, r1
 8000ce0:	d302      	bcc.n	8000ce8 <__udivmoddi4+0xd0>
 8000ce2:	4282      	cmp	r2, r0
 8000ce4:	f200 80fa 	bhi.w	8000edc <__udivmoddi4+0x2c4>
 8000ce8:	1a84      	subs	r4, r0, r2
 8000cea:	eb61 0303 	sbc.w	r3, r1, r3
 8000cee:	2001      	movs	r0, #1
 8000cf0:	4698      	mov	r8, r3
 8000cf2:	2e00      	cmp	r6, #0
 8000cf4:	d0e0      	beq.n	8000cb8 <__udivmoddi4+0xa0>
 8000cf6:	e9c6 4800 	strd	r4, r8, [r6]
 8000cfa:	e7dd      	b.n	8000cb8 <__udivmoddi4+0xa0>
 8000cfc:	b902      	cbnz	r2, 8000d00 <__udivmoddi4+0xe8>
 8000cfe:	deff      	udf	#255	; 0xff
 8000d00:	fab2 f282 	clz	r2, r2
 8000d04:	2a00      	cmp	r2, #0
 8000d06:	f040 808f 	bne.w	8000e28 <__udivmoddi4+0x210>
 8000d0a:	1b49      	subs	r1, r1, r5
 8000d0c:	ea4f 4e15 	mov.w	lr, r5, lsr #16
 8000d10:	fa1f f885 	uxth.w	r8, r5
 8000d14:	2701      	movs	r7, #1
 8000d16:	fbb1 fcfe 	udiv	ip, r1, lr
 8000d1a:	0c23      	lsrs	r3, r4, #16
 8000d1c:	fb0e 111c 	mls	r1, lr, ip, r1
 8000d20:	ea43 4301 	orr.w	r3, r3, r1, lsl #16
 8000d24:	fb08 f10c 	mul.w	r1, r8, ip
 8000d28:	4299      	cmp	r1, r3
 8000d2a:	d907      	bls.n	8000d3c <__udivmoddi4+0x124>
 8000d2c:	18eb      	adds	r3, r5, r3
 8000d2e:	f10c 30ff 	add.w	r0, ip, #4294967295	; 0xffffffff
 8000d32:	d202      	bcs.n	8000d3a <__udivmoddi4+0x122>
 8000d34:	4299      	cmp	r1, r3
 8000d36:	f200 80cd 	bhi.w	8000ed4 <__udivmoddi4+0x2bc>
 8000d3a:	4684      	mov	ip, r0
 8000d3c:	1a59      	subs	r1, r3, r1
 8000d3e:	b2a3      	uxth	r3, r4
 8000d40:	fbb1 f0fe 	udiv	r0, r1, lr
 8000d44:	fb0e 1410 	mls	r4, lr, r0, r1
 8000d48:	ea43 4404 	orr.w	r4, r3, r4, lsl #16
 8000d4c:	fb08 f800 	mul.w	r8, r8, r0
 8000d50:	45a0      	cmp	r8, r4
 8000d52:	d907      	bls.n	8000d64 <__udivmoddi4+0x14c>
 8000d54:	192c      	adds	r4, r5, r4
 8000d56:	f100 33ff 	add.w	r3, r0, #4294967295	; 0xffffffff
 8000d5a:	d202      	bcs.n	8000d62 <__udivmoddi4+0x14a>
 8000d5c:	45a0      	cmp	r8, r4
 8000d5e:	f200 80b6 	bhi.w	8000ece <__udivmoddi4+0x2b6>
 8000d62:	4618      	mov	r0, r3
 8000d64:	eba4 0408 	sub.w	r4, r4, r8
 8000d68:	ea40 400c 	orr.w	r0, r0, ip, lsl #16
 8000d6c:	e79f      	b.n	8000cae <__udivmoddi4+0x96>
 8000d6e:	f1c7 0c20 	rsb	ip, r7, #32
 8000d72:	40bb      	lsls	r3, r7
 8000d74:	fa22 fe0c 	lsr.w	lr, r2, ip
 8000d78:	ea4e 0e03 	orr.w	lr, lr, r3
 8000d7c:	fa01 f407 	lsl.w	r4, r1, r7
 8000d80:	fa20 f50c 	lsr.w	r5, r0, ip
 8000d84:	fa21 f30c 	lsr.w	r3, r1, ip
 8000d88:	ea4f 481e 	mov.w	r8, lr, lsr #16
 8000d8c:	4325      	orrs	r5, r4
 8000d8e:	fbb3 f9f8 	udiv	r9, r3, r8
 8000d92:	0c2c      	lsrs	r4, r5, #16
 8000d94:	fb08 3319 	mls	r3, r8, r9, r3
 8000d98:	fa1f fa8e 	uxth.w	sl, lr
 8000d9c:	ea44 4303 	orr.w	r3, r4, r3, lsl #16
 8000da0:	fb09 f40a 	mul.w	r4, r9, sl
 8000da4:	429c      	cmp	r4, r3
 8000da6:	fa02 f207 	lsl.w	r2, r2, r7
 8000daa:	fa00 f107 	lsl.w	r1, r0, r7
 8000dae:	d90b      	bls.n	8000dc8 <__udivmoddi4+0x1b0>
 8000db0:	eb1e 0303 	adds.w	r3, lr, r3
 8000db4:	f109 30ff 	add.w	r0, r9, #4294967295	; 0xffffffff
 8000db8:	f080 8087 	bcs.w	8000eca <__udivmoddi4+0x2b2>
 8000dbc:	429c      	cmp	r4, r3
 8000dbe:	f240 8084 	bls.w	8000eca <__udivmoddi4+0x2b2>
 8000dc2:	f1a9 0902 	sub.w	r9, r9, #2
 8000dc6:	4473      	add	r3, lr
 8000dc8:	1b1b      	subs	r3, r3, r4
 8000dca:	b2ad      	uxth	r5, r5
 8000dcc:	fbb3 f0f8 	udiv	r0, r3, r8
 8000dd0:	fb08 3310 	mls	r3, r8, r0, r3
 8000dd4:	ea45 4403 	orr.w	r4, r5, r3, lsl #16
 8000dd8:	fb00 fa0a 	mul.w	sl, r0, sl
 8000ddc:	45a2      	cmp	sl, r4
 8000dde:	d908      	bls.n	8000df2 <__udivmoddi4+0x1da>
 8000de0:	eb1e 0404 	adds.w	r4, lr, r4
 8000de4:	f100 33ff 	add.w	r3, r0, #4294967295	; 0xffffffff
 8000de8:	d26b      	bcs.n	8000ec2 <__udivmoddi4+0x2aa>
 8000dea:	45a2      	cmp	sl, r4
 8000dec:	d969      	bls.n	8000ec2 <__udivmoddi4+0x2aa>
 8000dee:	3802      	subs	r0, #2
 8000df0:	4474      	add	r4, lr
 8000df2:	ea40 4009 	orr.w	r0, r0, r9, lsl #16
 8000df6:	fba0 8902 	umull	r8, r9, r0, r2
 8000dfa:	eba4 040a 	sub.w	r4, r4, sl
 8000dfe:	454c      	cmp	r4, r9
 8000e00:	46c2      	mov	sl, r8
 8000e02:	464b      	mov	r3, r9
 8000e04:	d354      	bcc.n	8000eb0 <__udivmoddi4+0x298>
 8000e06:	d051      	beq.n	8000eac <__udivmoddi4+0x294>
 8000e08:	2e00      	cmp	r6, #0
 8000e0a:	d069      	beq.n	8000ee0 <__udivmoddi4+0x2c8>
 8000e0c:	ebb1 050a 	subs.w	r5, r1, sl
 8000e10:	eb64 0403 	sbc.w	r4, r4, r3
 8000e14:	fa04 fc0c 	lsl.w	ip, r4, ip
 8000e18:	40fd      	lsrs	r5, r7
 8000e1a:	40fc      	lsrs	r4, r7
 8000e1c:	ea4c 0505 	orr.w	r5, ip, r5
 8000e20:	e9c6 5400 	strd	r5, r4, [r6]
 8000e24:	2700      	movs	r7, #0
 8000e26:	e747      	b.n	8000cb8 <__udivmoddi4+0xa0>
 8000e28:	f1c2 0320 	rsb	r3, r2, #32
 8000e2c:	fa20 f703 	lsr.w	r7, r0, r3
 8000e30:	4095      	lsls	r5, r2
 8000e32:	fa01 f002 	lsl.w	r0, r1, r2
 8000e36:	fa21 f303 	lsr.w	r3, r1, r3
 8000e3a:	ea4f 4e15 	mov.w	lr, r5, lsr #16
 8000e3e:	4338      	orrs	r0, r7
 8000e40:	0c01      	lsrs	r1, r0, #16
 8000e42:	fbb3 f7fe 	udiv	r7, r3, lr
 8000e46:	fa1f f885 	uxth.w	r8, r5
 8000e4a:	fb0e 3317 	mls	r3, lr, r7, r3
 8000e4e:	ea41 4103 	orr.w	r1, r1, r3, lsl #16
 8000e52:	fb07 f308 	mul.w	r3, r7, r8
 8000e56:	428b      	cmp	r3, r1
 8000e58:	fa04 f402 	lsl.w	r4, r4, r2
 8000e5c:	d907      	bls.n	8000e6e <__udivmoddi4+0x256>
 8000e5e:	1869      	adds	r1, r5, r1
 8000e60:	f107 3cff 	add.w	ip, r7, #4294967295	; 0xffffffff
 8000e64:	d22f      	bcs.n	8000ec6 <__udivmoddi4+0x2ae>
 8000e66:	428b      	cmp	r3, r1
 8000e68:	d92d      	bls.n	8000ec6 <__udivmoddi4+0x2ae>
 8000e6a:	3f02      	subs	r7, #2
 8000e6c:	4429      	add	r1, r5
 8000e6e:	1acb      	subs	r3, r1, r3
 8000e70:	b281      	uxth	r1, r0
 8000e72:	fbb3 f0fe 	udiv	r0, r3, lr
 8000e76:	fb0e 3310 	mls	r3, lr, r0, r3
 8000e7a:	ea41 4103 	orr.w	r1, r1, r3, lsl #16
 8000e7e:	fb00 f308 	mul.w	r3, r0, r8
 8000e82:	428b      	cmp	r3, r1
 8000e84:	d907      	bls.n	8000e96 <__udivmoddi4+0x27e>
 8000e86:	1869      	adds	r1, r5, r1
 8000e88:	f100 3cff 	add.w	ip, r0, #4294967295	; 0xffffffff
 8000e8c:	d217      	bcs.n	8000ebe <__udivmoddi4+0x2a6>
 8000e8e:	428b      	cmp	r3, r1
 8000e90:	d915      	bls.n	8000ebe <__udivmoddi4+0x2a6>
 8000e92:	3802      	subs	r0, #2
 8000e94:	4429      	add	r1, r5
 8000e96:	1ac9      	subs	r1, r1, r3
 8000e98:	ea40 4707 	orr.w	r7, r0, r7, lsl #16
 8000e9c:	e73b      	b.n	8000d16 <__udivmoddi4+0xfe>
 8000e9e:	4637      	mov	r7, r6
 8000ea0:	4630      	mov	r0, r6
 8000ea2:	e709      	b.n	8000cb8 <__udivmoddi4+0xa0>
 8000ea4:	4607      	mov	r7, r0
 8000ea6:	e6e7      	b.n	8000c78 <__udivmoddi4+0x60>
 8000ea8:	4618      	mov	r0, r3
 8000eaa:	e6fb      	b.n	8000ca4 <__udivmoddi4+0x8c>
 8000eac:	4541      	cmp	r1, r8
 8000eae:	d2ab      	bcs.n	8000e08 <__udivmoddi4+0x1f0>
 8000eb0:	ebb8 0a02 	subs.w	sl, r8, r2
 8000eb4:	eb69 020e 	sbc.w	r2, r9, lr
 8000eb8:	3801      	subs	r0, #1
 8000eba:	4613      	mov	r3, r2
 8000ebc:	e7a4      	b.n	8000e08 <__udivmoddi4+0x1f0>
 8000ebe:	4660      	mov	r0, ip
 8000ec0:	e7e9      	b.n	8000e96 <__udivmoddi4+0x27e>
 8000ec2:	4618      	mov	r0, r3
 8000ec4:	e795      	b.n	8000df2 <__udivmoddi4+0x1da>
 8000ec6:	4667      	mov	r7, ip
 8000ec8:	e7d1      	b.n	8000e6e <__udivmoddi4+0x256>
 8000eca:	4681      	mov	r9, r0
 8000ecc:	e77c      	b.n	8000dc8 <__udivmoddi4+0x1b0>
 8000ece:	3802      	subs	r0, #2
 8000ed0:	442c      	add	r4, r5
 8000ed2:	e747      	b.n	8000d64 <__udivmoddi4+0x14c>
 8000ed4:	f1ac 0c02 	sub.w	ip, ip, #2
 8000ed8:	442b      	add	r3, r5
 8000eda:	e72f      	b.n	8000d3c <__udivmoddi4+0x124>
 8000edc:	4638      	mov	r0, r7
 8000ede:	e708      	b.n	8000cf2 <__udivmoddi4+0xda>
 8000ee0:	4637      	mov	r7, r6
 8000ee2:	e6e9      	b.n	8000cb8 <__udivmoddi4+0xa0>

08000ee4 <__aeabi_idiv0>:
 8000ee4:	4770      	bx	lr
 8000ee6:	bf00      	nop

08000ee8 <HAL_InitTick>:
 8000ee8:	4a0e      	ldr	r2, [pc, #56]	; (8000f24 <HAL_InitTick+0x3c>)
 8000eea:	f44f 737a 	mov.w	r3, #1000	; 0x3e8
 8000eee:	490e      	ldr	r1, [pc, #56]	; (8000f28 <HAL_InitTick+0x40>)
 8000ef0:	7812      	ldrb	r2, [r2, #0]
 8000ef2:	fbb3 f3f2 	udiv	r3, r3, r2
 8000ef6:	b510      	push	{r4, lr}
 8000ef8:	4604      	mov	r4, r0
 8000efa:	6808      	ldr	r0, [r1, #0]
 8000efc:	fbb0 f0f3 	udiv	r0, r0, r3
 8000f00:	f000 f88c 	bl	800101c <HAL_SYSTICK_Config>
 8000f04:	b908      	cbnz	r0, 8000f0a <HAL_InitTick+0x22>
 8000f06:	2c0f      	cmp	r4, #15
 8000f08:	d901      	bls.n	8000f0e <HAL_InitTick+0x26>
 8000f0a:	2001      	movs	r0, #1
 8000f0c:	bd10      	pop	{r4, pc}
 8000f0e:	2200      	movs	r2, #0
 8000f10:	4621      	mov	r1, r4
 8000f12:	f04f 30ff 	mov.w	r0, #4294967295	; 0xffffffff
 8000f16:	f000 f83d 	bl	8000f94 <HAL_NVIC_SetPriority>
 8000f1a:	4b04      	ldr	r3, [pc, #16]	; (8000f2c <HAL_InitTick+0x44>)
 8000f1c:	2000      	movs	r0, #0
 8000f1e:	601c      	str	r4, [r3, #0]
 8000f20:	bd10      	pop	{r4, pc}
 8000f22:	bf00      	nop
 8000f24:	20000000 	.word	0x20000000
 8000f28:	20000510 	.word	0x20000510
 8000f2c:	20000004 	.word	0x20000004

08000f30 <HAL_Init>:
 8000f30:	b508      	push	{r3, lr}
 8000f32:	2003      	movs	r0, #3
 8000f34:	f000 f81a 	bl	8000f6c <HAL_NVIC_SetPriorityGrouping>
 8000f38:	2000      	movs	r0, #0
 8000f3a:	f7ff ffd5 	bl	8000ee8 <HAL_InitTick>
 8000f3e:	f001 ff85 	bl	8002e4c <HAL_MspInit>
 8000f42:	2000      	movs	r0, #0
 8000f44:	bd08      	pop	{r3, pc}
 8000f46:	bf00      	nop

08000f48 <HAL_IncTick>:
 8000f48:	4a03      	ldr	r2, [pc, #12]	; (8000f58 <HAL_IncTick+0x10>)
 8000f4a:	4b04      	ldr	r3, [pc, #16]	; (8000f5c <HAL_IncTick+0x14>)
 8000f4c:	6811      	ldr	r1, [r2, #0]
 8000f4e:	781b      	ldrb	r3, [r3, #0]
 8000f50:	440b      	add	r3, r1
 8000f52:	6013      	str	r3, [r2, #0]
 8000f54:	4770      	bx	lr
 8000f56:	bf00      	nop
 8000f58:	20000f28 	.word	0x20000f28
 8000f5c:	20000000 	.word	0x20000000

08000f60 <HAL_GetTick>:
 8000f60:	4b01      	ldr	r3, [pc, #4]	; (8000f68 <HAL_GetTick+0x8>)
 8000f62:	6818      	ldr	r0, [r3, #0]
 8000f64:	4770      	bx	lr
 8000f66:	bf00      	nop
 8000f68:	20000f28 	.word	0x20000f28

08000f6c <HAL_NVIC_SetPriorityGrouping>:
 8000f6c:	4907      	ldr	r1, [pc, #28]	; (8000f8c <HAL_NVIC_SetPriorityGrouping+0x20>)
 8000f6e:	0200      	lsls	r0, r0, #8
 8000f70:	4b07      	ldr	r3, [pc, #28]	; (8000f90 <HAL_NVIC_SetPriorityGrouping+0x24>)
 8000f72:	68ca      	ldr	r2, [r1, #12]
 8000f74:	f400 60e0 	and.w	r0, r0, #1792	; 0x700
 8000f78:	b410      	push	{r4}
 8000f7a:	f64f 04ff 	movw	r4, #63743	; 0xf8ff
 8000f7e:	4022      	ands	r2, r4
 8000f80:	f85d 4b04 	ldr.w	r4, [sp], #4
 8000f84:	4313      	orrs	r3, r2
 8000f86:	4318      	orrs	r0, r3
 8000f88:	60c8      	str	r0, [r1, #12]
 8000f8a:	4770      	bx	lr
 8000f8c:	e000ed00 	.word	0xe000ed00
 8000f90:	05fa0000 	.word	0x05fa0000

08000f94 <HAL_NVIC_SetPriority>:
 8000f94:	4b17      	ldr	r3, [pc, #92]	; (8000ff4 <HAL_NVIC_SetPriority+0x60>)
 8000f96:	68db      	ldr	r3, [r3, #12]
 8000f98:	f3c3 2302 	ubfx	r3, r3, #8, #3
 8000f9c:	b430      	push	{r4, r5}
 8000f9e:	f1c3 0507 	rsb	r5, r3, #7
 8000fa2:	1d1c      	adds	r4, r3, #4
 8000fa4:	2d04      	cmp	r5, #4
 8000fa6:	bf28      	it	cs
 8000fa8:	2504      	movcs	r5, #4
 8000faa:	2c06      	cmp	r4, #6
 8000fac:	d918      	bls.n	8000fe0 <HAL_NVIC_SetPriority+0x4c>
 8000fae:	3b03      	subs	r3, #3
 8000fb0:	f04f 34ff 	mov.w	r4, #4294967295	; 0xffffffff
 8000fb4:	409c      	lsls	r4, r3
 8000fb6:	ea22 0404 	bic.w	r4, r2, r4
 8000fba:	f04f 32ff 	mov.w	r2, #4294967295	; 0xffffffff
 8000fbe:	2800      	cmp	r0, #0
 8000fc0:	fa02 f205 	lsl.w	r2, r2, r5
 8000fc4:	ea21 0102 	bic.w	r1, r1, r2
 8000fc8:	fa01 f203 	lsl.w	r2, r1, r3
 8000fcc:	ea42 0204 	orr.w	r2, r2, r4
 8000fd0:	ea4f 1202 	mov.w	r2, r2, lsl #4
 8000fd4:	b2d2      	uxtb	r2, r2
 8000fd6:	db06      	blt.n	8000fe6 <HAL_NVIC_SetPriority+0x52>
 8000fd8:	4b07      	ldr	r3, [pc, #28]	; (8000ff8 <HAL_NVIC_SetPriority+0x64>)
 8000fda:	541a      	strb	r2, [r3, r0]
 8000fdc:	bc30      	pop	{r4, r5}
 8000fde:	4770      	bx	lr
 8000fe0:	2400      	movs	r4, #0
 8000fe2:	4623      	mov	r3, r4
 8000fe4:	e7e9      	b.n	8000fba <HAL_NVIC_SetPriority+0x26>
 8000fe6:	f000 000f 	and.w	r0, r0, #15
 8000fea:	4b04      	ldr	r3, [pc, #16]	; (8000ffc <HAL_NVIC_SetPriority+0x68>)
 8000fec:	541a      	strb	r2, [r3, r0]
 8000fee:	bc30      	pop	{r4, r5}
 8000ff0:	4770      	bx	lr
 8000ff2:	bf00      	nop
 8000ff4:	e000ed00 	.word	0xe000ed00
 8000ff8:	e000e400 	.word	0xe000e400
 8000ffc:	e000ed14 	.word	0xe000ed14

08001000 <HAL_NVIC_EnableIRQ>:
 8001000:	2800      	cmp	r0, #0
 8001002:	db07      	blt.n	8001014 <HAL_NVIC_EnableIRQ+0x14>
 8001004:	f000 011f 	and.w	r1, r0, #31
 8001008:	2301      	movs	r3, #1
 800100a:	0940      	lsrs	r0, r0, #5
 800100c:	4a02      	ldr	r2, [pc, #8]	; (8001018 <HAL_NVIC_EnableIRQ+0x18>)
 800100e:	408b      	lsls	r3, r1
 8001010:	f842 3020 	str.w	r3, [r2, r0, lsl #2]
 8001014:	4770      	bx	lr
 8001016:	bf00      	nop
 8001018:	e000e100 	.word	0xe000e100

0800101c <HAL_SYSTICK_Config>:
 800101c:	3801      	subs	r0, #1
 800101e:	f1b0 7f80 	cmp.w	r0, #16777216	; 0x1000000
 8001022:	d20d      	bcs.n	8001040 <HAL_SYSTICK_Config+0x24>
 8001024:	4b07      	ldr	r3, [pc, #28]	; (8001044 <HAL_SYSTICK_Config+0x28>)
 8001026:	2200      	movs	r2, #0
 8001028:	2107      	movs	r1, #7
 800102a:	b430      	push	{r4, r5}
 800102c:	25f0      	movs	r5, #240	; 0xf0
 800102e:	4c06      	ldr	r4, [pc, #24]	; (8001048 <HAL_SYSTICK_Config+0x2c>)
 8001030:	6058      	str	r0, [r3, #4]
 8001032:	4610      	mov	r0, r2
 8001034:	f884 5023 	strb.w	r5, [r4, #35]	; 0x23
 8001038:	609a      	str	r2, [r3, #8]
 800103a:	6019      	str	r1, [r3, #0]
 800103c:	bc30      	pop	{r4, r5}
 800103e:	4770      	bx	lr
 8001040:	2001      	movs	r0, #1
 8001042:	4770      	bx	lr
 8001044:	e000e010 	.word	0xe000e010
 8001048:	e000ed00 	.word	0xe000ed00

0800104c <HAL_DMA_Abort_IT>:
 800104c:	f890 2035 	ldrb.w	r2, [r0, #53]	; 0x35
 8001050:	4603      	mov	r3, r0
 8001052:	2a02      	cmp	r2, #2
 8001054:	d003      	beq.n	800105e <HAL_DMA_Abort_IT+0x12>
 8001056:	2280      	movs	r2, #128	; 0x80
 8001058:	2001      	movs	r0, #1
 800105a:	655a      	str	r2, [r3, #84]	; 0x54
 800105c:	4770      	bx	lr
 800105e:	6802      	ldr	r2, [r0, #0]
 8001060:	2105      	movs	r1, #5
 8001062:	2000      	movs	r0, #0
 8001064:	f883 1035 	strb.w	r1, [r3, #53]	; 0x35
 8001068:	6813      	ldr	r3, [r2, #0]
 800106a:	f023 0301 	bic.w	r3, r3, #1
 800106e:	6013      	str	r3, [r2, #0]
 8001070:	4770      	bx	lr
 8001072:	bf00      	nop

08001074 <HAL_GPIO_Init>:
 8001074:	e92d 4ff0 	stmdb	sp!, {r4, r5, r6, r7, r8, r9, sl, fp, lr}
 8001078:	f8df c22c 	ldr.w	ip, [pc, #556]	; 80012a8 <HAL_GPIO_Init+0x234>
 800107c:	b083      	sub	sp, #12
 800107e:	468e      	mov	lr, r1
 8001080:	2500      	movs	r5, #0
 8001082:	f8df 9228 	ldr.w	r9, [pc, #552]	; 80012ac <HAL_GPIO_Init+0x238>
 8001086:	f8d1 8000 	ldr.w	r8, [r1]
 800108a:	e003      	b.n	8001094 <HAL_GPIO_Init+0x20>
 800108c:	3501      	adds	r5, #1
 800108e:	2d10      	cmp	r5, #16
 8001090:	f000 80b6 	beq.w	8001200 <HAL_GPIO_Init+0x18c>
 8001094:	2301      	movs	r3, #1
 8001096:	40ab      	lsls	r3, r5
 8001098:	ea08 0103 	and.w	r1, r8, r3
 800109c:	428b      	cmp	r3, r1
 800109e:	d1f5      	bne.n	800108c <HAL_GPIO_Init+0x18>
 80010a0:	f8de 4004 	ldr.w	r4, [lr, #4]
 80010a4:	f024 0710 	bic.w	r7, r4, #16
 80010a8:	2f02      	cmp	r7, #2
 80010aa:	f040 80ac 	bne.w	8001206 <HAL_GPIO_Init+0x192>
 80010ae:	08ef      	lsrs	r7, r5, #3
 80010b0:	f005 0a07 	and.w	sl, r5, #7
 80010b4:	f04f 0b0f 	mov.w	fp, #15
 80010b8:	f8de 2010 	ldr.w	r2, [lr, #16]
 80010bc:	eb00 0787 	add.w	r7, r0, r7, lsl #2
 80010c0:	ea4f 0a8a 	mov.w	sl, sl, lsl #2
 80010c4:	6a3e      	ldr	r6, [r7, #32]
 80010c6:	fa0b fb0a 	lsl.w	fp, fp, sl
 80010ca:	fa02 f20a 	lsl.w	r2, r2, sl
 80010ce:	ea4f 0a45 	mov.w	sl, r5, lsl #1
 80010d2:	ea26 060b 	bic.w	r6, r6, fp
 80010d6:	f04f 0b03 	mov.w	fp, #3
 80010da:	4332      	orrs	r2, r6
 80010dc:	fa0b fb0a 	lsl.w	fp, fp, sl
 80010e0:	f004 0603 	and.w	r6, r4, #3
 80010e4:	623a      	str	r2, [r7, #32]
 80010e6:	ea6f 020b 	mvn.w	r2, fp
 80010ea:	6807      	ldr	r7, [r0, #0]
 80010ec:	fa06 f60a 	lsl.w	r6, r6, sl
 80010f0:	4017      	ands	r7, r2
 80010f2:	433e      	orrs	r6, r7
 80010f4:	6006      	str	r6, [r0, #0]
 80010f6:	6886      	ldr	r6, [r0, #8]
 80010f8:	f3c4 1700 	ubfx	r7, r4, #4, #1
 80010fc:	ea06 0b02 	and.w	fp, r6, r2
 8001100:	f8de 600c 	ldr.w	r6, [lr, #12]
 8001104:	40af      	lsls	r7, r5
 8001106:	fa06 f60a 	lsl.w	r6, r6, sl
 800110a:	ea46 060b 	orr.w	r6, r6, fp
 800110e:	6086      	str	r6, [r0, #8]
 8001110:	6846      	ldr	r6, [r0, #4]
 8001112:	ea26 0303 	bic.w	r3, r6, r3
 8001116:	431f      	orrs	r7, r3
 8001118:	6047      	str	r7, [r0, #4]
 800111a:	68c6      	ldr	r6, [r0, #12]
 800111c:	00e7      	lsls	r7, r4, #3
 800111e:	f8de 3008 	ldr.w	r3, [lr, #8]
 8001122:	ea02 0206 	and.w	r2, r2, r6
 8001126:	fa03 f30a 	lsl.w	r3, r3, sl
 800112a:	ea43 0302 	orr.w	r3, r3, r2
 800112e:	60c3      	str	r3, [r0, #12]
 8001130:	d5ac      	bpl.n	800108c <HAL_GPIO_Init+0x18>
 8001132:	f8d9 6044 	ldr.w	r6, [r9, #68]	; 0x44
 8001136:	f025 0703 	bic.w	r7, r5, #3
 800113a:	f005 0303 	and.w	r3, r5, #3
 800113e:	220f      	movs	r2, #15
 8001140:	f446 4680 	orr.w	r6, r6, #16384	; 0x4000
 8001144:	f107 4780 	add.w	r7, r7, #1073741824	; 0x40000000
 8001148:	009b      	lsls	r3, r3, #2
 800114a:	f8c9 6044 	str.w	r6, [r9, #68]	; 0x44
 800114e:	f507 379c 	add.w	r7, r7, #79872	; 0x13800
 8001152:	f8d9 6044 	ldr.w	r6, [r9, #68]	; 0x44
 8001156:	fa02 fa03 	lsl.w	sl, r2, r3
 800115a:	f406 4680 	and.w	r6, r6, #16384	; 0x4000
 800115e:	9601      	str	r6, [sp, #4]
 8001160:	4e48      	ldr	r6, [pc, #288]	; (8001284 <HAL_GPIO_Init+0x210>)
 8001162:	9a01      	ldr	r2, [sp, #4]
 8001164:	42b0      	cmp	r0, r6
 8001166:	68ba      	ldr	r2, [r7, #8]
 8001168:	ea22 020a 	bic.w	r2, r2, sl
 800116c:	d020      	beq.n	80011b0 <HAL_GPIO_Init+0x13c>
 800116e:	f506 6680 	add.w	r6, r6, #1024	; 0x400
 8001172:	42b0      	cmp	r0, r6
 8001174:	d05e      	beq.n	8001234 <HAL_GPIO_Init+0x1c0>
 8001176:	4e44      	ldr	r6, [pc, #272]	; (8001288 <HAL_GPIO_Init+0x214>)
 8001178:	42b0      	cmp	r0, r6
 800117a:	d060      	beq.n	800123e <HAL_GPIO_Init+0x1ca>
 800117c:	4e43      	ldr	r6, [pc, #268]	; (800128c <HAL_GPIO_Init+0x218>)
 800117e:	42b0      	cmp	r0, r6
 8001180:	d062      	beq.n	8001248 <HAL_GPIO_Init+0x1d4>
 8001182:	4e43      	ldr	r6, [pc, #268]	; (8001290 <HAL_GPIO_Init+0x21c>)
 8001184:	42b0      	cmp	r0, r6
 8001186:	d064      	beq.n	8001252 <HAL_GPIO_Init+0x1de>
 8001188:	4e42      	ldr	r6, [pc, #264]	; (8001294 <HAL_GPIO_Init+0x220>)
 800118a:	42b0      	cmp	r0, r6
 800118c:	d06b      	beq.n	8001266 <HAL_GPIO_Init+0x1f2>
 800118e:	4e42      	ldr	r6, [pc, #264]	; (8001298 <HAL_GPIO_Init+0x224>)
 8001190:	42b0      	cmp	r0, r6
 8001192:	d06d      	beq.n	8001270 <HAL_GPIO_Init+0x1fc>
 8001194:	4e41      	ldr	r6, [pc, #260]	; (800129c <HAL_GPIO_Init+0x228>)
 8001196:	42b0      	cmp	r0, r6
 8001198:	d060      	beq.n	800125c <HAL_GPIO_Init+0x1e8>
 800119a:	4e41      	ldr	r6, [pc, #260]	; (80012a0 <HAL_GPIO_Init+0x22c>)
 800119c:	42b0      	cmp	r0, r6
 800119e:	d06c      	beq.n	800127a <HAL_GPIO_Init+0x206>
 80011a0:	4e40      	ldr	r6, [pc, #256]	; (80012a4 <HAL_GPIO_Init+0x230>)
 80011a2:	42b0      	cmp	r0, r6
 80011a4:	bf0c      	ite	eq
 80011a6:	2609      	moveq	r6, #9
 80011a8:	260a      	movne	r6, #10
 80011aa:	fa06 f303 	lsl.w	r3, r6, r3
 80011ae:	431a      	orrs	r2, r3
 80011b0:	60ba      	str	r2, [r7, #8]
 80011b2:	03e6      	lsls	r6, r4, #15
 80011b4:	f8dc 3000 	ldr.w	r3, [ip]
 80011b8:	ea6f 0201 	mvn.w	r2, r1
 80011bc:	f105 0501 	add.w	r5, r5, #1
 80011c0:	bf54      	ite	pl
 80011c2:	4013      	andpl	r3, r2
 80011c4:	430b      	orrmi	r3, r1
 80011c6:	03a7      	lsls	r7, r4, #14
 80011c8:	f8cc 3000 	str.w	r3, [ip]
 80011cc:	f8dc 3004 	ldr.w	r3, [ip, #4]
 80011d0:	bf54      	ite	pl
 80011d2:	4013      	andpl	r3, r2
 80011d4:	430b      	orrmi	r3, r1
 80011d6:	02e6      	lsls	r6, r4, #11
 80011d8:	f8cc 3004 	str.w	r3, [ip, #4]
 80011dc:	f8dc 3008 	ldr.w	r3, [ip, #8]
 80011e0:	bf54      	ite	pl
 80011e2:	4013      	andpl	r3, r2
 80011e4:	430b      	orrmi	r3, r1
 80011e6:	02a4      	lsls	r4, r4, #10
 80011e8:	f8cc 3008 	str.w	r3, [ip, #8]
 80011ec:	f8dc 300c 	ldr.w	r3, [ip, #12]
 80011f0:	bf54      	ite	pl
 80011f2:	4013      	andpl	r3, r2
 80011f4:	430b      	orrmi	r3, r1
 80011f6:	2d10      	cmp	r5, #16
 80011f8:	f8cc 300c 	str.w	r3, [ip, #12]
 80011fc:	f47f af4a 	bne.w	8001094 <HAL_GPIO_Init+0x20>
 8001200:	b003      	add	sp, #12
 8001202:	e8bd 8ff0 	ldmia.w	sp!, {r4, r5, r6, r7, r8, r9, sl, fp, pc}
 8001206:	ea4f 0a45 	mov.w	sl, r5, lsl #1
 800120a:	2203      	movs	r2, #3
 800120c:	f8d0 b000 	ldr.w	fp, [r0]
 8001210:	3f01      	subs	r7, #1
 8001212:	ea04 0602 	and.w	r6, r4, r2
 8001216:	fa02 f20a 	lsl.w	r2, r2, sl
 800121a:	2f01      	cmp	r7, #1
 800121c:	ea6f 0202 	mvn.w	r2, r2
 8001220:	fa06 f60a 	lsl.w	r6, r6, sl
 8001224:	ea02 0b0b 	and.w	fp, r2, fp
 8001228:	ea46 060b 	orr.w	r6, r6, fp
 800122c:	6006      	str	r6, [r0, #0]
 800122e:	f63f af74 	bhi.w	800111a <HAL_GPIO_Init+0xa6>
 8001232:	e760      	b.n	80010f6 <HAL_GPIO_Init+0x82>
 8001234:	2601      	movs	r6, #1
 8001236:	fa06 f303 	lsl.w	r3, r6, r3
 800123a:	431a      	orrs	r2, r3
 800123c:	e7b8      	b.n	80011b0 <HAL_GPIO_Init+0x13c>
 800123e:	2602      	movs	r6, #2
 8001240:	fa06 f303 	lsl.w	r3, r6, r3
 8001244:	431a      	orrs	r2, r3
 8001246:	e7b3      	b.n	80011b0 <HAL_GPIO_Init+0x13c>
 8001248:	2603      	movs	r6, #3
 800124a:	fa06 f303 	lsl.w	r3, r6, r3
 800124e:	431a      	orrs	r2, r3
 8001250:	e7ae      	b.n	80011b0 <HAL_GPIO_Init+0x13c>
 8001252:	2604      	movs	r6, #4
 8001254:	fa06 f303 	lsl.w	r3, r6, r3
 8001258:	431a      	orrs	r2, r3
 800125a:	e7a9      	b.n	80011b0 <HAL_GPIO_Init+0x13c>
 800125c:	2607      	movs	r6, #7
 800125e:	fa06 f303 	lsl.w	r3, r6, r3
 8001262:	431a      	orrs	r2, r3
 8001264:	e7a4      	b.n	80011b0 <HAL_GPIO_Init+0x13c>
 8001266:	2605      	movs	r6, #5
 8001268:	fa06 f303 	lsl.w	r3, r6, r3
 800126c:	431a      	orrs	r2, r3
 800126e:	e79f      	b.n	80011b0 <HAL_GPIO_Init+0x13c>
 8001270:	2606      	movs	r6, #6
 8001272:	fa06 f303 	lsl.w	r3, r6, r3
 8001276:	431a      	orrs	r2, r3
 8001278:	e79a      	b.n	80011b0 <HAL_GPIO_Init+0x13c>
 800127a:	2608      	movs	r6, #8
 800127c:	fa06 f303 	lsl.w	r3, r6, r3
 8001280:	431a      	orrs	r2, r3
 8001282:	e795      	b.n	80011b0 <HAL_GPIO_Init+0x13c>
 8001284:	40020000 	.word	0x40020000
 8001288:	40020800 	.word	0x40020800
 800128c:	40020c00 	.word	0x40020c00
 8001290:	40021000 	.word	0x40021000
 8001294:	40021400 	.word	0x40021400
 8001298:	40021800 	.word	0x40021800
 800129c:	40021c00 	.word	0x40021c00
 80012a0:	40022000 	.word	0x40022000
 80012a4:	40022400 	.word	0x40022400
 80012a8:	40013c00 	.word	0x40013c00
 80012ac:	40023800 	.word	0x40023800

080012b0 <HAL_GPIO_WritePin>:
 80012b0:	b902      	cbnz	r2, 80012b4 <HAL_GPIO_WritePin+0x4>
 80012b2:	0409      	lsls	r1, r1, #16
 80012b4:	6181      	str	r1, [r0, #24]
 80012b6:	4770      	bx	lr

080012b8 <HAL_PWREx_EnableOverDrive>:
 80012b8:	4a1b      	ldr	r2, [pc, #108]	; (8001328 <HAL_PWREx_EnableOverDrive+0x70>)
 80012ba:	4b1c      	ldr	r3, [pc, #112]	; (800132c <HAL_PWREx_EnableOverDrive+0x74>)
 80012bc:	6c11      	ldr	r1, [r2, #64]	; 0x40
 80012be:	f041 5180 	orr.w	r1, r1, #268435456	; 0x10000000
 80012c2:	b530      	push	{r4, r5, lr}
 80012c4:	6411      	str	r1, [r2, #64]	; 0x40
 80012c6:	b083      	sub	sp, #12
 80012c8:	6c12      	ldr	r2, [r2, #64]	; 0x40
 80012ca:	461c      	mov	r4, r3
 80012cc:	f002 5280 	and.w	r2, r2, #268435456	; 0x10000000
 80012d0:	9201      	str	r2, [sp, #4]
 80012d2:	9a01      	ldr	r2, [sp, #4]
 80012d4:	681a      	ldr	r2, [r3, #0]
 80012d6:	f442 3280 	orr.w	r2, r2, #65536	; 0x10000
 80012da:	601a      	str	r2, [r3, #0]
 80012dc:	f7ff fe40 	bl	8000f60 <HAL_GetTick>
 80012e0:	4605      	mov	r5, r0
 80012e2:	e005      	b.n	80012f0 <HAL_PWREx_EnableOverDrive+0x38>
 80012e4:	f7ff fe3c 	bl	8000f60 <HAL_GetTick>
 80012e8:	1b40      	subs	r0, r0, r5
 80012ea:	f5b0 7f7a 	cmp.w	r0, #1000	; 0x3e8
 80012ee:	d817      	bhi.n	8001320 <HAL_PWREx_EnableOverDrive+0x68>
 80012f0:	6863      	ldr	r3, [r4, #4]
 80012f2:	03da      	lsls	r2, r3, #15
 80012f4:	d5f6      	bpl.n	80012e4 <HAL_PWREx_EnableOverDrive+0x2c>
 80012f6:	6823      	ldr	r3, [r4, #0]
 80012f8:	4d0c      	ldr	r5, [pc, #48]	; (800132c <HAL_PWREx_EnableOverDrive+0x74>)
 80012fa:	f443 3300 	orr.w	r3, r3, #131072	; 0x20000
 80012fe:	6023      	str	r3, [r4, #0]
 8001300:	f7ff fe2e 	bl	8000f60 <HAL_GetTick>
 8001304:	4604      	mov	r4, r0
 8001306:	e005      	b.n	8001314 <HAL_PWREx_EnableOverDrive+0x5c>
 8001308:	f7ff fe2a 	bl	8000f60 <HAL_GetTick>
 800130c:	1b00      	subs	r0, r0, r4
 800130e:	f5b0 7f7a 	cmp.w	r0, #1000	; 0x3e8
 8001312:	d805      	bhi.n	8001320 <HAL_PWREx_EnableOverDrive+0x68>
 8001314:	686b      	ldr	r3, [r5, #4]
 8001316:	039b      	lsls	r3, r3, #14
 8001318:	d5f6      	bpl.n	8001308 <HAL_PWREx_EnableOverDrive+0x50>
 800131a:	2000      	movs	r0, #0
 800131c:	b003      	add	sp, #12
 800131e:	bd30      	pop	{r4, r5, pc}
 8001320:	2003      	movs	r0, #3
 8001322:	b003      	add	sp, #12
 8001324:	bd30      	pop	{r4, r5, pc}
 8001326:	bf00      	nop
 8001328:	40023800 	.word	0x40023800
 800132c:	40007000 	.word	0x40007000

08001330 <HAL_RCC_OscConfig>:
 8001330:	2800      	cmp	r0, #0
 8001332:	f000 8134 	beq.w	800159e <HAL_RCC_OscConfig+0x26e>
 8001336:	6803      	ldr	r3, [r0, #0]
 8001338:	e92d 41f0 	stmdb	sp!, {r4, r5, r6, r7, r8, lr}
 800133c:	07dd      	lsls	r5, r3, #31
 800133e:	b082      	sub	sp, #8
 8001340:	4604      	mov	r4, r0
 8001342:	d535      	bpl.n	80013b0 <HAL_RCC_OscConfig+0x80>
 8001344:	49ab      	ldr	r1, [pc, #684]	; (80015f4 <HAL_RCC_OscConfig+0x2c4>)
 8001346:	688a      	ldr	r2, [r1, #8]
 8001348:	f002 020c 	and.w	r2, r2, #12
 800134c:	2a04      	cmp	r2, #4
 800134e:	f000 80fe 	beq.w	800154e <HAL_RCC_OscConfig+0x21e>
 8001352:	688a      	ldr	r2, [r1, #8]
 8001354:	f002 020c 	and.w	r2, r2, #12
 8001358:	2a08      	cmp	r2, #8
 800135a:	f000 80f4 	beq.w	8001546 <HAL_RCC_OscConfig+0x216>
 800135e:	6863      	ldr	r3, [r4, #4]
 8001360:	f5b3 3f80 	cmp.w	r3, #65536	; 0x10000
 8001364:	d010      	beq.n	8001388 <HAL_RCC_OscConfig+0x58>
 8001366:	2b00      	cmp	r3, #0
 8001368:	f000 811b 	beq.w	80015a2 <HAL_RCC_OscConfig+0x272>
 800136c:	f5b3 2fa0 	cmp.w	r3, #327680	; 0x50000
 8001370:	4ba0      	ldr	r3, [pc, #640]	; (80015f4 <HAL_RCC_OscConfig+0x2c4>)
 8001372:	681a      	ldr	r2, [r3, #0]
 8001374:	f000 8162 	beq.w	800163c <HAL_RCC_OscConfig+0x30c>
 8001378:	f422 3280 	bic.w	r2, r2, #65536	; 0x10000
 800137c:	601a      	str	r2, [r3, #0]
 800137e:	681a      	ldr	r2, [r3, #0]
 8001380:	f422 2280 	bic.w	r2, r2, #262144	; 0x40000
 8001384:	601a      	str	r2, [r3, #0]
 8001386:	e004      	b.n	8001392 <HAL_RCC_OscConfig+0x62>
 8001388:	4a9a      	ldr	r2, [pc, #616]	; (80015f4 <HAL_RCC_OscConfig+0x2c4>)
 800138a:	6813      	ldr	r3, [r2, #0]
 800138c:	f443 3380 	orr.w	r3, r3, #65536	; 0x10000
 8001390:	6013      	str	r3, [r2, #0]
 8001392:	f7ff fde5 	bl	8000f60 <HAL_GetTick>
 8001396:	4d97      	ldr	r5, [pc, #604]	; (80015f4 <HAL_RCC_OscConfig+0x2c4>)
 8001398:	4606      	mov	r6, r0
 800139a:	e005      	b.n	80013a8 <HAL_RCC_OscConfig+0x78>
 800139c:	f7ff fde0 	bl	8000f60 <HAL_GetTick>
 80013a0:	1b80      	subs	r0, r0, r6
 80013a2:	2864      	cmp	r0, #100	; 0x64
 80013a4:	f200 80ee 	bhi.w	8001584 <HAL_RCC_OscConfig+0x254>
 80013a8:	682b      	ldr	r3, [r5, #0]
 80013aa:	039a      	lsls	r2, r3, #14
 80013ac:	d5f6      	bpl.n	800139c <HAL_RCC_OscConfig+0x6c>
 80013ae:	6823      	ldr	r3, [r4, #0]
 80013b0:	079f      	lsls	r7, r3, #30
 80013b2:	d442      	bmi.n	800143a <HAL_RCC_OscConfig+0x10a>
 80013b4:	071a      	lsls	r2, r3, #28
 80013b6:	d517      	bpl.n	80013e8 <HAL_RCC_OscConfig+0xb8>
 80013b8:	6963      	ldr	r3, [r4, #20]
 80013ba:	2b00      	cmp	r3, #0
 80013bc:	f000 80b0 	beq.w	8001520 <HAL_RCC_OscConfig+0x1f0>
 80013c0:	4b8c      	ldr	r3, [pc, #560]	; (80015f4 <HAL_RCC_OscConfig+0x2c4>)
 80013c2:	6f5a      	ldr	r2, [r3, #116]	; 0x74
 80013c4:	461d      	mov	r5, r3
 80013c6:	f042 0201 	orr.w	r2, r2, #1
 80013ca:	675a      	str	r2, [r3, #116]	; 0x74
 80013cc:	f7ff fdc8 	bl	8000f60 <HAL_GetTick>
 80013d0:	4606      	mov	r6, r0
 80013d2:	e005      	b.n	80013e0 <HAL_RCC_OscConfig+0xb0>
 80013d4:	f7ff fdc4 	bl	8000f60 <HAL_GetTick>
 80013d8:	1b80      	subs	r0, r0, r6
 80013da:	2802      	cmp	r0, #2
 80013dc:	f200 80d2 	bhi.w	8001584 <HAL_RCC_OscConfig+0x254>
 80013e0:	6f6b      	ldr	r3, [r5, #116]	; 0x74
 80013e2:	079b      	lsls	r3, r3, #30
 80013e4:	d5f6      	bpl.n	80013d4 <HAL_RCC_OscConfig+0xa4>
 80013e6:	6823      	ldr	r3, [r4, #0]
 80013e8:	075d      	lsls	r5, r3, #29
 80013ea:	d56b      	bpl.n	80014c4 <HAL_RCC_OscConfig+0x194>
 80013ec:	4b81      	ldr	r3, [pc, #516]	; (80015f4 <HAL_RCC_OscConfig+0x2c4>)
 80013ee:	6c1a      	ldr	r2, [r3, #64]	; 0x40
 80013f0:	00d0      	lsls	r0, r2, #3
 80013f2:	f100 80ed 	bmi.w	80015d0 <HAL_RCC_OscConfig+0x2a0>
 80013f6:	6c1a      	ldr	r2, [r3, #64]	; 0x40
 80013f8:	2501      	movs	r5, #1
 80013fa:	f042 5280 	orr.w	r2, r2, #268435456	; 0x10000000
 80013fe:	641a      	str	r2, [r3, #64]	; 0x40
 8001400:	6c1b      	ldr	r3, [r3, #64]	; 0x40
 8001402:	f003 5380 	and.w	r3, r3, #268435456	; 0x10000000
 8001406:	9301      	str	r3, [sp, #4]
 8001408:	9b01      	ldr	r3, [sp, #4]
 800140a:	4b7b      	ldr	r3, [pc, #492]	; (80015f8 <HAL_RCC_OscConfig+0x2c8>)
 800140c:	681a      	ldr	r2, [r3, #0]
 800140e:	05d1      	lsls	r1, r2, #23
 8001410:	f140 80a7 	bpl.w	8001562 <HAL_RCC_OscConfig+0x232>
 8001414:	68a3      	ldr	r3, [r4, #8]
 8001416:	2b01      	cmp	r3, #1
 8001418:	d039      	beq.n	800148e <HAL_RCC_OscConfig+0x15e>
 800141a:	2b00      	cmp	r3, #0
 800141c:	f000 80da 	beq.w	80015d4 <HAL_RCC_OscConfig+0x2a4>
 8001420:	2b05      	cmp	r3, #5
 8001422:	4b74      	ldr	r3, [pc, #464]	; (80015f4 <HAL_RCC_OscConfig+0x2c4>)
 8001424:	6f1a      	ldr	r2, [r3, #112]	; 0x70
 8001426:	f000 8111 	beq.w	800164c <HAL_RCC_OscConfig+0x31c>
 800142a:	f022 0201 	bic.w	r2, r2, #1
 800142e:	671a      	str	r2, [r3, #112]	; 0x70
 8001430:	6f1a      	ldr	r2, [r3, #112]	; 0x70
 8001432:	f022 0204 	bic.w	r2, r2, #4
 8001436:	671a      	str	r2, [r3, #112]	; 0x70
 8001438:	e02e      	b.n	8001498 <HAL_RCC_OscConfig+0x168>
 800143a:	4a6e      	ldr	r2, [pc, #440]	; (80015f4 <HAL_RCC_OscConfig+0x2c4>)
 800143c:	6891      	ldr	r1, [r2, #8]
 800143e:	f011 0f0c 	tst.w	r1, #12
 8001442:	d062      	beq.n	800150a <HAL_RCC_OscConfig+0x1da>
 8001444:	6891      	ldr	r1, [r2, #8]
 8001446:	f001 010c 	and.w	r1, r1, #12
 800144a:	2908      	cmp	r1, #8
 800144c:	d05a      	beq.n	8001504 <HAL_RCC_OscConfig+0x1d4>
 800144e:	68e3      	ldr	r3, [r4, #12]
 8001450:	2b00      	cmp	r3, #0
 8001452:	f000 80df 	beq.w	8001614 <HAL_RCC_OscConfig+0x2e4>
 8001456:	4b67      	ldr	r3, [pc, #412]	; (80015f4 <HAL_RCC_OscConfig+0x2c4>)
 8001458:	681a      	ldr	r2, [r3, #0]
 800145a:	461d      	mov	r5, r3
 800145c:	f042 0201 	orr.w	r2, r2, #1
 8001460:	601a      	str	r2, [r3, #0]
 8001462:	f7ff fd7d 	bl	8000f60 <HAL_GetTick>
 8001466:	4606      	mov	r6, r0
 8001468:	e005      	b.n	8001476 <HAL_RCC_OscConfig+0x146>
 800146a:	f7ff fd79 	bl	8000f60 <HAL_GetTick>
 800146e:	1b80      	subs	r0, r0, r6
 8001470:	2802      	cmp	r0, #2
 8001472:	f200 8087 	bhi.w	8001584 <HAL_RCC_OscConfig+0x254>
 8001476:	682b      	ldr	r3, [r5, #0]
 8001478:	0798      	lsls	r0, r3, #30
 800147a:	d5f6      	bpl.n	800146a <HAL_RCC_OscConfig+0x13a>
 800147c:	682b      	ldr	r3, [r5, #0]
 800147e:	6922      	ldr	r2, [r4, #16]
 8001480:	f023 03f8 	bic.w	r3, r3, #248	; 0xf8
 8001484:	ea43 03c2 	orr.w	r3, r3, r2, lsl #3
 8001488:	602b      	str	r3, [r5, #0]
 800148a:	6823      	ldr	r3, [r4, #0]
 800148c:	e792      	b.n	80013b4 <HAL_RCC_OscConfig+0x84>
 800148e:	4a59      	ldr	r2, [pc, #356]	; (80015f4 <HAL_RCC_OscConfig+0x2c4>)
 8001490:	6f13      	ldr	r3, [r2, #112]	; 0x70
 8001492:	f043 0301 	orr.w	r3, r3, #1
 8001496:	6713      	str	r3, [r2, #112]	; 0x70
 8001498:	f7ff fd62 	bl	8000f60 <HAL_GetTick>
 800149c:	4e55      	ldr	r6, [pc, #340]	; (80015f4 <HAL_RCC_OscConfig+0x2c4>)
 800149e:	4680      	mov	r8, r0
 80014a0:	f241 3788 	movw	r7, #5000	; 0x1388
 80014a4:	e005      	b.n	80014b2 <HAL_RCC_OscConfig+0x182>
 80014a6:	f7ff fd5b 	bl	8000f60 <HAL_GetTick>
 80014aa:	eba0 0008 	sub.w	r0, r0, r8
 80014ae:	42b8      	cmp	r0, r7
 80014b0:	d868      	bhi.n	8001584 <HAL_RCC_OscConfig+0x254>
 80014b2:	6f33      	ldr	r3, [r6, #112]	; 0x70
 80014b4:	079b      	lsls	r3, r3, #30
 80014b6:	d5f6      	bpl.n	80014a6 <HAL_RCC_OscConfig+0x176>
 80014b8:	b125      	cbz	r5, 80014c4 <HAL_RCC_OscConfig+0x194>
 80014ba:	4a4e      	ldr	r2, [pc, #312]	; (80015f4 <HAL_RCC_OscConfig+0x2c4>)
 80014bc:	6c13      	ldr	r3, [r2, #64]	; 0x40
 80014be:	f023 5380 	bic.w	r3, r3, #268435456	; 0x10000000
 80014c2:	6413      	str	r3, [r2, #64]	; 0x40
 80014c4:	69a3      	ldr	r3, [r4, #24]
 80014c6:	b1cb      	cbz	r3, 80014fc <HAL_RCC_OscConfig+0x1cc>
 80014c8:	4a4a      	ldr	r2, [pc, #296]	; (80015f4 <HAL_RCC_OscConfig+0x2c4>)
 80014ca:	6891      	ldr	r1, [r2, #8]
 80014cc:	f001 010c 	and.w	r1, r1, #12
 80014d0:	2908      	cmp	r1, #8
 80014d2:	d021      	beq.n	8001518 <HAL_RCC_OscConfig+0x1e8>
 80014d4:	2b02      	cmp	r3, #2
 80014d6:	6813      	ldr	r3, [r2, #0]
 80014d8:	f000 80c0 	beq.w	800165c <HAL_RCC_OscConfig+0x32c>
 80014dc:	f023 7380 	bic.w	r3, r3, #16777216	; 0x1000000
 80014e0:	4614      	mov	r4, r2
 80014e2:	6013      	str	r3, [r2, #0]
 80014e4:	f7ff fd3c 	bl	8000f60 <HAL_GetTick>
 80014e8:	4605      	mov	r5, r0
 80014ea:	e004      	b.n	80014f6 <HAL_RCC_OscConfig+0x1c6>
 80014ec:	f7ff fd38 	bl	8000f60 <HAL_GetTick>
 80014f0:	1b40      	subs	r0, r0, r5
 80014f2:	2802      	cmp	r0, #2
 80014f4:	d846      	bhi.n	8001584 <HAL_RCC_OscConfig+0x254>
 80014f6:	6823      	ldr	r3, [r4, #0]
 80014f8:	019b      	lsls	r3, r3, #6
 80014fa:	d4f7      	bmi.n	80014ec <HAL_RCC_OscConfig+0x1bc>
 80014fc:	2000      	movs	r0, #0
 80014fe:	b002      	add	sp, #8
 8001500:	e8bd 81f0 	ldmia.w	sp!, {r4, r5, r6, r7, r8, pc}
 8001504:	6852      	ldr	r2, [r2, #4]
 8001506:	0256      	lsls	r6, r2, #9
 8001508:	d4a1      	bmi.n	800144e <HAL_RCC_OscConfig+0x11e>
 800150a:	4a3a      	ldr	r2, [pc, #232]	; (80015f4 <HAL_RCC_OscConfig+0x2c4>)
 800150c:	6812      	ldr	r2, [r2, #0]
 800150e:	0795      	lsls	r5, r2, #30
 8001510:	d53c      	bpl.n	800158c <HAL_RCC_OscConfig+0x25c>
 8001512:	68e2      	ldr	r2, [r4, #12]
 8001514:	2a01      	cmp	r2, #1
 8001516:	d039      	beq.n	800158c <HAL_RCC_OscConfig+0x25c>
 8001518:	2001      	movs	r0, #1
 800151a:	b002      	add	sp, #8
 800151c:	e8bd 81f0 	ldmia.w	sp!, {r4, r5, r6, r7, r8, pc}
 8001520:	4b34      	ldr	r3, [pc, #208]	; (80015f4 <HAL_RCC_OscConfig+0x2c4>)
 8001522:	6f5a      	ldr	r2, [r3, #116]	; 0x74
 8001524:	461d      	mov	r5, r3
 8001526:	f022 0201 	bic.w	r2, r2, #1
 800152a:	675a      	str	r2, [r3, #116]	; 0x74
 800152c:	f7ff fd18 	bl	8000f60 <HAL_GetTick>
 8001530:	4606      	mov	r6, r0
 8001532:	e004      	b.n	800153e <HAL_RCC_OscConfig+0x20e>
 8001534:	f7ff fd14 	bl	8000f60 <HAL_GetTick>
 8001538:	1b80      	subs	r0, r0, r6
 800153a:	2802      	cmp	r0, #2
 800153c:	d822      	bhi.n	8001584 <HAL_RCC_OscConfig+0x254>
 800153e:	6f6b      	ldr	r3, [r5, #116]	; 0x74
 8001540:	079f      	lsls	r7, r3, #30
 8001542:	d4f7      	bmi.n	8001534 <HAL_RCC_OscConfig+0x204>
 8001544:	e74f      	b.n	80013e6 <HAL_RCC_OscConfig+0xb6>
 8001546:	684a      	ldr	r2, [r1, #4]
 8001548:	0250      	lsls	r0, r2, #9
 800154a:	f57f af08 	bpl.w	800135e <HAL_RCC_OscConfig+0x2e>
 800154e:	4a29      	ldr	r2, [pc, #164]	; (80015f4 <HAL_RCC_OscConfig+0x2c4>)
 8001550:	6812      	ldr	r2, [r2, #0]
 8001552:	0391      	lsls	r1, r2, #14
 8001554:	f57f af2c 	bpl.w	80013b0 <HAL_RCC_OscConfig+0x80>
 8001558:	6862      	ldr	r2, [r4, #4]
 800155a:	2a00      	cmp	r2, #0
 800155c:	f47f af28 	bne.w	80013b0 <HAL_RCC_OscConfig+0x80>
 8001560:	e7da      	b.n	8001518 <HAL_RCC_OscConfig+0x1e8>
 8001562:	681a      	ldr	r2, [r3, #0]
 8001564:	461e      	mov	r6, r3
 8001566:	f442 7280 	orr.w	r2, r2, #256	; 0x100
 800156a:	601a      	str	r2, [r3, #0]
 800156c:	f7ff fcf8 	bl	8000f60 <HAL_GetTick>
 8001570:	4607      	mov	r7, r0
 8001572:	6833      	ldr	r3, [r6, #0]
 8001574:	05da      	lsls	r2, r3, #23
 8001576:	f53f af4d 	bmi.w	8001414 <HAL_RCC_OscConfig+0xe4>
 800157a:	f7ff fcf1 	bl	8000f60 <HAL_GetTick>
 800157e:	1bc0      	subs	r0, r0, r7
 8001580:	2864      	cmp	r0, #100	; 0x64
 8001582:	d9f6      	bls.n	8001572 <HAL_RCC_OscConfig+0x242>
 8001584:	2003      	movs	r0, #3
 8001586:	b002      	add	sp, #8
 8001588:	e8bd 81f0 	ldmia.w	sp!, {r4, r5, r6, r7, r8, pc}
 800158c:	4919      	ldr	r1, [pc, #100]	; (80015f4 <HAL_RCC_OscConfig+0x2c4>)
 800158e:	6920      	ldr	r0, [r4, #16]
 8001590:	680a      	ldr	r2, [r1, #0]
 8001592:	f022 02f8 	bic.w	r2, r2, #248	; 0xf8
 8001596:	ea42 02c0 	orr.w	r2, r2, r0, lsl #3
 800159a:	600a      	str	r2, [r1, #0]
 800159c:	e70a      	b.n	80013b4 <HAL_RCC_OscConfig+0x84>
 800159e:	2001      	movs	r0, #1
 80015a0:	4770      	bx	lr
 80015a2:	4b14      	ldr	r3, [pc, #80]	; (80015f4 <HAL_RCC_OscConfig+0x2c4>)
 80015a4:	681a      	ldr	r2, [r3, #0]
 80015a6:	461d      	mov	r5, r3
 80015a8:	f422 3280 	bic.w	r2, r2, #65536	; 0x10000
 80015ac:	601a      	str	r2, [r3, #0]
 80015ae:	681a      	ldr	r2, [r3, #0]
 80015b0:	f422 2280 	bic.w	r2, r2, #262144	; 0x40000
 80015b4:	601a      	str	r2, [r3, #0]
 80015b6:	f7ff fcd3 	bl	8000f60 <HAL_GetTick>
 80015ba:	4606      	mov	r6, r0
 80015bc:	e004      	b.n	80015c8 <HAL_RCC_OscConfig+0x298>
 80015be:	f7ff fccf 	bl	8000f60 <HAL_GetTick>
 80015c2:	1b80      	subs	r0, r0, r6
 80015c4:	2864      	cmp	r0, #100	; 0x64
 80015c6:	d8dd      	bhi.n	8001584 <HAL_RCC_OscConfig+0x254>
 80015c8:	682b      	ldr	r3, [r5, #0]
 80015ca:	039b      	lsls	r3, r3, #14
 80015cc:	d4f7      	bmi.n	80015be <HAL_RCC_OscConfig+0x28e>
 80015ce:	e6ee      	b.n	80013ae <HAL_RCC_OscConfig+0x7e>
 80015d0:	2500      	movs	r5, #0
 80015d2:	e71a      	b.n	800140a <HAL_RCC_OscConfig+0xda>
 80015d4:	4b07      	ldr	r3, [pc, #28]	; (80015f4 <HAL_RCC_OscConfig+0x2c4>)
 80015d6:	f241 3888 	movw	r8, #5000	; 0x1388
 80015da:	6f1a      	ldr	r2, [r3, #112]	; 0x70
 80015dc:	461e      	mov	r6, r3
 80015de:	f022 0201 	bic.w	r2, r2, #1
 80015e2:	671a      	str	r2, [r3, #112]	; 0x70
 80015e4:	6f1a      	ldr	r2, [r3, #112]	; 0x70
 80015e6:	f022 0204 	bic.w	r2, r2, #4
 80015ea:	671a      	str	r2, [r3, #112]	; 0x70
 80015ec:	f7ff fcb8 	bl	8000f60 <HAL_GetTick>
 80015f0:	4607      	mov	r7, r0
 80015f2:	e008      	b.n	8001606 <HAL_RCC_OscConfig+0x2d6>
 80015f4:	40023800 	.word	0x40023800
 80015f8:	40007000 	.word	0x40007000
 80015fc:	f7ff fcb0 	bl	8000f60 <HAL_GetTick>
 8001600:	1bc0      	subs	r0, r0, r7
 8001602:	4540      	cmp	r0, r8
 8001604:	d8be      	bhi.n	8001584 <HAL_RCC_OscConfig+0x254>
 8001606:	6f33      	ldr	r3, [r6, #112]	; 0x70
 8001608:	0798      	lsls	r0, r3, #30
 800160a:	d4f7      	bmi.n	80015fc <HAL_RCC_OscConfig+0x2cc>
 800160c:	2d00      	cmp	r5, #0
 800160e:	f43f af59 	beq.w	80014c4 <HAL_RCC_OscConfig+0x194>
 8001612:	e752      	b.n	80014ba <HAL_RCC_OscConfig+0x18a>
 8001614:	4b2b      	ldr	r3, [pc, #172]	; (80016c4 <HAL_RCC_OscConfig+0x394>)
 8001616:	681a      	ldr	r2, [r3, #0]
 8001618:	461d      	mov	r5, r3
 800161a:	f022 0201 	bic.w	r2, r2, #1
 800161e:	601a      	str	r2, [r3, #0]
 8001620:	f7ff fc9e 	bl	8000f60 <HAL_GetTick>
 8001624:	4606      	mov	r6, r0
 8001626:	e004      	b.n	8001632 <HAL_RCC_OscConfig+0x302>
 8001628:	f7ff fc9a 	bl	8000f60 <HAL_GetTick>
 800162c:	1b80      	subs	r0, r0, r6
 800162e:	2802      	cmp	r0, #2
 8001630:	d8a8      	bhi.n	8001584 <HAL_RCC_OscConfig+0x254>
 8001632:	682b      	ldr	r3, [r5, #0]
 8001634:	0799      	lsls	r1, r3, #30
 8001636:	d4f7      	bmi.n	8001628 <HAL_RCC_OscConfig+0x2f8>
 8001638:	6823      	ldr	r3, [r4, #0]
 800163a:	e6bb      	b.n	80013b4 <HAL_RCC_OscConfig+0x84>
 800163c:	f442 2280 	orr.w	r2, r2, #262144	; 0x40000
 8001640:	601a      	str	r2, [r3, #0]
 8001642:	681a      	ldr	r2, [r3, #0]
 8001644:	f442 3280 	orr.w	r2, r2, #65536	; 0x10000
 8001648:	601a      	str	r2, [r3, #0]
 800164a:	e6a2      	b.n	8001392 <HAL_RCC_OscConfig+0x62>
 800164c:	f042 0204 	orr.w	r2, r2, #4
 8001650:	671a      	str	r2, [r3, #112]	; 0x70
 8001652:	6f1a      	ldr	r2, [r3, #112]	; 0x70
 8001654:	f042 0201 	orr.w	r2, r2, #1
 8001658:	671a      	str	r2, [r3, #112]	; 0x70
 800165a:	e71d      	b.n	8001498 <HAL_RCC_OscConfig+0x168>
 800165c:	f023 7380 	bic.w	r3, r3, #16777216	; 0x1000000
 8001660:	4615      	mov	r5, r2
 8001662:	6013      	str	r3, [r2, #0]
 8001664:	f7ff fc7c 	bl	8000f60 <HAL_GetTick>
 8001668:	4606      	mov	r6, r0
 800166a:	e004      	b.n	8001676 <HAL_RCC_OscConfig+0x346>
 800166c:	f7ff fc78 	bl	8000f60 <HAL_GetTick>
 8001670:	1b80      	subs	r0, r0, r6
 8001672:	2802      	cmp	r0, #2
 8001674:	d886      	bhi.n	8001584 <HAL_RCC_OscConfig+0x254>
 8001676:	682b      	ldr	r3, [r5, #0]
 8001678:	0199      	lsls	r1, r3, #6
 800167a:	d4f7      	bmi.n	800166c <HAL_RCC_OscConfig+0x33c>
 800167c:	e9d4 3207 	ldrd	r3, r2, [r4, #28]
 8001680:	6a60      	ldr	r0, [r4, #36]	; 0x24
 8001682:	4313      	orrs	r3, r2
 8001684:	e9d4 210a 	ldrd	r2, r1, [r4, #40]	; 0x28
 8001688:	f043 5300 	orr.w	r3, r3, #536870912	; 0x20000000
 800168c:	4c0d      	ldr	r4, [pc, #52]	; (80016c4 <HAL_RCC_OscConfig+0x394>)
 800168e:	0852      	lsrs	r2, r2, #1
 8001690:	ea43 1380 	orr.w	r3, r3, r0, lsl #6
 8001694:	3a01      	subs	r2, #1
 8001696:	ea43 6301 	orr.w	r3, r3, r1, lsl #24
 800169a:	ea43 4302 	orr.w	r3, r3, r2, lsl #16
 800169e:	606b      	str	r3, [r5, #4]
 80016a0:	682b      	ldr	r3, [r5, #0]
 80016a2:	f043 7380 	orr.w	r3, r3, #16777216	; 0x1000000
 80016a6:	602b      	str	r3, [r5, #0]
 80016a8:	f7ff fc5a 	bl	8000f60 <HAL_GetTick>
 80016ac:	4605      	mov	r5, r0
 80016ae:	e005      	b.n	80016bc <HAL_RCC_OscConfig+0x38c>
 80016b0:	f7ff fc56 	bl	8000f60 <HAL_GetTick>
 80016b4:	1b40      	subs	r0, r0, r5
 80016b6:	2802      	cmp	r0, #2
 80016b8:	f63f af64 	bhi.w	8001584 <HAL_RCC_OscConfig+0x254>
 80016bc:	6823      	ldr	r3, [r4, #0]
 80016be:	019a      	lsls	r2, r3, #6
 80016c0:	d5f6      	bpl.n	80016b0 <HAL_RCC_OscConfig+0x380>
 80016c2:	e71b      	b.n	80014fc <HAL_RCC_OscConfig+0x1cc>
 80016c4:	40023800 	.word	0x40023800

080016c8 <HAL_RCC_ClockConfig>:
 80016c8:	b178      	cbz	r0, 80016ea <HAL_RCC_ClockConfig+0x22>
 80016ca:	4a5e      	ldr	r2, [pc, #376]	; (8001844 <HAL_RCC_ClockConfig+0x17c>)
 80016cc:	6813      	ldr	r3, [r2, #0]
 80016ce:	f003 030f 	and.w	r3, r3, #15
 80016d2:	428b      	cmp	r3, r1
 80016d4:	d20b      	bcs.n	80016ee <HAL_RCC_ClockConfig+0x26>
 80016d6:	6813      	ldr	r3, [r2, #0]
 80016d8:	f023 030f 	bic.w	r3, r3, #15
 80016dc:	430b      	orrs	r3, r1
 80016de:	6013      	str	r3, [r2, #0]
 80016e0:	6813      	ldr	r3, [r2, #0]
 80016e2:	f003 030f 	and.w	r3, r3, #15
 80016e6:	428b      	cmp	r3, r1
 80016e8:	d001      	beq.n	80016ee <HAL_RCC_ClockConfig+0x26>
 80016ea:	2001      	movs	r0, #1
 80016ec:	4770      	bx	lr
 80016ee:	6803      	ldr	r3, [r0, #0]
 80016f0:	e92d 41f0 	stmdb	sp!, {r4, r5, r6, r7, r8, lr}
 80016f4:	079d      	lsls	r5, r3, #30
 80016f6:	d514      	bpl.n	8001722 <HAL_RCC_ClockConfig+0x5a>
 80016f8:	075c      	lsls	r4, r3, #29
 80016fa:	d504      	bpl.n	8001706 <HAL_RCC_ClockConfig+0x3e>
 80016fc:	4c52      	ldr	r4, [pc, #328]	; (8001848 <HAL_RCC_ClockConfig+0x180>)
 80016fe:	68a2      	ldr	r2, [r4, #8]
 8001700:	f442 52e0 	orr.w	r2, r2, #7168	; 0x1c00
 8001704:	60a2      	str	r2, [r4, #8]
 8001706:	071a      	lsls	r2, r3, #28
 8001708:	d504      	bpl.n	8001714 <HAL_RCC_ClockConfig+0x4c>
 800170a:	4c4f      	ldr	r4, [pc, #316]	; (8001848 <HAL_RCC_ClockConfig+0x180>)
 800170c:	68a2      	ldr	r2, [r4, #8]
 800170e:	f442 4260 	orr.w	r2, r2, #57344	; 0xe000
 8001712:	60a2      	str	r2, [r4, #8]
 8001714:	4c4c      	ldr	r4, [pc, #304]	; (8001848 <HAL_RCC_ClockConfig+0x180>)
 8001716:	6885      	ldr	r5, [r0, #8]
 8001718:	68a2      	ldr	r2, [r4, #8]
 800171a:	f022 02f0 	bic.w	r2, r2, #240	; 0xf0
 800171e:	432a      	orrs	r2, r5
 8001720:	60a2      	str	r2, [r4, #8]
 8001722:	07df      	lsls	r7, r3, #31
 8001724:	4604      	mov	r4, r0
 8001726:	460d      	mov	r5, r1
 8001728:	d521      	bpl.n	800176e <HAL_RCC_ClockConfig+0xa6>
 800172a:	6842      	ldr	r2, [r0, #4]
 800172c:	4b46      	ldr	r3, [pc, #280]	; (8001848 <HAL_RCC_ClockConfig+0x180>)
 800172e:	2a01      	cmp	r2, #1
 8001730:	681b      	ldr	r3, [r3, #0]
 8001732:	d063      	beq.n	80017fc <HAL_RCC_ClockConfig+0x134>
 8001734:	2a02      	cmp	r2, #2
 8001736:	d078      	beq.n	800182a <HAL_RCC_ClockConfig+0x162>
 8001738:	0799      	lsls	r1, r3, #30
 800173a:	d528      	bpl.n	800178e <HAL_RCC_ClockConfig+0xc6>
 800173c:	4942      	ldr	r1, [pc, #264]	; (8001848 <HAL_RCC_ClockConfig+0x180>)
 800173e:	f241 3888 	movw	r8, #5000	; 0x1388
 8001742:	688b      	ldr	r3, [r1, #8]
 8001744:	460e      	mov	r6, r1
 8001746:	f023 0303 	bic.w	r3, r3, #3
 800174a:	4313      	orrs	r3, r2
 800174c:	608b      	str	r3, [r1, #8]
 800174e:	f7ff fc07 	bl	8000f60 <HAL_GetTick>
 8001752:	4607      	mov	r7, r0
 8001754:	e004      	b.n	8001760 <HAL_RCC_ClockConfig+0x98>
 8001756:	f7ff fc03 	bl	8000f60 <HAL_GetTick>
 800175a:	1bc0      	subs	r0, r0, r7
 800175c:	4540      	cmp	r0, r8
 800175e:	d862      	bhi.n	8001826 <HAL_RCC_ClockConfig+0x15e>
 8001760:	68b3      	ldr	r3, [r6, #8]
 8001762:	6862      	ldr	r2, [r4, #4]
 8001764:	f003 030c 	and.w	r3, r3, #12
 8001768:	ebb3 0f82 	cmp.w	r3, r2, lsl #2
 800176c:	d1f3      	bne.n	8001756 <HAL_RCC_ClockConfig+0x8e>
 800176e:	4a35      	ldr	r2, [pc, #212]	; (8001844 <HAL_RCC_ClockConfig+0x17c>)
 8001770:	6813      	ldr	r3, [r2, #0]
 8001772:	f003 030f 	and.w	r3, r3, #15
 8001776:	42ab      	cmp	r3, r5
 8001778:	d90c      	bls.n	8001794 <HAL_RCC_ClockConfig+0xcc>
 800177a:	6813      	ldr	r3, [r2, #0]
 800177c:	f023 030f 	bic.w	r3, r3, #15
 8001780:	432b      	orrs	r3, r5
 8001782:	6013      	str	r3, [r2, #0]
 8001784:	6813      	ldr	r3, [r2, #0]
 8001786:	f003 030f 	and.w	r3, r3, #15
 800178a:	42ab      	cmp	r3, r5
 800178c:	d002      	beq.n	8001794 <HAL_RCC_ClockConfig+0xcc>
 800178e:	2001      	movs	r0, #1
 8001790:	e8bd 81f0 	ldmia.w	sp!, {r4, r5, r6, r7, r8, pc}
 8001794:	6823      	ldr	r3, [r4, #0]
 8001796:	075a      	lsls	r2, r3, #29
 8001798:	d506      	bpl.n	80017a8 <HAL_RCC_ClockConfig+0xe0>
 800179a:	492b      	ldr	r1, [pc, #172]	; (8001848 <HAL_RCC_ClockConfig+0x180>)
 800179c:	68e0      	ldr	r0, [r4, #12]
 800179e:	688a      	ldr	r2, [r1, #8]
 80017a0:	f422 52e0 	bic.w	r2, r2, #7168	; 0x1c00
 80017a4:	4302      	orrs	r2, r0
 80017a6:	608a      	str	r2, [r1, #8]
 80017a8:	071b      	lsls	r3, r3, #28
 80017aa:	d507      	bpl.n	80017bc <HAL_RCC_ClockConfig+0xf4>
 80017ac:	4a26      	ldr	r2, [pc, #152]	; (8001848 <HAL_RCC_ClockConfig+0x180>)
 80017ae:	6921      	ldr	r1, [r4, #16]
 80017b0:	6893      	ldr	r3, [r2, #8]
 80017b2:	f423 4360 	bic.w	r3, r3, #57344	; 0xe000
 80017b6:	ea43 03c1 	orr.w	r3, r3, r1, lsl #3
 80017ba:	6093      	str	r3, [r2, #8]
 80017bc:	4922      	ldr	r1, [pc, #136]	; (8001848 <HAL_RCC_ClockConfig+0x180>)
 80017be:	688b      	ldr	r3, [r1, #8]
 80017c0:	f003 030c 	and.w	r3, r3, #12
 80017c4:	2b04      	cmp	r3, #4
 80017c6:	d01c      	beq.n	8001802 <HAL_RCC_ClockConfig+0x13a>
 80017c8:	2b08      	cmp	r3, #8
 80017ca:	d12a      	bne.n	8001822 <HAL_RCC_ClockConfig+0x15a>
 80017cc:	684a      	ldr	r2, [r1, #4]
 80017ce:	684b      	ldr	r3, [r1, #4]
 80017d0:	f002 023f 	and.w	r2, r2, #63	; 0x3f
 80017d4:	6849      	ldr	r1, [r1, #4]
 80017d6:	f413 0380 	ands.w	r3, r3, #4194304	; 0x400000
 80017da:	d129      	bne.n	8001830 <HAL_RCC_ClockConfig+0x168>
 80017dc:	481b      	ldr	r0, [pc, #108]	; (800184c <HAL_RCC_ClockConfig+0x184>)
 80017de:	f3c1 1188 	ubfx	r1, r1, #6, #9
 80017e2:	fba1 0100 	umull	r0, r1, r1, r0
 80017e6:	f7ff f9ff 	bl	8000be8 <__aeabi_uldivmod>
 80017ea:	4b17      	ldr	r3, [pc, #92]	; (8001848 <HAL_RCC_ClockConfig+0x180>)
 80017ec:	685b      	ldr	r3, [r3, #4]
 80017ee:	f3c3 4301 	ubfx	r3, r3, #16, #2
 80017f2:	3301      	adds	r3, #1
 80017f4:	005b      	lsls	r3, r3, #1
 80017f6:	fbb0 f3f3 	udiv	r3, r0, r3
 80017fa:	e003      	b.n	8001804 <HAL_RCC_ClockConfig+0x13c>
 80017fc:	039e      	lsls	r6, r3, #14
 80017fe:	d49d      	bmi.n	800173c <HAL_RCC_ClockConfig+0x74>
 8001800:	e7c5      	b.n	800178e <HAL_RCC_ClockConfig+0xc6>
 8001802:	4b13      	ldr	r3, [pc, #76]	; (8001850 <HAL_RCC_ClockConfig+0x188>)
 8001804:	4a10      	ldr	r2, [pc, #64]	; (8001848 <HAL_RCC_ClockConfig+0x180>)
 8001806:	2000      	movs	r0, #0
 8001808:	4c12      	ldr	r4, [pc, #72]	; (8001854 <HAL_RCC_ClockConfig+0x18c>)
 800180a:	6892      	ldr	r2, [r2, #8]
 800180c:	4912      	ldr	r1, [pc, #72]	; (8001858 <HAL_RCC_ClockConfig+0x190>)
 800180e:	f3c2 1203 	ubfx	r2, r2, #4, #4
 8001812:	5ca2      	ldrb	r2, [r4, r2]
 8001814:	40d3      	lsrs	r3, r2
 8001816:	600b      	str	r3, [r1, #0]
 8001818:	f7ff fb66 	bl	8000ee8 <HAL_InitTick>
 800181c:	2000      	movs	r0, #0
 800181e:	e8bd 81f0 	ldmia.w	sp!, {r4, r5, r6, r7, r8, pc}
 8001822:	4b0a      	ldr	r3, [pc, #40]	; (800184c <HAL_RCC_ClockConfig+0x184>)
 8001824:	e7ee      	b.n	8001804 <HAL_RCC_ClockConfig+0x13c>
 8001826:	2003      	movs	r0, #3
 8001828:	e7b2      	b.n	8001790 <HAL_RCC_ClockConfig+0xc8>
 800182a:	0198      	lsls	r0, r3, #6
 800182c:	d486      	bmi.n	800173c <HAL_RCC_ClockConfig+0x74>
 800182e:	e7ae      	b.n	800178e <HAL_RCC_ClockConfig+0xc6>
 8001830:	4807      	ldr	r0, [pc, #28]	; (8001850 <HAL_RCC_ClockConfig+0x188>)
 8001832:	f3c1 1188 	ubfx	r1, r1, #6, #9
 8001836:	2300      	movs	r3, #0
 8001838:	fba1 0100 	umull	r0, r1, r1, r0
 800183c:	f7ff f9d4 	bl	8000be8 <__aeabi_uldivmod>
 8001840:	e7d3      	b.n	80017ea <HAL_RCC_ClockConfig+0x122>
 8001842:	bf00      	nop
 8001844:	40023c00 	.word	0x40023c00
 8001848:	40023800 	.word	0x40023800
 800184c:	00f42400 	.word	0x00f42400
 8001850:	017d7840 	.word	0x017d7840
 8001854:	0800775c 	.word	0x0800775c
 8001858:	20000510 	.word	0x20000510

0800185c <HAL_RCC_GetSysClockFreq>:
 800185c:	4916      	ldr	r1, [pc, #88]	; (80018b8 <HAL_RCC_GetSysClockFreq+0x5c>)
 800185e:	b508      	push	{r3, lr}
 8001860:	688b      	ldr	r3, [r1, #8]
 8001862:	f003 030c 	and.w	r3, r3, #12
 8001866:	2b04      	cmp	r3, #4
 8001868:	d01b      	beq.n	80018a2 <HAL_RCC_GetSysClockFreq+0x46>
 800186a:	2b08      	cmp	r3, #8
 800186c:	d117      	bne.n	800189e <HAL_RCC_GetSysClockFreq+0x42>
 800186e:	684a      	ldr	r2, [r1, #4]
 8001870:	684b      	ldr	r3, [r1, #4]
 8001872:	f002 023f 	and.w	r2, r2, #63	; 0x3f
 8001876:	6849      	ldr	r1, [r1, #4]
 8001878:	f413 0380 	ands.w	r3, r3, #4194304	; 0x400000
 800187c:	d113      	bne.n	80018a6 <HAL_RCC_GetSysClockFreq+0x4a>
 800187e:	480f      	ldr	r0, [pc, #60]	; (80018bc <HAL_RCC_GetSysClockFreq+0x60>)
 8001880:	f3c1 1188 	ubfx	r1, r1, #6, #9
 8001884:	fba1 0100 	umull	r0, r1, r1, r0
 8001888:	f7ff f9ae 	bl	8000be8 <__aeabi_uldivmod>
 800188c:	4b0a      	ldr	r3, [pc, #40]	; (80018b8 <HAL_RCC_GetSysClockFreq+0x5c>)
 800188e:	685b      	ldr	r3, [r3, #4]
 8001890:	f3c3 4301 	ubfx	r3, r3, #16, #2
 8001894:	3301      	adds	r3, #1
 8001896:	005b      	lsls	r3, r3, #1
 8001898:	fbb0 f0f3 	udiv	r0, r0, r3
 800189c:	bd08      	pop	{r3, pc}
 800189e:	4807      	ldr	r0, [pc, #28]	; (80018bc <HAL_RCC_GetSysClockFreq+0x60>)
 80018a0:	bd08      	pop	{r3, pc}
 80018a2:	4807      	ldr	r0, [pc, #28]	; (80018c0 <HAL_RCC_GetSysClockFreq+0x64>)
 80018a4:	bd08      	pop	{r3, pc}
 80018a6:	4806      	ldr	r0, [pc, #24]	; (80018c0 <HAL_RCC_GetSysClockFreq+0x64>)
 80018a8:	f3c1 1188 	ubfx	r1, r1, #6, #9
 80018ac:	2300      	movs	r3, #0
 80018ae:	fba1 0100 	umull	r0, r1, r1, r0
 80018b2:	f7ff f999 	bl	8000be8 <__aeabi_uldivmod>
 80018b6:	e7e9      	b.n	800188c <HAL_RCC_GetSysClockFreq+0x30>
 80018b8:	40023800 	.word	0x40023800
 80018bc:	00f42400 	.word	0x00f42400
 80018c0:	017d7840 	.word	0x017d7840

080018c4 <HAL_RCC_GetPCLK1Freq>:
 80018c4:	4b04      	ldr	r3, [pc, #16]	; (80018d8 <HAL_RCC_GetPCLK1Freq+0x14>)
 80018c6:	4a05      	ldr	r2, [pc, #20]	; (80018dc <HAL_RCC_GetPCLK1Freq+0x18>)
 80018c8:	689b      	ldr	r3, [r3, #8]
 80018ca:	4905      	ldr	r1, [pc, #20]	; (80018e0 <HAL_RCC_GetPCLK1Freq+0x1c>)
 80018cc:	f3c3 2382 	ubfx	r3, r3, #10, #3
 80018d0:	6808      	ldr	r0, [r1, #0]
 80018d2:	5cd3      	ldrb	r3, [r2, r3]
 80018d4:	40d8      	lsrs	r0, r3
 80018d6:	4770      	bx	lr
 80018d8:	40023800 	.word	0x40023800
 80018dc:	0800776c 	.word	0x0800776c
 80018e0:	20000510 	.word	0x20000510

080018e4 <HAL_RCC_GetPCLK2Freq>:
 80018e4:	4b04      	ldr	r3, [pc, #16]	; (80018f8 <HAL_RCC_GetPCLK2Freq+0x14>)
 80018e6:	4a05      	ldr	r2, [pc, #20]	; (80018fc <HAL_RCC_GetPCLK2Freq+0x18>)
 80018e8:	689b      	ldr	r3, [r3, #8]
 80018ea:	4905      	ldr	r1, [pc, #20]	; (8001900 <HAL_RCC_GetPCLK2Freq+0x1c>)
 80018ec:	f3c3 3342 	ubfx	r3, r3, #13, #3
 80018f0:	6808      	ldr	r0, [r1, #0]
 80018f2:	5cd3      	ldrb	r3, [r2, r3]
 80018f4:	40d8      	lsrs	r0, r3
 80018f6:	4770      	bx	lr
 80018f8:	40023800 	.word	0x40023800
 80018fc:	0800776c 	.word	0x0800776c
 8001900:	20000510 	.word	0x20000510

08001904 <HAL_RCCEx_PeriphCLKConfig>:
 8001904:	6803      	ldr	r3, [r0, #0]
 8001906:	e92d 43f0 	stmdb	sp!, {r4, r5, r6, r7, r8, r9, lr}
 800190a:	f013 0601 	ands.w	r6, r3, #1
 800190e:	b083      	sub	sp, #12
 8001910:	4604      	mov	r4, r0
 8001912:	d00b      	beq.n	800192c <HAL_RCCEx_PeriphCLKConfig+0x28>
 8001914:	4ab8      	ldr	r2, [pc, #736]	; (8001bf8 <HAL_RCCEx_PeriphCLKConfig+0x2f4>)
 8001916:	6891      	ldr	r1, [r2, #8]
 8001918:	f421 0100 	bic.w	r1, r1, #8388608	; 0x800000
 800191c:	6091      	str	r1, [r2, #8]
 800191e:	6b46      	ldr	r6, [r0, #52]	; 0x34
 8001920:	6891      	ldr	r1, [r2, #8]
 8001922:	4331      	orrs	r1, r6
 8001924:	fab6 f686 	clz	r6, r6
 8001928:	0976      	lsrs	r6, r6, #5
 800192a:	6091      	str	r1, [r2, #8]
 800192c:	f413 2500 	ands.w	r5, r3, #524288	; 0x80000
 8001930:	d010      	beq.n	8001954 <HAL_RCCEx_PeriphCLKConfig+0x50>
 8001932:	49b1      	ldr	r1, [pc, #708]	; (8001bf8 <HAL_RCCEx_PeriphCLKConfig+0x2f4>)
 8001934:	6be5      	ldr	r5, [r4, #60]	; 0x3c
 8001936:	f8d1 208c 	ldr.w	r2, [r1, #140]	; 0x8c
 800193a:	f5b5 1f80 	cmp.w	r5, #1048576	; 0x100000
 800193e:	f422 1240 	bic.w	r2, r2, #3145728	; 0x300000
 8001942:	ea42 0205 	orr.w	r2, r2, r5
 8001946:	f8c1 208c 	str.w	r2, [r1, #140]	; 0x8c
 800194a:	f000 81b0 	beq.w	8001cae <HAL_RCCEx_PeriphCLKConfig+0x3aa>
 800194e:	fab5 f585 	clz	r5, r5
 8001952:	096d      	lsrs	r5, r5, #5
 8001954:	02d9      	lsls	r1, r3, #11
 8001956:	d510      	bpl.n	800197a <HAL_RCCEx_PeriphCLKConfig+0x76>
 8001958:	48a7      	ldr	r0, [pc, #668]	; (8001bf8 <HAL_RCCEx_PeriphCLKConfig+0x2f4>)
 800195a:	6c21      	ldr	r1, [r4, #64]	; 0x40
 800195c:	f8d0 208c 	ldr.w	r2, [r0, #140]	; 0x8c
 8001960:	f5b1 0f80 	cmp.w	r1, #4194304	; 0x400000
 8001964:	f422 0240 	bic.w	r2, r2, #12582912	; 0xc00000
 8001968:	ea42 0201 	orr.w	r2, r2, r1
 800196c:	f8c0 208c 	str.w	r2, [r0, #140]	; 0x8c
 8001970:	f000 819b 	beq.w	8001caa <HAL_RCCEx_PeriphCLKConfig+0x3a6>
 8001974:	2900      	cmp	r1, #0
 8001976:	bf08      	it	eq
 8001978:	2501      	moveq	r5, #1
 800197a:	f013 7f80 	tst.w	r3, #16777216	; 0x1000000
 800197e:	bf18      	it	ne
 8001980:	2601      	movne	r6, #1
 8001982:	069a      	lsls	r2, r3, #26
 8001984:	f100 8149 	bmi.w	8001c1a <HAL_RCCEx_PeriphCLKConfig+0x316>
 8001988:	06d9      	lsls	r1, r3, #27
 800198a:	d50c      	bpl.n	80019a6 <HAL_RCCEx_PeriphCLKConfig+0xa2>
 800198c:	4a9a      	ldr	r2, [pc, #616]	; (8001bf8 <HAL_RCCEx_PeriphCLKConfig+0x2f4>)
 800198e:	f8d2 108c 	ldr.w	r1, [r2, #140]	; 0x8c
 8001992:	f021 7180 	bic.w	r1, r1, #16777216	; 0x1000000
 8001996:	f8c2 108c 	str.w	r1, [r2, #140]	; 0x8c
 800199a:	f8d2 108c 	ldr.w	r1, [r2, #140]	; 0x8c
 800199e:	6ba0      	ldr	r0, [r4, #56]	; 0x38
 80019a0:	4301      	orrs	r1, r0
 80019a2:	f8c2 108c 	str.w	r1, [r2, #140]	; 0x8c
 80019a6:	045a      	lsls	r2, r3, #17
 80019a8:	d508      	bpl.n	80019bc <HAL_RCCEx_PeriphCLKConfig+0xb8>
 80019aa:	4993      	ldr	r1, [pc, #588]	; (8001bf8 <HAL_RCCEx_PeriphCLKConfig+0x2f4>)
 80019ac:	6e60      	ldr	r0, [r4, #100]	; 0x64
 80019ae:	f8d1 2090 	ldr.w	r2, [r1, #144]	; 0x90
 80019b2:	f422 3240 	bic.w	r2, r2, #196608	; 0x30000
 80019b6:	4302      	orrs	r2, r0
 80019b8:	f8c1 2090 	str.w	r2, [r1, #144]	; 0x90
 80019bc:	041f      	lsls	r7, r3, #16
 80019be:	d508      	bpl.n	80019d2 <HAL_RCCEx_PeriphCLKConfig+0xce>
 80019c0:	498d      	ldr	r1, [pc, #564]	; (8001bf8 <HAL_RCCEx_PeriphCLKConfig+0x2f4>)
 80019c2:	6ea0      	ldr	r0, [r4, #104]	; 0x68
 80019c4:	f8d1 2090 	ldr.w	r2, [r1, #144]	; 0x90
 80019c8:	f422 2240 	bic.w	r2, r2, #786432	; 0xc0000
 80019cc:	4302      	orrs	r2, r0
 80019ce:	f8c1 2090 	str.w	r2, [r1, #144]	; 0x90
 80019d2:	03d8      	lsls	r0, r3, #15
 80019d4:	d508      	bpl.n	80019e8 <HAL_RCCEx_PeriphCLKConfig+0xe4>
 80019d6:	4988      	ldr	r1, [pc, #544]	; (8001bf8 <HAL_RCCEx_PeriphCLKConfig+0x2f4>)
 80019d8:	6ee0      	ldr	r0, [r4, #108]	; 0x6c
 80019da:	f8d1 2090 	ldr.w	r2, [r1, #144]	; 0x90
 80019de:	f422 1240 	bic.w	r2, r2, #3145728	; 0x300000
 80019e2:	4302      	orrs	r2, r0
 80019e4:	f8c1 2090 	str.w	r2, [r1, #144]	; 0x90
 80019e8:	0399      	lsls	r1, r3, #14
 80019ea:	d508      	bpl.n	80019fe <HAL_RCCEx_PeriphCLKConfig+0xfa>
 80019ec:	4982      	ldr	r1, [pc, #520]	; (8001bf8 <HAL_RCCEx_PeriphCLKConfig+0x2f4>)
 80019ee:	6f20      	ldr	r0, [r4, #112]	; 0x70
 80019f0:	f8d1 2090 	ldr.w	r2, [r1, #144]	; 0x90
 80019f4:	f422 0240 	bic.w	r2, r2, #12582912	; 0xc00000
 80019f8:	4302      	orrs	r2, r0
 80019fa:	f8c1 2090 	str.w	r2, [r1, #144]	; 0x90
 80019fe:	065a      	lsls	r2, r3, #25
 8001a00:	d508      	bpl.n	8001a14 <HAL_RCCEx_PeriphCLKConfig+0x110>
 8001a02:	497d      	ldr	r1, [pc, #500]	; (8001bf8 <HAL_RCCEx_PeriphCLKConfig+0x2f4>)
 8001a04:	6c60      	ldr	r0, [r4, #68]	; 0x44
 8001a06:	f8d1 2090 	ldr.w	r2, [r1, #144]	; 0x90
 8001a0a:	f022 0203 	bic.w	r2, r2, #3
 8001a0e:	4302      	orrs	r2, r0
 8001a10:	f8c1 2090 	str.w	r2, [r1, #144]	; 0x90
 8001a14:	061f      	lsls	r7, r3, #24
 8001a16:	d508      	bpl.n	8001a2a <HAL_RCCEx_PeriphCLKConfig+0x126>
 8001a18:	4977      	ldr	r1, [pc, #476]	; (8001bf8 <HAL_RCCEx_PeriphCLKConfig+0x2f4>)
 8001a1a:	6ca0      	ldr	r0, [r4, #72]	; 0x48
 8001a1c:	f8d1 2090 	ldr.w	r2, [r1, #144]	; 0x90
 8001a20:	f022 020c 	bic.w	r2, r2, #12
 8001a24:	4302      	orrs	r2, r0
 8001a26:	f8c1 2090 	str.w	r2, [r1, #144]	; 0x90
 8001a2a:	05d8      	lsls	r0, r3, #23
 8001a2c:	d508      	bpl.n	8001a40 <HAL_RCCEx_PeriphCLKConfig+0x13c>
 8001a2e:	4972      	ldr	r1, [pc, #456]	; (8001bf8 <HAL_RCCEx_PeriphCLKConfig+0x2f4>)
 8001a30:	6ce0      	ldr	r0, [r4, #76]	; 0x4c
 8001a32:	f8d1 2090 	ldr.w	r2, [r1, #144]	; 0x90
 8001a36:	f022 0230 	bic.w	r2, r2, #48	; 0x30
 8001a3a:	4302      	orrs	r2, r0
 8001a3c:	f8c1 2090 	str.w	r2, [r1, #144]	; 0x90
 8001a40:	0599      	lsls	r1, r3, #22
 8001a42:	d508      	bpl.n	8001a56 <HAL_RCCEx_PeriphCLKConfig+0x152>
 8001a44:	496c      	ldr	r1, [pc, #432]	; (8001bf8 <HAL_RCCEx_PeriphCLKConfig+0x2f4>)
 8001a46:	6d20      	ldr	r0, [r4, #80]	; 0x50
 8001a48:	f8d1 2090 	ldr.w	r2, [r1, #144]	; 0x90
 8001a4c:	f022 02c0 	bic.w	r2, r2, #192	; 0xc0
 8001a50:	4302      	orrs	r2, r0
 8001a52:	f8c1 2090 	str.w	r2, [r1, #144]	; 0x90
 8001a56:	055a      	lsls	r2, r3, #21
 8001a58:	d508      	bpl.n	8001a6c <HAL_RCCEx_PeriphCLKConfig+0x168>
 8001a5a:	4967      	ldr	r1, [pc, #412]	; (8001bf8 <HAL_RCCEx_PeriphCLKConfig+0x2f4>)
 8001a5c:	6d60      	ldr	r0, [r4, #84]	; 0x54
 8001a5e:	f8d1 2090 	ldr.w	r2, [r1, #144]	; 0x90
 8001a62:	f422 7240 	bic.w	r2, r2, #768	; 0x300
 8001a66:	4302      	orrs	r2, r0
 8001a68:	f8c1 2090 	str.w	r2, [r1, #144]	; 0x90
 8001a6c:	051f      	lsls	r7, r3, #20
 8001a6e:	d508      	bpl.n	8001a82 <HAL_RCCEx_PeriphCLKConfig+0x17e>
 8001a70:	4961      	ldr	r1, [pc, #388]	; (8001bf8 <HAL_RCCEx_PeriphCLKConfig+0x2f4>)
 8001a72:	6da0      	ldr	r0, [r4, #88]	; 0x58
 8001a74:	f8d1 2090 	ldr.w	r2, [r1, #144]	; 0x90
 8001a78:	f422 6240 	bic.w	r2, r2, #3072	; 0xc00
 8001a7c:	4302      	orrs	r2, r0
 8001a7e:	f8c1 2090 	str.w	r2, [r1, #144]	; 0x90
 8001a82:	04d8      	lsls	r0, r3, #19
 8001a84:	d508      	bpl.n	8001a98 <HAL_RCCEx_PeriphCLKConfig+0x194>
 8001a86:	495c      	ldr	r1, [pc, #368]	; (8001bf8 <HAL_RCCEx_PeriphCLKConfig+0x2f4>)
 8001a88:	6de0      	ldr	r0, [r4, #92]	; 0x5c
 8001a8a:	f8d1 2090 	ldr.w	r2, [r1, #144]	; 0x90
 8001a8e:	f422 5240 	bic.w	r2, r2, #12288	; 0x3000
 8001a92:	4302      	orrs	r2, r0
 8001a94:	f8c1 2090 	str.w	r2, [r1, #144]	; 0x90
 8001a98:	0499      	lsls	r1, r3, #18
 8001a9a:	d508      	bpl.n	8001aae <HAL_RCCEx_PeriphCLKConfig+0x1aa>
 8001a9c:	4956      	ldr	r1, [pc, #344]	; (8001bf8 <HAL_RCCEx_PeriphCLKConfig+0x2f4>)
 8001a9e:	6e20      	ldr	r0, [r4, #96]	; 0x60
 8001aa0:	f8d1 2090 	ldr.w	r2, [r1, #144]	; 0x90
 8001aa4:	f422 4240 	bic.w	r2, r2, #49152	; 0xc000
 8001aa8:	4302      	orrs	r2, r0
 8001aaa:	f8c1 2090 	str.w	r2, [r1, #144]	; 0x90
 8001aae:	025a      	lsls	r2, r3, #9
 8001ab0:	d508      	bpl.n	8001ac4 <HAL_RCCEx_PeriphCLKConfig+0x1c0>
 8001ab2:	4951      	ldr	r1, [pc, #324]	; (8001bf8 <HAL_RCCEx_PeriphCLKConfig+0x2f4>)
 8001ab4:	6fa0      	ldr	r0, [r4, #120]	; 0x78
 8001ab6:	f8d1 2090 	ldr.w	r2, [r1, #144]	; 0x90
 8001aba:	f022 6280 	bic.w	r2, r2, #67108864	; 0x4000000
 8001abe:	4302      	orrs	r2, r0
 8001ac0:	f8c1 2090 	str.w	r2, [r1, #144]	; 0x90
 8001ac4:	029f      	lsls	r7, r3, #10
 8001ac6:	d50c      	bpl.n	8001ae2 <HAL_RCCEx_PeriphCLKConfig+0x1de>
 8001ac8:	494b      	ldr	r1, [pc, #300]	; (8001bf8 <HAL_RCCEx_PeriphCLKConfig+0x2f4>)
 8001aca:	6fe0      	ldr	r0, [r4, #124]	; 0x7c
 8001acc:	f8d1 2090 	ldr.w	r2, [r1, #144]	; 0x90
 8001ad0:	f1b0 6f00 	cmp.w	r0, #134217728	; 0x8000000
 8001ad4:	f022 6200 	bic.w	r2, r2, #134217728	; 0x8000000
 8001ad8:	bf08      	it	eq
 8001ada:	2501      	moveq	r5, #1
 8001adc:	4302      	orrs	r2, r0
 8001ade:	f8c1 2090 	str.w	r2, [r1, #144]	; 0x90
 8001ae2:	f013 0f08 	tst.w	r3, #8
 8001ae6:	bf18      	it	ne
 8001ae8:	2501      	movne	r5, #1
 8001aea:	0358      	lsls	r0, r3, #13
 8001aec:	d508      	bpl.n	8001b00 <HAL_RCCEx_PeriphCLKConfig+0x1fc>
 8001aee:	4942      	ldr	r1, [pc, #264]	; (8001bf8 <HAL_RCCEx_PeriphCLKConfig+0x2f4>)
 8001af0:	6f60      	ldr	r0, [r4, #116]	; 0x74
 8001af2:	f8d1 2090 	ldr.w	r2, [r1, #144]	; 0x90
 8001af6:	f022 7240 	bic.w	r2, r2, #50331648	; 0x3000000
 8001afa:	4302      	orrs	r2, r0
 8001afc:	f8c1 2090 	str.w	r2, [r1, #144]	; 0x90
 8001b00:	0219      	lsls	r1, r3, #8
 8001b02:	d40b      	bmi.n	8001b1c <HAL_RCCEx_PeriphCLKConfig+0x218>
 8001b04:	f1b3 7f00 	cmp.w	r3, #33554432	; 0x2000000
 8001b08:	d016      	beq.n	8001b38 <HAL_RCCEx_PeriphCLKConfig+0x234>
 8001b0a:	07f2      	lsls	r2, r6, #31
 8001b0c:	d414      	bmi.n	8001b38 <HAL_RCCEx_PeriphCLKConfig+0x234>
 8001b0e:	2d01      	cmp	r5, #1
 8001b10:	f000 80d0 	beq.w	8001cb4 <HAL_RCCEx_PeriphCLKConfig+0x3b0>
 8001b14:	2000      	movs	r0, #0
 8001b16:	b003      	add	sp, #12
 8001b18:	e8bd 83f0 	ldmia.w	sp!, {r4, r5, r6, r7, r8, r9, pc}
 8001b1c:	4936      	ldr	r1, [pc, #216]	; (8001bf8 <HAL_RCCEx_PeriphCLKConfig+0x2f4>)
 8001b1e:	f1b3 7f00 	cmp.w	r3, #33554432	; 0x2000000
 8001b22:	f8d4 0080 	ldr.w	r0, [r4, #128]	; 0x80
 8001b26:	f8d1 2090 	ldr.w	r2, [r1, #144]	; 0x90
 8001b2a:	f022 5280 	bic.w	r2, r2, #268435456	; 0x10000000
 8001b2e:	ea42 0200 	orr.w	r2, r2, r0
 8001b32:	f8c1 2090 	str.w	r2, [r1, #144]	; 0x90
 8001b36:	d1e8      	bne.n	8001b0a <HAL_RCCEx_PeriphCLKConfig+0x206>
 8001b38:	4b2f      	ldr	r3, [pc, #188]	; (8001bf8 <HAL_RCCEx_PeriphCLKConfig+0x2f4>)
 8001b3a:	681a      	ldr	r2, [r3, #0]
 8001b3c:	461e      	mov	r6, r3
 8001b3e:	f022 6280 	bic.w	r2, r2, #67108864	; 0x4000000
 8001b42:	601a      	str	r2, [r3, #0]
 8001b44:	f7ff fa0c 	bl	8000f60 <HAL_GetTick>
 8001b48:	4607      	mov	r7, r0
 8001b4a:	e004      	b.n	8001b56 <HAL_RCCEx_PeriphCLKConfig+0x252>
 8001b4c:	f7ff fa08 	bl	8000f60 <HAL_GetTick>
 8001b50:	1bc0      	subs	r0, r0, r7
 8001b52:	2864      	cmp	r0, #100	; 0x64
 8001b54:	d85d      	bhi.n	8001c12 <HAL_RCCEx_PeriphCLKConfig+0x30e>
 8001b56:	6833      	ldr	r3, [r6, #0]
 8001b58:	011b      	lsls	r3, r3, #4
 8001b5a:	d4f7      	bmi.n	8001b4c <HAL_RCCEx_PeriphCLKConfig+0x248>
 8001b5c:	6823      	ldr	r3, [r4, #0]
 8001b5e:	07df      	lsls	r7, r3, #31
 8001b60:	d512      	bpl.n	8001b88 <HAL_RCCEx_PeriphCLKConfig+0x284>
 8001b62:	6b62      	ldr	r2, [r4, #52]	; 0x34
 8001b64:	b982      	cbnz	r2, 8001b88 <HAL_RCCEx_PeriphCLKConfig+0x284>
 8001b66:	f8d6 2084 	ldr.w	r2, [r6, #132]	; 0x84
 8001b6a:	f8d6 7084 	ldr.w	r7, [r6, #132]	; 0x84
 8001b6e:	f402 3240 	and.w	r2, r2, #196608	; 0x30000
 8001b72:	6860      	ldr	r0, [r4, #4]
 8001b74:	f007 6770 	and.w	r7, r7, #251658240	; 0xf000000
 8001b78:	68a1      	ldr	r1, [r4, #8]
 8001b7a:	433a      	orrs	r2, r7
 8001b7c:	ea42 1280 	orr.w	r2, r2, r0, lsl #6
 8001b80:	ea42 7201 	orr.w	r2, r2, r1, lsl #28
 8001b84:	f8c6 2084 	str.w	r2, [r6, #132]	; 0x84
 8001b88:	031e      	lsls	r6, r3, #12
 8001b8a:	f100 8111 	bmi.w	8001db0 <HAL_RCCEx_PeriphCLKConfig+0x4ac>
 8001b8e:	02d8      	lsls	r0, r3, #11
 8001b90:	d504      	bpl.n	8001b9c <HAL_RCCEx_PeriphCLKConfig+0x298>
 8001b92:	6c22      	ldr	r2, [r4, #64]	; 0x40
 8001b94:	f5b2 0f80 	cmp.w	r2, #4194304	; 0x400000
 8001b98:	f000 810f 	beq.w	8001dba <HAL_RCCEx_PeriphCLKConfig+0x4b6>
 8001b9c:	01d9      	lsls	r1, r3, #7
 8001b9e:	d511      	bpl.n	8001bc4 <HAL_RCCEx_PeriphCLKConfig+0x2c0>
 8001ba0:	4e15      	ldr	r6, [pc, #84]	; (8001bf8 <HAL_RCCEx_PeriphCLKConfig+0x2f4>)
 8001ba2:	6860      	ldr	r0, [r4, #4]
 8001ba4:	f8d6 2084 	ldr.w	r2, [r6, #132]	; 0x84
 8001ba8:	f8d6 7084 	ldr.w	r7, [r6, #132]	; 0x84
 8001bac:	f002 6270 	and.w	r2, r2, #251658240	; 0xf000000
 8001bb0:	6921      	ldr	r1, [r4, #16]
 8001bb2:	f007 47e0 	and.w	r7, r7, #1879048192	; 0x70000000
 8001bb6:	433a      	orrs	r2, r7
 8001bb8:	ea42 1280 	orr.w	r2, r2, r0, lsl #6
 8001bbc:	ea42 4201 	orr.w	r2, r2, r1, lsl #16
 8001bc0:	f8c6 2084 	str.w	r2, [r6, #132]	; 0x84
 8001bc4:	019a      	lsls	r2, r3, #6
 8001bc6:	d50d      	bpl.n	8001be4 <HAL_RCCEx_PeriphCLKConfig+0x2e0>
 8001bc8:	6923      	ldr	r3, [r4, #16]
 8001bca:	6862      	ldr	r2, [r4, #4]
 8001bcc:	041b      	lsls	r3, r3, #16
 8001bce:	e9d4 1002 	ldrd	r1, r0, [r4, #8]
 8001bd2:	ea43 1382 	orr.w	r3, r3, r2, lsl #6
 8001bd6:	4a08      	ldr	r2, [pc, #32]	; (8001bf8 <HAL_RCCEx_PeriphCLKConfig+0x2f4>)
 8001bd8:	ea43 6300 	orr.w	r3, r3, r0, lsl #24
 8001bdc:	ea43 7301 	orr.w	r3, r3, r1, lsl #28
 8001be0:	f8c2 3084 	str.w	r3, [r2, #132]	; 0x84
 8001be4:	4b04      	ldr	r3, [pc, #16]	; (8001bf8 <HAL_RCCEx_PeriphCLKConfig+0x2f4>)
 8001be6:	681a      	ldr	r2, [r3, #0]
 8001be8:	461e      	mov	r6, r3
 8001bea:	f042 6280 	orr.w	r2, r2, #67108864	; 0x4000000
 8001bee:	601a      	str	r2, [r3, #0]
 8001bf0:	f7ff f9b6 	bl	8000f60 <HAL_GetTick>
 8001bf4:	4607      	mov	r7, r0
 8001bf6:	e006      	b.n	8001c06 <HAL_RCCEx_PeriphCLKConfig+0x302>
 8001bf8:	40023800 	.word	0x40023800
 8001bfc:	f7ff f9b0 	bl	8000f60 <HAL_GetTick>
 8001c00:	1bc0      	subs	r0, r0, r7
 8001c02:	2864      	cmp	r0, #100	; 0x64
 8001c04:	d805      	bhi.n	8001c12 <HAL_RCCEx_PeriphCLKConfig+0x30e>
 8001c06:	6833      	ldr	r3, [r6, #0]
 8001c08:	011b      	lsls	r3, r3, #4
 8001c0a:	d5f7      	bpl.n	8001bfc <HAL_RCCEx_PeriphCLKConfig+0x2f8>
 8001c0c:	2d01      	cmp	r5, #1
 8001c0e:	d181      	bne.n	8001b14 <HAL_RCCEx_PeriphCLKConfig+0x210>
 8001c10:	e050      	b.n	8001cb4 <HAL_RCCEx_PeriphCLKConfig+0x3b0>
 8001c12:	2003      	movs	r0, #3
 8001c14:	b003      	add	sp, #12
 8001c16:	e8bd 83f0 	ldmia.w	sp!, {r4, r5, r6, r7, r8, r9, pc}
 8001c1a:	4a87      	ldr	r2, [pc, #540]	; (8001e38 <HAL_RCCEx_PeriphCLKConfig+0x534>)
 8001c1c:	4b87      	ldr	r3, [pc, #540]	; (8001e3c <HAL_RCCEx_PeriphCLKConfig+0x538>)
 8001c1e:	6c11      	ldr	r1, [r2, #64]	; 0x40
 8001c20:	461f      	mov	r7, r3
 8001c22:	f041 5180 	orr.w	r1, r1, #268435456	; 0x10000000
 8001c26:	6411      	str	r1, [r2, #64]	; 0x40
 8001c28:	6c12      	ldr	r2, [r2, #64]	; 0x40
 8001c2a:	f002 5280 	and.w	r2, r2, #268435456	; 0x10000000
 8001c2e:	9201      	str	r2, [sp, #4]
 8001c30:	9a01      	ldr	r2, [sp, #4]
 8001c32:	681a      	ldr	r2, [r3, #0]
 8001c34:	f442 7280 	orr.w	r2, r2, #256	; 0x100
 8001c38:	601a      	str	r2, [r3, #0]
 8001c3a:	f7ff f991 	bl	8000f60 <HAL_GetTick>
 8001c3e:	4680      	mov	r8, r0
 8001c40:	e005      	b.n	8001c4e <HAL_RCCEx_PeriphCLKConfig+0x34a>
 8001c42:	f7ff f98d 	bl	8000f60 <HAL_GetTick>
 8001c46:	eba0 0008 	sub.w	r0, r0, r8
 8001c4a:	2864      	cmp	r0, #100	; 0x64
 8001c4c:	d8e1      	bhi.n	8001c12 <HAL_RCCEx_PeriphCLKConfig+0x30e>
 8001c4e:	683b      	ldr	r3, [r7, #0]
 8001c50:	05db      	lsls	r3, r3, #23
 8001c52:	d5f6      	bpl.n	8001c42 <HAL_RCCEx_PeriphCLKConfig+0x33e>
 8001c54:	4a78      	ldr	r2, [pc, #480]	; (8001e38 <HAL_RCCEx_PeriphCLKConfig+0x534>)
 8001c56:	6b23      	ldr	r3, [r4, #48]	; 0x30
 8001c58:	6f11      	ldr	r1, [r2, #112]	; 0x70
 8001c5a:	f403 7040 	and.w	r0, r3, #768	; 0x300
 8001c5e:	f411 7140 	ands.w	r1, r1, #768	; 0x300
 8001c62:	d011      	beq.n	8001c88 <HAL_RCCEx_PeriphCLKConfig+0x384>
 8001c64:	4281      	cmp	r1, r0
 8001c66:	d00f      	beq.n	8001c88 <HAL_RCCEx_PeriphCLKConfig+0x384>
 8001c68:	6f11      	ldr	r1, [r2, #112]	; 0x70
 8001c6a:	6f17      	ldr	r7, [r2, #112]	; 0x70
 8001c6c:	f421 7140 	bic.w	r1, r1, #768	; 0x300
 8001c70:	f447 3780 	orr.w	r7, r7, #65536	; 0x10000
 8001c74:	6717      	str	r7, [r2, #112]	; 0x70
 8001c76:	6f17      	ldr	r7, [r2, #112]	; 0x70
 8001c78:	f427 3780 	bic.w	r7, r7, #65536	; 0x10000
 8001c7c:	6717      	str	r7, [r2, #112]	; 0x70
 8001c7e:	6711      	str	r1, [r2, #112]	; 0x70
 8001c80:	6f11      	ldr	r1, [r2, #112]	; 0x70
 8001c82:	07cf      	lsls	r7, r1, #31
 8001c84:	f100 80c3 	bmi.w	8001e0e <HAL_RCCEx_PeriphCLKConfig+0x50a>
 8001c88:	f5b0 7f40 	cmp.w	r0, #768	; 0x300
 8001c8c:	f000 80b1 	beq.w	8001df2 <HAL_RCCEx_PeriphCLKConfig+0x4ee>
 8001c90:	4969      	ldr	r1, [pc, #420]	; (8001e38 <HAL_RCCEx_PeriphCLKConfig+0x534>)
 8001c92:	688a      	ldr	r2, [r1, #8]
 8001c94:	f422 12f8 	bic.w	r2, r2, #2031616	; 0x1f0000
 8001c98:	608a      	str	r2, [r1, #8]
 8001c9a:	4a67      	ldr	r2, [pc, #412]	; (8001e38 <HAL_RCCEx_PeriphCLKConfig+0x534>)
 8001c9c:	f3c3 030b 	ubfx	r3, r3, #0, #12
 8001ca0:	6f11      	ldr	r1, [r2, #112]	; 0x70
 8001ca2:	430b      	orrs	r3, r1
 8001ca4:	6713      	str	r3, [r2, #112]	; 0x70
 8001ca6:	6823      	ldr	r3, [r4, #0]
 8001ca8:	e66e      	b.n	8001988 <HAL_RCCEx_PeriphCLKConfig+0x84>
 8001caa:	2601      	movs	r6, #1
 8001cac:	e665      	b.n	800197a <HAL_RCCEx_PeriphCLKConfig+0x76>
 8001cae:	2500      	movs	r5, #0
 8001cb0:	2601      	movs	r6, #1
 8001cb2:	e64f      	b.n	8001954 <HAL_RCCEx_PeriphCLKConfig+0x50>
 8001cb4:	4b60      	ldr	r3, [pc, #384]	; (8001e38 <HAL_RCCEx_PeriphCLKConfig+0x534>)
 8001cb6:	681a      	ldr	r2, [r3, #0]
 8001cb8:	461d      	mov	r5, r3
 8001cba:	f022 5280 	bic.w	r2, r2, #268435456	; 0x10000000
 8001cbe:	601a      	str	r2, [r3, #0]
 8001cc0:	f7ff f94e 	bl	8000f60 <HAL_GetTick>
 8001cc4:	4606      	mov	r6, r0
 8001cc6:	e004      	b.n	8001cd2 <HAL_RCCEx_PeriphCLKConfig+0x3ce>
 8001cc8:	f7ff f94a 	bl	8000f60 <HAL_GetTick>
 8001ccc:	1b80      	subs	r0, r0, r6
 8001cce:	2864      	cmp	r0, #100	; 0x64
 8001cd0:	d89f      	bhi.n	8001c12 <HAL_RCCEx_PeriphCLKConfig+0x30e>
 8001cd2:	682b      	ldr	r3, [r5, #0]
 8001cd4:	009f      	lsls	r7, r3, #2
 8001cd6:	d4f7      	bmi.n	8001cc8 <HAL_RCCEx_PeriphCLKConfig+0x3c4>
 8001cd8:	6823      	ldr	r3, [r4, #0]
 8001cda:	031d      	lsls	r5, r3, #12
 8001cdc:	f100 8092 	bmi.w	8001e04 <HAL_RCCEx_PeriphCLKConfig+0x500>
 8001ce0:	02d8      	lsls	r0, r3, #11
 8001ce2:	d51d      	bpl.n	8001d20 <HAL_RCCEx_PeriphCLKConfig+0x41c>
 8001ce4:	6c22      	ldr	r2, [r4, #64]	; 0x40
 8001ce6:	b9da      	cbnz	r2, 8001d20 <HAL_RCCEx_PeriphCLKConfig+0x41c>
 8001ce8:	4953      	ldr	r1, [pc, #332]	; (8001e38 <HAL_RCCEx_PeriphCLKConfig+0x534>)
 8001cea:	6965      	ldr	r5, [r4, #20]
 8001cec:	f8d1 2088 	ldr.w	r2, [r1, #136]	; 0x88
 8001cf0:	f8d1 6088 	ldr.w	r6, [r1, #136]	; 0x88
 8001cf4:	f402 3240 	and.w	r2, r2, #196608	; 0x30000
 8001cf8:	69a0      	ldr	r0, [r4, #24]
 8001cfa:	f006 46e0 	and.w	r6, r6, #1879048192	; 0x70000000
 8001cfe:	4332      	orrs	r2, r6
 8001d00:	ea42 1285 	orr.w	r2, r2, r5, lsl #6
 8001d04:	ea42 6200 	orr.w	r2, r2, r0, lsl #24
 8001d08:	f8c1 2088 	str.w	r2, [r1, #136]	; 0x88
 8001d0c:	f8d1 208c 	ldr.w	r2, [r1, #140]	; 0x8c
 8001d10:	6aa0      	ldr	r0, [r4, #40]	; 0x28
 8001d12:	f422 52f8 	bic.w	r2, r2, #7936	; 0x1f00
 8001d16:	3801      	subs	r0, #1
 8001d18:	ea42 2200 	orr.w	r2, r2, r0, lsl #8
 8001d1c:	f8c1 208c 	str.w	r2, [r1, #140]	; 0x8c
 8001d20:	0299      	lsls	r1, r3, #10
 8001d22:	d515      	bpl.n	8001d50 <HAL_RCCEx_PeriphCLKConfig+0x44c>
 8001d24:	6fe2      	ldr	r2, [r4, #124]	; 0x7c
 8001d26:	f1b2 6f00 	cmp.w	r2, #134217728	; 0x8000000
 8001d2a:	d111      	bne.n	8001d50 <HAL_RCCEx_PeriphCLKConfig+0x44c>
 8001d2c:	4942      	ldr	r1, [pc, #264]	; (8001e38 <HAL_RCCEx_PeriphCLKConfig+0x534>)
 8001d2e:	6965      	ldr	r5, [r4, #20]
 8001d30:	f8d1 2088 	ldr.w	r2, [r1, #136]	; 0x88
 8001d34:	f8d1 6088 	ldr.w	r6, [r1, #136]	; 0x88
 8001d38:	f002 6270 	and.w	r2, r2, #251658240	; 0xf000000
 8001d3c:	6a20      	ldr	r0, [r4, #32]
 8001d3e:	f006 46e0 	and.w	r6, r6, #1879048192	; 0x70000000
 8001d42:	4332      	orrs	r2, r6
 8001d44:	ea42 1285 	orr.w	r2, r2, r5, lsl #6
 8001d48:	ea42 4200 	orr.w	r2, r2, r0, lsl #16
 8001d4c:	f8c1 2088 	str.w	r2, [r1, #136]	; 0x88
 8001d50:	071a      	lsls	r2, r3, #28
 8001d52:	d519      	bpl.n	8001d88 <HAL_RCCEx_PeriphCLKConfig+0x484>
 8001d54:	4a38      	ldr	r2, [pc, #224]	; (8001e38 <HAL_RCCEx_PeriphCLKConfig+0x534>)
 8001d56:	6965      	ldr	r5, [r4, #20]
 8001d58:	f8d2 1088 	ldr.w	r1, [r2, #136]	; 0x88
 8001d5c:	f8d2 3088 	ldr.w	r3, [r2, #136]	; 0x88
 8001d60:	f001 6170 	and.w	r1, r1, #251658240	; 0xf000000
 8001d64:	69e0      	ldr	r0, [r4, #28]
 8001d66:	f403 3340 	and.w	r3, r3, #196608	; 0x30000
 8001d6a:	430b      	orrs	r3, r1
 8001d6c:	ea43 1385 	orr.w	r3, r3, r5, lsl #6
 8001d70:	ea43 7300 	orr.w	r3, r3, r0, lsl #28
 8001d74:	f8c2 3088 	str.w	r3, [r2, #136]	; 0x88
 8001d78:	f8d2 308c 	ldr.w	r3, [r2, #140]	; 0x8c
 8001d7c:	6ae1      	ldr	r1, [r4, #44]	; 0x2c
 8001d7e:	f423 3340 	bic.w	r3, r3, #196608	; 0x30000
 8001d82:	430b      	orrs	r3, r1
 8001d84:	f8c2 308c 	str.w	r3, [r2, #140]	; 0x8c
 8001d88:	4b2b      	ldr	r3, [pc, #172]	; (8001e38 <HAL_RCCEx_PeriphCLKConfig+0x534>)
 8001d8a:	681a      	ldr	r2, [r3, #0]
 8001d8c:	461c      	mov	r4, r3
 8001d8e:	f042 5280 	orr.w	r2, r2, #268435456	; 0x10000000
 8001d92:	601a      	str	r2, [r3, #0]
 8001d94:	f7ff f8e4 	bl	8000f60 <HAL_GetTick>
 8001d98:	4605      	mov	r5, r0
 8001d9a:	e005      	b.n	8001da8 <HAL_RCCEx_PeriphCLKConfig+0x4a4>
 8001d9c:	f7ff f8e0 	bl	8000f60 <HAL_GetTick>
 8001da0:	1b40      	subs	r0, r0, r5
 8001da2:	2864      	cmp	r0, #100	; 0x64
 8001da4:	f63f af35 	bhi.w	8001c12 <HAL_RCCEx_PeriphCLKConfig+0x30e>
 8001da8:	6823      	ldr	r3, [r4, #0]
 8001daa:	009b      	lsls	r3, r3, #2
 8001dac:	d5f6      	bpl.n	8001d9c <HAL_RCCEx_PeriphCLKConfig+0x498>
 8001dae:	e6b1      	b.n	8001b14 <HAL_RCCEx_PeriphCLKConfig+0x210>
 8001db0:	6be2      	ldr	r2, [r4, #60]	; 0x3c
 8001db2:	f5b2 1f80 	cmp.w	r2, #1048576	; 0x100000
 8001db6:	f47f aeea 	bne.w	8001b8e <HAL_RCCEx_PeriphCLKConfig+0x28a>
 8001dba:	4e1f      	ldr	r6, [pc, #124]	; (8001e38 <HAL_RCCEx_PeriphCLKConfig+0x534>)
 8001dbc:	6860      	ldr	r0, [r4, #4]
 8001dbe:	f8d6 2084 	ldr.w	r2, [r6, #132]	; 0x84
 8001dc2:	f8d6 7084 	ldr.w	r7, [r6, #132]	; 0x84
 8001dc6:	f402 3240 	and.w	r2, r2, #196608	; 0x30000
 8001dca:	68e1      	ldr	r1, [r4, #12]
 8001dcc:	f007 47e0 	and.w	r7, r7, #1879048192	; 0x70000000
 8001dd0:	433a      	orrs	r2, r7
 8001dd2:	ea42 1280 	orr.w	r2, r2, r0, lsl #6
 8001dd6:	ea42 6201 	orr.w	r2, r2, r1, lsl #24
 8001dda:	f8c6 2084 	str.w	r2, [r6, #132]	; 0x84
 8001dde:	f8d6 108c 	ldr.w	r1, [r6, #140]	; 0x8c
 8001de2:	6a62      	ldr	r2, [r4, #36]	; 0x24
 8001de4:	f021 011f 	bic.w	r1, r1, #31
 8001de8:	3a01      	subs	r2, #1
 8001dea:	430a      	orrs	r2, r1
 8001dec:	f8c6 208c 	str.w	r2, [r6, #140]	; 0x8c
 8001df0:	e6d4      	b.n	8001b9c <HAL_RCCEx_PeriphCLKConfig+0x298>
 8001df2:	4811      	ldr	r0, [pc, #68]	; (8001e38 <HAL_RCCEx_PeriphCLKConfig+0x534>)
 8001df4:	4912      	ldr	r1, [pc, #72]	; (8001e40 <HAL_RCCEx_PeriphCLKConfig+0x53c>)
 8001df6:	6882      	ldr	r2, [r0, #8]
 8001df8:	4019      	ands	r1, r3
 8001dfa:	f422 12f8 	bic.w	r2, r2, #2031616	; 0x1f0000
 8001dfe:	430a      	orrs	r2, r1
 8001e00:	6082      	str	r2, [r0, #8]
 8001e02:	e74a      	b.n	8001c9a <HAL_RCCEx_PeriphCLKConfig+0x396>
 8001e04:	6be2      	ldr	r2, [r4, #60]	; 0x3c
 8001e06:	2a00      	cmp	r2, #0
 8001e08:	f43f af6e 	beq.w	8001ce8 <HAL_RCCEx_PeriphCLKConfig+0x3e4>
 8001e0c:	e768      	b.n	8001ce0 <HAL_RCCEx_PeriphCLKConfig+0x3dc>
 8001e0e:	4617      	mov	r7, r2
 8001e10:	f241 3888 	movw	r8, #5000	; 0x1388
 8001e14:	f7ff f8a4 	bl	8000f60 <HAL_GetTick>
 8001e18:	4681      	mov	r9, r0
 8001e1a:	e006      	b.n	8001e2a <HAL_RCCEx_PeriphCLKConfig+0x526>
 8001e1c:	f7ff f8a0 	bl	8000f60 <HAL_GetTick>
 8001e20:	eba0 0009 	sub.w	r0, r0, r9
 8001e24:	4540      	cmp	r0, r8
 8001e26:	f63f aef4 	bhi.w	8001c12 <HAL_RCCEx_PeriphCLKConfig+0x30e>
 8001e2a:	6f3b      	ldr	r3, [r7, #112]	; 0x70
 8001e2c:	0798      	lsls	r0, r3, #30
 8001e2e:	d5f5      	bpl.n	8001e1c <HAL_RCCEx_PeriphCLKConfig+0x518>
 8001e30:	6b23      	ldr	r3, [r4, #48]	; 0x30
 8001e32:	f403 7040 	and.w	r0, r3, #768	; 0x300
 8001e36:	e727      	b.n	8001c88 <HAL_RCCEx_PeriphCLKConfig+0x384>
 8001e38:	40023800 	.word	0x40023800
 8001e3c:	40007000 	.word	0x40007000
 8001e40:	0ffffcff 	.word	0x0ffffcff

08001e44 <HAL_UART_Transmit>:
 8001e44:	e92d 41f0 	stmdb	sp!, {r4, r5, r6, r7, r8, lr}
 8001e48:	461d      	mov	r5, r3
 8001e4a:	6f43      	ldr	r3, [r0, #116]	; 0x74
 8001e4c:	b082      	sub	sp, #8
 8001e4e:	2b20      	cmp	r3, #32
 8001e50:	d146      	bne.n	8001ee0 <HAL_UART_Transmit+0x9c>
 8001e52:	4688      	mov	r8, r1
 8001e54:	2900      	cmp	r1, #0
 8001e56:	d047      	beq.n	8001ee8 <HAL_UART_Transmit+0xa4>
 8001e58:	fab2 f682 	clz	r6, r2
 8001e5c:	9201      	str	r2, [sp, #4]
 8001e5e:	0976      	lsrs	r6, r6, #5
 8001e60:	2e00      	cmp	r6, #0
 8001e62:	d141      	bne.n	8001ee8 <HAL_UART_Transmit+0xa4>
 8001e64:	f890 3070 	ldrb.w	r3, [r0, #112]	; 0x70
 8001e68:	4604      	mov	r4, r0
 8001e6a:	2b01      	cmp	r3, #1
 8001e6c:	d038      	beq.n	8001ee0 <HAL_UART_Transmit+0x9c>
 8001e6e:	2321      	movs	r3, #33	; 0x21
 8001e70:	2101      	movs	r1, #1
 8001e72:	67c6      	str	r6, [r0, #124]	; 0x7c
 8001e74:	f880 1070 	strb.w	r1, [r0, #112]	; 0x70
 8001e78:	6743      	str	r3, [r0, #116]	; 0x74
 8001e7a:	f7ff f871 	bl	8000f60 <HAL_GetTick>
 8001e7e:	68a3      	ldr	r3, [r4, #8]
 8001e80:	9a01      	ldr	r2, [sp, #4]
 8001e82:	4607      	mov	r7, r0
 8001e84:	f5b3 5f80 	cmp.w	r3, #4096	; 0x1000
 8001e88:	f8a4 2050 	strh.w	r2, [r4, #80]	; 0x50
 8001e8c:	f8a4 2052 	strh.w	r2, [r4, #82]	; 0x52
 8001e90:	d05d      	beq.n	8001f4e <HAL_UART_Transmit+0x10a>
 8001e92:	f8b4 3052 	ldrh.w	r3, [r4, #82]	; 0x52
 8001e96:	6820      	ldr	r0, [r4, #0]
 8001e98:	b29b      	uxth	r3, r3
 8001e9a:	b1ab      	cbz	r3, 8001ec8 <HAL_UART_Transmit+0x84>
 8001e9c:	1c69      	adds	r1, r5, #1
 8001e9e:	d127      	bne.n	8001ef0 <HAL_UART_Transmit+0xac>
 8001ea0:	69c2      	ldr	r2, [r0, #28]
 8001ea2:	0612      	lsls	r2, r2, #24
 8001ea4:	d5fc      	bpl.n	8001ea0 <HAL_UART_Transmit+0x5c>
 8001ea6:	f1b8 0f00 	cmp.w	r8, #0
 8001eaa:	d02c      	beq.n	8001f06 <HAL_UART_Transmit+0xc2>
 8001eac:	f818 3b01 	ldrb.w	r3, [r8], #1
 8001eb0:	6283      	str	r3, [r0, #40]	; 0x28
 8001eb2:	f8b4 3052 	ldrh.w	r3, [r4, #82]	; 0x52
 8001eb6:	3b01      	subs	r3, #1
 8001eb8:	b29b      	uxth	r3, r3
 8001eba:	f8a4 3052 	strh.w	r3, [r4, #82]	; 0x52
 8001ebe:	f8b4 3052 	ldrh.w	r3, [r4, #82]	; 0x52
 8001ec2:	b29b      	uxth	r3, r3
 8001ec4:	2b00      	cmp	r3, #0
 8001ec6:	d1e9      	bne.n	8001e9c <HAL_UART_Transmit+0x58>
 8001ec8:	1c69      	adds	r1, r5, #1
 8001eca:	d134      	bne.n	8001f36 <HAL_UART_Transmit+0xf2>
 8001ecc:	69c3      	ldr	r3, [r0, #28]
 8001ece:	065a      	lsls	r2, r3, #25
 8001ed0:	d5fc      	bpl.n	8001ecc <HAL_UART_Transmit+0x88>
 8001ed2:	2300      	movs	r3, #0
 8001ed4:	2220      	movs	r2, #32
 8001ed6:	4618      	mov	r0, r3
 8001ed8:	6762      	str	r2, [r4, #116]	; 0x74
 8001eda:	f884 3070 	strb.w	r3, [r4, #112]	; 0x70
 8001ede:	e000      	b.n	8001ee2 <HAL_UART_Transmit+0x9e>
 8001ee0:	2002      	movs	r0, #2
 8001ee2:	b002      	add	sp, #8
 8001ee4:	e8bd 81f0 	ldmia.w	sp!, {r4, r5, r6, r7, r8, pc}
 8001ee8:	2001      	movs	r0, #1
 8001eea:	b002      	add	sp, #8
 8001eec:	e8bd 81f0 	ldmia.w	sp!, {r4, r5, r6, r7, r8, pc}
 8001ef0:	69c3      	ldr	r3, [r0, #28]
 8001ef2:	061b      	lsls	r3, r3, #24
 8001ef4:	d4d7      	bmi.n	8001ea6 <HAL_UART_Transmit+0x62>
 8001ef6:	f7ff f833 	bl	8000f60 <HAL_GetTick>
 8001efa:	1bc0      	subs	r0, r0, r7
 8001efc:	4285      	cmp	r5, r0
 8001efe:	d307      	bcc.n	8001f10 <HAL_UART_Transmit+0xcc>
 8001f00:	b135      	cbz	r5, 8001f10 <HAL_UART_Transmit+0xcc>
 8001f02:	6820      	ldr	r0, [r4, #0]
 8001f04:	e7ca      	b.n	8001e9c <HAL_UART_Transmit+0x58>
 8001f06:	f836 3b02 	ldrh.w	r3, [r6], #2
 8001f0a:	f3c3 0308 	ubfx	r3, r3, #0, #9
 8001f0e:	e7cf      	b.n	8001eb0 <HAL_UART_Transmit+0x6c>
 8001f10:	6823      	ldr	r3, [r4, #0]
 8001f12:	2120      	movs	r1, #32
 8001f14:	2500      	movs	r5, #0
 8001f16:	2003      	movs	r0, #3
 8001f18:	681a      	ldr	r2, [r3, #0]
 8001f1a:	f422 72d0 	bic.w	r2, r2, #416	; 0x1a0
 8001f1e:	601a      	str	r2, [r3, #0]
 8001f20:	689a      	ldr	r2, [r3, #8]
 8001f22:	f022 0201 	bic.w	r2, r2, #1
 8001f26:	609a      	str	r2, [r3, #8]
 8001f28:	6761      	str	r1, [r4, #116]	; 0x74
 8001f2a:	f884 5070 	strb.w	r5, [r4, #112]	; 0x70
 8001f2e:	67a1      	str	r1, [r4, #120]	; 0x78
 8001f30:	b002      	add	sp, #8
 8001f32:	e8bd 81f0 	ldmia.w	sp!, {r4, r5, r6, r7, r8, pc}
 8001f36:	69c3      	ldr	r3, [r0, #28]
 8001f38:	065b      	lsls	r3, r3, #25
 8001f3a:	d4ca      	bmi.n	8001ed2 <HAL_UART_Transmit+0x8e>
 8001f3c:	f7ff f810 	bl	8000f60 <HAL_GetTick>
 8001f40:	1bc0      	subs	r0, r0, r7
 8001f42:	4285      	cmp	r5, r0
 8001f44:	d3e4      	bcc.n	8001f10 <HAL_UART_Transmit+0xcc>
 8001f46:	2d00      	cmp	r5, #0
 8001f48:	d0e2      	beq.n	8001f10 <HAL_UART_Transmit+0xcc>
 8001f4a:	6820      	ldr	r0, [r4, #0]
 8001f4c:	e7bc      	b.n	8001ec8 <HAL_UART_Transmit+0x84>
 8001f4e:	6923      	ldr	r3, [r4, #16]
 8001f50:	2b00      	cmp	r3, #0
 8001f52:	d19e      	bne.n	8001e92 <HAL_UART_Transmit+0x4e>
 8001f54:	4646      	mov	r6, r8
 8001f56:	4698      	mov	r8, r3
 8001f58:	e79b      	b.n	8001e92 <HAL_UART_Transmit+0x4e>
 8001f5a:	bf00      	nop

08001f5c <HAL_UART_Receive_IT>:
 8001f5c:	6f83      	ldr	r3, [r0, #120]	; 0x78
 8001f5e:	2b20      	cmp	r3, #32
 8001f60:	d137      	bne.n	8001fd2 <HAL_UART_Receive_IT+0x76>
 8001f62:	2900      	cmp	r1, #0
 8001f64:	d033      	beq.n	8001fce <HAL_UART_Receive_IT+0x72>
 8001f66:	fab2 f382 	clz	r3, r2
 8001f6a:	095b      	lsrs	r3, r3, #5
 8001f6c:	2b00      	cmp	r3, #0
 8001f6e:	d12e      	bne.n	8001fce <HAL_UART_Receive_IT+0x72>
 8001f70:	b430      	push	{r4, r5}
 8001f72:	f890 4070 	ldrb.w	r4, [r0, #112]	; 0x70
 8001f76:	2c01      	cmp	r4, #1
 8001f78:	d042      	beq.n	8002000 <HAL_UART_Receive_IT+0xa4>
 8001f7a:	6884      	ldr	r4, [r0, #8]
 8001f7c:	2501      	movs	r5, #1
 8001f7e:	f8a0 2058 	strh.w	r2, [r0, #88]	; 0x58
 8001f82:	f5b4 5f80 	cmp.w	r4, #4096	; 0x1000
 8001f86:	f8a0 205a 	strh.w	r2, [r0, #90]	; 0x5a
 8001f8a:	6541      	str	r1, [r0, #84]	; 0x54
 8001f8c:	6603      	str	r3, [r0, #96]	; 0x60
 8001f8e:	f880 5070 	strb.w	r5, [r0, #112]	; 0x70
 8001f92:	6802      	ldr	r2, [r0, #0]
 8001f94:	d01f      	beq.n	8001fd6 <HAL_UART_Receive_IT+0x7a>
 8001f96:	2c00      	cmp	r4, #0
 8001f98:	d12c      	bne.n	8001ff4 <HAL_UART_Receive_IT+0x98>
 8001f9a:	6903      	ldr	r3, [r0, #16]
 8001f9c:	2b00      	cmp	r3, #0
 8001f9e:	d03d      	beq.n	800201c <HAL_UART_Receive_IT+0xc0>
 8001fa0:	237f      	movs	r3, #127	; 0x7f
 8001fa2:	f8a0 305c 	strh.w	r3, [r0, #92]	; 0x5c
 8001fa6:	2322      	movs	r3, #34	; 0x22
 8001fa8:	2100      	movs	r1, #0
 8001faa:	4c22      	ldr	r4, [pc, #136]	; (8002034 <HAL_UART_Receive_IT+0xd8>)
 8001fac:	67c1      	str	r1, [r0, #124]	; 0x7c
 8001fae:	6783      	str	r3, [r0, #120]	; 0x78
 8001fb0:	6893      	ldr	r3, [r2, #8]
 8001fb2:	f043 0301 	orr.w	r3, r3, #1
 8001fb6:	6093      	str	r3, [r2, #8]
 8001fb8:	6811      	ldr	r1, [r2, #0]
 8001fba:	2300      	movs	r3, #0
 8001fbc:	6604      	str	r4, [r0, #96]	; 0x60
 8001fbe:	f880 3070 	strb.w	r3, [r0, #112]	; 0x70
 8001fc2:	f441 7190 	orr.w	r1, r1, #288	; 0x120
 8001fc6:	4618      	mov	r0, r3
 8001fc8:	6011      	str	r1, [r2, #0]
 8001fca:	bc30      	pop	{r4, r5}
 8001fcc:	4770      	bx	lr
 8001fce:	2001      	movs	r0, #1
 8001fd0:	4770      	bx	lr
 8001fd2:	2002      	movs	r0, #2
 8001fd4:	4770      	bx	lr
 8001fd6:	6901      	ldr	r1, [r0, #16]
 8001fd8:	b9a1      	cbnz	r1, 8002004 <HAL_UART_Receive_IT+0xa8>
 8001fda:	2322      	movs	r3, #34	; 0x22
 8001fdc:	67c1      	str	r1, [r0, #124]	; 0x7c
 8001fde:	f240 11ff 	movw	r1, #511	; 0x1ff
 8001fe2:	4c15      	ldr	r4, [pc, #84]	; (8002038 <HAL_UART_Receive_IT+0xdc>)
 8001fe4:	6783      	str	r3, [r0, #120]	; 0x78
 8001fe6:	6893      	ldr	r3, [r2, #8]
 8001fe8:	f8a0 105c 	strh.w	r1, [r0, #92]	; 0x5c
 8001fec:	f043 0301 	orr.w	r3, r3, #1
 8001ff0:	6093      	str	r3, [r2, #8]
 8001ff2:	e7e1      	b.n	8001fb8 <HAL_UART_Receive_IT+0x5c>
 8001ff4:	f1b4 5f80 	cmp.w	r4, #268435456	; 0x10000000
 8001ff8:	d014      	beq.n	8002024 <HAL_UART_Receive_IT+0xc8>
 8001ffa:	f8a0 305c 	strh.w	r3, [r0, #92]	; 0x5c
 8001ffe:	e7d2      	b.n	8001fa6 <HAL_UART_Receive_IT+0x4a>
 8002000:	2002      	movs	r0, #2
 8002002:	e7e2      	b.n	8001fca <HAL_UART_Receive_IT+0x6e>
 8002004:	2522      	movs	r5, #34	; 0x22
 8002006:	67c3      	str	r3, [r0, #124]	; 0x7c
 8002008:	21ff      	movs	r1, #255	; 0xff
 800200a:	4c0a      	ldr	r4, [pc, #40]	; (8002034 <HAL_UART_Receive_IT+0xd8>)
 800200c:	6785      	str	r5, [r0, #120]	; 0x78
 800200e:	6893      	ldr	r3, [r2, #8]
 8002010:	f8a0 105c 	strh.w	r1, [r0, #92]	; 0x5c
 8002014:	f043 0301 	orr.w	r3, r3, #1
 8002018:	6093      	str	r3, [r2, #8]
 800201a:	e7cd      	b.n	8001fb8 <HAL_UART_Receive_IT+0x5c>
 800201c:	23ff      	movs	r3, #255	; 0xff
 800201e:	f8a0 305c 	strh.w	r3, [r0, #92]	; 0x5c
 8002022:	e7c0      	b.n	8001fa6 <HAL_UART_Receive_IT+0x4a>
 8002024:	6903      	ldr	r3, [r0, #16]
 8002026:	2b00      	cmp	r3, #0
 8002028:	d0ba      	beq.n	8001fa0 <HAL_UART_Receive_IT+0x44>
 800202a:	233f      	movs	r3, #63	; 0x3f
 800202c:	f8a0 305c 	strh.w	r3, [r0, #92]	; 0x5c
 8002030:	e7b9      	b.n	8001fa6 <HAL_UART_Receive_IT+0x4a>
 8002032:	bf00      	nop
 8002034:	08002041 	.word	0x08002041
 8002038:	0800209d 	.word	0x0800209d

0800203c <HAL_UART_TxCpltCallback>:
 800203c:	4770      	bx	lr
 800203e:	bf00      	nop

08002040 <UART_RxISR_8BIT>:
 8002040:	6f81      	ldr	r1, [r0, #120]	; 0x78
 8002042:	6802      	ldr	r2, [r0, #0]
 8002044:	2922      	cmp	r1, #34	; 0x22
 8002046:	b538      	push	{r3, r4, r5, lr}
 8002048:	d004      	beq.n	8002054 <UART_RxISR_8BIT+0x14>
 800204a:	6993      	ldr	r3, [r2, #24]
 800204c:	f043 0308 	orr.w	r3, r3, #8
 8002050:	6193      	str	r3, [r2, #24]
 8002052:	bd38      	pop	{r3, r4, r5, pc}
 8002054:	6a52      	ldr	r2, [r2, #36]	; 0x24
 8002056:	f890 405c 	ldrb.w	r4, [r0, #92]	; 0x5c
 800205a:	6d41      	ldr	r1, [r0, #84]	; 0x54
 800205c:	4022      	ands	r2, r4
 800205e:	700a      	strb	r2, [r1, #0]
 8002060:	f8b0 205a 	ldrh.w	r2, [r0, #90]	; 0x5a
 8002064:	6d41      	ldr	r1, [r0, #84]	; 0x54
 8002066:	3a01      	subs	r2, #1
 8002068:	3101      	adds	r1, #1
 800206a:	b292      	uxth	r2, r2
 800206c:	6541      	str	r1, [r0, #84]	; 0x54
 800206e:	f8a0 205a 	strh.w	r2, [r0, #90]	; 0x5a
 8002072:	f8b0 205a 	ldrh.w	r2, [r0, #90]	; 0x5a
 8002076:	b292      	uxth	r2, r2
 8002078:	2a00      	cmp	r2, #0
 800207a:	d1ea      	bne.n	8002052 <UART_RxISR_8BIT+0x12>
 800207c:	6801      	ldr	r1, [r0, #0]
 800207e:	2520      	movs	r5, #32
 8002080:	680c      	ldr	r4, [r1, #0]
 8002082:	f424 7490 	bic.w	r4, r4, #288	; 0x120
 8002086:	600c      	str	r4, [r1, #0]
 8002088:	688c      	ldr	r4, [r1, #8]
 800208a:	f024 0401 	bic.w	r4, r4, #1
 800208e:	608c      	str	r4, [r1, #8]
 8002090:	6602      	str	r2, [r0, #96]	; 0x60
 8002092:	6785      	str	r5, [r0, #120]	; 0x78
 8002094:	f000 fe34 	bl	8002d00 <HAL_UART_RxCpltCallback>
 8002098:	bd38      	pop	{r3, r4, r5, pc}
 800209a:	bf00      	nop

0800209c <UART_RxISR_16BIT>:
 800209c:	6f81      	ldr	r1, [r0, #120]	; 0x78
 800209e:	6802      	ldr	r2, [r0, #0]
 80020a0:	2922      	cmp	r1, #34	; 0x22
 80020a2:	b538      	push	{r3, r4, r5, lr}
 80020a4:	d004      	beq.n	80020b0 <UART_RxISR_16BIT+0x14>
 80020a6:	6993      	ldr	r3, [r2, #24]
 80020a8:	f043 0308 	orr.w	r3, r3, #8
 80020ac:	6193      	str	r3, [r2, #24]
 80020ae:	bd38      	pop	{r3, r4, r5, pc}
 80020b0:	6a51      	ldr	r1, [r2, #36]	; 0x24
 80020b2:	f8b0 505c 	ldrh.w	r5, [r0, #92]	; 0x5c
 80020b6:	6d44      	ldr	r4, [r0, #84]	; 0x54
 80020b8:	4029      	ands	r1, r5
 80020ba:	f824 1b02 	strh.w	r1, [r4], #2
 80020be:	f8b0 105a 	ldrh.w	r1, [r0, #90]	; 0x5a
 80020c2:	6544      	str	r4, [r0, #84]	; 0x54
 80020c4:	3901      	subs	r1, #1
 80020c6:	b289      	uxth	r1, r1
 80020c8:	f8a0 105a 	strh.w	r1, [r0, #90]	; 0x5a
 80020cc:	f8b0 105a 	ldrh.w	r1, [r0, #90]	; 0x5a
 80020d0:	b289      	uxth	r1, r1
 80020d2:	2900      	cmp	r1, #0
 80020d4:	d1eb      	bne.n	80020ae <UART_RxISR_16BIT+0x12>
 80020d6:	6814      	ldr	r4, [r2, #0]
 80020d8:	2520      	movs	r5, #32
 80020da:	f424 7490 	bic.w	r4, r4, #288	; 0x120
 80020de:	6014      	str	r4, [r2, #0]
 80020e0:	6894      	ldr	r4, [r2, #8]
 80020e2:	f024 0401 	bic.w	r4, r4, #1
 80020e6:	6094      	str	r4, [r2, #8]
 80020e8:	6601      	str	r1, [r0, #96]	; 0x60
 80020ea:	6785      	str	r5, [r0, #120]	; 0x78
 80020ec:	f000 fe08 	bl	8002d00 <HAL_UART_RxCpltCallback>
 80020f0:	bd38      	pop	{r3, r4, r5, pc}
 80020f2:	bf00      	nop

080020f4 <HAL_UART_ErrorCallback>:
 80020f4:	4770      	bx	lr
 80020f6:	bf00      	nop

080020f8 <HAL_UART_IRQHandler>:
 80020f8:	6803      	ldr	r3, [r0, #0]
 80020fa:	69da      	ldr	r2, [r3, #28]
 80020fc:	b570      	push	{r4, r5, r6, lr}
 80020fe:	0716      	lsls	r6, r2, #28
 8002100:	681d      	ldr	r5, [r3, #0]
 8002102:	4604      	mov	r4, r0
 8002104:	6899      	ldr	r1, [r3, #8]
 8002106:	d047      	beq.n	8002198 <HAL_UART_IRQHandler+0xa0>
 8002108:	f011 0101 	ands.w	r1, r1, #1
 800210c:	d04b      	beq.n	80021a6 <HAL_UART_IRQHandler+0xae>
 800210e:	07d0      	lsls	r0, r2, #31
 8002110:	d507      	bpl.n	8002122 <HAL_UART_IRQHandler+0x2a>
 8002112:	05ee      	lsls	r6, r5, #23
 8002114:	d505      	bpl.n	8002122 <HAL_UART_IRQHandler+0x2a>
 8002116:	2001      	movs	r0, #1
 8002118:	6218      	str	r0, [r3, #32]
 800211a:	6fe0      	ldr	r0, [r4, #124]	; 0x7c
 800211c:	f040 0001 	orr.w	r0, r0, #1
 8002120:	67e0      	str	r0, [r4, #124]	; 0x7c
 8002122:	0790      	lsls	r0, r2, #30
 8002124:	d45d      	bmi.n	80021e2 <HAL_UART_IRQHandler+0xea>
 8002126:	0750      	lsls	r0, r2, #29
 8002128:	d501      	bpl.n	800212e <HAL_UART_IRQHandler+0x36>
 800212a:	2900      	cmp	r1, #0
 800212c:	d163      	bne.n	80021f6 <HAL_UART_IRQHandler+0xfe>
 800212e:	0716      	lsls	r6, r2, #28
 8002130:	d503      	bpl.n	800213a <HAL_UART_IRQHandler+0x42>
 8002132:	06a8      	lsls	r0, r5, #26
 8002134:	d466      	bmi.n	8002204 <HAL_UART_IRQHandler+0x10c>
 8002136:	2900      	cmp	r1, #0
 8002138:	d164      	bne.n	8002204 <HAL_UART_IRQHandler+0x10c>
 800213a:	6fe1      	ldr	r1, [r4, #124]	; 0x7c
 800213c:	2900      	cmp	r1, #0
 800213e:	d031      	beq.n	80021a4 <HAL_UART_IRQHandler+0xac>
 8002140:	0696      	lsls	r6, r2, #26
 8002142:	d501      	bpl.n	8002148 <HAL_UART_IRQHandler+0x50>
 8002144:	06a8      	lsls	r0, r5, #26
 8002146:	d468      	bmi.n	800221a <HAL_UART_IRQHandler+0x122>
 8002148:	6fe5      	ldr	r5, [r4, #124]	; 0x7c
 800214a:	6899      	ldr	r1, [r3, #8]
 800214c:	0649      	lsls	r1, r1, #25
 800214e:	d402      	bmi.n	8002156 <HAL_UART_IRQHandler+0x5e>
 8002150:	f015 0508 	ands.w	r5, r5, #8
 8002154:	d068      	beq.n	8002228 <HAL_UART_IRQHandler+0x130>
 8002156:	681a      	ldr	r2, [r3, #0]
 8002158:	2020      	movs	r0, #32
 800215a:	2100      	movs	r1, #0
 800215c:	f422 7290 	bic.w	r2, r2, #288	; 0x120
 8002160:	601a      	str	r2, [r3, #0]
 8002162:	689a      	ldr	r2, [r3, #8]
 8002164:	f022 0201 	bic.w	r2, r2, #1
 8002168:	609a      	str	r2, [r3, #8]
 800216a:	67a0      	str	r0, [r4, #120]	; 0x78
 800216c:	689a      	ldr	r2, [r3, #8]
 800216e:	6621      	str	r1, [r4, #96]	; 0x60
 8002170:	0652      	lsls	r2, r2, #25
 8002172:	d54e      	bpl.n	8002212 <HAL_UART_IRQHandler+0x11a>
 8002174:	689a      	ldr	r2, [r3, #8]
 8002176:	6ee1      	ldr	r1, [r4, #108]	; 0x6c
 8002178:	f022 0240 	bic.w	r2, r2, #64	; 0x40
 800217c:	609a      	str	r2, [r3, #8]
 800217e:	2900      	cmp	r1, #0
 8002180:	d047      	beq.n	8002212 <HAL_UART_IRQHandler+0x11a>
 8002182:	4b2c      	ldr	r3, [pc, #176]	; (8002234 <HAL_UART_IRQHandler+0x13c>)
 8002184:	4608      	mov	r0, r1
 8002186:	650b      	str	r3, [r1, #80]	; 0x50
 8002188:	f7fe ff60 	bl	800104c <HAL_DMA_Abort_IT>
 800218c:	b150      	cbz	r0, 80021a4 <HAL_UART_IRQHandler+0xac>
 800218e:	6ee0      	ldr	r0, [r4, #108]	; 0x6c
 8002190:	e8bd 4070 	ldmia.w	sp!, {r4, r5, r6, lr}
 8002194:	6d03      	ldr	r3, [r0, #80]	; 0x50
 8002196:	4718      	bx	r3
 8002198:	0691      	lsls	r1, r2, #26
 800219a:	d507      	bpl.n	80021ac <HAL_UART_IRQHandler+0xb4>
 800219c:	06ae      	lsls	r6, r5, #26
 800219e:	d505      	bpl.n	80021ac <HAL_UART_IRQHandler+0xb4>
 80021a0:	6e03      	ldr	r3, [r0, #96]	; 0x60
 80021a2:	b9db      	cbnz	r3, 80021dc <HAL_UART_IRQHandler+0xe4>
 80021a4:	bd70      	pop	{r4, r5, r6, pc}
 80021a6:	f415 7f90 	tst.w	r5, #288	; 0x120
 80021aa:	d1b0      	bne.n	800210e <HAL_UART_IRQHandler+0x16>
 80021ac:	0616      	lsls	r6, r2, #24
 80021ae:	d40f      	bmi.n	80021d0 <HAL_UART_IRQHandler+0xd8>
 80021b0:	0651      	lsls	r1, r2, #25
 80021b2:	d5f7      	bpl.n	80021a4 <HAL_UART_IRQHandler+0xac>
 80021b4:	066a      	lsls	r2, r5, #25
 80021b6:	d5f5      	bpl.n	80021a4 <HAL_UART_IRQHandler+0xac>
 80021b8:	681a      	ldr	r2, [r3, #0]
 80021ba:	2520      	movs	r5, #32
 80021bc:	2100      	movs	r1, #0
 80021be:	4620      	mov	r0, r4
 80021c0:	f022 0240 	bic.w	r2, r2, #64	; 0x40
 80021c4:	601a      	str	r2, [r3, #0]
 80021c6:	6765      	str	r5, [r4, #116]	; 0x74
 80021c8:	6661      	str	r1, [r4, #100]	; 0x64
 80021ca:	f7ff ff37 	bl	800203c <HAL_UART_TxCpltCallback>
 80021ce:	bd70      	pop	{r4, r5, r6, pc}
 80021d0:	0628      	lsls	r0, r5, #24
 80021d2:	d5ed      	bpl.n	80021b0 <HAL_UART_IRQHandler+0xb8>
 80021d4:	6e63      	ldr	r3, [r4, #100]	; 0x64
 80021d6:	2b00      	cmp	r3, #0
 80021d8:	d0e4      	beq.n	80021a4 <HAL_UART_IRQHandler+0xac>
 80021da:	4620      	mov	r0, r4
 80021dc:	e8bd 4070 	ldmia.w	sp!, {r4, r5, r6, lr}
 80021e0:	4718      	bx	r3
 80021e2:	2900      	cmp	r1, #0
 80021e4:	d0a3      	beq.n	800212e <HAL_UART_IRQHandler+0x36>
 80021e6:	2002      	movs	r0, #2
 80021e8:	0756      	lsls	r6, r2, #29
 80021ea:	6218      	str	r0, [r3, #32]
 80021ec:	6fe0      	ldr	r0, [r4, #124]	; 0x7c
 80021ee:	f040 0004 	orr.w	r0, r0, #4
 80021f2:	67e0      	str	r0, [r4, #124]	; 0x7c
 80021f4:	d59b      	bpl.n	800212e <HAL_UART_IRQHandler+0x36>
 80021f6:	2004      	movs	r0, #4
 80021f8:	6218      	str	r0, [r3, #32]
 80021fa:	6fe0      	ldr	r0, [r4, #124]	; 0x7c
 80021fc:	f040 0002 	orr.w	r0, r0, #2
 8002200:	67e0      	str	r0, [r4, #124]	; 0x7c
 8002202:	e794      	b.n	800212e <HAL_UART_IRQHandler+0x36>
 8002204:	2108      	movs	r1, #8
 8002206:	6219      	str	r1, [r3, #32]
 8002208:	6fe1      	ldr	r1, [r4, #124]	; 0x7c
 800220a:	f041 0108 	orr.w	r1, r1, #8
 800220e:	67e1      	str	r1, [r4, #124]	; 0x7c
 8002210:	e793      	b.n	800213a <HAL_UART_IRQHandler+0x42>
 8002212:	4620      	mov	r0, r4
 8002214:	f7ff ff6e 	bl	80020f4 <HAL_UART_ErrorCallback>
 8002218:	bd70      	pop	{r4, r5, r6, pc}
 800221a:	6e22      	ldr	r2, [r4, #96]	; 0x60
 800221c:	2a00      	cmp	r2, #0
 800221e:	d093      	beq.n	8002148 <HAL_UART_IRQHandler+0x50>
 8002220:	4620      	mov	r0, r4
 8002222:	4790      	blx	r2
 8002224:	6823      	ldr	r3, [r4, #0]
 8002226:	e78f      	b.n	8002148 <HAL_UART_IRQHandler+0x50>
 8002228:	4620      	mov	r0, r4
 800222a:	f7ff ff63 	bl	80020f4 <HAL_UART_ErrorCallback>
 800222e:	67e5      	str	r5, [r4, #124]	; 0x7c
 8002230:	bd70      	pop	{r4, r5, r6, pc}
 8002232:	bf00      	nop
 8002234:	08002239 	.word	0x08002239

08002238 <UART_DMAAbortOnError>:
 8002238:	b508      	push	{r3, lr}
 800223a:	2200      	movs	r2, #0
 800223c:	6b83      	ldr	r3, [r0, #56]	; 0x38
 800223e:	f8a3 205a 	strh.w	r2, [r3, #90]	; 0x5a
 8002242:	4618      	mov	r0, r3
 8002244:	f8a3 2052 	strh.w	r2, [r3, #82]	; 0x52
 8002248:	f7ff ff54 	bl	80020f4 <HAL_UART_ErrorCallback>
 800224c:	bd08      	pop	{r3, pc}
 800224e:	bf00      	nop

08002250 <UART_AdvFeatureConfig>:
 8002250:	6a43      	ldr	r3, [r0, #36]	; 0x24
 8002252:	07da      	lsls	r2, r3, #31
 8002254:	b410      	push	{r4}
 8002256:	d506      	bpl.n	8002266 <UART_AdvFeatureConfig+0x16>
 8002258:	6801      	ldr	r1, [r0, #0]
 800225a:	6a84      	ldr	r4, [r0, #40]	; 0x28
 800225c:	684a      	ldr	r2, [r1, #4]
 800225e:	f422 3200 	bic.w	r2, r2, #131072	; 0x20000
 8002262:	4322      	orrs	r2, r4
 8002264:	604a      	str	r2, [r1, #4]
 8002266:	079c      	lsls	r4, r3, #30
 8002268:	d506      	bpl.n	8002278 <UART_AdvFeatureConfig+0x28>
 800226a:	6801      	ldr	r1, [r0, #0]
 800226c:	6ac4      	ldr	r4, [r0, #44]	; 0x2c
 800226e:	684a      	ldr	r2, [r1, #4]
 8002270:	f422 3280 	bic.w	r2, r2, #65536	; 0x10000
 8002274:	4322      	orrs	r2, r4
 8002276:	604a      	str	r2, [r1, #4]
 8002278:	0759      	lsls	r1, r3, #29
 800227a:	d506      	bpl.n	800228a <UART_AdvFeatureConfig+0x3a>
 800227c:	6801      	ldr	r1, [r0, #0]
 800227e:	6b04      	ldr	r4, [r0, #48]	; 0x30
 8002280:	684a      	ldr	r2, [r1, #4]
 8002282:	f422 2280 	bic.w	r2, r2, #262144	; 0x40000
 8002286:	4322      	orrs	r2, r4
 8002288:	604a      	str	r2, [r1, #4]
 800228a:	071a      	lsls	r2, r3, #28
 800228c:	d506      	bpl.n	800229c <UART_AdvFeatureConfig+0x4c>
 800228e:	6801      	ldr	r1, [r0, #0]
 8002290:	6b44      	ldr	r4, [r0, #52]	; 0x34
 8002292:	684a      	ldr	r2, [r1, #4]
 8002294:	f422 4200 	bic.w	r2, r2, #32768	; 0x8000
 8002298:	4322      	orrs	r2, r4
 800229a:	604a      	str	r2, [r1, #4]
 800229c:	06dc      	lsls	r4, r3, #27
 800229e:	d506      	bpl.n	80022ae <UART_AdvFeatureConfig+0x5e>
 80022a0:	6801      	ldr	r1, [r0, #0]
 80022a2:	6b84      	ldr	r4, [r0, #56]	; 0x38
 80022a4:	688a      	ldr	r2, [r1, #8]
 80022a6:	f422 5280 	bic.w	r2, r2, #4096	; 0x1000
 80022aa:	4322      	orrs	r2, r4
 80022ac:	608a      	str	r2, [r1, #8]
 80022ae:	0699      	lsls	r1, r3, #26
 80022b0:	d506      	bpl.n	80022c0 <UART_AdvFeatureConfig+0x70>
 80022b2:	6801      	ldr	r1, [r0, #0]
 80022b4:	6bc4      	ldr	r4, [r0, #60]	; 0x3c
 80022b6:	688a      	ldr	r2, [r1, #8]
 80022b8:	f422 5200 	bic.w	r2, r2, #8192	; 0x2000
 80022bc:	4322      	orrs	r2, r4
 80022be:	608a      	str	r2, [r1, #8]
 80022c0:	065a      	lsls	r2, r3, #25
 80022c2:	d50a      	bpl.n	80022da <UART_AdvFeatureConfig+0x8a>
 80022c4:	6801      	ldr	r1, [r0, #0]
 80022c6:	6c04      	ldr	r4, [r0, #64]	; 0x40
 80022c8:	684a      	ldr	r2, [r1, #4]
 80022ca:	f5b4 1f80 	cmp.w	r4, #1048576	; 0x100000
 80022ce:	f422 1280 	bic.w	r2, r2, #1048576	; 0x100000
 80022d2:	ea42 0204 	orr.w	r2, r2, r4
 80022d6:	604a      	str	r2, [r1, #4]
 80022d8:	d00b      	beq.n	80022f2 <UART_AdvFeatureConfig+0xa2>
 80022da:	061b      	lsls	r3, r3, #24
 80022dc:	d506      	bpl.n	80022ec <UART_AdvFeatureConfig+0x9c>
 80022de:	6802      	ldr	r2, [r0, #0]
 80022e0:	6c81      	ldr	r1, [r0, #72]	; 0x48
 80022e2:	6853      	ldr	r3, [r2, #4]
 80022e4:	f423 2300 	bic.w	r3, r3, #524288	; 0x80000
 80022e8:	430b      	orrs	r3, r1
 80022ea:	6053      	str	r3, [r2, #4]
 80022ec:	f85d 4b04 	ldr.w	r4, [sp], #4
 80022f0:	4770      	bx	lr
 80022f2:	684a      	ldr	r2, [r1, #4]
 80022f4:	6c44      	ldr	r4, [r0, #68]	; 0x44
 80022f6:	f422 02c0 	bic.w	r2, r2, #6291456	; 0x600000
 80022fa:	4322      	orrs	r2, r4
 80022fc:	604a      	str	r2, [r1, #4]
 80022fe:	e7ec      	b.n	80022da <UART_AdvFeatureConfig+0x8a>

08002300 <HAL_UART_Init>:
 8002300:	2800      	cmp	r0, #0
 8002302:	d04f      	beq.n	80023a4 <HAL_UART_Init+0xa4>
 8002304:	6f43      	ldr	r3, [r0, #116]	; 0x74
 8002306:	b570      	push	{r4, r5, r6, lr}
 8002308:	4604      	mov	r4, r0
 800230a:	2b00      	cmp	r3, #0
 800230c:	d045      	beq.n	800239a <HAL_UART_Init+0x9a>
 800230e:	6823      	ldr	r3, [r4, #0]
 8002310:	2124      	movs	r1, #36	; 0x24
 8002312:	6920      	ldr	r0, [r4, #16]
 8002314:	6761      	str	r1, [r4, #116]	; 0x74
 8002316:	68a2      	ldr	r2, [r4, #8]
 8002318:	6819      	ldr	r1, [r3, #0]
 800231a:	4302      	orrs	r2, r0
 800231c:	6960      	ldr	r0, [r4, #20]
 800231e:	f021 0101 	bic.w	r1, r1, #1
 8002322:	4dbe      	ldr	r5, [pc, #760]	; (800261c <HAL_UART_Init+0x31c>)
 8002324:	4302      	orrs	r2, r0
 8002326:	69e0      	ldr	r0, [r4, #28]
 8002328:	6019      	str	r1, [r3, #0]
 800232a:	6819      	ldr	r1, [r3, #0]
 800232c:	4302      	orrs	r2, r0
 800232e:	68e6      	ldr	r6, [r4, #12]
 8002330:	400d      	ands	r5, r1
 8002332:	69a1      	ldr	r1, [r4, #24]
 8002334:	432a      	orrs	r2, r5
 8002336:	6a25      	ldr	r5, [r4, #32]
 8002338:	601a      	str	r2, [r3, #0]
 800233a:	ea41 0205 	orr.w	r2, r1, r5
 800233e:	6859      	ldr	r1, [r3, #4]
 8002340:	4db7      	ldr	r5, [pc, #732]	; (8002620 <HAL_UART_Init+0x320>)
 8002342:	f421 5140 	bic.w	r1, r1, #12288	; 0x3000
 8002346:	42ab      	cmp	r3, r5
 8002348:	ea41 0106 	orr.w	r1, r1, r6
 800234c:	6059      	str	r1, [r3, #4]
 800234e:	6899      	ldr	r1, [r3, #8]
 8002350:	f421 6130 	bic.w	r1, r1, #2816	; 0xb00
 8002354:	ea42 0201 	orr.w	r2, r2, r1
 8002358:	609a      	str	r2, [r3, #8]
 800235a:	d025      	beq.n	80023a8 <HAL_UART_Init+0xa8>
 800235c:	4ab1      	ldr	r2, [pc, #708]	; (8002624 <HAL_UART_Init+0x324>)
 800235e:	4293      	cmp	r3, r2
 8002360:	d044      	beq.n	80023ec <HAL_UART_Init+0xec>
 8002362:	4ab1      	ldr	r2, [pc, #708]	; (8002628 <HAL_UART_Init+0x328>)
 8002364:	4293      	cmp	r3, r2
 8002366:	f000 80d3 	beq.w	8002510 <HAL_UART_Init+0x210>
 800236a:	4ab0      	ldr	r2, [pc, #704]	; (800262c <HAL_UART_Init+0x32c>)
 800236c:	4293      	cmp	r3, r2
 800236e:	d045      	beq.n	80023fc <HAL_UART_Init+0xfc>
 8002370:	4aaf      	ldr	r2, [pc, #700]	; (8002630 <HAL_UART_Init+0x330>)
 8002372:	4293      	cmp	r3, r2
 8002374:	f000 80e1 	beq.w	800253a <HAL_UART_Init+0x23a>
 8002378:	4aae      	ldr	r2, [pc, #696]	; (8002634 <HAL_UART_Init+0x334>)
 800237a:	4293      	cmp	r3, r2
 800237c:	f000 816a 	beq.w	8002654 <HAL_UART_Init+0x354>
 8002380:	4aad      	ldr	r2, [pc, #692]	; (8002638 <HAL_UART_Init+0x338>)
 8002382:	4293      	cmp	r3, r2
 8002384:	f000 8179 	beq.w	800267a <HAL_UART_Init+0x37a>
 8002388:	4aac      	ldr	r2, [pc, #688]	; (800263c <HAL_UART_Init+0x33c>)
 800238a:	4293      	cmp	r3, r2
 800238c:	f000 8135 	beq.w	80025fa <HAL_UART_Init+0x2fa>
 8002390:	2300      	movs	r3, #0
 8002392:	2001      	movs	r0, #1
 8002394:	e9c4 3318 	strd	r3, r3, [r4, #96]	; 0x60
 8002398:	bd70      	pop	{r4, r5, r6, pc}
 800239a:	f880 3070 	strb.w	r3, [r0, #112]	; 0x70
 800239e:	f000 fd6d 	bl	8002e7c <HAL_UART_MspInit>
 80023a2:	e7b4      	b.n	800230e <HAL_UART_Init+0xe>
 80023a4:	2001      	movs	r0, #1
 80023a6:	4770      	bx	lr
 80023a8:	4ba5      	ldr	r3, [pc, #660]	; (8002640 <HAL_UART_Init+0x340>)
 80023aa:	4aa6      	ldr	r2, [pc, #664]	; (8002644 <HAL_UART_Init+0x344>)
 80023ac:	f8d3 3090 	ldr.w	r3, [r3, #144]	; 0x90
 80023b0:	f003 0303 	and.w	r3, r3, #3
 80023b4:	5cd3      	ldrb	r3, [r2, r3]
 80023b6:	f5b0 4f00 	cmp.w	r0, #32768	; 0x8000
 80023ba:	d02f      	beq.n	800241c <HAL_UART_Init+0x11c>
 80023bc:	2b08      	cmp	r3, #8
 80023be:	d8e7      	bhi.n	8002390 <HAL_UART_Init+0x90>
 80023c0:	a201      	add	r2, pc, #4	; (adr r2, 80023c8 <HAL_UART_Init+0xc8>)
 80023c2:	f852 f023 	ldr.w	pc, [r2, r3, lsl #2]
 80023c6:	bf00      	nop
 80023c8:	080024ff 	.word	0x080024ff
 80023cc:	08002459 	.word	0x08002459
 80023d0:	0800252b 	.word	0x0800252b
 80023d4:	08002391 	.word	0x08002391
 80023d8:	08002551 	.word	0x08002551
 80023dc:	08002391 	.word	0x08002391
 80023e0:	08002391 	.word	0x08002391
 80023e4:	08002391 	.word	0x08002391
 80023e8:	08002563 	.word	0x08002563
 80023ec:	4b94      	ldr	r3, [pc, #592]	; (8002640 <HAL_UART_Init+0x340>)
 80023ee:	4a96      	ldr	r2, [pc, #600]	; (8002648 <HAL_UART_Init+0x348>)
 80023f0:	f8d3 3090 	ldr.w	r3, [r3, #144]	; 0x90
 80023f4:	f003 030c 	and.w	r3, r3, #12
 80023f8:	5cd3      	ldrb	r3, [r2, r3]
 80023fa:	e7dc      	b.n	80023b6 <HAL_UART_Init+0xb6>
 80023fc:	4b90      	ldr	r3, [pc, #576]	; (8002640 <HAL_UART_Init+0x340>)
 80023fe:	f8d3 3090 	ldr.w	r3, [r3, #144]	; 0x90
 8002402:	f003 03c0 	and.w	r3, r3, #192	; 0xc0
 8002406:	2b40      	cmp	r3, #64	; 0x40
 8002408:	f000 809f 	beq.w	800254a <HAL_UART_Init+0x24a>
 800240c:	d971      	bls.n	80024f2 <HAL_UART_Init+0x1f2>
 800240e:	2b80      	cmp	r3, #128	; 0x80
 8002410:	f000 8088 	beq.w	8002524 <HAL_UART_Init+0x224>
 8002414:	2bc0      	cmp	r3, #192	; 0xc0
 8002416:	f000 80b9 	beq.w	800258c <HAL_UART_Init+0x28c>
 800241a:	e7b9      	b.n	8002390 <HAL_UART_Init+0x90>
 800241c:	2b08      	cmp	r3, #8
 800241e:	d8b7      	bhi.n	8002390 <HAL_UART_Init+0x90>
 8002420:	a201      	add	r2, pc, #4	; (adr r2, 8002428 <HAL_UART_Init+0x128>)
 8002422:	f852 f023 	ldr.w	pc, [r2, r3, lsl #2]
 8002426:	bf00      	nop
 8002428:	080025f5 	.word	0x080025f5
 800242c:	080025cb 	.word	0x080025cb
 8002430:	080025e5 	.word	0x080025e5
 8002434:	08002391 	.word	0x08002391
 8002438:	080025df 	.word	0x080025df
 800243c:	08002391 	.word	0x08002391
 8002440:	08002391 	.word	0x08002391
 8002444:	08002391 	.word	0x08002391
 8002448:	08002593 	.word	0x08002593
 800244c:	2b00      	cmp	r3, #0
 800244e:	d19f      	bne.n	8002390 <HAL_UART_Init+0x90>
 8002450:	f5b0 4f00 	cmp.w	r0, #32768	; 0x8000
 8002454:	f000 80b9 	beq.w	80025ca <HAL_UART_Init+0x2ca>
 8002458:	f7ff fa44 	bl	80018e4 <HAL_RCC_GetPCLK2Freq>
 800245c:	6863      	ldr	r3, [r4, #4]
 800245e:	eb00 0253 	add.w	r2, r0, r3, lsr #1
 8002462:	fbb2 f2f3 	udiv	r2, r2, r3
 8002466:	b292      	uxth	r2, r2
 8002468:	f1a2 0110 	sub.w	r1, r2, #16
 800246c:	f64f 73ef 	movw	r3, #65519	; 0xffef
 8002470:	4299      	cmp	r1, r3
 8002472:	d88d      	bhi.n	8002390 <HAL_UART_Init+0x90>
 8002474:	6823      	ldr	r3, [r4, #0]
 8002476:	2100      	movs	r1, #0
 8002478:	60da      	str	r2, [r3, #12]
 800247a:	e9c4 1118 	strd	r1, r1, [r4, #96]	; 0x60
 800247e:	6a62      	ldr	r2, [r4, #36]	; 0x24
 8002480:	2a00      	cmp	r2, #0
 8002482:	d176      	bne.n	8002572 <HAL_UART_Init+0x272>
 8002484:	685a      	ldr	r2, [r3, #4]
 8002486:	2100      	movs	r1, #0
 8002488:	f422 4290 	bic.w	r2, r2, #18432	; 0x4800
 800248c:	605a      	str	r2, [r3, #4]
 800248e:	689a      	ldr	r2, [r3, #8]
 8002490:	f022 022a 	bic.w	r2, r2, #42	; 0x2a
 8002494:	609a      	str	r2, [r3, #8]
 8002496:	681a      	ldr	r2, [r3, #0]
 8002498:	f042 0201 	orr.w	r2, r2, #1
 800249c:	601a      	str	r2, [r3, #0]
 800249e:	67e1      	str	r1, [r4, #124]	; 0x7c
 80024a0:	f7fe fd5e 	bl	8000f60 <HAL_GetTick>
 80024a4:	6823      	ldr	r3, [r4, #0]
 80024a6:	4606      	mov	r6, r0
 80024a8:	681a      	ldr	r2, [r3, #0]
 80024aa:	0712      	lsls	r2, r2, #28
 80024ac:	d407      	bmi.n	80024be <HAL_UART_Init+0x1be>
 80024ae:	2220      	movs	r2, #32
 80024b0:	2300      	movs	r3, #0
 80024b2:	6762      	str	r2, [r4, #116]	; 0x74
 80024b4:	4618      	mov	r0, r3
 80024b6:	67a2      	str	r2, [r4, #120]	; 0x78
 80024b8:	f884 3070 	strb.w	r3, [r4, #112]	; 0x70
 80024bc:	bd70      	pop	{r4, r5, r6, pc}
 80024be:	69dd      	ldr	r5, [r3, #28]
 80024c0:	f415 1500 	ands.w	r5, r5, #2097152	; 0x200000
 80024c4:	d1f3      	bne.n	80024ae <HAL_UART_Init+0x1ae>
 80024c6:	f7fe fd4b 	bl	8000f60 <HAL_GetTick>
 80024ca:	1b80      	subs	r0, r0, r6
 80024cc:	6823      	ldr	r3, [r4, #0]
 80024ce:	f1b0 7f00 	cmp.w	r0, #33554432	; 0x2000000
 80024d2:	d3f4      	bcc.n	80024be <HAL_UART_Init+0x1be>
 80024d4:	681a      	ldr	r2, [r3, #0]
 80024d6:	2120      	movs	r1, #32
 80024d8:	2003      	movs	r0, #3
 80024da:	f422 72d0 	bic.w	r2, r2, #416	; 0x1a0
 80024de:	601a      	str	r2, [r3, #0]
 80024e0:	689a      	ldr	r2, [r3, #8]
 80024e2:	f022 0201 	bic.w	r2, r2, #1
 80024e6:	609a      	str	r2, [r3, #8]
 80024e8:	6761      	str	r1, [r4, #116]	; 0x74
 80024ea:	f884 5070 	strb.w	r5, [r4, #112]	; 0x70
 80024ee:	67a1      	str	r1, [r4, #120]	; 0x78
 80024f0:	bd70      	pop	{r4, r5, r6, pc}
 80024f2:	2b00      	cmp	r3, #0
 80024f4:	f47f af4c 	bne.w	8002390 <HAL_UART_Init+0x90>
 80024f8:	f5b0 4f00 	cmp.w	r0, #32768	; 0x8000
 80024fc:	d07a      	beq.n	80025f4 <HAL_UART_Init+0x2f4>
 80024fe:	f7ff f9e1 	bl	80018c4 <HAL_RCC_GetPCLK1Freq>
 8002502:	6863      	ldr	r3, [r4, #4]
 8002504:	eb00 0253 	add.w	r2, r0, r3, lsr #1
 8002508:	fbb2 f2f3 	udiv	r2, r2, r3
 800250c:	b292      	uxth	r2, r2
 800250e:	e7ab      	b.n	8002468 <HAL_UART_Init+0x168>
 8002510:	4b4b      	ldr	r3, [pc, #300]	; (8002640 <HAL_UART_Init+0x340>)
 8002512:	f8d3 3090 	ldr.w	r3, [r3, #144]	; 0x90
 8002516:	f003 0330 	and.w	r3, r3, #48	; 0x30
 800251a:	2b10      	cmp	r3, #16
 800251c:	d015      	beq.n	800254a <HAL_UART_Init+0x24a>
 800251e:	d9e8      	bls.n	80024f2 <HAL_UART_Init+0x1f2>
 8002520:	2b20      	cmp	r3, #32
 8002522:	d14f      	bne.n	80025c4 <HAL_UART_Init+0x2c4>
 8002524:	f5b0 4f00 	cmp.w	r0, #32768	; 0x8000
 8002528:	d05c      	beq.n	80025e4 <HAL_UART_Init+0x2e4>
 800252a:	6863      	ldr	r3, [r4, #4]
 800252c:	4a47      	ldr	r2, [pc, #284]	; (800264c <HAL_UART_Init+0x34c>)
 800252e:	eb02 0253 	add.w	r2, r2, r3, lsr #1
 8002532:	fbb2 f2f3 	udiv	r2, r2, r3
 8002536:	b292      	uxth	r2, r2
 8002538:	e796      	b.n	8002468 <HAL_UART_Init+0x168>
 800253a:	4b41      	ldr	r3, [pc, #260]	; (8002640 <HAL_UART_Init+0x340>)
 800253c:	f8d3 3090 	ldr.w	r3, [r3, #144]	; 0x90
 8002540:	f403 7340 	and.w	r3, r3, #768	; 0x300
 8002544:	f5b3 7f80 	cmp.w	r3, #256	; 0x100
 8002548:	d118      	bne.n	800257c <HAL_UART_Init+0x27c>
 800254a:	f5b0 4f00 	cmp.w	r0, #32768	; 0x8000
 800254e:	d046      	beq.n	80025de <HAL_UART_Init+0x2de>
 8002550:	f7ff f984 	bl	800185c <HAL_RCC_GetSysClockFreq>
 8002554:	6863      	ldr	r3, [r4, #4]
 8002556:	eb00 0253 	add.w	r2, r0, r3, lsr #1
 800255a:	fbb2 f2f3 	udiv	r2, r2, r3
 800255e:	b292      	uxth	r2, r2
 8002560:	e782      	b.n	8002468 <HAL_UART_Init+0x168>
 8002562:	6863      	ldr	r3, [r4, #4]
 8002564:	085a      	lsrs	r2, r3, #1
 8002566:	f502 4200 	add.w	r2, r2, #32768	; 0x8000
 800256a:	fbb2 f2f3 	udiv	r2, r2, r3
 800256e:	b292      	uxth	r2, r2
 8002570:	e77a      	b.n	8002468 <HAL_UART_Init+0x168>
 8002572:	4620      	mov	r0, r4
 8002574:	f7ff fe6c 	bl	8002250 <UART_AdvFeatureConfig>
 8002578:	6823      	ldr	r3, [r4, #0]
 800257a:	e783      	b.n	8002484 <HAL_UART_Init+0x184>
 800257c:	d9b9      	bls.n	80024f2 <HAL_UART_Init+0x1f2>
 800257e:	f5b3 7f00 	cmp.w	r3, #512	; 0x200
 8002582:	d0cf      	beq.n	8002524 <HAL_UART_Init+0x224>
 8002584:	f5b3 7f40 	cmp.w	r3, #768	; 0x300
 8002588:	f47f af02 	bne.w	8002390 <HAL_UART_Init+0x90>
 800258c:	f5b0 4f00 	cmp.w	r0, #32768	; 0x8000
 8002590:	d1e7      	bne.n	8002562 <HAL_UART_Init+0x262>
 8002592:	6862      	ldr	r2, [r4, #4]
 8002594:	0853      	lsrs	r3, r2, #1
 8002596:	f503 3380 	add.w	r3, r3, #65536	; 0x10000
 800259a:	fbb3 f3f2 	udiv	r3, r3, r2
 800259e:	b29b      	uxth	r3, r3
 80025a0:	f1a3 0110 	sub.w	r1, r3, #16
 80025a4:	f64f 72ef 	movw	r2, #65519	; 0xffef
 80025a8:	4291      	cmp	r1, r2
 80025aa:	f63f aef1 	bhi.w	8002390 <HAL_UART_Init+0x90>
 80025ae:	f023 010f 	bic.w	r1, r3, #15
 80025b2:	f3c3 0242 	ubfx	r2, r3, #1, #3
 80025b6:	2000      	movs	r0, #0
 80025b8:	6823      	ldr	r3, [r4, #0]
 80025ba:	430a      	orrs	r2, r1
 80025bc:	60da      	str	r2, [r3, #12]
 80025be:	e9c4 0018 	strd	r0, r0, [r4, #96]	; 0x60
 80025c2:	e75c      	b.n	800247e <HAL_UART_Init+0x17e>
 80025c4:	2b30      	cmp	r3, #48	; 0x30
 80025c6:	d0e1      	beq.n	800258c <HAL_UART_Init+0x28c>
 80025c8:	e6e2      	b.n	8002390 <HAL_UART_Init+0x90>
 80025ca:	f7ff f98b 	bl	80018e4 <HAL_RCC_GetPCLK2Freq>
 80025ce:	6862      	ldr	r2, [r4, #4]
 80025d0:	0853      	lsrs	r3, r2, #1
 80025d2:	eb03 0340 	add.w	r3, r3, r0, lsl #1
 80025d6:	fbb3 f3f2 	udiv	r3, r3, r2
 80025da:	b29b      	uxth	r3, r3
 80025dc:	e7e0      	b.n	80025a0 <HAL_UART_Init+0x2a0>
 80025de:	f7ff f93d 	bl	800185c <HAL_RCC_GetSysClockFreq>
 80025e2:	e7f4      	b.n	80025ce <HAL_UART_Init+0x2ce>
 80025e4:	6862      	ldr	r2, [r4, #4]
 80025e6:	4b1a      	ldr	r3, [pc, #104]	; (8002650 <HAL_UART_Init+0x350>)
 80025e8:	eb03 0352 	add.w	r3, r3, r2, lsr #1
 80025ec:	fbb3 f3f2 	udiv	r3, r3, r2
 80025f0:	b29b      	uxth	r3, r3
 80025f2:	e7d5      	b.n	80025a0 <HAL_UART_Init+0x2a0>
 80025f4:	f7ff f966 	bl	80018c4 <HAL_RCC_GetPCLK1Freq>
 80025f8:	e7e9      	b.n	80025ce <HAL_UART_Init+0x2ce>
 80025fa:	4b11      	ldr	r3, [pc, #68]	; (8002640 <HAL_UART_Init+0x340>)
 80025fc:	f8d3 3090 	ldr.w	r3, [r3, #144]	; 0x90
 8002600:	f403 4340 	and.w	r3, r3, #49152	; 0xc000
 8002604:	f5b3 4f80 	cmp.w	r3, #16384	; 0x4000
 8002608:	d09f      	beq.n	800254a <HAL_UART_Init+0x24a>
 800260a:	f67f af72 	bls.w	80024f2 <HAL_UART_Init+0x1f2>
 800260e:	f5b3 4f00 	cmp.w	r3, #32768	; 0x8000
 8002612:	d087      	beq.n	8002524 <HAL_UART_Init+0x224>
 8002614:	f5b3 4f40 	cmp.w	r3, #49152	; 0xc000
 8002618:	d0b8      	beq.n	800258c <HAL_UART_Init+0x28c>
 800261a:	e6b9      	b.n	8002390 <HAL_UART_Init+0x90>
 800261c:	efff69f3 	.word	0xefff69f3
 8002620:	40011000 	.word	0x40011000
 8002624:	40004400 	.word	0x40004400
 8002628:	40004800 	.word	0x40004800
 800262c:	40004c00 	.word	0x40004c00
 8002630:	40005000 	.word	0x40005000
 8002634:	40011400 	.word	0x40011400
 8002638:	40007800 	.word	0x40007800
 800263c:	40007c00 	.word	0x40007c00
 8002640:	40023800 	.word	0x40023800
 8002644:	08007650 	.word	0x08007650
 8002648:	08007654 	.word	0x08007654
 800264c:	00f42400 	.word	0x00f42400
 8002650:	01e84800 	.word	0x01e84800
 8002654:	4b13      	ldr	r3, [pc, #76]	; (80026a4 <HAL_UART_Init+0x3a4>)
 8002656:	f8d3 3090 	ldr.w	r3, [r3, #144]	; 0x90
 800265a:	f403 6340 	and.w	r3, r3, #3072	; 0xc00
 800265e:	f5b3 6f80 	cmp.w	r3, #1024	; 0x400
 8002662:	f43f af72 	beq.w	800254a <HAL_UART_Init+0x24a>
 8002666:	f67f aef1 	bls.w	800244c <HAL_UART_Init+0x14c>
 800266a:	f5b3 6f00 	cmp.w	r3, #2048	; 0x800
 800266e:	f43f af59 	beq.w	8002524 <HAL_UART_Init+0x224>
 8002672:	f5b3 6f40 	cmp.w	r3, #3072	; 0xc00
 8002676:	d089      	beq.n	800258c <HAL_UART_Init+0x28c>
 8002678:	e68a      	b.n	8002390 <HAL_UART_Init+0x90>
 800267a:	4b0a      	ldr	r3, [pc, #40]	; (80026a4 <HAL_UART_Init+0x3a4>)
 800267c:	f8d3 3090 	ldr.w	r3, [r3, #144]	; 0x90
 8002680:	f403 5340 	and.w	r3, r3, #12288	; 0x3000
 8002684:	f5b3 5f80 	cmp.w	r3, #4096	; 0x1000
 8002688:	f43f af5f 	beq.w	800254a <HAL_UART_Init+0x24a>
 800268c:	f67f af31 	bls.w	80024f2 <HAL_UART_Init+0x1f2>
 8002690:	f5b3 5f00 	cmp.w	r3, #8192	; 0x2000
 8002694:	f43f af46 	beq.w	8002524 <HAL_UART_Init+0x224>
 8002698:	f5b3 5f40 	cmp.w	r3, #12288	; 0x3000
 800269c:	f43f af76 	beq.w	800258c <HAL_UART_Init+0x28c>
 80026a0:	e676      	b.n	8002390 <HAL_UART_Init+0x90>
 80026a2:	bf00      	nop
 80026a4:	40023800 	.word	0x40023800

080026a8 <benchmark_neural_network>:
 80026a8:	b510      	push	{r4, lr}
 80026aa:	4c16      	ldr	r4, [pc, #88]	; (8002704 <benchmark_neural_network+0x5c>)
 80026ac:	2203      	movs	r2, #3
 80026ae:	4916      	ldr	r1, [pc, #88]	; (8002708 <benchmark_neural_network+0x60>)
 80026b0:	6963      	ldr	r3, [r4, #20]
 80026b2:	4816      	ldr	r0, [pc, #88]	; (800270c <benchmark_neural_network+0x64>)
 80026b4:	f043 0380 	orr.w	r3, r3, #128	; 0x80
 80026b8:	6163      	str	r3, [r4, #20]
 80026ba:	6963      	ldr	r3, [r4, #20]
 80026bc:	f023 0380 	bic.w	r3, r3, #128	; 0x80
 80026c0:	6163      	str	r3, [r4, #20]
 80026c2:	6963      	ldr	r3, [r4, #20]
 80026c4:	f043 0380 	orr.w	r3, r3, #128	; 0x80
 80026c8:	6163      	str	r3, [r4, #20]
 80026ca:	6963      	ldr	r3, [r4, #20]
 80026cc:	f023 0380 	bic.w	r3, r3, #128	; 0x80
 80026d0:	6163      	str	r3, [r4, #20]
 80026d2:	6963      	ldr	r3, [r4, #20]
 80026d4:	f043 0380 	orr.w	r3, r3, #128	; 0x80
 80026d8:	6163      	str	r3, [r4, #20]
 80026da:	f000 fb3d 	bl	8002d58 <dot>
 80026de:	f000 fb61 	bl	8002da4 <sigmoid>
 80026e2:	6963      	ldr	r3, [r4, #20]
 80026e4:	4a0a      	ldr	r2, [pc, #40]	; (8002710 <benchmark_neural_network+0x68>)
 80026e6:	f023 0380 	bic.w	r3, r3, #128	; 0x80
 80026ea:	6163      	str	r3, [r4, #20]
 80026ec:	6813      	ldr	r3, [r2, #0]
 80026ee:	07db      	lsls	r3, r3, #31
 80026f0:	d400      	bmi.n	80026f4 <benchmark_neural_network+0x4c>
 80026f2:	bd10      	pop	{r4, pc}
 80026f4:	4807      	ldr	r0, [pc, #28]	; (8002714 <benchmark_neural_network+0x6c>)
 80026f6:	ec53 2b10 	vmov	r2, r3, d0
 80026fa:	e8bd 4010 	ldmia.w	sp!, {r4, lr}
 80026fe:	f001 b933 	b.w	8003968 <printf>
 8002702:	bf00      	nop
 8002704:	40021800 	.word	0x40021800
 8002708:	200000f8 	.word	0x200000f8
 800270c:	20000030 	.word	0x20000030
 8002710:	200010b0 	.word	0x200010b0
 8002714:	08007664 	.word	0x08007664

08002718 <benchmark_neural_network2>:
 8002718:	4a16      	ldr	r2, [pc, #88]	; (8002774 <benchmark_neural_network2+0x5c>)
 800271a:	b5f0      	push	{r4, r5, r6, r7, lr}
 800271c:	6953      	ldr	r3, [r2, #20]
 800271e:	b0c1      	sub	sp, #260	; 0x104
 8002720:	4d15      	ldr	r5, [pc, #84]	; (8002778 <benchmark_neural_network2+0x60>)
 8002722:	f043 0380 	orr.w	r3, r3, #128	; 0x80
 8002726:	af40      	add	r7, sp, #256	; 0x100
 8002728:	466c      	mov	r4, sp
 800272a:	4e14      	ldr	r6, [pc, #80]	; (800277c <benchmark_neural_network2+0x64>)
 800272c:	6153      	str	r3, [r2, #20]
 800272e:	4629      	mov	r1, r5
 8002730:	2203      	movs	r2, #3
 8002732:	4630      	mov	r0, r6
 8002734:	3518      	adds	r5, #24
 8002736:	f000 fb0f 	bl	8002d58 <dot>
 800273a:	f000 fb33 	bl	8002da4 <sigmoid>
 800273e:	eca4 0b02 	vstmia	r4!, {d0}
 8002742:	42bc      	cmp	r4, r7
 8002744:	d1f3      	bne.n	800272e <benchmark_neural_network2+0x16>
 8002746:	2220      	movs	r2, #32
 8002748:	490d      	ldr	r1, [pc, #52]	; (8002780 <benchmark_neural_network2+0x68>)
 800274a:	4668      	mov	r0, sp
 800274c:	f000 fb04 	bl	8002d58 <dot>
 8002750:	f000 fb28 	bl	8002da4 <sigmoid>
 8002754:	4a07      	ldr	r2, [pc, #28]	; (8002774 <benchmark_neural_network2+0x5c>)
 8002756:	490b      	ldr	r1, [pc, #44]	; (8002784 <benchmark_neural_network2+0x6c>)
 8002758:	6953      	ldr	r3, [r2, #20]
 800275a:	f023 0380 	bic.w	r3, r3, #128	; 0x80
 800275e:	6153      	str	r3, [r2, #20]
 8002760:	680b      	ldr	r3, [r1, #0]
 8002762:	07db      	lsls	r3, r3, #31
 8002764:	d504      	bpl.n	8002770 <benchmark_neural_network2+0x58>
 8002766:	4808      	ldr	r0, [pc, #32]	; (8002788 <benchmark_neural_network2+0x70>)
 8002768:	ec53 2b10 	vmov	r2, r3, d0
 800276c:	f001 f8fc 	bl	8003968 <printf>
 8002770:	b041      	add	sp, #260	; 0x104
 8002772:	bdf0      	pop	{r4, r5, r6, r7, pc}
 8002774:	40021800 	.word	0x40021800
 8002778:	20000110 	.word	0x20000110
 800277c:	20000030 	.word	0x20000030
 8002780:	20000410 	.word	0x20000410
 8002784:	200010b0 	.word	0x200010b0
 8002788:	08007670 	.word	0x08007670

0800278c <SystemClock_Config>:
 800278c:	b570      	push	{r4, r5, r6, lr}
 800278e:	2400      	movs	r4, #0
 8002790:	b0b4      	sub	sp, #208	; 0xd0
 8002792:	2284      	movs	r2, #132	; 0x84
 8002794:	2502      	movs	r5, #2
 8002796:	4621      	mov	r1, r4
 8002798:	a813      	add	r0, sp, #76	; 0x4c
 800279a:	9408      	str	r4, [sp, #32]
 800279c:	9402      	str	r4, [sp, #8]
 800279e:	e9cd 4409 	strd	r4, r4, [sp, #36]	; 0x24
 80027a2:	e9cd 440b 	strd	r4, r4, [sp, #44]	; 0x2c
 80027a6:	e9cd 4403 	strd	r4, r4, [sp, #12]
 80027aa:	e9cd 4405 	strd	r4, r4, [sp, #20]
 80027ae:	f001 f8c7 	bl	8003940 <memset>
 80027b2:	4b1f      	ldr	r3, [pc, #124]	; (8002830 <SystemClock_Config+0xa4>)
 80027b4:	2001      	movs	r0, #1
 80027b6:	2110      	movs	r1, #16
 80027b8:	6c1a      	ldr	r2, [r3, #64]	; 0x40
 80027ba:	f042 5280 	orr.w	r2, r2, #268435456	; 0x10000000
 80027be:	641a      	str	r2, [r3, #64]	; 0x40
 80027c0:	6c1a      	ldr	r2, [r3, #64]	; 0x40
 80027c2:	f5a3 33e4 	sub.w	r3, r3, #116736	; 0x1c800
 80027c6:	f002 5280 	and.w	r2, r2, #268435456	; 0x10000000
 80027ca:	9200      	str	r2, [sp, #0]
 80027cc:	9a00      	ldr	r2, [sp, #0]
 80027ce:	681a      	ldr	r2, [r3, #0]
 80027d0:	f442 4240 	orr.w	r2, r2, #49152	; 0xc000
 80027d4:	601a      	str	r2, [r3, #0]
 80027d6:	2208      	movs	r2, #8
 80027d8:	681b      	ldr	r3, [r3, #0]
 80027da:	900a      	str	r0, [sp, #40]	; 0x28
 80027dc:	a807      	add	r0, sp, #28
 80027de:	f403 4340 	and.w	r3, r3, #49152	; 0xc000
 80027e2:	910b      	str	r1, [sp, #44]	; 0x2c
 80027e4:	940e      	str	r4, [sp, #56]	; 0x38
 80027e6:	9301      	str	r3, [sp, #4]
 80027e8:	f240 1327 	movw	r3, #295	; 0x127
 80027ec:	9e01      	ldr	r6, [sp, #4]
 80027ee:	260f      	movs	r6, #15
 80027f0:	9507      	str	r5, [sp, #28]
 80027f2:	950d      	str	r5, [sp, #52]	; 0x34
 80027f4:	e9cd 230f 	strd	r2, r3, [sp, #60]	; 0x3c
 80027f8:	e9cd 5511 	strd	r5, r5, [sp, #68]	; 0x44
 80027fc:	f7fe fd98 	bl	8001330 <HAL_RCC_OscConfig>
 8002800:	f7fe fd5a 	bl	80012b8 <HAL_PWREx_EnableOverDrive>
 8002804:	f44f 52c0 	mov.w	r2, #6144	; 0x1800
 8002808:	f44f 53a0 	mov.w	r3, #5120	; 0x1400
 800280c:	2107      	movs	r1, #7
 800280e:	a802      	add	r0, sp, #8
 8002810:	9503      	str	r5, [sp, #12]
 8002812:	9404      	str	r4, [sp, #16]
 8002814:	9602      	str	r6, [sp, #8]
 8002816:	e9cd 2305 	strd	r2, r3, [sp, #20]
 800281a:	f7fe ff55 	bl	80016c8 <HAL_RCC_ClockConfig>
 800281e:	f44f 6300 	mov.w	r3, #2048	; 0x800
 8002822:	a813      	add	r0, sp, #76	; 0x4c
 8002824:	9429      	str	r4, [sp, #164]	; 0xa4
 8002826:	9313      	str	r3, [sp, #76]	; 0x4c
 8002828:	f7ff f86c 	bl	8001904 <HAL_RCCEx_PeriphCLKConfig>
 800282c:	b034      	add	sp, #208	; 0xd0
 800282e:	bd70      	pop	{r4, r5, r6, pc}
 8002830:	40023800 	.word	0x40023800

08002834 <dbg_uart_parser>:
 8002834:	e92d 4ff0 	stmdb	sp!, {r4, r5, r6, r7, r8, r9, sl, fp, lr}
 8002838:	460b      	mov	r3, r1
 800283a:	2500      	movs	r5, #0
 800283c:	b0c1      	sub	sp, #260	; 0x104
 800283e:	2205      	movs	r2, #5
 8002840:	499f      	ldr	r1, [pc, #636]	; (8002ac0 <dbg_uart_parser+0x28c>)
 8002842:	4604      	mov	r4, r0
 8002844:	54c5      	strb	r5, [r0, r3]
 8002846:	f001 f909 	bl	8003a5c <strncmp>
 800284a:	2800      	cmp	r0, #0
 800284c:	d06c      	beq.n	8002928 <dbg_uart_parser+0xf4>
 800284e:	2206      	movs	r2, #6
 8002850:	499c      	ldr	r1, [pc, #624]	; (8002ac4 <dbg_uart_parser+0x290>)
 8002852:	4620      	mov	r0, r4
 8002854:	f001 f902 	bl	8003a5c <strncmp>
 8002858:	b360      	cbz	r0, 80028b4 <dbg_uart_parser+0x80>
 800285a:	4620      	mov	r0, r4
 800285c:	2204      	movs	r2, #4
 800285e:	499a      	ldr	r1, [pc, #616]	; (8002ac8 <dbg_uart_parser+0x294>)
 8002860:	f001 f8fc 	bl	8003a5c <strncmp>
 8002864:	bb18      	cbnz	r0, 80028ae <dbg_uart_parser+0x7a>
 8002866:	4b99      	ldr	r3, [pc, #612]	; (8002acc <dbg_uart_parser+0x298>)
 8002868:	681b      	ldr	r3, [r3, #0]
 800286a:	07db      	lsls	r3, r3, #31
 800286c:	f100 8099 	bmi.w	80029a2 <dbg_uart_parser+0x16e>
 8002870:	4c97      	ldr	r4, [pc, #604]	; (8002ad0 <dbg_uart_parser+0x29c>)
 8002872:	6822      	ldr	r2, [r4, #0]
 8002874:	42a2      	cmp	r2, r4
 8002876:	d01a      	beq.n	80028ae <dbg_uart_parser+0x7a>
 8002878:	4294      	cmp	r4, r2
 800287a:	f1a2 030c 	sub.w	r3, r2, #12
 800287e:	d016      	beq.n	80028ae <dbg_uart_parser+0x7a>
 8002880:	4a94      	ldr	r2, [pc, #592]	; (8002ad4 <dbg_uart_parser+0x2a0>)
 8002882:	6815      	ldr	r5, [r2, #0]
 8002884:	68a9      	ldr	r1, [r5, #8]
 8002886:	e004      	b.n	8002892 <dbg_uart_parser+0x5e>
 8002888:	68da      	ldr	r2, [r3, #12]
 800288a:	4294      	cmp	r4, r2
 800288c:	f1a2 030c 	sub.w	r3, r2, #12
 8002890:	d00d      	beq.n	80028ae <dbg_uart_parser+0x7a>
 8002892:	689a      	ldr	r2, [r3, #8]
 8002894:	4291      	cmp	r1, r2
 8002896:	d1f7      	bne.n	8002888 <dbg_uart_parser+0x54>
 8002898:	88a8      	ldrh	r0, [r5, #4]
 800289a:	889a      	ldrh	r2, [r3, #4]
 800289c:	4290      	cmp	r0, r2
 800289e:	d1f3      	bne.n	8002888 <dbg_uart_parser+0x54>
 80028a0:	691a      	ldr	r2, [r3, #16]
 80028a2:	4618      	mov	r0, r3
 80028a4:	68db      	ldr	r3, [r3, #12]
 80028a6:	605a      	str	r2, [r3, #4]
 80028a8:	6013      	str	r3, [r2, #0]
 80028aa:	f000 fe0b 	bl	80034c4 <free>
 80028ae:	b041      	add	sp, #260	; 0x104
 80028b0:	e8bd 8ff0 	ldmia.w	sp!, {r4, r5, r6, r7, r8, r9, sl, fp, pc}
 80028b4:	4d85      	ldr	r5, [pc, #532]	; (8002acc <dbg_uart_parser+0x298>)
 80028b6:	1da0      	adds	r0, r4, #6
 80028b8:	f000 fdce 	bl	8003458 <atoi>
 80028bc:	682b      	ldr	r3, [r5, #0]
 80028be:	07d9      	lsls	r1, r3, #31
 80028c0:	f100 8095 	bmi.w	80029ee <dbg_uart_parser+0x1ba>
 80028c4:	b2c0      	uxtb	r0, r0
 80028c6:	2801      	cmp	r0, #1
 80028c8:	f000 80bc 	beq.w	8002a44 <dbg_uart_parser+0x210>
 80028cc:	2802      	cmp	r0, #2
 80028ce:	d1ee      	bne.n	80028ae <dbg_uart_parser+0x7a>
 80028d0:	4c7f      	ldr	r4, [pc, #508]	; (8002ad0 <dbg_uart_parser+0x29c>)
 80028d2:	2300      	movs	r3, #0
 80028d4:	46e8      	mov	r8, sp
 80028d6:	f44f 62fa 	mov.w	r2, #2000	; 0x7d0
 80028da:	6825      	ldr	r5, [r4, #0]
 80028dc:	497e      	ldr	r1, [pc, #504]	; (8002ad8 <dbg_uart_parser+0x2a4>)
 80028de:	42a5      	cmp	r5, r4
 80028e0:	f8cd 300a 	str.w	r3, [sp, #10]
 80028e4:	f8cd 3006 	str.w	r3, [sp, #6]
 80028e8:	f8cd 300e 	str.w	r3, [sp, #14]
 80028ec:	f8ad 3012 	strh.w	r3, [sp, #18]
 80028f0:	f8c8 3000 	str.w	r3, [r8]
 80028f4:	f8a8 2004 	strh.w	r2, [r8, #4]
 80028f8:	f8c8 1008 	str.w	r1, [r8, #8]
 80028fc:	f000 80cb 	beq.w	8002a96 <dbg_uart_parser+0x262>
 8002900:	42ac      	cmp	r4, r5
 8002902:	f1a5 030c 	sub.w	r3, r5, #12
 8002906:	d106      	bne.n	8002916 <dbg_uart_parser+0xe2>
 8002908:	e0c5      	b.n	8002a96 <dbg_uart_parser+0x262>
 800290a:	68da      	ldr	r2, [r3, #12]
 800290c:	4294      	cmp	r4, r2
 800290e:	f1a2 030c 	sub.w	r3, r2, #12
 8002912:	f000 80c0 	beq.w	8002a96 <dbg_uart_parser+0x262>
 8002916:	689a      	ldr	r2, [r3, #8]
 8002918:	428a      	cmp	r2, r1
 800291a:	d1f6      	bne.n	800290a <dbg_uart_parser+0xd6>
 800291c:	889a      	ldrh	r2, [r3, #4]
 800291e:	f5b2 6ffa 	cmp.w	r2, #2000	; 0x7d0
 8002922:	d1f2      	bne.n	800290a <dbg_uart_parser+0xd6>
 8002924:	2600      	movs	r6, #0
 8002926:	e0c6      	b.n	8002ab6 <dbg_uart_parser+0x282>
 8002928:	f8df 91a0 	ldr.w	r9, [pc, #416]	; 8002acc <dbg_uart_parser+0x298>
 800292c:	4607      	mov	r7, r0
 800292e:	1d60      	adds	r0, r4, #5
 8002930:	f000 fd92 	bl	8003458 <atoi>
 8002934:	f8d9 3000 	ldr.w	r3, [r9]
 8002938:	07dc      	lsls	r4, r3, #31
 800293a:	d471      	bmi.n	8002a20 <dbg_uart_parser+0x1ec>
 800293c:	b2c0      	uxtb	r0, r0
 800293e:	2801      	cmp	r0, #1
 8002940:	d033      	beq.n	80029aa <dbg_uart_parser+0x176>
 8002942:	2802      	cmp	r0, #2
 8002944:	d1b3      	bne.n	80028ae <dbg_uart_parser+0x7a>
 8002946:	4d65      	ldr	r5, [pc, #404]	; (8002adc <dbg_uart_parser+0x2a8>)
 8002948:	46e8      	mov	r8, sp
 800294a:	ae40      	add	r6, sp, #256	; 0x100
 800294c:	f8df a1b4 	ldr.w	sl, [pc, #436]	; 8002b04 <dbg_uart_parser+0x2d0>
 8002950:	f8df b1b4 	ldr.w	fp, [pc, #436]	; 8002b08 <dbg_uart_parser+0x2d4>
 8002954:	4644      	mov	r4, r8
 8002956:	4659      	mov	r1, fp
 8002958:	2203      	movs	r2, #3
 800295a:	4628      	mov	r0, r5
 800295c:	f10b 0b18 	add.w	fp, fp, #24
 8002960:	f000 f9fa 	bl	8002d58 <dot>
 8002964:	f000 fa1e 	bl	8002da4 <sigmoid>
 8002968:	eca4 0b02 	vstmia	r4!, {d0}
 800296c:	42b4      	cmp	r4, r6
 800296e:	d1f2      	bne.n	8002956 <dbg_uart_parser+0x122>
 8002970:	2220      	movs	r2, #32
 8002972:	4651      	mov	r1, sl
 8002974:	4640      	mov	r0, r8
 8002976:	f000 f9ef 	bl	8002d58 <dot>
 800297a:	f000 fa13 	bl	8002da4 <sigmoid>
 800297e:	f8d9 3000 	ldr.w	r3, [r9]
 8002982:	07db      	lsls	r3, r3, #31
 8002984:	d445      	bmi.n	8002a12 <dbg_uart_parser+0x1de>
 8002986:	3701      	adds	r7, #1
 8002988:	3518      	adds	r5, #24
 800298a:	2f08      	cmp	r7, #8
 800298c:	d1e0      	bne.n	8002950 <dbg_uart_parser+0x11c>
 800298e:	f8d9 3000 	ldr.w	r3, [r9]
 8002992:	07d8      	lsls	r0, r3, #31
 8002994:	d58b      	bpl.n	80028ae <dbg_uart_parser+0x7a>
 8002996:	4852      	ldr	r0, [pc, #328]	; (8002ae0 <dbg_uart_parser+0x2ac>)
 8002998:	f001 f848 	bl	8003a2c <puts>
 800299c:	b041      	add	sp, #260	; 0x104
 800299e:	e8bd 8ff0 	ldmia.w	sp!, {r4, r5, r6, r7, r8, r9, sl, fp, pc}
 80029a2:	4850      	ldr	r0, [pc, #320]	; (8002ae4 <dbg_uart_parser+0x2b0>)
 80029a4:	f001 f842 	bl	8003a2c <puts>
 80029a8:	e762      	b.n	8002870 <dbg_uart_parser+0x3c>
 80029aa:	4c4c      	ldr	r4, [pc, #304]	; (8002adc <dbg_uart_parser+0x2a8>)
 80029ac:	4e4e      	ldr	r6, [pc, #312]	; (8002ae8 <dbg_uart_parser+0x2b4>)
 80029ae:	f104 05c0 	add.w	r5, r4, #192	; 0xc0
 80029b2:	4f4e      	ldr	r7, [pc, #312]	; (8002aec <dbg_uart_parser+0x2b8>)
 80029b4:	e001      	b.n	80029ba <dbg_uart_parser+0x186>
 80029b6:	42a5      	cmp	r5, r4
 80029b8:	d010      	beq.n	80029dc <dbg_uart_parser+0x1a8>
 80029ba:	4631      	mov	r1, r6
 80029bc:	4620      	mov	r0, r4
 80029be:	2203      	movs	r2, #3
 80029c0:	3418      	adds	r4, #24
 80029c2:	f000 fa0b 	bl	8002ddc <nn_predict>
 80029c6:	f8d9 3000 	ldr.w	r3, [r9]
 80029ca:	07d9      	lsls	r1, r3, #31
 80029cc:	d5f3      	bpl.n	80029b6 <dbg_uart_parser+0x182>
 80029ce:	4638      	mov	r0, r7
 80029d0:	ec53 2b10 	vmov	r2, r3, d0
 80029d4:	f000 ffc8 	bl	8003968 <printf>
 80029d8:	42a5      	cmp	r5, r4
 80029da:	d1ee      	bne.n	80029ba <dbg_uart_parser+0x186>
 80029dc:	f8d9 3000 	ldr.w	r3, [r9]
 80029e0:	07da      	lsls	r2, r3, #31
 80029e2:	f57f af64 	bpl.w	80028ae <dbg_uart_parser+0x7a>
 80029e6:	200a      	movs	r0, #10
 80029e8:	f000 ffd0 	bl	800398c <putchar>
 80029ec:	e7cf      	b.n	800298e <dbg_uart_parser+0x15a>
 80029ee:	b2c4      	uxtb	r4, r0
 80029f0:	483f      	ldr	r0, [pc, #252]	; (8002af0 <dbg_uart_parser+0x2bc>)
 80029f2:	4621      	mov	r1, r4
 80029f4:	f000 ffb8 	bl	8003968 <printf>
 80029f8:	2c01      	cmp	r4, #1
 80029fa:	d023      	beq.n	8002a44 <dbg_uart_parser+0x210>
 80029fc:	2c02      	cmp	r4, #2
 80029fe:	f43f af67 	beq.w	80028d0 <dbg_uart_parser+0x9c>
 8002a02:	682b      	ldr	r3, [r5, #0]
 8002a04:	07da      	lsls	r2, r3, #31
 8002a06:	f57f af52 	bpl.w	80028ae <dbg_uart_parser+0x7a>
 8002a0a:	483a      	ldr	r0, [pc, #232]	; (8002af4 <dbg_uart_parser+0x2c0>)
 8002a0c:	f001 f80e 	bl	8003a2c <puts>
 8002a10:	e74d      	b.n	80028ae <dbg_uart_parser+0x7a>
 8002a12:	4639      	mov	r1, r7
 8002a14:	4838      	ldr	r0, [pc, #224]	; (8002af8 <dbg_uart_parser+0x2c4>)
 8002a16:	ec53 2b10 	vmov	r2, r3, d0
 8002a1a:	f000 ffa5 	bl	8003968 <printf>
 8002a1e:	e7b2      	b.n	8002986 <dbg_uart_parser+0x152>
 8002a20:	b2c4      	uxtb	r4, r0
 8002a22:	4836      	ldr	r0, [pc, #216]	; (8002afc <dbg_uart_parser+0x2c8>)
 8002a24:	4621      	mov	r1, r4
 8002a26:	f000 ff9f 	bl	8003968 <printf>
 8002a2a:	2c01      	cmp	r4, #1
 8002a2c:	d0bd      	beq.n	80029aa <dbg_uart_parser+0x176>
 8002a2e:	2c02      	cmp	r4, #2
 8002a30:	d089      	beq.n	8002946 <dbg_uart_parser+0x112>
 8002a32:	f8d9 3000 	ldr.w	r3, [r9]
 8002a36:	07dc      	lsls	r4, r3, #31
 8002a38:	f57f af39 	bpl.w	80028ae <dbg_uart_parser+0x7a>
 8002a3c:	482d      	ldr	r0, [pc, #180]	; (8002af4 <dbg_uart_parser+0x2c0>)
 8002a3e:	f000 fff5 	bl	8003a2c <puts>
 8002a42:	e7a4      	b.n	800298e <dbg_uart_parser+0x15a>
 8002a44:	4c22      	ldr	r4, [pc, #136]	; (8002ad0 <dbg_uart_parser+0x29c>)
 8002a46:	2300      	movs	r3, #0
 8002a48:	46e8      	mov	r8, sp
 8002a4a:	f44f 62fa 	mov.w	r2, #2000	; 0x7d0
 8002a4e:	6825      	ldr	r5, [r4, #0]
 8002a50:	492b      	ldr	r1, [pc, #172]	; (8002b00 <dbg_uart_parser+0x2cc>)
 8002a52:	42a5      	cmp	r5, r4
 8002a54:	f8cd 300a 	str.w	r3, [sp, #10]
 8002a58:	f8cd 3006 	str.w	r3, [sp, #6]
 8002a5c:	f8cd 300e 	str.w	r3, [sp, #14]
 8002a60:	f8ad 3012 	strh.w	r3, [sp, #18]
 8002a64:	f8c8 3000 	str.w	r3, [r8]
 8002a68:	f8a8 2004 	strh.w	r2, [r8, #4]
 8002a6c:	f8c8 1008 	str.w	r1, [r8, #8]
 8002a70:	d011      	beq.n	8002a96 <dbg_uart_parser+0x262>
 8002a72:	42ac      	cmp	r4, r5
 8002a74:	f1a5 030c 	sub.w	r3, r5, #12
 8002a78:	d105      	bne.n	8002a86 <dbg_uart_parser+0x252>
 8002a7a:	e00c      	b.n	8002a96 <dbg_uart_parser+0x262>
 8002a7c:	68da      	ldr	r2, [r3, #12]
 8002a7e:	4294      	cmp	r4, r2
 8002a80:	f1a2 030c 	sub.w	r3, r2, #12
 8002a84:	d007      	beq.n	8002a96 <dbg_uart_parser+0x262>
 8002a86:	689a      	ldr	r2, [r3, #8]
 8002a88:	428a      	cmp	r2, r1
 8002a8a:	d1f7      	bne.n	8002a7c <dbg_uart_parser+0x248>
 8002a8c:	889a      	ldrh	r2, [r3, #4]
 8002a8e:	f5b2 6ffa 	cmp.w	r2, #2000	; 0x7d0
 8002a92:	d1f3      	bne.n	8002a7c <dbg_uart_parser+0x248>
 8002a94:	e746      	b.n	8002924 <dbg_uart_parser+0xf0>
 8002a96:	2014      	movs	r0, #20
 8002a98:	f000 fd0c 	bl	80034b4 <malloc>
 8002a9c:	f100 0c0c 	add.w	ip, r0, #12
 8002aa0:	4606      	mov	r6, r0
 8002aa2:	4607      	mov	r7, r0
 8002aa4:	e8b8 000f 	ldmia.w	r8!, {r0, r1, r2, r3}
 8002aa8:	f8c4 c000 	str.w	ip, [r4]
 8002aac:	c70f      	stmia	r7!, {r0, r1, r2, r3}
 8002aae:	f8c5 c004 	str.w	ip, [r5, #4]
 8002ab2:	e9c6 5403 	strd	r5, r4, [r6, #12]
 8002ab6:	4b07      	ldr	r3, [pc, #28]	; (8002ad4 <dbg_uart_parser+0x2a0>)
 8002ab8:	601e      	str	r6, [r3, #0]
 8002aba:	b041      	add	sp, #260	; 0x104
 8002abc:	e8bd 8ff0 	ldmia.w	sp!, {r4, r5, r6, r7, r8, r9, sl, fp, pc}
 8002ac0:	0800767c 	.word	0x0800767c
 8002ac4:	080076d0 	.word	0x080076d0
 8002ac8:	080076f8 	.word	0x080076f8
 8002acc:	200010b0 	.word	0x200010b0
 8002ad0:	200000f0 	.word	0x200000f0
 8002ad4:	2000102c 	.word	0x2000102c
 8002ad8:	08002719 	.word	0x08002719
 8002adc:	20000030 	.word	0x20000030
 8002ae0:	080076b8 	.word	0x080076b8
 8002ae4:	08007700 	.word	0x08007700
 8002ae8:	200000f8 	.word	0x200000f8
 8002aec:	08007740 	.word	0x08007740
 8002af0:	080076d8 	.word	0x080076d8
 8002af4:	080076a0 	.word	0x080076a0
 8002af8:	0800774c 	.word	0x0800774c
 8002afc:	08007684 	.word	0x08007684
 8002b00:	080026a9 	.word	0x080026a9
 8002b04:	20000410 	.word	0x20000410
 8002b08:	20000110 	.word	0x20000110

08002b0c <main>:
 8002b0c:	e92d 4880 	stmdb	sp!, {r7, fp, lr}
 8002b10:	b089      	sub	sp, #36	; 0x24
 8002b12:	f3bf 8f4f 	dsb	sy
 8002b16:	f3bf 8f6f 	isb	sy
 8002b1a:	4b6c      	ldr	r3, [pc, #432]	; (8002ccc <main+0x1c0>)
 8002b1c:	2100      	movs	r1, #0
 8002b1e:	f8c3 1250 	str.w	r1, [r3, #592]	; 0x250
 8002b22:	f3bf 8f4f 	dsb	sy
 8002b26:	f3bf 8f6f 	isb	sy
 8002b2a:	695a      	ldr	r2, [r3, #20]
 8002b2c:	f442 3200 	orr.w	r2, r2, #131072	; 0x20000
 8002b30:	615a      	str	r2, [r3, #20]
 8002b32:	f3bf 8f4f 	dsb	sy
 8002b36:	f3bf 8f6f 	isb	sy
 8002b3a:	f8c3 1084 	str.w	r1, [r3, #132]	; 0x84
 8002b3e:	f3bf 8f4f 	dsb	sy
 8002b42:	f8d3 2080 	ldr.w	r2, [r3, #128]	; 0x80
 8002b46:	f643 77e0 	movw	r7, #16352	; 0x3fe0
 8002b4a:	f3c2 05c9 	ubfx	r5, r2, #3, #10
 8002b4e:	f3c2 324e 	ubfx	r2, r2, #13, #15
 8002b52:	07ae      	lsls	r6, r5, #30
 8002b54:	0152      	lsls	r2, r2, #5
 8002b56:	ea02 0c07 	and.w	ip, r2, r7
 8002b5a:	4630      	mov	r0, r6
 8002b5c:	4629      	mov	r1, r5
 8002b5e:	ea4c 0400 	orr.w	r4, ip, r0
 8002b62:	3901      	subs	r1, #1
 8002b64:	f100 4040 	add.w	r0, r0, #3221225472	; 0xc0000000
 8002b68:	f8c3 4260 	str.w	r4, [r3, #608]	; 0x260
 8002b6c:	1c4c      	adds	r4, r1, #1
 8002b6e:	d1f6      	bne.n	8002b5e <main+0x52>
 8002b70:	3a20      	subs	r2, #32
 8002b72:	f112 0f20 	cmn.w	r2, #32
 8002b76:	d1ee      	bne.n	8002b56 <main+0x4a>
 8002b78:	f3bf 8f4f 	dsb	sy
 8002b7c:	695a      	ldr	r2, [r3, #20]
 8002b7e:	f442 3280 	orr.w	r2, r2, #65536	; 0x10000
 8002b82:	615a      	str	r2, [r3, #20]
 8002b84:	f3bf 8f4f 	dsb	sy
 8002b88:	f3bf 8f6f 	isb	sy
 8002b8c:	f7fe f9d0 	bl	8000f30 <HAL_Init>
 8002b90:	2400      	movs	r4, #0
 8002b92:	f7ff fdfb 	bl	800278c <SystemClock_Config>
 8002b96:	4b4e      	ldr	r3, [pc, #312]	; (8002cd0 <main+0x1c4>)
 8002b98:	9404      	str	r4, [sp, #16]
 8002b9a:	4622      	mov	r2, r4
 8002b9c:	9407      	str	r4, [sp, #28]
 8002b9e:	2180      	movs	r1, #128	; 0x80
 8002ba0:	9403      	str	r4, [sp, #12]
 8002ba2:	2601      	movs	r6, #1
 8002ba4:	4d4b      	ldr	r5, [pc, #300]	; (8002cd4 <main+0x1c8>)
 8002ba6:	f8df a148 	ldr.w	sl, [pc, #328]	; 8002cf0 <main+0x1e4>
 8002baa:	e9cd 4405 	strd	r4, r4, [sp, #20]
 8002bae:	6b18      	ldr	r0, [r3, #48]	; 0x30
 8002bb0:	f040 0004 	orr.w	r0, r0, #4
 8002bb4:	6318      	str	r0, [r3, #48]	; 0x30
 8002bb6:	6b18      	ldr	r0, [r3, #48]	; 0x30
 8002bb8:	f000 0004 	and.w	r0, r0, #4
 8002bbc:	9001      	str	r0, [sp, #4]
 8002bbe:	9801      	ldr	r0, [sp, #4]
 8002bc0:	6b18      	ldr	r0, [r3, #48]	; 0x30
 8002bc2:	f040 0040 	orr.w	r0, r0, #64	; 0x40
 8002bc6:	6318      	str	r0, [r3, #48]	; 0x30
 8002bc8:	6b1b      	ldr	r3, [r3, #48]	; 0x30
 8002bca:	4843      	ldr	r0, [pc, #268]	; (8002cd8 <main+0x1cc>)
 8002bcc:	f003 0340 	and.w	r3, r3, #64	; 0x40
 8002bd0:	9302      	str	r3, [sp, #8]
 8002bd2:	9b02      	ldr	r3, [sp, #8]
 8002bd4:	f7fe fb6c 	bl	80012b0 <HAL_GPIO_WritePin>
 8002bd8:	2380      	movs	r3, #128	; 0x80
 8002bda:	a903      	add	r1, sp, #12
 8002bdc:	483e      	ldr	r0, [pc, #248]	; (8002cd8 <main+0x1cc>)
 8002bde:	e9cd 3603 	strd	r3, r6, [sp, #12]
 8002be2:	e9cd 4405 	strd	r4, r4, [sp, #20]
 8002be6:	f7fe fa45 	bl	8001074 <HAL_GPIO_Init>
 8002bea:	f44f 32e1 	mov.w	r2, #115200	; 0x1c200
 8002bee:	493b      	ldr	r1, [pc, #236]	; (8002cdc <main+0x1d0>)
 8002bf0:	230c      	movs	r3, #12
 8002bf2:	4628      	mov	r0, r5
 8002bf4:	612c      	str	r4, [r5, #16]
 8002bf6:	616b      	str	r3, [r5, #20]
 8002bf8:	e9c5 1200 	strd	r1, r2, [r5]
 8002bfc:	e9c5 4402 	strd	r4, r4, [r5, #8]
 8002c00:	e9c5 4406 	strd	r4, r4, [r5, #24]
 8002c04:	e9c5 4408 	strd	r4, r4, [r5, #32]
 8002c08:	f7ff fb7a 	bl	8002300 <HAL_UART_Init>
 8002c0c:	f8da 3000 	ldr.w	r3, [sl]
 8002c10:	4632      	mov	r2, r6
 8002c12:	4628      	mov	r0, r5
 8002c14:	4333      	orrs	r3, r6
 8002c16:	4932      	ldr	r1, [pc, #200]	; (8002ce0 <main+0x1d4>)
 8002c18:	f8ca 3000 	str.w	r3, [sl]
 8002c1c:	f7ff f99e 	bl	8001f5c <HAL_UART_Receive_IT>
 8002c20:	f8da 3000 	ldr.w	r3, [sl]
 8002c24:	07da      	lsls	r2, r3, #31
 8002c26:	d502      	bpl.n	8002c2e <main+0x122>
 8002c28:	482e      	ldr	r0, [pc, #184]	; (8002ce4 <main+0x1d8>)
 8002c2a:	f000 feff 	bl	8003a2c <puts>
 8002c2e:	f8df 80c4 	ldr.w	r8, [pc, #196]	; 8002cf4 <main+0x1e8>
 8002c32:	2600      	movs	r6, #0
 8002c34:	4d2c      	ldr	r5, [pc, #176]	; (8002ce8 <main+0x1dc>)
 8002c36:	4f2d      	ldr	r7, [pc, #180]	; (8002cec <main+0x1e0>)
 8002c38:	f8df 90bc 	ldr.w	r9, [pc, #188]	; 8002cf8 <main+0x1ec>
 8002c3c:	f8df b0bc 	ldr.w	fp, [pc, #188]	; 8002cfc <main+0x1f0>
 8002c40:	f8d8 3000 	ldr.w	r3, [r8]
 8002c44:	2b00      	cmp	r3, #0
 8002c46:	d0fb      	beq.n	8002c40 <main+0x134>
 8002c48:	682b      	ldr	r3, [r5, #0]
 8002c4a:	f8c8 6000 	str.w	r6, [r8]
 8002c4e:	42ab      	cmp	r3, r5
 8002c50:	d013      	beq.n	8002c7a <main+0x16e>
 8002c52:	429d      	cmp	r5, r3
 8002c54:	f1a3 040c 	sub.w	r4, r3, #12
 8002c58:	d00f      	beq.n	8002c7a <main+0x16e>
 8002c5a:	88e3      	ldrh	r3, [r4, #6]
 8002c5c:	88a2      	ldrh	r2, [r4, #4]
 8002c5e:	3301      	adds	r3, #1
 8002c60:	b29b      	uxth	r3, r3
 8002c62:	429a      	cmp	r2, r3
 8002c64:	80e3      	strh	r3, [r4, #6]
 8002c66:	d825      	bhi.n	8002cb4 <main+0x1a8>
 8002c68:	68a3      	ldr	r3, [r4, #8]
 8002c6a:	80e6      	strh	r6, [r4, #6]
 8002c6c:	6820      	ldr	r0, [r4, #0]
 8002c6e:	4798      	blx	r3
 8002c70:	68e3      	ldr	r3, [r4, #12]
 8002c72:	429d      	cmp	r5, r3
 8002c74:	f1a3 040c 	sub.w	r4, r3, #12
 8002c78:	d1ef      	bne.n	8002c5a <main+0x14e>
 8002c7a:	683b      	ldr	r3, [r7, #0]
 8002c7c:	b1e3      	cbz	r3, 8002cb8 <main+0x1ac>
 8002c7e:	683b      	ldr	r3, [r7, #0]
 8002c80:	3b01      	subs	r3, #1
 8002c82:	603b      	str	r3, [r7, #0]
 8002c84:	683b      	ldr	r3, [r7, #0]
 8002c86:	2b01      	cmp	r3, #1
 8002c88:	d1da      	bne.n	8002c40 <main+0x134>
 8002c8a:	603e      	str	r6, [r7, #0]
 8002c8c:	f8d9 2014 	ldr.w	r2, [r9, #20]
 8002c90:	f8b9 301e 	ldrh.w	r3, [r9, #30]
 8002c94:	b29b      	uxth	r3, r3
 8002c96:	54d6      	strb	r6, [r2, r3]
 8002c98:	f8da 3000 	ldr.w	r3, [sl]
 8002c9c:	07db      	lsls	r3, r3, #31
 8002c9e:	d40f      	bmi.n	8002cc0 <main+0x1b4>
 8002ca0:	f8d9 0014 	ldr.w	r0, [r9, #20]
 8002ca4:	2200      	movs	r2, #0
 8002ca6:	f8b9 101e 	ldrh.w	r1, [r9, #30]
 8002caa:	f7ff fdc3 	bl	8002834 <dbg_uart_parser>
 8002cae:	f8a9 601e 	strh.w	r6, [r9, #30]
 8002cb2:	e7c5      	b.n	8002c40 <main+0x134>
 8002cb4:	68e3      	ldr	r3, [r4, #12]
 8002cb6:	e7cc      	b.n	8002c52 <main+0x146>
 8002cb8:	683b      	ldr	r3, [r7, #0]
 8002cba:	2b01      	cmp	r3, #1
 8002cbc:	d1c0      	bne.n	8002c40 <main+0x134>
 8002cbe:	e7e4      	b.n	8002c8a <main+0x17e>
 8002cc0:	f8d9 1014 	ldr.w	r1, [r9, #20]
 8002cc4:	4658      	mov	r0, fp
 8002cc6:	f000 fe4f 	bl	8003968 <printf>
 8002cca:	e7e9      	b.n	8002ca0 <main+0x194>
 8002ccc:	e000ed00 	.word	0xe000ed00
 8002cd0:	40023800 	.word	0x40023800
 8002cd4:	20001030 	.word	0x20001030
 8002cd8:	40021800 	.word	0x40021800
 8002cdc:	40011400 	.word	0x40011400
 8002ce0:	20000eec 	.word	0x20000eec
 8002ce4:	0800771c 	.word	0x0800771c
 8002ce8:	200000f0 	.word	0x200000f0
 8002cec:	20000ee8 	.word	0x20000ee8
 8002cf0:	200010b0 	.word	0x200010b0
 8002cf4:	20000ee4 	.word	0x20000ee4
 8002cf8:	20000008 	.word	0x20000008
 8002cfc:	08007730 	.word	0x08007730

08002d00 <HAL_UART_RxCpltCallback>:
 8002d00:	b470      	push	{r4, r5, r6}
 8002d02:	4b09      	ldr	r3, [pc, #36]	; (8002d28 <HAL_UART_RxCpltCallback+0x28>)
 8002d04:	210a      	movs	r1, #10
 8002d06:	4c09      	ldr	r4, [pc, #36]	; (8002d2c <HAL_UART_RxCpltCallback+0x2c>)
 8002d08:	2201      	movs	r2, #1
 8002d0a:	6019      	str	r1, [r3, #0]
 8002d0c:	4908      	ldr	r1, [pc, #32]	; (8002d30 <HAL_UART_RxCpltCallback+0x30>)
 8002d0e:	6965      	ldr	r5, [r4, #20]
 8002d10:	8be3      	ldrh	r3, [r4, #30]
 8002d12:	780e      	ldrb	r6, [r1, #0]
 8002d14:	b2db      	uxtb	r3, r3
 8002d16:	4807      	ldr	r0, [pc, #28]	; (8002d34 <HAL_UART_RxCpltCallback+0x34>)
 8002d18:	54ee      	strb	r6, [r5, r3]
 8002d1a:	8be3      	ldrh	r3, [r4, #30]
 8002d1c:	4413      	add	r3, r2
 8002d1e:	b29b      	uxth	r3, r3
 8002d20:	83e3      	strh	r3, [r4, #30]
 8002d22:	bc70      	pop	{r4, r5, r6}
 8002d24:	f7ff b91a 	b.w	8001f5c <HAL_UART_Receive_IT>
 8002d28:	20000ee8 	.word	0x20000ee8
 8002d2c:	20000008 	.word	0x20000008
 8002d30:	20000eec 	.word	0x20000eec
 8002d34:	20001030 	.word	0x20001030

08002d38 <__io_putchar>:
 8002d38:	b500      	push	{lr}
 8002d3a:	b083      	sub	sp, #12
 8002d3c:	230a      	movs	r3, #10
 8002d3e:	2201      	movs	r2, #1
 8002d40:	a902      	add	r1, sp, #8
 8002d42:	f841 0d04 	str.w	r0, [r1, #-4]!
 8002d46:	4803      	ldr	r0, [pc, #12]	; (8002d54 <__io_putchar+0x1c>)
 8002d48:	f7ff f87c 	bl	8001e44 <HAL_UART_Transmit>
 8002d4c:	9801      	ldr	r0, [sp, #4]
 8002d4e:	b003      	add	sp, #12
 8002d50:	f85d fb04 	ldr.w	pc, [sp], #4
 8002d54:	20001030 	.word	0x20001030

08002d58 <dot>:
 8002d58:	e92d 41f0 	stmdb	sp!, {r4, r5, r6, r7, r8, lr}
 8002d5c:	f1b2 0800 	subs.w	r8, r2, #0
 8002d60:	dd19      	ble.n	8002d96 <dot+0x3e>
 8002d62:	4604      	mov	r4, r0
 8002d64:	460d      	mov	r5, r1
 8002d66:	2600      	movs	r6, #0
 8002d68:	2700      	movs	r7, #0
 8002d6a:	eb00 08c8 	add.w	r8, r0, r8, lsl #3
 8002d6e:	e8f5 2302 	ldrd	r2, r3, [r5], #8
 8002d72:	e8f4 0102 	ldrd	r0, r1, [r4], #8
 8002d76:	f7fd fc5f 	bl	8000638 <__aeabi_dmul>
 8002d7a:	4602      	mov	r2, r0
 8002d7c:	460b      	mov	r3, r1
 8002d7e:	4630      	mov	r0, r6
 8002d80:	4639      	mov	r1, r7
 8002d82:	f7fd faa3 	bl	80002cc <__adddf3>
 8002d86:	45a0      	cmp	r8, r4
 8002d88:	4606      	mov	r6, r0
 8002d8a:	460f      	mov	r7, r1
 8002d8c:	d1ef      	bne.n	8002d6e <dot+0x16>
 8002d8e:	ec47 6b10 	vmov	d0, r6, r7
 8002d92:	e8bd 81f0 	ldmia.w	sp!, {r4, r5, r6, r7, r8, pc}
 8002d96:	2600      	movs	r6, #0
 8002d98:	2700      	movs	r7, #0
 8002d9a:	ec47 6b10 	vmov	d0, r6, r7
 8002d9e:	e8bd 81f0 	ldmia.w	sp!, {r4, r5, r6, r7, r8, pc}
 8002da2:	bf00      	nop

08002da4 <sigmoid>:
 8002da4:	ec51 0b10 	vmov	r0, r1, d0
 8002da8:	b508      	push	{r3, lr}
 8002daa:	ee10 2a10 	vmov	r2, s0
 8002dae:	f101 4300 	add.w	r3, r1, #2147483648	; 0x80000000
 8002db2:	ec43 2b10 	vmov	d0, r2, r3
 8002db6:	f000 f95b 	bl	8003070 <exp>
 8002dba:	2200      	movs	r2, #0
 8002dbc:	4b06      	ldr	r3, [pc, #24]	; (8002dd8 <sigmoid+0x34>)
 8002dbe:	ec51 0b10 	vmov	r0, r1, d0
 8002dc2:	f7fd fa83 	bl	80002cc <__adddf3>
 8002dc6:	4602      	mov	r2, r0
 8002dc8:	460b      	mov	r3, r1
 8002dca:	2000      	movs	r0, #0
 8002dcc:	4902      	ldr	r1, [pc, #8]	; (8002dd8 <sigmoid+0x34>)
 8002dce:	f7fd fd5d 	bl	800088c <__aeabi_ddiv>
 8002dd2:	ec41 0b10 	vmov	d0, r0, r1
 8002dd6:	bd08      	pop	{r3, pc}
 8002dd8:	3ff00000 	.word	0x3ff00000

08002ddc <nn_predict>:
 8002ddc:	2a00      	cmp	r2, #0
 8002dde:	e92d 41f0 	stmdb	sp!, {r4, r5, r6, r7, r8, lr}
 8002de2:	dd2c      	ble.n	8002e3e <nn_predict+0x62>
 8002de4:	4604      	mov	r4, r0
 8002de6:	460d      	mov	r5, r1
 8002de8:	2600      	movs	r6, #0
 8002dea:	2700      	movs	r7, #0
 8002dec:	eb00 08c2 	add.w	r8, r0, r2, lsl #3
 8002df0:	e8f5 2302 	ldrd	r2, r3, [r5], #8
 8002df4:	e8f4 0102 	ldrd	r0, r1, [r4], #8
 8002df8:	f7fd fc1e 	bl	8000638 <__aeabi_dmul>
 8002dfc:	4602      	mov	r2, r0
 8002dfe:	460b      	mov	r3, r1
 8002e00:	4630      	mov	r0, r6
 8002e02:	4639      	mov	r1, r7
 8002e04:	f7fd fa62 	bl	80002cc <__adddf3>
 8002e08:	45a0      	cmp	r8, r4
 8002e0a:	4606      	mov	r6, r0
 8002e0c:	460f      	mov	r7, r1
 8002e0e:	d1ef      	bne.n	8002df0 <nn_predict+0x14>
 8002e10:	4602      	mov	r2, r0
 8002e12:	f101 4300 	add.w	r3, r1, #2147483648	; 0x80000000
 8002e16:	ec43 2b10 	vmov	d0, r2, r3
 8002e1a:	f000 f929 	bl	8003070 <exp>
 8002e1e:	2200      	movs	r2, #0
 8002e20:	4b09      	ldr	r3, [pc, #36]	; (8002e48 <nn_predict+0x6c>)
 8002e22:	ec51 0b10 	vmov	r0, r1, d0
 8002e26:	f7fd fa51 	bl	80002cc <__adddf3>
 8002e2a:	4602      	mov	r2, r0
 8002e2c:	460b      	mov	r3, r1
 8002e2e:	2000      	movs	r0, #0
 8002e30:	4905      	ldr	r1, [pc, #20]	; (8002e48 <nn_predict+0x6c>)
 8002e32:	f7fd fd2b 	bl	800088c <__aeabi_ddiv>
 8002e36:	ec41 0b10 	vmov	d0, r0, r1
 8002e3a:	e8bd 81f0 	ldmia.w	sp!, {r4, r5, r6, r7, r8, pc}
 8002e3e:	2200      	movs	r2, #0
 8002e40:	f04f 4300 	mov.w	r3, #2147483648	; 0x80000000
 8002e44:	e7e7      	b.n	8002e16 <nn_predict+0x3a>
 8002e46:	bf00      	nop
 8002e48:	3ff00000 	.word	0x3ff00000

08002e4c <HAL_MspInit>:
 8002e4c:	4b0a      	ldr	r3, [pc, #40]	; (8002e78 <HAL_MspInit+0x2c>)
 8002e4e:	b082      	sub	sp, #8
 8002e50:	6c1a      	ldr	r2, [r3, #64]	; 0x40
 8002e52:	f042 5280 	orr.w	r2, r2, #268435456	; 0x10000000
 8002e56:	641a      	str	r2, [r3, #64]	; 0x40
 8002e58:	6c1a      	ldr	r2, [r3, #64]	; 0x40
 8002e5a:	f002 5280 	and.w	r2, r2, #268435456	; 0x10000000
 8002e5e:	9200      	str	r2, [sp, #0]
 8002e60:	9a00      	ldr	r2, [sp, #0]
 8002e62:	6c5a      	ldr	r2, [r3, #68]	; 0x44
 8002e64:	f442 4280 	orr.w	r2, r2, #16384	; 0x4000
 8002e68:	645a      	str	r2, [r3, #68]	; 0x44
 8002e6a:	6c5b      	ldr	r3, [r3, #68]	; 0x44
 8002e6c:	f403 4380 	and.w	r3, r3, #16384	; 0x4000
 8002e70:	9301      	str	r3, [sp, #4]
 8002e72:	9b01      	ldr	r3, [sp, #4]
 8002e74:	b002      	add	sp, #8
 8002e76:	4770      	bx	lr
 8002e78:	40023800 	.word	0x40023800

08002e7c <HAL_UART_MspInit>:
 8002e7c:	6802      	ldr	r2, [r0, #0]
 8002e7e:	4b1c      	ldr	r3, [pc, #112]	; (8002ef0 <HAL_UART_MspInit+0x74>)
 8002e80:	b570      	push	{r4, r5, r6, lr}
 8002e82:	429a      	cmp	r2, r3
 8002e84:	b088      	sub	sp, #32
 8002e86:	f04f 0400 	mov.w	r4, #0
 8002e8a:	e9cd 4403 	strd	r4, r4, [sp, #12]
 8002e8e:	e9cd 4405 	strd	r4, r4, [sp, #20]
 8002e92:	9407      	str	r4, [sp, #28]
 8002e94:	d001      	beq.n	8002e9a <HAL_UART_MspInit+0x1e>
 8002e96:	b008      	add	sp, #32
 8002e98:	bd70      	pop	{r4, r5, r6, pc}
 8002e9a:	f503 3392 	add.w	r3, r3, #74752	; 0x12400
 8002e9e:	2002      	movs	r0, #2
 8002ea0:	26c0      	movs	r6, #192	; 0xc0
 8002ea2:	2503      	movs	r5, #3
 8002ea4:	6c5a      	ldr	r2, [r3, #68]	; 0x44
 8002ea6:	a903      	add	r1, sp, #12
 8002ea8:	f042 0220 	orr.w	r2, r2, #32
 8002eac:	645a      	str	r2, [r3, #68]	; 0x44
 8002eae:	6c5a      	ldr	r2, [r3, #68]	; 0x44
 8002eb0:	f002 0220 	and.w	r2, r2, #32
 8002eb4:	9201      	str	r2, [sp, #4]
 8002eb6:	9a01      	ldr	r2, [sp, #4]
 8002eb8:	6b1a      	ldr	r2, [r3, #48]	; 0x30
 8002eba:	f042 0204 	orr.w	r2, r2, #4
 8002ebe:	631a      	str	r2, [r3, #48]	; 0x30
 8002ec0:	2208      	movs	r2, #8
 8002ec2:	6b1b      	ldr	r3, [r3, #48]	; 0x30
 8002ec4:	9004      	str	r0, [sp, #16]
 8002ec6:	f003 0304 	and.w	r3, r3, #4
 8002eca:	480a      	ldr	r0, [pc, #40]	; (8002ef4 <HAL_UART_MspInit+0x78>)
 8002ecc:	9603      	str	r6, [sp, #12]
 8002ece:	9302      	str	r3, [sp, #8]
 8002ed0:	9b02      	ldr	r3, [sp, #8]
 8002ed2:	e9cd 5206 	strd	r5, r2, [sp, #24]
 8002ed6:	f7fe f8cd 	bl	8001074 <HAL_GPIO_Init>
 8002eda:	4622      	mov	r2, r4
 8002edc:	4621      	mov	r1, r4
 8002ede:	2047      	movs	r0, #71	; 0x47
 8002ee0:	f7fe f858 	bl	8000f94 <HAL_NVIC_SetPriority>
 8002ee4:	2047      	movs	r0, #71	; 0x47
 8002ee6:	f7fe f88b 	bl	8001000 <HAL_NVIC_EnableIRQ>
 8002eea:	b008      	add	sp, #32
 8002eec:	bd70      	pop	{r4, r5, r6, pc}
 8002eee:	bf00      	nop
 8002ef0:	40011400 	.word	0x40011400
 8002ef4:	40020800 	.word	0x40020800

08002ef8 <NMI_Handler>:
 8002ef8:	4770      	bx	lr
 8002efa:	bf00      	nop

08002efc <HardFault_Handler>:
 8002efc:	e7fe      	b.n	8002efc <HardFault_Handler>
 8002efe:	bf00      	nop

08002f00 <MemManage_Handler>:
 8002f00:	e7fe      	b.n	8002f00 <MemManage_Handler>
 8002f02:	bf00      	nop

08002f04 <BusFault_Handler>:
 8002f04:	e7fe      	b.n	8002f04 <BusFault_Handler>
 8002f06:	bf00      	nop

08002f08 <UsageFault_Handler>:
 8002f08:	e7fe      	b.n	8002f08 <UsageFault_Handler>
 8002f0a:	bf00      	nop

08002f0c <SVC_Handler>:
 8002f0c:	4770      	bx	lr
 8002f0e:	bf00      	nop

08002f10 <DebugMon_Handler>:
 8002f10:	4770      	bx	lr
 8002f12:	bf00      	nop

08002f14 <PendSV_Handler>:
 8002f14:	4770      	bx	lr
 8002f16:	bf00      	nop

08002f18 <SysTick_Handler>:
 8002f18:	b508      	push	{r3, lr}
 8002f1a:	f7fe f815 	bl	8000f48 <HAL_IncTick>
 8002f1e:	4a02      	ldr	r2, [pc, #8]	; (8002f28 <SysTick_Handler+0x10>)
 8002f20:	6813      	ldr	r3, [r2, #0]
 8002f22:	3301      	adds	r3, #1
 8002f24:	6013      	str	r3, [r2, #0]
 8002f26:	bd08      	pop	{r3, pc}
 8002f28:	20000ee4 	.word	0x20000ee4

08002f2c <USART6_IRQHandler>:
 8002f2c:	4801      	ldr	r0, [pc, #4]	; (8002f34 <USART6_IRQHandler+0x8>)
 8002f2e:	f7ff b8e3 	b.w	80020f8 <HAL_UART_IRQHandler>
 8002f32:	bf00      	nop
 8002f34:	20001030 	.word	0x20001030

08002f38 <_read>:
 8002f38:	b570      	push	{r4, r5, r6, lr}
 8002f3a:	1e16      	subs	r6, r2, #0
 8002f3c:	dd07      	ble.n	8002f4e <_read+0x16>
 8002f3e:	460c      	mov	r4, r1
 8002f40:	198d      	adds	r5, r1, r6
 8002f42:	f3af 8000 	nop.w
 8002f46:	f804 0b01 	strb.w	r0, [r4], #1
 8002f4a:	42a5      	cmp	r5, r4
 8002f4c:	d1f9      	bne.n	8002f42 <_read+0xa>
 8002f4e:	4630      	mov	r0, r6
 8002f50:	bd70      	pop	{r4, r5, r6, pc}
 8002f52:	bf00      	nop

08002f54 <_write>:
 8002f54:	b570      	push	{r4, r5, r6, lr}
 8002f56:	1e16      	subs	r6, r2, #0
 8002f58:	dd07      	ble.n	8002f6a <_write+0x16>
 8002f5a:	460c      	mov	r4, r1
 8002f5c:	198d      	adds	r5, r1, r6
 8002f5e:	f814 0b01 	ldrb.w	r0, [r4], #1
 8002f62:	f7ff fee9 	bl	8002d38 <__io_putchar>
 8002f66:	42ac      	cmp	r4, r5
 8002f68:	d1f9      	bne.n	8002f5e <_write+0xa>
 8002f6a:	4630      	mov	r0, r6
 8002f6c:	bd70      	pop	{r4, r5, r6, pc}
 8002f6e:	bf00      	nop

08002f70 <_close>:
 8002f70:	f04f 30ff 	mov.w	r0, #4294967295	; 0xffffffff
 8002f74:	4770      	bx	lr
 8002f76:	bf00      	nop

08002f78 <_fstat>:
 8002f78:	f44f 5300 	mov.w	r3, #8192	; 0x2000
 8002f7c:	2000      	movs	r0, #0
 8002f7e:	604b      	str	r3, [r1, #4]
 8002f80:	4770      	bx	lr
 8002f82:	bf00      	nop

08002f84 <_isatty>:
 8002f84:	2001      	movs	r0, #1
 8002f86:	4770      	bx	lr

08002f88 <_lseek>:
 8002f88:	2000      	movs	r0, #0
 8002f8a:	4770      	bx	lr

08002f8c <_sbrk>:
 8002f8c:	4a0c      	ldr	r2, [pc, #48]	; (8002fc0 <_sbrk+0x34>)
 8002f8e:	b508      	push	{r3, lr}
 8002f90:	6813      	ldr	r3, [r2, #0]
 8002f92:	b133      	cbz	r3, 8002fa2 <_sbrk+0x16>
 8002f94:	4418      	add	r0, r3
 8002f96:	4669      	mov	r1, sp
 8002f98:	4288      	cmp	r0, r1
 8002f9a:	d809      	bhi.n	8002fb0 <_sbrk+0x24>
 8002f9c:	6010      	str	r0, [r2, #0]
 8002f9e:	4618      	mov	r0, r3
 8002fa0:	bd08      	pop	{r3, pc}
 8002fa2:	4908      	ldr	r1, [pc, #32]	; (8002fc4 <_sbrk+0x38>)
 8002fa4:	460b      	mov	r3, r1
 8002fa6:	6011      	str	r1, [r2, #0]
 8002fa8:	4669      	mov	r1, sp
 8002faa:	4418      	add	r0, r3
 8002fac:	4288      	cmp	r0, r1
 8002fae:	d9f5      	bls.n	8002f9c <_sbrk+0x10>
 8002fb0:	f000 fa56 	bl	8003460 <__errno>
 8002fb4:	220c      	movs	r2, #12
 8002fb6:	f04f 33ff 	mov.w	r3, #4294967295	; 0xffffffff
 8002fba:	6002      	str	r2, [r0, #0]
 8002fbc:	4618      	mov	r0, r3
 8002fbe:	bd08      	pop	{r3, pc}
 8002fc0:	20000ef0 	.word	0x20000ef0
 8002fc4:	200011c8 	.word	0x200011c8

08002fc8 <SystemInit>:
 8002fc8:	4a0f      	ldr	r2, [pc, #60]	; (8003008 <SystemInit+0x40>)
 8002fca:	4b10      	ldr	r3, [pc, #64]	; (800300c <SystemInit+0x44>)
 8002fcc:	f8d2 0088 	ldr.w	r0, [r2, #136]	; 0x88
 8002fd0:	490f      	ldr	r1, [pc, #60]	; (8003010 <SystemInit+0x48>)
 8002fd2:	f440 0070 	orr.w	r0, r0, #15728640	; 0xf00000
 8002fd6:	b470      	push	{r4, r5, r6}
 8002fd8:	f8c2 0088 	str.w	r0, [r2, #136]	; 0x88
 8002fdc:	2400      	movs	r4, #0
 8002fde:	6818      	ldr	r0, [r3, #0]
 8002fe0:	f04f 6500 	mov.w	r5, #134217728	; 0x8000000
 8002fe4:	4e0b      	ldr	r6, [pc, #44]	; (8003014 <SystemInit+0x4c>)
 8002fe6:	f040 0001 	orr.w	r0, r0, #1
 8002fea:	6018      	str	r0, [r3, #0]
 8002fec:	609c      	str	r4, [r3, #8]
 8002fee:	6818      	ldr	r0, [r3, #0]
 8002ff0:	4001      	ands	r1, r0
 8002ff2:	6019      	str	r1, [r3, #0]
 8002ff4:	605e      	str	r6, [r3, #4]
 8002ff6:	6819      	ldr	r1, [r3, #0]
 8002ff8:	f421 2180 	bic.w	r1, r1, #262144	; 0x40000
 8002ffc:	6019      	str	r1, [r3, #0]
 8002ffe:	60dc      	str	r4, [r3, #12]
 8003000:	6095      	str	r5, [r2, #8]
 8003002:	bc70      	pop	{r4, r5, r6}
 8003004:	4770      	bx	lr
 8003006:	bf00      	nop
 8003008:	e000ed00 	.word	0xe000ed00
 800300c:	40023800 	.word	0x40023800
 8003010:	fef6ffff 	.word	0xfef6ffff
 8003014:	24003010 	.word	0x24003010

08003018 <Reset_Handler>:
 8003018:	f8df d034 	ldr.w	sp, [pc, #52]	; 8003050 <LoopFillZerobss+0x14>
 800301c:	2100      	movs	r1, #0
 800301e:	e003      	b.n	8003028 <LoopCopyDataInit>

08003020 <CopyDataInit>:
 8003020:	4b0c      	ldr	r3, [pc, #48]	; (8003054 <LoopFillZerobss+0x18>)
 8003022:	585b      	ldr	r3, [r3, r1]
 8003024:	5043      	str	r3, [r0, r1]
 8003026:	3104      	adds	r1, #4

08003028 <LoopCopyDataInit>:
 8003028:	480b      	ldr	r0, [pc, #44]	; (8003058 <LoopFillZerobss+0x1c>)
 800302a:	4b0c      	ldr	r3, [pc, #48]	; (800305c <LoopFillZerobss+0x20>)
 800302c:	1842      	adds	r2, r0, r1
 800302e:	429a      	cmp	r2, r3
 8003030:	d3f6      	bcc.n	8003020 <CopyDataInit>
 8003032:	4a0b      	ldr	r2, [pc, #44]	; (8003060 <LoopFillZerobss+0x24>)
 8003034:	e002      	b.n	800303c <LoopFillZerobss>

08003036 <FillZerobss>:
 8003036:	2300      	movs	r3, #0
 8003038:	f842 3b04 	str.w	r3, [r2], #4

0800303c <LoopFillZerobss>:
 800303c:	4b09      	ldr	r3, [pc, #36]	; (8003064 <LoopFillZerobss+0x28>)
 800303e:	429a      	cmp	r2, r3
 8003040:	d3f9      	bcc.n	8003036 <FillZerobss>
 8003042:	f7ff ffc1 	bl	8002fc8 <SystemInit>
 8003046:	f000 fa11 	bl	800346c <__libc_init_array>
 800304a:	f7ff fd5f 	bl	8002b0c <main>
 800304e:	4770      	bx	lr
 8003050:	20050000 	.word	0x20050000
 8003054:	08007a34 	.word	0x08007a34
 8003058:	20000000 	.word	0x20000000
 800305c:	20000ec8 	.word	0x20000ec8
 8003060:	20000ec8 	.word	0x20000ec8
 8003064:	200011c4 	.word	0x200011c4

08003068 <ADC_IRQHandler>:
 8003068:	e7fe      	b.n	8003068 <ADC_IRQHandler>
 800306a:	0000      	movs	r0, r0
 800306c:	0000      	movs	r0, r0
	...

08003070 <exp>:
 8003070:	b5f0      	push	{r4, r5, r6, r7, lr}
 8003072:	ed2d 8b02 	vpush	{d8}
 8003076:	4e38      	ldr	r6, [pc, #224]	; (8003158 <exp+0xe8>)
 8003078:	b08b      	sub	sp, #44	; 0x2c
 800307a:	ec55 4b10 	vmov	r4, r5, d0
 800307e:	f000 f873 	bl	8003168 <__ieee754_exp>
 8003082:	f996 3000 	ldrsb.w	r3, [r6]
 8003086:	eeb0 8a40 	vmov.f32	s16, s0
 800308a:	eef0 8a60 	vmov.f32	s17, s1
 800308e:	3301      	adds	r3, #1
 8003090:	d02c      	beq.n	80030ec <exp+0x7c>
 8003092:	ec45 4b10 	vmov	d0, r4, r5
 8003096:	f000 f9d5 	bl	8003444 <finite>
 800309a:	b338      	cbz	r0, 80030ec <exp+0x7c>
 800309c:	a32a      	add	r3, pc, #168	; (adr r3, 8003148 <exp+0xd8>)
 800309e:	e9d3 2300 	ldrd	r2, r3, [r3]
 80030a2:	4620      	mov	r0, r4
 80030a4:	4629      	mov	r1, r5
 80030a6:	f7fd fd57 	bl	8000b58 <__aeabi_dcmpgt>
 80030aa:	4607      	mov	r7, r0
 80030ac:	2800      	cmp	r0, #0
 80030ae:	d030      	beq.n	8003112 <exp+0xa2>
 80030b0:	2303      	movs	r3, #3
 80030b2:	9300      	str	r3, [sp, #0]
 80030b4:	4b29      	ldr	r3, [pc, #164]	; (800315c <exp+0xec>)
 80030b6:	9301      	str	r3, [sp, #4]
 80030b8:	2300      	movs	r3, #0
 80030ba:	9308      	str	r3, [sp, #32]
 80030bc:	f996 3000 	ldrsb.w	r3, [r6]
 80030c0:	e9cd 4504 	strd	r4, r5, [sp, #16]
 80030c4:	e9cd 4502 	strd	r4, r5, [sp, #8]
 80030c8:	b9c3      	cbnz	r3, 80030fc <exp+0x8c>
 80030ca:	4b25      	ldr	r3, [pc, #148]	; (8003160 <exp+0xf0>)
 80030cc:	f04f 4260 	mov.w	r2, #3758096384	; 0xe0000000
 80030d0:	e9cd 2306 	strd	r2, r3, [sp, #24]
 80030d4:	4668      	mov	r0, sp
 80030d6:	f000 f9bd 	bl	8003454 <matherr>
 80030da:	b1a8      	cbz	r0, 8003108 <exp+0x98>
 80030dc:	9b08      	ldr	r3, [sp, #32]
 80030de:	b11b      	cbz	r3, 80030e8 <exp+0x78>
 80030e0:	f000 f9be 	bl	8003460 <__errno>
 80030e4:	9b08      	ldr	r3, [sp, #32]
 80030e6:	6003      	str	r3, [r0, #0]
 80030e8:	ed9d 8b06 	vldr	d8, [sp, #24]
 80030ec:	eeb0 0a48 	vmov.f32	s0, s16
 80030f0:	eef0 0a68 	vmov.f32	s1, s17
 80030f4:	b00b      	add	sp, #44	; 0x2c
 80030f6:	ecbd 8b02 	vpop	{d8}
 80030fa:	bdf0      	pop	{r4, r5, r6, r7, pc}
 80030fc:	4919      	ldr	r1, [pc, #100]	; (8003164 <exp+0xf4>)
 80030fe:	2000      	movs	r0, #0
 8003100:	e9cd 0106 	strd	r0, r1, [sp, #24]
 8003104:	2b02      	cmp	r3, #2
 8003106:	d1e5      	bne.n	80030d4 <exp+0x64>
 8003108:	f000 f9aa 	bl	8003460 <__errno>
 800310c:	2322      	movs	r3, #34	; 0x22
 800310e:	6003      	str	r3, [r0, #0]
 8003110:	e7e4      	b.n	80030dc <exp+0x6c>
 8003112:	a30f      	add	r3, pc, #60	; (adr r3, 8003150 <exp+0xe0>)
 8003114:	e9d3 2300 	ldrd	r2, r3, [r3]
 8003118:	4620      	mov	r0, r4
 800311a:	4629      	mov	r1, r5
 800311c:	f7fd fcfe 	bl	8000b1c <__aeabi_dcmplt>
 8003120:	2800      	cmp	r0, #0
 8003122:	d0e3      	beq.n	80030ec <exp+0x7c>
 8003124:	2304      	movs	r3, #4
 8003126:	9300      	str	r3, [sp, #0]
 8003128:	4b0c      	ldr	r3, [pc, #48]	; (800315c <exp+0xec>)
 800312a:	9301      	str	r3, [sp, #4]
 800312c:	2200      	movs	r2, #0
 800312e:	2300      	movs	r3, #0
 8003130:	e9cd 2306 	strd	r2, r3, [sp, #24]
 8003134:	9708      	str	r7, [sp, #32]
 8003136:	e9cd 4504 	strd	r4, r5, [sp, #16]
 800313a:	e9cd 4502 	strd	r4, r5, [sp, #8]
 800313e:	f996 3000 	ldrsb.w	r3, [r6]
 8003142:	e7df      	b.n	8003104 <exp+0x94>
 8003144:	f3af 8000 	nop.w
 8003148:	fefa39ef 	.word	0xfefa39ef
 800314c:	40862e42 	.word	0x40862e42
 8003150:	d52d3051 	.word	0xd52d3051
 8003154:	c0874910 	.word	0xc0874910
 8003158:	20000514 	.word	0x20000514
 800315c:	08007774 	.word	0x08007774
 8003160:	47efffff 	.word	0x47efffff
 8003164:	7ff00000 	.word	0x7ff00000

08003168 <__ieee754_exp>:
 8003168:	e92d 47ff 	stmdb	sp!, {r0, r1, r2, r3, r4, r5, r6, r7, r8, r9, sl, lr}
 800316c:	ec55 4b10 	vmov	r4, r5, d0
 8003170:	4aab      	ldr	r2, [pc, #684]	; (8003420 <__ieee754_exp+0x2b8>)
 8003172:	f025 4600 	bic.w	r6, r5, #2147483648	; 0x80000000
 8003176:	4296      	cmp	r6, r2
 8003178:	ea4f 77d5 	mov.w	r7, r5, lsr #31
 800317c:	d932      	bls.n	80031e4 <__ieee754_exp+0x7c>
 800317e:	4aa9      	ldr	r2, [pc, #676]	; (8003424 <__ieee754_exp+0x2bc>)
 8003180:	4296      	cmp	r6, r2
 8003182:	d913      	bls.n	80031ac <__ieee754_exp+0x44>
 8003184:	f3c5 0313 	ubfx	r3, r5, #0, #20
 8003188:	4323      	orrs	r3, r4
 800318a:	ee10 2a10 	vmov	r2, s0
 800318e:	d007      	beq.n	80031a0 <__ieee754_exp+0x38>
 8003190:	462b      	mov	r3, r5
 8003192:	4620      	mov	r0, r4
